{
  "_format": "hh-sol-artifact-1",
  "contractName": "BloodDonation",
  "sourceName": "contracts/BloodDonation.sol",
  "abi": [
    {
      "inputs": [],
      "stateMutability": "nonpayable",
      "type": "constructor"
    },
    {
      "anonymous": false,
      "inputs": [
        {
          "indexed": true,
          "internalType": "address",
          "name": "owner",
          "type": "address"
        },
        {
          "indexed": true,
          "internalType": "address",
          "name": "approved",
          "type": "address"
        },
        {
          "indexed": true,
          "internalType": "uint256",
          "name": "tokenId",
          "type": "uint256"
        }
      ],
      "name": "Approval",
      "type": "event"
    },
    {
      "anonymous": false,
      "inputs": [
        {
          "indexed": true,
          "internalType": "address",
          "name": "owner",
          "type": "address"
        },
        {
          "indexed": true,
          "internalType": "address",
          "name": "operator",
          "type": "address"
        },
        {
          "indexed": false,
          "internalType": "bool",
          "name": "approved",
          "type": "bool"
        }
      ],
      "name": "ApprovalForAll",
      "type": "event"
    },
    {
      "anonymous": false,
      "inputs": [
        {
          "indexed": true,
          "internalType": "uint256",
          "name": "tokenId",
          "type": "uint256"
        },
        {
          "indexed": false,
          "internalType": "string",
          "name": "photo",
          "type": "string"
        },
        {
          "indexed": false,
          "internalType": "string",
          "name": "title",
          "type": "string"
        },
        {
          "indexed": false,
          "internalType": "string",
          "name": "location",
          "type": "string"
        },
        {
          "indexed": false,
          "internalType": "string",
          "name": "description",
          "type": "string"
        },
        {
          "indexed": false,
          "internalType": "uint256",
          "name": "timestamp",
          "type": "uint256"
        }
      ],
      "name": "BDUploaded",
      "type": "event"
    },
    {
      "anonymous": false,
      "inputs": [
        {
          "indexed": true,
          "internalType": "bytes32",
          "name": "role",
          "type": "bytes32"
        },
        {
          "indexed": true,
          "internalType": "bytes32",
          "name": "previousAdminRole",
          "type": "bytes32"
        },
        {
          "indexed": true,
          "internalType": "bytes32",
          "name": "newAdminRole",
          "type": "bytes32"
        }
      ],
      "name": "RoleAdminChanged",
      "type": "event"
    },
    {
      "anonymous": false,
      "inputs": [
        {
          "indexed": true,
          "internalType": "bytes32",
          "name": "role",
          "type": "bytes32"
        },
        {
          "indexed": true,
          "internalType": "address",
          "name": "account",
          "type": "address"
        },
        {
          "indexed": true,
          "internalType": "address",
          "name": "sender",
          "type": "address"
        }
      ],
      "name": "RoleGranted",
      "type": "event"
    },
    {
      "anonymous": false,
      "inputs": [
        {
          "indexed": true,
          "internalType": "bytes32",
          "name": "role",
          "type": "bytes32"
        },
        {
          "indexed": true,
          "internalType": "address",
          "name": "account",
          "type": "address"
        },
        {
          "indexed": true,
          "internalType": "address",
          "name": "sender",
          "type": "address"
        }
      ],
      "name": "RoleRevoked",
      "type": "event"
    },
    {
      "anonymous": false,
      "inputs": [
        {
          "indexed": true,
          "internalType": "address",
          "name": "from",
          "type": "address"
        },
        {
          "indexed": true,
          "internalType": "address",
          "name": "to",
          "type": "address"
        },
        {
          "indexed": true,
          "internalType": "uint256",
          "name": "tokenId",
          "type": "uint256"
        }
      ],
      "name": "Transfer",
      "type": "event"
    },
    {
      "inputs": [],
      "name": "DEFAULT_ADMIN_ROLE",
      "outputs": [
        {
          "internalType": "bytes32",
          "name": "",
          "type": "bytes32"
        }
      ],
      "stateMutability": "view",
      "type": "function"
    },
    {
      "inputs": [],
      "name": "HOSPITAL",
      "outputs": [
        {
          "internalType": "bytes32",
          "name": "",
          "type": "bytes32"
        }
      ],
      "stateMutability": "view",
      "type": "function"
    },
    {
      "inputs": [],
      "name": "REDCROSS",
      "outputs": [
        {
          "internalType": "bytes32",
          "name": "",
          "type": "bytes32"
        }
      ],
      "stateMutability": "view",
      "type": "function"
    },
    {
      "inputs": [],
      "name": "_notUsedPhotoURI",
      "outputs": [
        {
          "internalType": "string",
          "name": "",
          "type": "string"
        }
      ],
      "stateMutability": "view",
      "type": "function"
    },
    {
      "inputs": [],
      "name": "_usedPhotoURI",
      "outputs": [
        {
          "internalType": "string",
          "name": "",
          "type": "string"
        }
      ],
      "stateMutability": "view",
      "type": "function"
    },
    {
      "inputs": [
        {
          "internalType": "address",
          "name": "account",
          "type": "address"
        }
      ],
      "name": "addAdmin",
      "outputs": [],
      "stateMutability": "nonpayable",
      "type": "function"
    },
    {
      "inputs": [
        {
          "internalType": "address",
          "name": "to",
          "type": "address"
        },
        {
          "internalType": "uint256",
          "name": "tokenId",
          "type": "uint256"
        }
      ],
      "name": "approve",
      "outputs": [],
      "stateMutability": "nonpayable",
      "type": "function"
    },
    {
      "inputs": [
        {
          "internalType": "address",
          "name": "owner",
          "type": "address"
        }
      ],
      "name": "balanceOf",
      "outputs": [
        {
          "internalType": "uint256",
          "name": "",
          "type": "uint256"
        }
      ],
      "stateMutability": "view",
      "type": "function"
    },
    {
      "inputs": [
        {
          "internalType": "address",
          "name": "account",
          "type": "address"
        }
      ],
      "name": "checkAdminRole",
      "outputs": [],
      "stateMutability": "view",
      "type": "function"
    },
    {
      "inputs": [
        {
          "internalType": "address",
          "name": "account",
          "type": "address"
        }
      ],
      "name": "checkHospitalRole",
      "outputs": [],
      "stateMutability": "view",
      "type": "function"
    },
    {
      "inputs": [
        {
          "internalType": "address",
          "name": "account",
          "type": "address"
        }
      ],
      "name": "checkRedCrossRole",
      "outputs": [],
      "stateMutability": "view",
      "type": "function"
    },
    {
      "inputs": [
        {
          "internalType": "uint256",
          "name": "tokenId",
          "type": "uint256"
        }
      ],
      "name": "getApproved",
      "outputs": [
        {
          "internalType": "address",
          "name": "",
          "type": "address"
        }
      ],
      "stateMutability": "view",
      "type": "function"
    },
    {
      "inputs": [
        {
          "internalType": "uint256",
          "name": "tokenId",
          "type": "uint256"
        }
      ],
      "name": "getBD",
      "outputs": [
        {
          "internalType": "uint256",
          "name": "",
          "type": "uint256"
        },
        {
          "internalType": "address[]",
          "name": "",
          "type": "address[]"
        },
        {
          "internalType": "string",
          "name": "",
          "type": "string"
        },
        {
          "internalType": "string",
          "name": "",
          "type": "string"
        },
        {
          "internalType": "string",
          "name": "",
          "type": "string"
        },
        {
          "internalType": "string",
          "name": "",
          "type": "string"
        },
        {
          "internalType": "uint256",
          "name": "",
          "type": "uint256"
        }
      ],
      "stateMutability": "view",
      "type": "function"
    },
    {
      "inputs": [
        {
          "internalType": "bytes32",
          "name": "role",
          "type": "bytes32"
        }
      ],
      "name": "getRoleAdmin",
      "outputs": [
        {
          "internalType": "bytes32",
          "name": "",
          "type": "bytes32"
        }
      ],
      "stateMutability": "view",
      "type": "function"
    },
    {
      "inputs": [],
      "name": "getTotalBDCount",
      "outputs": [
        {
          "internalType": "uint256",
          "name": "",
          "type": "uint256"
        }
      ],
      "stateMutability": "view",
      "type": "function"
    },
    {
      "inputs": [
        {
          "internalType": "address",
          "name": "account",
          "type": "address"
        }
      ],
      "name": "grantHospitalRole",
      "outputs": [],
      "stateMutability": "nonpayable",
      "type": "function"
    },
    {
      "inputs": [
        {
          "internalType": "address",
          "name": "account",
          "type": "address"
        }
      ],
      "name": "grantRedCrossRole",
      "outputs": [],
      "stateMutability": "nonpayable",
      "type": "function"
    },
    {
      "inputs": [
        {
          "internalType": "bytes32",
          "name": "role",
          "type": "bytes32"
        },
        {
          "internalType": "address",
          "name": "account",
          "type": "address"
        }
      ],
      "name": "grantRole",
      "outputs": [],
      "stateMutability": "nonpayable",
      "type": "function"
    },
    {
      "inputs": [
        {
          "internalType": "bytes32",
          "name": "role",
          "type": "bytes32"
        },
        {
          "internalType": "address",
          "name": "account",
          "type": "address"
        }
      ],
      "name": "hasRole",
      "outputs": [
        {
          "internalType": "bool",
          "name": "",
          "type": "bool"
        }
      ],
      "stateMutability": "view",
      "type": "function"
    },
    {
      "inputs": [
        {
          "internalType": "address",
          "name": "owner",
          "type": "address"
        },
        {
          "internalType": "address",
          "name": "operator",
          "type": "address"
        }
      ],
      "name": "isApprovedForAll",
      "outputs": [
        {
          "internalType": "bool",
          "name": "",
          "type": "bool"
        }
      ],
      "stateMutability": "view",
      "type": "function"
    },
    {
      "inputs": [
        {
          "internalType": "string",
          "name": "title",
          "type": "string"
        },
        {
          "internalType": "string",
          "name": "location",
          "type": "string"
        },
        {
          "internalType": "string",
          "name": "description",
          "type": "string"
        },
        {
          "internalType": "address",
          "name": "to",
          "type": "address"
        }
      ],
      "name": "mintBD",
      "outputs": [],
      "stateMutability": "nonpayable",
      "type": "function"
    },
    {
      "inputs": [],
      "name": "name",
      "outputs": [
        {
          "internalType": "string",
          "name": "",
          "type": "string"
        }
      ],
      "stateMutability": "view",
      "type": "function"
    },
    {
      "inputs": [
        {
          "internalType": "uint256",
          "name": "tokenId",
          "type": "uint256"
        }
      ],
      "name": "ownerOf",
      "outputs": [
        {
          "internalType": "address",
          "name": "",
          "type": "address"
        }
      ],
      "stateMutability": "view",
      "type": "function"
    },
    {
      "inputs": [],
      "name": "renounceAdmin",
      "outputs": [],
      "stateMutability": "nonpayable",
      "type": "function"
    },
    {
      "inputs": [
        {
          "internalType": "bytes32",
          "name": "role",
          "type": "bytes32"
        },
        {
          "internalType": "address",
          "name": "account",
          "type": "address"
        }
      ],
      "name": "renounceRole",
      "outputs": [],
      "stateMutability": "nonpayable",
      "type": "function"
    },
    {
      "inputs": [
        {
          "internalType": "bytes32",
          "name": "role",
          "type": "bytes32"
        },
        {
          "internalType": "address",
          "name": "account",
          "type": "address"
        }
      ],
      "name": "revokeRole",
      "outputs": [],
      "stateMutability": "nonpayable",
      "type": "function"
    },
    {
      "inputs": [
        {
          "internalType": "address",
          "name": "from",
          "type": "address"
        },
        {
          "internalType": "address",
          "name": "to",
          "type": "address"
        },
        {
          "internalType": "uint256",
          "name": "tokenId",
          "type": "uint256"
        }
      ],
      "name": "safeTransferFrom",
      "outputs": [],
      "stateMutability": "nonpayable",
      "type": "function"
    },
    {
      "inputs": [
        {
          "internalType": "address",
          "name": "from",
          "type": "address"
        },
        {
          "internalType": "address",
          "name": "to",
          "type": "address"
        },
        {
          "internalType": "uint256",
          "name": "tokenId",
          "type": "uint256"
        },
        {
          "internalType": "bytes",
          "name": "data",
          "type": "bytes"
        }
      ],
      "name": "safeTransferFrom",
      "outputs": [],
      "stateMutability": "nonpayable",
      "type": "function"
    },
    {
      "inputs": [
        {
          "internalType": "address",
          "name": "operator",
          "type": "address"
        },
        {
          "internalType": "bool",
          "name": "approved",
          "type": "bool"
        }
      ],
      "name": "setApprovalForAll",
      "outputs": [],
      "stateMutability": "nonpayable",
      "type": "function"
    },
    {
      "inputs": [
        {
          "internalType": "string",
          "name": "_newNotUsedURI",
          "type": "string"
        }
      ],
      "name": "setNotUsedURI",
      "outputs": [],
      "stateMutability": "nonpayable",
      "type": "function"
    },
    {
      "inputs": [
        {
          "internalType": "string",
          "name": "_newUsedURI",
          "type": "string"
        }
      ],
      "name": "setUsedURI",
      "outputs": [],
      "stateMutability": "nonpayable",
      "type": "function"
    },
    {
      "inputs": [
        {
          "internalType": "bytes4",
          "name": "interfaceId",
          "type": "bytes4"
        }
      ],
      "name": "supportsInterface",
      "outputs": [
        {
          "internalType": "bool",
          "name": "",
          "type": "bool"
        }
      ],
      "stateMutability": "view",
      "type": "function"
    },
    {
      "inputs": [],
      "name": "symbol",
      "outputs": [
        {
          "internalType": "string",
          "name": "",
          "type": "string"
        }
      ],
      "stateMutability": "view",
      "type": "function"
    },
    {
      "inputs": [
        {
          "internalType": "uint256",
          "name": "index",
          "type": "uint256"
        }
      ],
      "name": "tokenByIndex",
      "outputs": [
        {
          "internalType": "uint256",
          "name": "",
          "type": "uint256"
        }
      ],
      "stateMutability": "view",
      "type": "function"
    },
    {
      "inputs": [
        {
          "internalType": "address",
          "name": "owner",
          "type": "address"
        },
        {
          "internalType": "uint256",
          "name": "index",
          "type": "uint256"
        }
      ],
      "name": "tokenOfOwnerByIndex",
      "outputs": [
        {
          "internalType": "uint256",
          "name": "",
          "type": "uint256"
        }
      ],
      "stateMutability": "view",
      "type": "function"
    },
    {
      "inputs": [
        {
          "internalType": "uint256",
          "name": "tokenId",
          "type": "uint256"
        }
      ],
      "name": "tokenURI",
      "outputs": [
        {
          "internalType": "string",
          "name": "",
          "type": "string"
        }
      ],
      "stateMutability": "view",
      "type": "function"
    },
    {
      "inputs": [],
      "name": "totalSupply",
      "outputs": [
        {
          "internalType": "uint256",
          "name": "",
          "type": "uint256"
        }
      ],
      "stateMutability": "view",
      "type": "function"
    },
    {
      "inputs": [
        {
          "internalType": "address",
          "name": "from",
          "type": "address"
        },
        {
          "internalType": "address",
          "name": "to",
          "type": "address"
        },
        {
          "internalType": "uint256",
          "name": "tokenId",
          "type": "uint256"
        }
      ],
      "name": "transferFrom",
      "outputs": [],
      "stateMutability": "nonpayable",
      "type": "function"
    },
    {
      "inputs": [
        {
          "internalType": "uint256",
          "name": "tokenId",
          "type": "uint256"
        },
        {
          "internalType": "address",
          "name": "to",
          "type": "address"
        }
      ],
      "name": "transferOwnership",
      "outputs": [
        {
          "internalType": "uint256",
          "name": "",
          "type": "uint256"
        },
        {
          "internalType": "address",
          "name": "",
          "type": "address"
        },
        {
          "internalType": "address",
          "name": "",
          "type": "address"
        },
        {
          "internalType": "address",
          "name": "",
          "type": "address"
        }
      ],
      "stateMutability": "nonpayable",
      "type": "function"
    },
    {
      "inputs": [
        {
          "internalType": "uint256",
          "name": "tokenId",
          "type": "uint256"
        }
      ],
      "name": "use",
      "outputs": [],
      "stateMutability": "nonpayable",
      "type": "function"
    },
    {
      "inputs": [],
      "name": "used",
      "outputs": [
        {
          "internalType": "bool",
          "name": "",
          "type": "bool"
        }
      ],
      "stateMutability": "view",
      "type": "function"
    }
  ],
  "bytecode": "0x6080604052604051806060016040528060358152602001620055c360359139600c90816200002e919062000525565b50604051806060016040528060358152602001620055c360359139600d908162000059919062000525565b506000600e60006101000a81548160ff0219169083151502179055503480156200008257600080fd5b506040518060400160405280600d81526020017f426c6f6f64446f6e6174696f6e000000000000000000000000000000000000008152506040518060400160405280600581526020017f42444e4654000000000000000000000000000000000000000000000000000000815250816000908162000100919062000525565b50806001908162000112919062000525565b5050506200012a6000801b336200013060201b60201c565b6200060c565b6200014282826200014660201b60201c565b5050565b6200015882826200023860201b60201c565b62000234576001600a600084815260200190815260200160002060000160008373ffffffffffffffffffffffffffffffffffffffff1673ffffffffffffffffffffffffffffffffffffffff16815260200190815260200160002060006101000a81548160ff021916908315150217905550620001d9620002a360201b60201c565b73ffffffffffffffffffffffffffffffffffffffff168173ffffffffffffffffffffffffffffffffffffffff16837f2f8788117e7eff1d82e926ec794901d17c78024a50270940304540a733656f0d60405160405180910390a45b5050565b6000600a600084815260200190815260200160002060000160008373ffffffffffffffffffffffffffffffffffffffff1673ffffffffffffffffffffffffffffffffffffffff16815260200190815260200160002060009054906101000a900460ff16905092915050565b600033905090565b600081519050919050565b7f4e487b7100000000000000000000000000000000000000000000000000000000600052604160045260246000fd5b7f4e487b7100000000000000000000000000000000000000000000000000000000600052602260045260246000fd5b600060028204905060018216806200032d57607f821691505b602082108103620003435762000342620002e5565b5b50919050565b60008190508160005260206000209050919050565b60006020601f8301049050919050565b600082821b905092915050565b600060088302620003ad7fffffffffffffffffffffffffffffffffffffffffffffffffffffffffffffffff826200036e565b620003b986836200036e565b95508019841693508086168417925050509392505050565b6000819050919050565b6000819050919050565b60006200040662000400620003fa84620003d1565b620003db565b620003d1565b9050919050565b6000819050919050565b6200042283620003e5565b6200043a62000431826200040d565b8484546200037b565b825550505050565b600090565b6200045162000442565b6200045e81848462000417565b505050565b5b8181101562000486576200047a60008262000447565b60018101905062000464565b5050565b601f821115620004d5576200049f8162000349565b620004aa846200035e565b81016020851015620004ba578190505b620004d2620004c9856200035e565b83018262000463565b50505b505050565b600082821c905092915050565b6000620004fa60001984600802620004da565b1980831691505092915050565b6000620005158383620004e7565b9150826002028217905092915050565b6200053082620002ab565b67ffffffffffffffff8111156200054c576200054b620002b6565b5b62000558825462000314565b620005658282856200048a565b600060209050601f8311600181146200059d576000841562000588578287015190505b62000594858262000507565b86555062000604565b601f198416620005ad8662000349565b60005b82811015620005d757848901518255600182019150602085019450602081019050620005b0565b86831015620005f75784890151620005f3601f891682620004e7565b8355505b6001600288020188555050505b505050505050565b614fa7806200061c6000396000f3fe608060405234801561001057600080fd5b50600436106102535760003560e01c80636352211e11610146578063a0562f69116100c3578063b88d4fde11610087578063b88d4fde146106e5578063c87b56dd14610701578063d547741f14610731578063e386be2e1461074d578063e985e9c514610769578063ed54e96a1461079957610253565b8063a0562f6914610655578063a217fddf14610671578063a22cb4651461068f578063ab5b4456146106ab578063b0806ea7146106c757610253565b80637def89281161010a5780637def8928146105c55780637ee756f2146105e15780638bad0c0a146105fd57806391d148541461060757806395d89b411461063757610253565b80636352211e1461050f57806363898e2b1461053f578063704802751461055d57806370a08231146105795780637b3dc4ef146105a957610253565b80632de31f3c116101d457806342842e0e1161019857806342842e0e1461046b5780634f6ccce71461048757806354d0c549146104b75780635bf47d9d146104d55780635dd9727d146104f157610253565b80632de31f3c146103c95780632f2ff15d146103e75780632f745c5914610403578063353acb331461043357806336568abe1461044f57610253565b806323b872dd1161021b57806323b872dd14610310578063248a9ca31461032c57806327bbe7ee1461035c578063280a337d1461037a57806329507f731461039657610253565b806301ffc9a71461025857806306fdde0314610288578063081812fc146102a6578063095ea7b3146102d657806318160ddd146102f2575b600080fd5b610272600480360381019061026d91906134a9565b6107cf565b60405161027f91906134f1565b60405180910390f35b6102906107e1565b60405161029d919061359c565b60405180910390f35b6102c060048036038101906102bb91906135f4565b610873565b6040516102cd9190613662565b60405180910390f35b6102f060048036038101906102eb91906136a9565b6108b9565b005b6102fa6109d0565b60405161030791906136f8565b60405180910390f35b61032a60048036038101906103259190613713565b6109dd565b005b6103466004803603810190610341919061379c565b610a64565b60405161035391906137d8565b60405180910390f35b610364610a84565b60405161037191906137d8565b60405180910390f35b610394600480360381019061038f91906137f3565b610aa8565b005b6103b060048036038101906103ab9190613820565b610ae3565b6040516103c09493929190613860565b60405180910390f35b6103d1610c4d565b6040516103de919061359c565b60405180910390f35b61040160048036038101906103fc91906138a5565b610cdf565b005b61041d600480360381019061041891906136a9565b610d00565b60405161042a91906136f8565b60405180910390f35b61044d60048036038101906104489190613a1a565b610da5565b005b610469600480360381019061046491906138a5565b611040565b005b61048560048036038101906104809190613713565b6110c3565b005b6104a1600480360381019061049c91906135f4565b6110e3565b6040516104ae91906136f8565b60405180910390f35b6104bf611154565b6040516104cc919061359c565b60405180910390f35b6104ef60048036038101906104ea9190613ad5565b6111e6565b005b6104f9611207565b60405161050691906136f8565b60405180910390f35b610529600480360381019061052491906135f4565b611216565b6040516105369190613662565b60405180910390f35b6105476112c7565b60405161055491906134f1565b60405180910390f35b610577600480360381019061057291906137f3565b6112da565b005b610593600480360381019061058e91906137f3565b6112f8565b6040516105a091906136f8565b60405180910390f35b6105c360048036038101906105be91906137f3565b6113af565b005b6105df60048036038101906105da9190613ad5565b6113dc565b005b6105fb60048036038101906105f691906137f3565b6113fd565b005b610605611438565b005b610621600480360381019061061c91906138a5565b611455565b60405161062e91906134f1565b60405180910390f35b61063f6114c0565b60405161064c919061359c565b60405180910390f35b61066f600480360381019061066a91906137f3565b611552565b005b61067961157f565b60405161068691906137d8565b60405180910390f35b6106a960048036038101906106a49190613b4a565b611586565b005b6106c560048036038101906106c091906135f4565b61159c565b005b6106cf61176b565b6040516106dc91906137d8565b60405180910390f35b6106ff60048036038101906106fa9190613c2b565b61178f565b005b61071b600480360381019061071691906135f4565b6117f1565b604051610728919061359c565b60405180910390f35b61074b600480360381019061074691906138a5565b611859565b005b610767600480360381019061076291906137f3565b61187a565b005b610783600480360381019061077e9190613cae565b61188a565b60405161079091906134f1565b60405180910390f35b6107b360048036038101906107ae91906135f4565b61191e565b6040516107c69796959493929190613dac565b60405180910390f35b60006107da82611cef565b9050919050565b6060600080546107f090613e6d565b80601f016020809104026020016040519081016040528092919081815260200182805461081c90613e6d565b80156108695780601f1061083e57610100808354040283529160200191610869565b820191906000526020600020905b81548152906001019060200180831161084c57829003601f168201915b5050505050905090565b600061087e82611d69565b6004600083815260200190815260200160002060009054906101000a900473ffffffffffffffffffffffffffffffffffffffff169050919050565b60006108c482611216565b90508073ffffffffffffffffffffffffffffffffffffffff168373ffffffffffffffffffffffffffffffffffffffff1603610934576040517f08c379a000000000000000000000000000000000000000000000000000000000815260040161092b90613f10565b60405180910390fd5b8073ffffffffffffffffffffffffffffffffffffffff16610953611db4565b73ffffffffffffffffffffffffffffffffffffffff16148061098257506109818161097c611db4565b61188a565b5b6109c1576040517f08c379a00000000000000000000000000000000000000000000000000000000081526004016109b890613fa2565b60405180910390fd5b6109cb8383611dbc565b505050565b6000600880549050905090565b6109e8838383611e75565b600b6000828152602001908152602001600020600101829080600181540180825580915050600190039060005260206000200160009091909190916101000a81548173ffffffffffffffffffffffffffffffffffffffff021916908373ffffffffffffffffffffffffffffffffffffffff160217905550505050565b6000600a6000838152602001908152602001600020600101549050919050565b7f72d66193ff00a845b4aed5f27e02d9b558ef32be1495a41d00c5c5fb191a076381565b6000801b610ab581611ed5565b610adf7f60460dbe4b1f79d9efa1691d671057dc56200fed92b7dc0eb552fafb819b082c83610cdf565b5050565b600080600080610af43386886110c3565b6000600b6000888152602001908152602001600020600101805490509050600b600088815260200190815260200160002060000154600b6000898152602001908152602001600020600101600081548110610b5257610b51613fc2565b5b9060005260206000200160009054906101000a900473ffffffffffffffffffffffffffffffffffffffff16600b60008a8152602001908152602001600020600101600284610ba09190614020565b81548110610bb157610bb0613fc2565b5b9060005260206000200160009054906101000a900473ffffffffffffffffffffffffffffffffffffffff16600b60008b8152602001908152602001600020600101600185610bff9190614020565b81548110610c1057610c0f613fc2565b5b9060005260206000200160009054906101000a900473ffffffffffffffffffffffffffffffffffffffff1694509450945094505092959194509250565b6060600d8054610c5c90613e6d565b80601f0160208091040260200160405190810160405280929190818152602001828054610c8890613e6d565b8015610cd55780601f10610caa57610100808354040283529160200191610cd5565b820191906000526020600020905b815481529060010190602001808311610cb857829003601f168201915b5050505050905090565b610ce882610a64565b610cf181611ed5565b610cfb8383611ee9565b505050565b6000610d0b836112f8565b8210610d4c576040517f08c379a0000000000000000000000000000000000000000000000000000000008152600401610d43906140c6565b60405180910390fd5b600660008473ffffffffffffffffffffffffffffffffffffffff1673ffffffffffffffffffffffffffffffffffffffff168152602001908152602001600020600083815260200190815260200160002054905092915050565b7f60460dbe4b1f79d9efa1691d671057dc56200fed92b7dc0eb552fafb819b082c610dcf81611ed5565b60006001610ddb6109d0565b610de591906140e6565b9050610df18382611fca565b60606000604051806101000160405280848152602001838152602001600c8054610e1a90613e6d565b80601f0160208091040260200160405190810160405280929190818152602001828054610e4690613e6d565b8015610e935780601f10610e6857610100808354040283529160200191610e93565b820191906000526020600020905b815481529060010190602001808311610e7657829003601f168201915b5050505050815260200189815260200188815260200187815260200142815260200160001515815250905080600b6000858152602001908152602001600020600082015181600001556020820151816001019080519060200190610ef8929190613396565b506040820151816002019081610f0e91906142c6565b506060820151816003019081610f2491906142c6565b506080820151816004019081610f3a91906142c6565b5060a0820151816005019081610f5091906142c6565b5060c0820151816006015560e08201518160070160006101000a81548160ff021916908315150217905550905050600b6000848152602001908152602001600020600101859080600181540180825580915050600190039060005260206000200160009091909190916101000a81548173ffffffffffffffffffffffffffffffffffffffff021916908373ffffffffffffffffffffffffffffffffffffffff160217905550827f94da8b1f54d6b112f33b8d347f164fc8f25cd951a157bcc7493673b7cadbf363600c8a8a8a4260405161102e95949392919061441c565b60405180910390a25050505050505050565b611048611db4565b73ffffffffffffffffffffffffffffffffffffffff168173ffffffffffffffffffffffffffffffffffffffff16146110b5576040517f08c379a00000000000000000000000000000000000000000000000000000000081526004016110ac906144fd565b60405180910390fd5b6110bf82826121a3565b5050565b6110de8383836040518060200160405280600081525061178f565b505050565b60006110ed6109d0565b821061112e576040517f08c379a00000000000000000000000000000000000000000000000000000000081526004016111259061458f565b60405180910390fd5b6008828154811061114257611141613fc2565b5b90600052602060002001549050919050565b6060600c805461116390613e6d565b80601f016020809104026020016040519081016040528092919081815260200182805461118f90613e6d565b80156111dc5780601f106111b1576101008083540402835291602001916111dc565b820191906000526020600020905b8154815290600101906020018083116111bf57829003601f168201915b5050505050905090565b6000801b6111f381611ed5565b81600d908161120291906142c6565b505050565b60006112116109d0565b905090565b6000806002600084815260200190815260200160002060009054906101000a900473ffffffffffffffffffffffffffffffffffffffff169050600073ffffffffffffffffffffffffffffffffffffffff168173ffffffffffffffffffffffffffffffffffffffff16036112be576040517f08c379a00000000000000000000000000000000000000000000000000000000081526004016112b5906145fb565b60405180910390fd5b80915050919050565b600e60009054906101000a900460ff1681565b6000801b6112e781611ed5565b6112f46000801b83610cdf565b5050565b60008073ffffffffffffffffffffffffffffffffffffffff168273ffffffffffffffffffffffffffffffffffffffff1603611368576040517f08c379a000000000000000000000000000000000000000000000000000000000815260040161135f9061468d565b60405180910390fd5b600360008373ffffffffffffffffffffffffffffffffffffffff1673ffffffffffffffffffffffffffffffffffffffff168152602001908152602001600020549050919050565b6113d97f72d66193ff00a845b4aed5f27e02d9b558ef32be1495a41d00c5c5fb191a076382612285565b50565b6000801b6113e981611ed5565b81600c90816113f891906142c6565b505050565b6000801b61140a81611ed5565b6114347f72d66193ff00a845b4aed5f27e02d9b558ef32be1495a41d00c5c5fb191a076383610cdf565b5050565b6000801b61144581611ed5565b6114526000801b33611040565b50565b6000600a600084815260200190815260200160002060000160008373ffffffffffffffffffffffffffffffffffffffff1673ffffffffffffffffffffffffffffffffffffffff16815260200190815260200160002060009054906101000a900460ff16905092915050565b6060600180546114cf90613e6d565b80601f01602080910402602001604051908101604052809291908181526020018280546114fb90613e6d565b80156115485780601f1061151d57610100808354040283529160200191611548565b820191906000526020600020905b81548152906001019060200180831161152b57829003601f168201915b5050505050905090565b61157c7f60460dbe4b1f79d9efa1691d671057dc56200fed92b7dc0eb552fafb819b082c82612285565b50565b6000801b81565b611598611591611db4565b8383612322565b5050565b7f72d66193ff00a845b4aed5f27e02d9b558ef32be1495a41d00c5c5fb191a07636115c681611ed5565b600b60008381526020019081526020016000206001016001600b6000858152602001908152602001600020600101805490506116029190614020565b8154811061161357611612613fc2565b5b9060005260206000200160009054906101000a900473ffffffffffffffffffffffffffffffffffffffff1673ffffffffffffffffffffffffffffffffffffffff163373ffffffffffffffffffffffffffffffffffffffff16146116ab576040517f08c379a00000000000000000000000000000000000000000000000000000000081526004016116a2906146f9565b60405180910390fd5b60001515600b600084815260200190815260200160002060070160009054906101000a900460ff16151514611715576040517f08c379a000000000000000000000000000000000000000000000000000000000815260040161170c90614765565b60405180910390fd5b600b600083815260200190815260200160002060070160009054906101000a900460ff1615600b600084815260200190815260200160002060070160006101000a81548160ff0219169083151502179055505050565b7f60460dbe4b1f79d9efa1691d671057dc56200fed92b7dc0eb552fafb819b082c81565b6117a061179a611db4565b8361248e565b6117df576040517f08c379a00000000000000000000000000000000000000000000000000000000081526004016117d6906147f7565b60405180910390fd5b6117eb84848484612523565b50505050565b60606117fc82611d69565b600061180661257f565b905060008151116118265760405180602001604052806000815250611851565b8061183084612596565b604051602001611841929190614853565b6040516020818303038152906040525b915050919050565b61186282610a64565b61186b81611ed5565b61187583836121a3565b505050565b6118876000801b82612285565b50565b6000600560008473ffffffffffffffffffffffffffffffffffffffff1673ffffffffffffffffffffffffffffffffffffffff16815260200190815260200160002060008373ffffffffffffffffffffffffffffffffffffffff1673ffffffffffffffffffffffffffffffffffffffff16815260200190815260200160002060009054906101000a900460ff16905092915050565b60006060806060806060600080600b60008a81526020019081526020016000206000015403611982576040517f08c379a0000000000000000000000000000000000000000000000000000000008152600401611979906148c3565b60405180910390fd5b600b600089815260200190815260200160002060000154600b60008a8152602001908152602001600020600101600b60008b8152602001908152602001600020600201600b60008c8152602001908152602001600020600301600b60008d8152602001908152602001600020600401600b60008e8152602001908152602001600020600501600b60008f81526020019081526020016000206006015485805480602002602001604051908101604052809291908181526020018280548015611a9f57602002820191906000526020600020905b8160009054906101000a900473ffffffffffffffffffffffffffffffffffffffff1673ffffffffffffffffffffffffffffffffffffffff1681526020019060010190808311611a55575b50505050509550848054611ab290613e6d565b80601f0160208091040260200160405190810160405280929190818152602001828054611ade90613e6d565b8015611b2b5780601f10611b0057610100808354040283529160200191611b2b565b820191906000526020600020905b815481529060010190602001808311611b0e57829003601f168201915b50505050509450838054611b3e90613e6d565b80601f0160208091040260200160405190810160405280929190818152602001828054611b6a90613e6d565b8015611bb75780601f10611b8c57610100808354040283529160200191611bb7565b820191906000526020600020905b815481529060010190602001808311611b9a57829003601f168201915b50505050509350828054611bca90613e6d565b80601f0160208091040260200160405190810160405280929190818152602001828054611bf690613e6d565b8015611c435780601f10611c1857610100808354040283529160200191611c43565b820191906000526020600020905b815481529060010190602001808311611c2657829003601f168201915b50505050509250818054611c5690613e6d565b80601f0160208091040260200160405190810160405280929190818152602001828054611c8290613e6d565b8015611ccf5780601f10611ca457610100808354040283529160200191611ccf565b820191906000526020600020905b815481529060010190602001808311611cb257829003601f168201915b505050505091509650965096509650965096509650919395979092949650565b60007f7965db0b000000000000000000000000000000000000000000000000000000007bffffffffffffffffffffffffffffffffffffffffffffffffffffffff1916827bffffffffffffffffffffffffffffffffffffffffffffffffffffffff19161480611d625750611d61826126f6565b5b9050919050565b611d7281612770565b611db1576040517f08c379a0000000000000000000000000000000000000000000000000000000008152600401611da8906145fb565b60405180910390fd5b50565b600033905090565b816004600083815260200190815260200160002060006101000a81548173ffffffffffffffffffffffffffffffffffffffff021916908373ffffffffffffffffffffffffffffffffffffffff160217905550808273ffffffffffffffffffffffffffffffffffffffff16611e2f83611216565b73ffffffffffffffffffffffffffffffffffffffff167f8c5be1e5ebec7d5bd14f71427d1e84f3dd0314c0f7b2291e5b200ac8c7c3b92560405160405180910390a45050565b611e86611e80611db4565b8261248e565b611ec5576040517f08c379a0000000000000000000000000000000000000000000000000000000008152600401611ebc906147f7565b60405180910390fd5b611ed08383836127dc565b505050565b611ee681611ee1611db4565b612285565b50565b611ef38282611455565b611fc6576001600a600084815260200190815260200160002060000160008373ffffffffffffffffffffffffffffffffffffffff1673ffffffffffffffffffffffffffffffffffffffff16815260200190815260200160002060006101000a81548160ff021916908315150217905550611f6b611db4565b73ffffffffffffffffffffffffffffffffffffffff168173ffffffffffffffffffffffffffffffffffffffff16837f2f8788117e7eff1d82e926ec794901d17c78024a50270940304540a733656f0d60405160405180910390a45b5050565b600073ffffffffffffffffffffffffffffffffffffffff168273ffffffffffffffffffffffffffffffffffffffff1603612039576040517f08c379a00000000000000000000000000000000000000000000000000000000081526004016120309061492f565b60405180910390fd5b61204281612770565b15612082576040517f08c379a00000000000000000000000000000000000000000000000000000000081526004016120799061499b565b60405180910390fd5b61208e60008383612a42565b6001600360008473ffffffffffffffffffffffffffffffffffffffff1673ffffffffffffffffffffffffffffffffffffffff16815260200190815260200160002060008282546120de91906140e6565b92505081905550816002600083815260200190815260200160002060006101000a81548173ffffffffffffffffffffffffffffffffffffffff021916908373ffffffffffffffffffffffffffffffffffffffff160217905550808273ffffffffffffffffffffffffffffffffffffffff16600073ffffffffffffffffffffffffffffffffffffffff167fddf252ad1be2c89b69c2b068fc378daa952ba7f163c4a11628f55a4df523b3ef60405160405180910390a461219f60008383612b54565b5050565b6121ad8282611455565b15612281576000600a600084815260200190815260200160002060000160008373ffffffffffffffffffffffffffffffffffffffff1673ffffffffffffffffffffffffffffffffffffffff16815260200190815260200160002060006101000a81548160ff021916908315150217905550612226611db4565b73ffffffffffffffffffffffffffffffffffffffff168173ffffffffffffffffffffffffffffffffffffffff16837ff6391f5c32d9c69d2a47ea670b442974b53935d1edc7fd64eb21e047a839171b60405160405180910390a45b5050565b61228f8282611455565b61231e576122b48173ffffffffffffffffffffffffffffffffffffffff166014612b59565b6122c28360001c6020612b59565b6040516020016122d3929190614a53565b6040516020818303038152906040526040517f08c379a0000000000000000000000000000000000000000000000000000000008152600401612315919061359c565b60405180910390fd5b5050565b8173ffffffffffffffffffffffffffffffffffffffff168373ffffffffffffffffffffffffffffffffffffffff1603612390576040517f08c379a000000000000000000000000000000000000000000000000000000000815260040161238790614ad9565b60405180910390fd5b80600560008573ffffffffffffffffffffffffffffffffffffffff1673ffffffffffffffffffffffffffffffffffffffff16815260200190815260200160002060008473ffffffffffffffffffffffffffffffffffffffff1673ffffffffffffffffffffffffffffffffffffffff16815260200190815260200160002060006101000a81548160ff0219169083151502179055508173ffffffffffffffffffffffffffffffffffffffff168373ffffffffffffffffffffffffffffffffffffffff167f17307eab39ab6107e8899845ad3d59bd9653f200f220920489ca2b5937696c318360405161248191906134f1565b60405180910390a3505050565b60008061249a83611216565b90508073ffffffffffffffffffffffffffffffffffffffff168473ffffffffffffffffffffffffffffffffffffffff1614806124dc57506124db818561188a565b5b8061251a57508373ffffffffffffffffffffffffffffffffffffffff1661250284610873565b73ffffffffffffffffffffffffffffffffffffffff16145b91505092915050565b61252e8484846127dc565b61253a84848484612d95565b612579576040517f08c379a000000000000000000000000000000000000000000000000000000000815260040161257090614b6b565b60405180910390fd5b50505050565b606060405180602001604052806000815250905090565b6060600082036125dd576040518060400160405280600181526020017f300000000000000000000000000000000000000000000000000000000000000081525090506126f1565b600082905060005b6000821461260f5780806125f890614b8b565b915050600a826126089190614c02565b91506125e5565b60008167ffffffffffffffff81111561262b5761262a6138ef565b5b6040519080825280601f01601f19166020018201604052801561265d5781602001600182028036833780820191505090505b5090505b600085146126ea576001826126769190614020565b9150600a856126859190614c33565b603061269191906140e6565b60f81b8183815181106126a7576126a6613fc2565b5b60200101907effffffffffffffffffffffffffffffffffffffffffffffffffffffffffffff1916908160001a905350600a856126e39190614c02565b9450612661565b8093505050505b919050565b60007f780e9d63000000000000000000000000000000000000000000000000000000007bffffffffffffffffffffffffffffffffffffffffffffffffffffffff1916827bffffffffffffffffffffffffffffffffffffffffffffffffffffffff19161480612769575061276882612f1c565b5b9050919050565b60008073ffffffffffffffffffffffffffffffffffffffff166002600084815260200190815260200160002060009054906101000a900473ffffffffffffffffffffffffffffffffffffffff1673ffffffffffffffffffffffffffffffffffffffff1614159050919050565b8273ffffffffffffffffffffffffffffffffffffffff166127fc82611216565b73ffffffffffffffffffffffffffffffffffffffff1614612852576040517f08c379a000000000000000000000000000000000000000000000000000000000815260040161284990614cd6565b60405180910390fd5b600073ffffffffffffffffffffffffffffffffffffffff168273ffffffffffffffffffffffffffffffffffffffff16036128c1576040517f08c379a00000000000000000000000000000000000000000000000000000000081526004016128b890614d68565b60405180910390fd5b6128cc838383612a42565b6128d7600082611dbc565b6001600360008573ffffffffffffffffffffffffffffffffffffffff1673ffffffffffffffffffffffffffffffffffffffff16815260200190815260200160002060008282546129279190614020565b925050819055506001600360008473ffffffffffffffffffffffffffffffffffffffff1673ffffffffffffffffffffffffffffffffffffffff168152602001908152602001600020600082825461297e91906140e6565b92505081905550816002600083815260200190815260200160002060006101000a81548173ffffffffffffffffffffffffffffffffffffffff021916908373ffffffffffffffffffffffffffffffffffffffff160217905550808273ffffffffffffffffffffffffffffffffffffffff168473ffffffffffffffffffffffffffffffffffffffff167fddf252ad1be2c89b69c2b068fc378daa952ba7f163c4a11628f55a4df523b3ef60405160405180910390a4612a3d838383612b54565b505050565b612a4d838383612ffe565b600073ffffffffffffffffffffffffffffffffffffffff168373ffffffffffffffffffffffffffffffffffffffff1603612a8f57612a8a81613003565b612ace565b8173ffffffffffffffffffffffffffffffffffffffff168373ffffffffffffffffffffffffffffffffffffffff1614612acd57612acc838261304c565b5b5b600073ffffffffffffffffffffffffffffffffffffffff168273ffffffffffffffffffffffffffffffffffffffff1603612b1057612b0b816131b9565b612b4f565b8273ffffffffffffffffffffffffffffffffffffffff168273ffffffffffffffffffffffffffffffffffffffff1614612b4e57612b4d828261328a565b5b5b505050565b505050565b606060006002836002612b6c9190614d88565b612b7691906140e6565b67ffffffffffffffff811115612b8f57612b8e6138ef565b5b6040519080825280601f01601f191660200182016040528015612bc15781602001600182028036833780820191505090505b5090507f300000000000000000000000000000000000000000000000000000000000000081600081518110612bf957612bf8613fc2565b5b60200101907effffffffffffffffffffffffffffffffffffffffffffffffffffffffffffff1916908160001a9053507f780000000000000000000000000000000000000000000000000000000000000081600181518110612c5d57612c5c613fc2565b5b60200101907effffffffffffffffffffffffffffffffffffffffffffffffffffffffffffff1916908160001a90535060006001846002612c9d9190614d88565b612ca791906140e6565b90505b6001811115612d47577f3031323334353637383961626364656600000000000000000000000000000000600f861660108110612ce957612ce8613fc2565b5b1a60f81b828281518110612d0057612cff613fc2565b5b60200101907effffffffffffffffffffffffffffffffffffffffffffffffffffffffffffff1916908160001a905350600485901c945080612d4090614dca565b9050612caa565b5060008414612d8b576040517f08c379a0000000000000000000000000000000000000000000000000000000008152600401612d8290614e3f565b60405180910390fd5b8091505092915050565b6000612db68473ffffffffffffffffffffffffffffffffffffffff16613309565b15612f0f578373ffffffffffffffffffffffffffffffffffffffff1663150b7a02612ddf611db4565b8786866040518563ffffffff1660e01b8152600401612e019493929190614eb4565b6020604051808303816000875af1925050508015612e3d57506040513d601f19601f82011682018060405250810190612e3a9190614f15565b60015b612ebf573d8060008114612e6d576040519150601f19603f3d011682016040523d82523d6000602084013e612e72565b606091505b506000815103612eb7576040517f08c379a0000000000000000000000000000000000000000000000000000000008152600401612eae90614b6b565b60405180910390fd5b805181602001fd5b63150b7a0260e01b7bffffffffffffffffffffffffffffffffffffffffffffffffffffffff1916817bffffffffffffffffffffffffffffffffffffffffffffffffffffffff191614915050612f14565b600190505b949350505050565b60007f80ac58cd000000000000000000000000000000000000000000000000000000007bffffffffffffffffffffffffffffffffffffffffffffffffffffffff1916827bffffffffffffffffffffffffffffffffffffffffffffffffffffffff19161480612fe757507f5b5e139f000000000000000000000000000000000000000000000000000000007bffffffffffffffffffffffffffffffffffffffffffffffffffffffff1916827bffffffffffffffffffffffffffffffffffffffffffffffffffffffff1916145b80612ff75750612ff68261332c565b5b9050919050565b505050565b6008805490506009600083815260200190815260200160002081905550600881908060018154018082558091505060019003906000526020600020016000909190919091505550565b60006001613059846112f8565b6130639190614020565b9050600060076000848152602001908152602001600020549050818114613148576000600660008673ffffffffffffffffffffffffffffffffffffffff1673ffffffffffffffffffffffffffffffffffffffff168152602001908152602001600020600084815260200190815260200160002054905080600660008773ffffffffffffffffffffffffffffffffffffffff1673ffffffffffffffffffffffffffffffffffffffff168152602001908152602001600020600084815260200190815260200160002081905550816007600083815260200190815260200160002081905550505b6007600084815260200190815260200160002060009055600660008573ffffffffffffffffffffffffffffffffffffffff1673ffffffffffffffffffffffffffffffffffffffff16815260200190815260200160002060008381526020019081526020016000206000905550505050565b600060016008805490506131cd9190614020565b90506000600960008481526020019081526020016000205490506000600883815481106131fd576131fc613fc2565b5b90600052602060002001549050806008838154811061321f5761321e613fc2565b5b90600052602060002001819055508160096000838152602001908152602001600020819055506009600085815260200190815260200160002060009055600880548061326e5761326d614f42565b5b6001900381819060005260206000200160009055905550505050565b6000613295836112f8565b905081600660008573ffffffffffffffffffffffffffffffffffffffff1673ffffffffffffffffffffffffffffffffffffffff168152602001908152602001600020600083815260200190815260200160002081905550806007600084815260200190815260200160002081905550505050565b6000808273ffffffffffffffffffffffffffffffffffffffff163b119050919050565b60007f01ffc9a7000000000000000000000000000000000000000000000000000000007bffffffffffffffffffffffffffffffffffffffffffffffffffffffff1916827bffffffffffffffffffffffffffffffffffffffffffffffffffffffff1916149050919050565b82805482825590600052602060002090810192821561340f579160200282015b8281111561340e5782518260006101000a81548173ffffffffffffffffffffffffffffffffffffffff021916908373ffffffffffffffffffffffffffffffffffffffff160217905550916020019190600101906133b6565b5b50905061341c9190613420565b5090565b5b80821115613439576000816000905550600101613421565b5090565b6000604051905090565b600080fd5b600080fd5b60007fffffffff0000000000000000000000000000000000000000000000000000000082169050919050565b61348681613451565b811461349157600080fd5b50565b6000813590506134a38161347d565b92915050565b6000602082840312156134bf576134be613447565b5b60006134cd84828501613494565b91505092915050565b60008115159050919050565b6134eb816134d6565b82525050565b600060208201905061350660008301846134e2565b92915050565b600081519050919050565b600082825260208201905092915050565b60005b8381101561354657808201518184015260208101905061352b565b60008484015250505050565b6000601f19601f8301169050919050565b600061356e8261350c565b6135788185613517565b9350613588818560208601613528565b61359181613552565b840191505092915050565b600060208201905081810360008301526135b68184613563565b905092915050565b6000819050919050565b6135d1816135be565b81146135dc57600080fd5b50565b6000813590506135ee816135c8565b92915050565b60006020828403121561360a57613609613447565b5b6000613618848285016135df565b91505092915050565b600073ffffffffffffffffffffffffffffffffffffffff82169050919050565b600061364c82613621565b9050919050565b61365c81613641565b82525050565b60006020820190506136776000830184613653565b92915050565b61368681613641565b811461369157600080fd5b50565b6000813590506136a38161367d565b92915050565b600080604083850312156136c0576136bf613447565b5b60006136ce85828601613694565b92505060206136df858286016135df565b9150509250929050565b6136f2816135be565b82525050565b600060208201905061370d60008301846136e9565b92915050565b60008060006060848603121561372c5761372b613447565b5b600061373a86828701613694565b935050602061374b86828701613694565b925050604061375c868287016135df565b9150509250925092565b6000819050919050565b61377981613766565b811461378457600080fd5b50565b60008135905061379681613770565b92915050565b6000602082840312156137b2576137b1613447565b5b60006137c084828501613787565b91505092915050565b6137d281613766565b82525050565b60006020820190506137ed60008301846137c9565b92915050565b60006020828403121561380957613808613447565b5b600061381784828501613694565b91505092915050565b6000806040838503121561383757613836613447565b5b6000613845858286016135df565b925050602061385685828601613694565b9150509250929050565b600060808201905061387560008301876136e9565b6138826020830186613653565b61388f6040830185613653565b61389c6060830184613653565b95945050505050565b600080604083850312156138bc576138bb613447565b5b60006138ca85828601613787565b92505060206138db85828601613694565b9150509250929050565b600080fd5b600080fd5b7f4e487b7100000000000000000000000000000000000000000000000000000000600052604160045260246000fd5b61392782613552565b810181811067ffffffffffffffff82111715613946576139456138ef565b5b80604052505050565b600061395961343d565b9050613965828261391e565b919050565b600067ffffffffffffffff821115613985576139846138ef565b5b61398e82613552565b9050602081019050919050565b82818337600083830152505050565b60006139bd6139b88461396a565b61394f565b9050828152602081018484840111156139d9576139d86138ea565b5b6139e484828561399b565b509392505050565b600082601f830112613a0157613a006138e5565b5b8135613a118482602086016139aa565b91505092915050565b60008060008060808587031215613a3457613a33613447565b5b600085013567ffffffffffffffff811115613a5257613a5161344c565b5b613a5e878288016139ec565b945050602085013567ffffffffffffffff811115613a7f57613a7e61344c565b5b613a8b878288016139ec565b935050604085013567ffffffffffffffff811115613aac57613aab61344c565b5b613ab8878288016139ec565b9250506060613ac987828801613694565b91505092959194509250565b600060208284031215613aeb57613aea613447565b5b600082013567ffffffffffffffff811115613b0957613b0861344c565b5b613b15848285016139ec565b91505092915050565b613b27816134d6565b8114613b3257600080fd5b50565b600081359050613b4481613b1e565b92915050565b60008060408385031215613b6157613b60613447565b5b6000613b6f85828601613694565b9250506020613b8085828601613b35565b9150509250929050565b600067ffffffffffffffff821115613ba557613ba46138ef565b5b613bae82613552565b9050602081019050919050565b6000613bce613bc984613b8a565b61394f565b905082815260208101848484011115613bea57613be96138ea565b5b613bf584828561399b565b509392505050565b600082601f830112613c1257613c116138e5565b5b8135613c22848260208601613bbb565b91505092915050565b60008060008060808587031215613c4557613c44613447565b5b6000613c5387828801613694565b9450506020613c6487828801613694565b9350506040613c75878288016135df565b925050606085013567ffffffffffffffff811115613c9657613c9561344c565b5b613ca287828801613bfd565b91505092959194509250565b60008060408385031215613cc557613cc4613447565b5b6000613cd385828601613694565b9250506020613ce485828601613694565b9150509250929050565b600081519050919050565b600082825260208201905092915050565b6000819050602082019050919050565b613d2381613641565b82525050565b6000613d358383613d1a565b60208301905092915050565b6000602082019050919050565b6000613d5982613cee565b613d638185613cf9565b9350613d6e83613d0a565b8060005b83811015613d9f578151613d868882613d29565b9750613d9183613d41565b925050600181019050613d72565b5085935050505092915050565b600060e082019050613dc1600083018a6136e9565b8181036020830152613dd38189613d4e565b90508181036040830152613de78188613563565b90508181036060830152613dfb8187613563565b90508181036080830152613e0f8186613563565b905081810360a0830152613e238185613563565b9050613e3260c08301846136e9565b98975050505050505050565b7f4e487b7100000000000000000000000000000000000000000000000000000000600052602260045260246000fd5b60006002820490506001821680613e8557607f821691505b602082108103613e9857613e97613e3e565b5b50919050565b7f4552433732313a20617070726f76616c20746f2063757272656e74206f776e6560008201527f7200000000000000000000000000000000000000000000000000000000000000602082015250565b6000613efa602183613517565b9150613f0582613e9e565b604082019050919050565b60006020820190508181036000830152613f2981613eed565b9050919050565b7f4552433732313a20617070726f76652063616c6c6572206973206e6f7420746f60008201527f6b656e206f776e6572206e6f7220617070726f76656420666f7220616c6c0000602082015250565b6000613f8c603e83613517565b9150613f9782613f30565b604082019050919050565b60006020820190508181036000830152613fbb81613f7f565b9050919050565b7f4e487b7100000000000000000000000000000000000000000000000000000000600052603260045260246000fd5b7f4e487b7100000000000000000000000000000000000000000000000000000000600052601160045260246000fd5b600061402b826135be565b9150614036836135be565b925082820390508181111561404e5761404d613ff1565b5b92915050565b7f455243373231456e756d657261626c653a206f776e657220696e646578206f7560008201527f74206f6620626f756e6473000000000000000000000000000000000000000000602082015250565b60006140b0602b83613517565b91506140bb82614054565b604082019050919050565b600060208201905081810360008301526140df816140a3565b9050919050565b60006140f1826135be565b91506140fc836135be565b925082820190508082111561411457614113613ff1565b5b92915050565b60008190508160005260206000209050919050565b60006020601f8301049050919050565b600082821b905092915050565b60006008830261417c7fffffffffffffffffffffffffffffffffffffffffffffffffffffffffffffffff8261413f565b614186868361413f565b95508019841693508086168417925050509392505050565b6000819050919050565b60006141c36141be6141b9846135be565b61419e565b6135be565b9050919050565b6000819050919050565b6141dd836141a8565b6141f16141e9826141ca565b84845461414c565b825550505050565b600090565b6142066141f9565b6142118184846141d4565b505050565b5b818110156142355761422a6000826141fe565b600181019050614217565b5050565b601f82111561427a5761424b8161411a565b6142548461412f565b81016020851015614263578190505b61427761426f8561412f565b830182614216565b50505b505050565b600082821c905092915050565b600061429d6000198460080261427f565b1980831691505092915050565b60006142b6838361428c565b9150826002028217905092915050565b6142cf8261350c565b67ffffffffffffffff8111156142e8576142e76138ef565b5b6142f28254613e6d565b6142fd828285614239565b600060209050601f831160018114614330576000841561431e578287015190505b61432885826142aa565b865550614390565b601f19841661433e8661411a565b60005b8281101561436657848901518255600182019150602085019450602081019050614341565b86831015614383578489015161437f601f89168261428c565b8355505b6001600288020188555050505b505050505050565b600081546143a581613e6d565b6143af8186613517565b945060018216600081146143ca57600181146143e057614413565b60ff198316865281151560200286019350614413565b6143e98561411a565b60005b8381101561440b578154818901526001820191506020810190506143ec565b808801955050505b50505092915050565b600060a08201905081810360008301526144368188614398565b9050818103602083015261444a8187613563565b9050818103604083015261445e8186613563565b905081810360608301526144728185613563565b905061448160808301846136e9565b9695505050505050565b7f416363657373436f6e74726f6c3a2063616e206f6e6c792072656e6f756e636560008201527f20726f6c657320666f722073656c660000000000000000000000000000000000602082015250565b60006144e7602f83613517565b91506144f28261448b565b604082019050919050565b60006020820190508181036000830152614516816144da565b9050919050565b7f455243373231456e756d657261626c653a20676c6f62616c20696e646578206f60008201527f7574206f6620626f756e64730000000000000000000000000000000000000000602082015250565b6000614579602c83613517565b91506145848261451d565b604082019050919050565b600060208201905081810360008301526145a88161456c565b9050919050565b7f4552433732313a20696e76616c696420746f6b656e2049440000000000000000600082015250565b60006145e5601883613517565b91506145f0826145af565b602082019050919050565b60006020820190508181036000830152614614816145d8565b9050919050565b7f4552433732313a2061646472657373207a65726f206973206e6f74206120766160008201527f6c6964206f776e65720000000000000000000000000000000000000000000000602082015250565b6000614677602983613517565b91506146828261461b565b604082019050919050565b600060208201905081810360008301526146a68161466a565b9050919050565b7f596f75206861766520746f206f776e6564206120746f6b656e21000000000000600082015250565b60006146e3601a83613517565b91506146ee826146ad565b602082019050919050565b60006020820190508181036000830152614712816146d6565b9050919050565b7f416c726561647920757365642e00000000000000000000000000000000000000600082015250565b600061474f600d83613517565b915061475a82614719565b602082019050919050565b6000602082019050818103600083015261477e81614742565b9050919050565b7f4552433732313a2063616c6c6572206973206e6f7420746f6b656e206f776e6560008201527f72206e6f7220617070726f766564000000000000000000000000000000000000602082015250565b60006147e1602e83613517565b91506147ec82614785565b604082019050919050565b60006020820190508181036000830152614810816147d4565b9050919050565b600081905092915050565b600061482d8261350c565b6148378185614817565b9350614847818560208601613528565b80840191505092915050565b600061485f8285614822565b915061486b8284614822565b91508190509392505050565b7f426c6f6f6420646f6573206e6f74206578697374000000000000000000000000600082015250565b60006148ad601483613517565b91506148b882614877565b602082019050919050565b600060208201905081810360008301526148dc816148a0565b9050919050565b7f4552433732313a206d696e7420746f20746865207a65726f2061646472657373600082015250565b6000614919602083613517565b9150614924826148e3565b602082019050919050565b600060208201905081810360008301526149488161490c565b9050919050565b7f4552433732313a20746f6b656e20616c7265616479206d696e74656400000000600082015250565b6000614985601c83613517565b91506149908261494f565b602082019050919050565b600060208201905081810360008301526149b481614978565b9050919050565b7f416363657373436f6e74726f6c3a206163636f756e7420000000000000000000600082015250565b60006149f1601783614817565b91506149fc826149bb565b601782019050919050565b7f206973206d697373696e6720726f6c6520000000000000000000000000000000600082015250565b6000614a3d601183614817565b9150614a4882614a07565b601182019050919050565b6000614a5e826149e4565b9150614a6a8285614822565b9150614a7582614a30565b9150614a818284614822565b91508190509392505050565b7f4552433732313a20617070726f766520746f2063616c6c657200000000000000600082015250565b6000614ac3601983613517565b9150614ace82614a8d565b602082019050919050565b60006020820190508181036000830152614af281614ab6565b9050919050565b7f4552433732313a207472616e7366657220746f206e6f6e20455243373231526560008201527f63656976657220696d706c656d656e7465720000000000000000000000000000602082015250565b6000614b55603283613517565b9150614b6082614af9565b604082019050919050565b60006020820190508181036000830152614b8481614b48565b9050919050565b6000614b96826135be565b91507fffffffffffffffffffffffffffffffffffffffffffffffffffffffffffffffff8203614bc857614bc7613ff1565b5b600182019050919050565b7f4e487b7100000000000000000000000000000000000000000000000000000000600052601260045260246000fd5b6000614c0d826135be565b9150614c18836135be565b925082614c2857614c27614bd3565b5b828204905092915050565b6000614c3e826135be565b9150614c49836135be565b925082614c5957614c58614bd3565b5b828206905092915050565b7f4552433732313a207472616e736665722066726f6d20696e636f72726563742060008201527f6f776e6572000000000000000000000000000000000000000000000000000000602082015250565b6000614cc0602583613517565b9150614ccb82614c64565b604082019050919050565b60006020820190508181036000830152614cef81614cb3565b9050919050565b7f4552433732313a207472616e7366657220746f20746865207a65726f2061646460008201527f7265737300000000000000000000000000000000000000000000000000000000602082015250565b6000614d52602483613517565b9150614d5d82614cf6565b604082019050919050565b60006020820190508181036000830152614d8181614d45565b9050919050565b6000614d93826135be565b9150614d9e836135be565b9250828202614dac816135be565b91508282048414831517614dc357614dc2613ff1565b5b5092915050565b6000614dd5826135be565b915060008203614de857614de7613ff1565b5b600182039050919050565b7f537472696e67733a20686578206c656e67746820696e73756666696369656e74600082015250565b6000614e29602083613517565b9150614e3482614df3565b602082019050919050565b60006020820190508181036000830152614e5881614e1c565b9050919050565b600081519050919050565b600082825260208201905092915050565b6000614e8682614e5f565b614e908185614e6a565b9350614ea0818560208601613528565b614ea981613552565b840191505092915050565b6000608082019050614ec96000830187613653565b614ed66020830186613653565b614ee360408301856136e9565b8181036060830152614ef58184614e7b565b905095945050505050565b600081519050614f0f8161347d565b92915050565b600060208284031215614f2b57614f2a613447565b5b6000614f3984828501614f00565b91505092915050565b7f4e487b7100000000000000000000000000000000000000000000000000000000600052603160045260246000fdfea2646970667358221220117b2970910b451331d1f9e4a7c4ea6c48faa5ddbbc716b440d79cabe7d5d1af64736f6c63430008110033697066733a2f2f516d54416d33416d5a37763544716175766d3754366f364c35614e3733377a556f7a63355350784457664b753954",
  "linkReferences": {},
  "deployedLinkReferences": {}
}