{
  "_format": "hh-sol-artifact-1",
  "contractName": "BloodDonation",
  "sourceName": "contracts/BloodDonation.sol",
  "abi": [
    {
      "inputs": [],
      "stateMutability": "nonpayable",
      "type": "constructor"
    },
    {
      "anonymous": false,
      "inputs": [
        {
          "indexed": true,
          "internalType": "address",
          "name": "owner",
          "type": "address"
        },
        {
          "indexed": true,
          "internalType": "address",
          "name": "approved",
          "type": "address"
        },
        {
          "indexed": true,
          "internalType": "uint256",
          "name": "tokenId",
          "type": "uint256"
        }
      ],
      "name": "Approval",
      "type": "event"
    },
    {
      "anonymous": false,
      "inputs": [
        {
          "indexed": true,
          "internalType": "address",
          "name": "owner",
          "type": "address"
        },
        {
          "indexed": true,
          "internalType": "address",
          "name": "operator",
          "type": "address"
        },
        {
          "indexed": false,
          "internalType": "bool",
          "name": "approved",
          "type": "bool"
        }
      ],
      "name": "ApprovalForAll",
      "type": "event"
    },
    {
      "anonymous": false,
      "inputs": [
        {
          "indexed": true,
          "internalType": "uint256",
          "name": "tokenId",
          "type": "uint256"
        },
        {
          "indexed": false,
          "internalType": "string",
          "name": "photo",
          "type": "string"
        },
        {
          "indexed": false,
          "internalType": "string",
          "name": "title",
          "type": "string"
        },
        {
          "indexed": false,
          "internalType": "string",
          "name": "location",
          "type": "string"
        },
        {
          "indexed": false,
          "internalType": "string",
          "name": "description",
          "type": "string"
        },
        {
          "indexed": false,
          "internalType": "uint256",
          "name": "timestamp",
          "type": "uint256"
        }
      ],
      "name": "BDUploaded",
      "type": "event"
    },
    {
      "anonymous": false,
      "inputs": [
        {
          "indexed": true,
          "internalType": "bytes32",
          "name": "role",
          "type": "bytes32"
        },
        {
          "indexed": true,
          "internalType": "bytes32",
          "name": "previousAdminRole",
          "type": "bytes32"
        },
        {
          "indexed": true,
          "internalType": "bytes32",
          "name": "newAdminRole",
          "type": "bytes32"
        }
      ],
      "name": "RoleAdminChanged",
      "type": "event"
    },
    {
      "anonymous": false,
      "inputs": [
        {
          "indexed": true,
          "internalType": "bytes32",
          "name": "role",
          "type": "bytes32"
        },
        {
          "indexed": true,
          "internalType": "address",
          "name": "account",
          "type": "address"
        },
        {
          "indexed": true,
          "internalType": "address",
          "name": "sender",
          "type": "address"
        }
      ],
      "name": "RoleGranted",
      "type": "event"
    },
    {
      "anonymous": false,
      "inputs": [
        {
          "indexed": true,
          "internalType": "bytes32",
          "name": "role",
          "type": "bytes32"
        },
        {
          "indexed": true,
          "internalType": "address",
          "name": "account",
          "type": "address"
        },
        {
          "indexed": true,
          "internalType": "address",
          "name": "sender",
          "type": "address"
        }
      ],
      "name": "RoleRevoked",
      "type": "event"
    },
    {
      "anonymous": false,
      "inputs": [
        {
          "indexed": true,
          "internalType": "address",
          "name": "from",
          "type": "address"
        },
        {
          "indexed": true,
          "internalType": "address",
          "name": "to",
          "type": "address"
        },
        {
          "indexed": true,
          "internalType": "uint256",
          "name": "tokenId",
          "type": "uint256"
        }
      ],
      "name": "Transfer",
      "type": "event"
    },
    {
      "inputs": [],
      "name": "DEFAULT_ADMIN_ROLE",
      "outputs": [
        {
          "internalType": "bytes32",
          "name": "",
          "type": "bytes32"
        }
      ],
      "stateMutability": "view",
      "type": "function"
    },
    {
      "inputs": [],
      "name": "HOSPITAL",
      "outputs": [
        {
          "internalType": "bytes32",
          "name": "",
          "type": "bytes32"
        }
      ],
      "stateMutability": "view",
      "type": "function"
    },
    {
      "inputs": [],
      "name": "REDCROSS",
      "outputs": [
        {
          "internalType": "bytes32",
          "name": "",
          "type": "bytes32"
        }
      ],
      "stateMutability": "view",
      "type": "function"
    },
    {
      "inputs": [
        {
          "internalType": "uint256",
          "name": "",
          "type": "uint256"
        }
      ],
      "name": "_BDList",
      "outputs": [
        {
          "internalType": "uint256",
          "name": "tokenId",
          "type": "uint256"
        },
        {
          "internalType": "string",
          "name": "photo",
          "type": "string"
        },
        {
          "internalType": "string",
          "name": "title",
          "type": "string"
        },
        {
          "internalType": "string",
          "name": "location",
          "type": "string"
        },
        {
          "internalType": "string",
          "name": "description",
          "type": "string"
        },
        {
          "internalType": "uint256",
          "name": "timestamp",
          "type": "uint256"
        },
        {
          "internalType": "bool",
          "name": "used",
          "type": "bool"
        }
      ],
      "stateMutability": "view",
      "type": "function"
    },
    {
      "inputs": [],
      "name": "_notUsedPhotoURI",
      "outputs": [
        {
          "internalType": "string",
          "name": "",
          "type": "string"
        }
      ],
      "stateMutability": "view",
      "type": "function"
    },
    {
      "inputs": [],
      "name": "_usedPhotoURI",
      "outputs": [
        {
          "internalType": "string",
          "name": "",
          "type": "string"
        }
      ],
      "stateMutability": "view",
      "type": "function"
    },
    {
      "inputs": [
        {
          "internalType": "address",
          "name": "account",
          "type": "address"
        }
      ],
      "name": "addAdmin",
      "outputs": [],
      "stateMutability": "nonpayable",
      "type": "function"
    },
    {
      "inputs": [
        {
          "internalType": "address",
          "name": "to",
          "type": "address"
        },
        {
          "internalType": "uint256",
          "name": "tokenId",
          "type": "uint256"
        }
      ],
      "name": "approve",
      "outputs": [],
      "stateMutability": "nonpayable",
      "type": "function"
    },
    {
      "inputs": [
        {
          "internalType": "address",
          "name": "owner",
          "type": "address"
        }
      ],
      "name": "balanceOf",
      "outputs": [
        {
          "internalType": "uint256",
          "name": "",
          "type": "uint256"
        }
      ],
      "stateMutability": "view",
      "type": "function"
    },
    {
      "inputs": [
        {
          "internalType": "address",
          "name": "account",
          "type": "address"
        }
      ],
      "name": "checkAdminRole",
      "outputs": [],
      "stateMutability": "view",
      "type": "function"
    },
    {
      "inputs": [
        {
          "internalType": "address",
          "name": "account",
          "type": "address"
        }
      ],
      "name": "checkHospitalRole",
      "outputs": [],
      "stateMutability": "view",
      "type": "function"
    },
    {
      "inputs": [
        {
          "internalType": "address",
          "name": "account",
          "type": "address"
        }
      ],
      "name": "checkRedCrossRole",
      "outputs": [],
      "stateMutability": "view",
      "type": "function"
    },
    {
      "inputs": [
        {
          "internalType": "uint256",
          "name": "tokenId",
          "type": "uint256"
        }
      ],
      "name": "getApproved",
      "outputs": [
        {
          "internalType": "address",
          "name": "",
          "type": "address"
        }
      ],
      "stateMutability": "view",
      "type": "function"
    },
    {
      "inputs": [
        {
          "internalType": "uint256",
          "name": "tokenId",
          "type": "uint256"
        }
      ],
      "name": "getBD",
      "outputs": [
        {
          "internalType": "uint256",
          "name": "",
          "type": "uint256"
        },
        {
          "internalType": "address[]",
          "name": "",
          "type": "address[]"
        },
        {
          "internalType": "string",
          "name": "",
          "type": "string"
        },
        {
          "internalType": "string",
          "name": "",
          "type": "string"
        },
        {
          "internalType": "string",
          "name": "",
          "type": "string"
        },
        {
          "internalType": "string",
          "name": "",
          "type": "string"
        },
        {
          "internalType": "uint256",
          "name": "",
          "type": "uint256"
        }
      ],
      "stateMutability": "view",
      "type": "function"
    },
    {
      "inputs": [
        {
          "internalType": "bytes32",
          "name": "role",
          "type": "bytes32"
        }
      ],
      "name": "getRoleAdmin",
      "outputs": [
        {
          "internalType": "bytes32",
          "name": "",
          "type": "bytes32"
        }
      ],
      "stateMutability": "view",
      "type": "function"
    },
    {
      "inputs": [],
      "name": "getTotalBDCount",
      "outputs": [
        {
          "internalType": "uint256",
          "name": "",
          "type": "uint256"
        }
      ],
      "stateMutability": "view",
      "type": "function"
    },
    {
      "inputs": [
        {
          "internalType": "address",
          "name": "account",
          "type": "address"
        }
      ],
      "name": "grantHospitalRole",
      "outputs": [],
      "stateMutability": "nonpayable",
      "type": "function"
    },
    {
      "inputs": [
        {
          "internalType": "address",
          "name": "account",
          "type": "address"
        }
      ],
      "name": "grantRedCrossRole",
      "outputs": [],
      "stateMutability": "nonpayable",
      "type": "function"
    },
    {
      "inputs": [
        {
          "internalType": "bytes32",
          "name": "role",
          "type": "bytes32"
        },
        {
          "internalType": "address",
          "name": "account",
          "type": "address"
        }
      ],
      "name": "grantRole",
      "outputs": [],
      "stateMutability": "nonpayable",
      "type": "function"
    },
    {
      "inputs": [
        {
          "internalType": "bytes32",
          "name": "role",
          "type": "bytes32"
        },
        {
          "internalType": "address",
          "name": "account",
          "type": "address"
        }
      ],
      "name": "hasRole",
      "outputs": [
        {
          "internalType": "bool",
          "name": "",
          "type": "bool"
        }
      ],
      "stateMutability": "view",
      "type": "function"
    },
    {
      "inputs": [
        {
          "internalType": "address",
          "name": "owner",
          "type": "address"
        },
        {
          "internalType": "address",
          "name": "operator",
          "type": "address"
        }
      ],
      "name": "isApprovedForAll",
      "outputs": [
        {
          "internalType": "bool",
          "name": "",
          "type": "bool"
        }
      ],
      "stateMutability": "view",
      "type": "function"
    },
    {
      "inputs": [
        {
          "internalType": "string",
          "name": "title",
          "type": "string"
        },
        {
          "internalType": "string",
          "name": "location",
          "type": "string"
        },
        {
          "internalType": "string",
          "name": "description",
          "type": "string"
        },
        {
          "internalType": "address",
          "name": "to",
          "type": "address"
        }
      ],
      "name": "mintBD",
      "outputs": [],
      "stateMutability": "nonpayable",
      "type": "function"
    },
    {
      "inputs": [],
      "name": "name",
      "outputs": [
        {
          "internalType": "string",
          "name": "",
          "type": "string"
        }
      ],
      "stateMutability": "view",
      "type": "function"
    },
    {
      "inputs": [
        {
          "internalType": "uint256",
          "name": "tokenId",
          "type": "uint256"
        }
      ],
      "name": "ownerOf",
      "outputs": [
        {
          "internalType": "address",
          "name": "",
          "type": "address"
        }
      ],
      "stateMutability": "view",
      "type": "function"
    },
    {
      "inputs": [],
      "name": "renounceAdmin",
      "outputs": [],
      "stateMutability": "nonpayable",
      "type": "function"
    },
    {
      "inputs": [
        {
          "internalType": "bytes32",
          "name": "role",
          "type": "bytes32"
        },
        {
          "internalType": "address",
          "name": "account",
          "type": "address"
        }
      ],
      "name": "renounceRole",
      "outputs": [],
      "stateMutability": "nonpayable",
      "type": "function"
    },
    {
      "inputs": [
        {
          "internalType": "bytes32",
          "name": "role",
          "type": "bytes32"
        },
        {
          "internalType": "address",
          "name": "account",
          "type": "address"
        }
      ],
      "name": "revokeRole",
      "outputs": [],
      "stateMutability": "nonpayable",
      "type": "function"
    },
    {
      "inputs": [
        {
          "internalType": "address",
          "name": "from",
          "type": "address"
        },
        {
          "internalType": "address",
          "name": "to",
          "type": "address"
        },
        {
          "internalType": "uint256",
          "name": "tokenId",
          "type": "uint256"
        }
      ],
      "name": "safeTransferFrom",
      "outputs": [],
      "stateMutability": "nonpayable",
      "type": "function"
    },
    {
      "inputs": [
        {
          "internalType": "address",
          "name": "from",
          "type": "address"
        },
        {
          "internalType": "address",
          "name": "to",
          "type": "address"
        },
        {
          "internalType": "uint256",
          "name": "tokenId",
          "type": "uint256"
        },
        {
          "internalType": "bytes",
          "name": "data",
          "type": "bytes"
        }
      ],
      "name": "safeTransferFrom",
      "outputs": [],
      "stateMutability": "nonpayable",
      "type": "function"
    },
    {
      "inputs": [
        {
          "internalType": "address",
          "name": "operator",
          "type": "address"
        },
        {
          "internalType": "bool",
          "name": "approved",
          "type": "bool"
        }
      ],
      "name": "setApprovalForAll",
      "outputs": [],
      "stateMutability": "nonpayable",
      "type": "function"
    },
    {
      "inputs": [
        {
          "internalType": "string",
          "name": "_newNotUsedURI",
          "type": "string"
        }
      ],
      "name": "setNotUsedURI",
      "outputs": [],
      "stateMutability": "nonpayable",
      "type": "function"
    },
    {
      "inputs": [
        {
          "internalType": "string",
          "name": "_newUsedURI",
          "type": "string"
        }
      ],
      "name": "setUsedURI",
      "outputs": [],
      "stateMutability": "nonpayable",
      "type": "function"
    },
    {
      "inputs": [
        {
          "internalType": "bytes4",
          "name": "interfaceId",
          "type": "bytes4"
        }
      ],
      "name": "supportsInterface",
      "outputs": [
        {
          "internalType": "bool",
          "name": "",
          "type": "bool"
        }
      ],
      "stateMutability": "view",
      "type": "function"
    },
    {
      "inputs": [],
      "name": "symbol",
      "outputs": [
        {
          "internalType": "string",
          "name": "",
          "type": "string"
        }
      ],
      "stateMutability": "view",
      "type": "function"
    },
    {
      "inputs": [
        {
          "internalType": "uint256",
          "name": "index",
          "type": "uint256"
        }
      ],
      "name": "tokenByIndex",
      "outputs": [
        {
          "internalType": "uint256",
          "name": "",
          "type": "uint256"
        }
      ],
      "stateMutability": "view",
      "type": "function"
    },
    {
      "inputs": [
        {
          "internalType": "address",
          "name": "owner",
          "type": "address"
        },
        {
          "internalType": "uint256",
          "name": "index",
          "type": "uint256"
        }
      ],
      "name": "tokenOfOwnerByIndex",
      "outputs": [
        {
          "internalType": "uint256",
          "name": "",
          "type": "uint256"
        }
      ],
      "stateMutability": "view",
      "type": "function"
    },
    {
      "inputs": [
        {
          "internalType": "uint256",
          "name": "tokenId",
          "type": "uint256"
        }
      ],
      "name": "tokenURI",
      "outputs": [
        {
          "internalType": "string",
          "name": "",
          "type": "string"
        }
      ],
      "stateMutability": "view",
      "type": "function"
    },
    {
      "inputs": [],
      "name": "totalSupply",
      "outputs": [
        {
          "internalType": "uint256",
          "name": "",
          "type": "uint256"
        }
      ],
      "stateMutability": "view",
      "type": "function"
    },
    {
      "inputs": [
        {
          "internalType": "address",
          "name": "from",
          "type": "address"
        },
        {
          "internalType": "address",
          "name": "to",
          "type": "address"
        },
        {
          "internalType": "uint256",
          "name": "tokenId",
          "type": "uint256"
        }
      ],
      "name": "transferFrom",
      "outputs": [],
      "stateMutability": "nonpayable",
      "type": "function"
    },
    {
      "inputs": [
        {
          "internalType": "uint256",
          "name": "tokenId",
          "type": "uint256"
        },
        {
          "internalType": "address",
          "name": "to",
          "type": "address"
        }
      ],
      "name": "transferOwnership",
      "outputs": [],
      "stateMutability": "nonpayable",
      "type": "function"
    },
    {
      "inputs": [
        {
          "internalType": "uint256",
          "name": "tokenId",
          "type": "uint256"
        }
      ],
      "name": "use",
      "outputs": [],
      "stateMutability": "nonpayable",
      "type": "function"
    },
    {
      "inputs": [],
      "name": "used",
      "outputs": [
        {
          "internalType": "bool",
          "name": "",
          "type": "bool"
        }
      ],
      "stateMutability": "view",
      "type": "function"
    }
  ],
  "bytecode": "0x60806040526040518060600160405280603581526020016200592b60359139600c90816200002e919062000525565b50604051806060016040528060358152602001620058f660359139600d908162000059919062000525565b506000600e60006101000a81548160ff0219169083151502179055503480156200008257600080fd5b506040518060400160405280600d81526020017f426c6f6f64446f6e6174696f6e000000000000000000000000000000000000008152506040518060400160405280600581526020017f42444e4654000000000000000000000000000000000000000000000000000000815250816000908162000100919062000525565b50806001908162000112919062000525565b5050506200012a6000801b336200013060201b60201c565b6200060c565b6200014282826200014660201b60201c565b5050565b6200015882826200023860201b60201c565b62000234576001600a600084815260200190815260200160002060000160008373ffffffffffffffffffffffffffffffffffffffff1673ffffffffffffffffffffffffffffffffffffffff16815260200190815260200160002060006101000a81548160ff021916908315150217905550620001d9620002a360201b60201c565b73ffffffffffffffffffffffffffffffffffffffff168173ffffffffffffffffffffffffffffffffffffffff16837f2f8788117e7eff1d82e926ec794901d17c78024a50270940304540a733656f0d60405160405180910390a45b5050565b6000600a600084815260200190815260200160002060000160008373ffffffffffffffffffffffffffffffffffffffff1673ffffffffffffffffffffffffffffffffffffffff16815260200190815260200160002060009054906101000a900460ff16905092915050565b600033905090565b600081519050919050565b7f4e487b7100000000000000000000000000000000000000000000000000000000600052604160045260246000fd5b7f4e487b7100000000000000000000000000000000000000000000000000000000600052602260045260246000fd5b600060028204905060018216806200032d57607f821691505b602082108103620003435762000342620002e5565b5b50919050565b60008190508160005260206000209050919050565b60006020601f8301049050919050565b600082821b905092915050565b600060088302620003ad7fffffffffffffffffffffffffffffffffffffffffffffffffffffffffffffffff826200036e565b620003b986836200036e565b95508019841693508086168417925050509392505050565b6000819050919050565b6000819050919050565b60006200040662000400620003fa84620003d1565b620003db565b620003d1565b9050919050565b6000819050919050565b6200042283620003e5565b6200043a62000431826200040d565b8484546200037b565b825550505050565b600090565b6200045162000442565b6200045e81848462000417565b505050565b5b8181101562000486576200047a60008262000447565b60018101905062000464565b5050565b601f821115620004d5576200049f8162000349565b620004aa846200035e565b81016020851015620004ba578190505b620004d2620004c9856200035e565b83018262000463565b50505b505050565b600082821c905092915050565b6000620004fa60001984600802620004da565b1980831691505092915050565b6000620005158383620004e7565b9150826002028217905092915050565b6200053082620002ab565b67ffffffffffffffff8111156200054c576200054b620002b6565b5b62000558825462000314565b620005658282856200048a565b600060209050601f8311600181146200059d576000841562000588578287015190505b62000594858262000507565b86555062000604565b601f198416620005ad8662000349565b60005b82811015620005d757848901518255600182019150602085019450602081019050620005b0565b86831015620005f75784890151620005f3601f891682620004e7565b8355505b6001600288020188555050505b505050505050565b6152da806200061c6000396000f3fe608060405234801561001057600080fd5b506004361061025e5760003560e01c806363898e2b11610146578063a0562f69116100c3578063b88d4fde11610087578063b88d4fde1461070f578063c87b56dd1461072b578063d547741f1461075b578063e386be2e14610777578063e985e9c514610793578063ed54e96a146107c35761025e565b8063a0562f691461067f578063a217fddf1461069b578063a22cb465146106b9578063ab5b4456146106d5578063b0806ea7146106f15761025e565b80637ee756f21161010a5780637ee756f2146105d557806389d04f00146105f15780638bad0c0a1461062757806391d148541461063157806395d89b41146106615761025e565b806363898e2b14610533578063704802751461055157806370a082311461056d5780637b3dc4ef1461059d5780637def8928146105b95761025e565b80632de31f3c116101df57806342842e0e116101a357806342842e0e1461045f5780634f6ccce71461047b57806354d0c549146104ab5780635bf47d9d146104c95780635dd9727d146104e55780636352211e146105035761025e565b80632de31f3c146103bd5780632f2ff15d146103db5780632f745c59146103f7578063353acb331461042757806336568abe146104435761025e565b806323b872dd1161022657806323b872dd1461031b578063248a9ca31461033757806327bbe7ee14610367578063280a337d1461038557806329507f73146103a15761025e565b806301ffc9a71461026357806306fdde0314610293578063081812fc146102b1578063095ea7b3146102e157806318160ddd146102fd575b600080fd5b61027d60048036038101906102789190613683565b6107f9565b60405161028a91906136cb565b60405180910390f35b61029b61080b565b6040516102a89190613776565b60405180910390f35b6102cb60048036038101906102c691906137ce565b61089d565b6040516102d8919061383c565b60405180910390f35b6102fb60048036038101906102f69190613883565b6108e3565b005b6103056109fa565b60405161031291906138d2565b60405180910390f35b610335600480360381019061033091906138ed565b610a07565b005b610351600480360381019061034c9190613976565b610a8e565b60405161035e91906139b2565b60405180910390f35b61036f610aae565b60405161037c91906139b2565b60405180910390f35b61039f600480360381019061039a91906139cd565b610ad2565b005b6103bb60048036038101906103b691906139fa565b610b0d565b005b6103c5610b93565b6040516103d29190613776565b60405180910390f35b6103f560048036038101906103f09190613a3a565b610c25565b005b610411600480360381019061040c9190613883565b610c46565b60405161041e91906138d2565b60405180910390f35b610441600480360381019061043c9190613baf565b610ceb565b005b61045d60048036038101906104589190613a3a565b610f86565b005b610479600480360381019061047491906138ed565b611009565b005b610495600480360381019061049091906137ce565b611029565b6040516104a291906138d2565b60405180910390f35b6104b361109a565b6040516104c09190613776565b60405180910390f35b6104e360048036038101906104de9190613c6a565b61112c565b005b6104ed61114d565b6040516104fa91906138d2565b60405180910390f35b61051d600480360381019061051891906137ce565b61115c565b60405161052a919061383c565b60405180910390f35b61053b61120d565b60405161054891906136cb565b60405180910390f35b61056b600480360381019061056691906139cd565b611220565b005b610587600480360381019061058291906139cd565b61123e565b60405161059491906138d2565b60405180910390f35b6105b760048036038101906105b291906139cd565b6112f5565b005b6105d360048036038101906105ce9190613c6a565b611322565b005b6105ef60048036038101906105ea91906139cd565b611343565b005b61060b600480360381019061060691906137ce565b61137e565b60405161061e9796959493929190613cb3565b60405180910390f35b61062f6115ed565b005b61064b60048036038101906106469190613a3a565b61160a565b60405161065891906136cb565b60405180910390f35b610669611675565b6040516106769190613776565b60405180910390f35b610699600480360381019061069491906139cd565b611707565b005b6106a3611734565b6040516106b091906139b2565b60405180910390f35b6106d360048036038101906106ce9190613d6a565b61173b565b005b6106ef60048036038101906106ea91906137ce565b611751565b005b6106f9611945565b60405161070691906139b2565b60405180910390f35b61072960048036038101906107249190613e4b565b611969565b005b610745600480360381019061074091906137ce565b6119cb565b6040516107529190613776565b60405180910390f35b61077560048036038101906107709190613a3a565b611a33565b005b610791600480360381019061078c91906139cd565b611a54565b005b6107ad60048036038101906107a89190613ece565b611a64565b6040516107ba91906136cb565b60405180910390f35b6107dd60048036038101906107d891906137ce565b611af8565b6040516107f09796959493929190613fcc565b60405180910390f35b600061080482611ec9565b9050919050565b60606000805461081a9061408d565b80601f01602080910402602001604051908101604052809291908181526020018280546108469061408d565b80156108935780601f1061086857610100808354040283529160200191610893565b820191906000526020600020905b81548152906001019060200180831161087657829003601f168201915b5050505050905090565b60006108a882611f43565b6004600083815260200190815260200160002060009054906101000a900473ffffffffffffffffffffffffffffffffffffffff169050919050565b60006108ee8261115c565b90508073ffffffffffffffffffffffffffffffffffffffff168373ffffffffffffffffffffffffffffffffffffffff160361095e576040517f08c379a000000000000000000000000000000000000000000000000000000000815260040161095590614130565b60405180910390fd5b8073ffffffffffffffffffffffffffffffffffffffff1661097d611f8e565b73ffffffffffffffffffffffffffffffffffffffff1614806109ac57506109ab816109a6611f8e565b611a64565b5b6109eb576040517f08c379a00000000000000000000000000000000000000000000000000000000081526004016109e2906141c2565b60405180910390fd5b6109f58383611f96565b505050565b6000600880549050905090565b610a1283838361204f565b600b6000828152602001908152602001600020600101829080600181540180825580915050600190039060005260206000200160009091909190916101000a81548173ffffffffffffffffffffffffffffffffffffffff021916908373ffffffffffffffffffffffffffffffffffffffff160217905550505050565b6000600a6000838152602001908152602001600020600101549050919050565b7f72d66193ff00a845b4aed5f27e02d9b558ef32be1495a41d00c5c5fb191a076381565b6000801b610adf816120af565b610b097f60460dbe4b1f79d9efa1691d671057dc56200fed92b7dc0eb552fafb819b082c83610c25565b5050565b610b18338284611009565b600b6000838152602001908152602001600020600101819080600181540180825580915050600190039060005260206000200160009091909190916101000a81548173ffffffffffffffffffffffffffffffffffffffff021916908373ffffffffffffffffffffffffffffffffffffffff1602179055505050565b6060600d8054610ba29061408d565b80601f0160208091040260200160405190810160405280929190818152602001828054610bce9061408d565b8015610c1b5780601f10610bf057610100808354040283529160200191610c1b565b820191906000526020600020905b815481529060010190602001808311610bfe57829003601f168201915b5050505050905090565b610c2e82610a8e565b610c37816120af565b610c4183836120c3565b505050565b6000610c518361123e565b8210610c92576040517f08c379a0000000000000000000000000000000000000000000000000000000008152600401610c8990614254565b60405180910390fd5b600660008473ffffffffffffffffffffffffffffffffffffffff1673ffffffffffffffffffffffffffffffffffffffff168152602001908152602001600020600083815260200190815260200160002054905092915050565b7f60460dbe4b1f79d9efa1691d671057dc56200fed92b7dc0eb552fafb819b082c610d15816120af565b60006001610d216109fa565b610d2b91906142a3565b9050610d3783826121a4565b60606000604051806101000160405280848152602001838152602001600c8054610d609061408d565b80601f0160208091040260200160405190810160405280929190818152602001828054610d8c9061408d565b8015610dd95780601f10610dae57610100808354040283529160200191610dd9565b820191906000526020600020905b815481529060010190602001808311610dbc57829003601f168201915b5050505050815260200189815260200188815260200187815260200142815260200160001515815250905080600b6000858152602001908152602001600020600082015181600001556020820151816001019080519060200190610e3e929190613570565b506040820151816002019081610e549190614483565b506060820151816003019081610e6a9190614483565b506080820151816004019081610e809190614483565b5060a0820151816005019081610e969190614483565b5060c0820151816006015560e08201518160070160006101000a81548160ff021916908315150217905550905050600b6000848152602001908152602001600020600101859080600181540180825580915050600190039060005260206000200160009091909190916101000a81548173ffffffffffffffffffffffffffffffffffffffff021916908373ffffffffffffffffffffffffffffffffffffffff160217905550827f94da8b1f54d6b112f33b8d347f164fc8f25cd951a157bcc7493673b7cadbf363600c8a8a8a42604051610f749594939291906145d9565b60405180910390a25050505050505050565b610f8e611f8e565b73ffffffffffffffffffffffffffffffffffffffff168173ffffffffffffffffffffffffffffffffffffffff1614610ffb576040517f08c379a0000000000000000000000000000000000000000000000000000000008152600401610ff2906146ba565b60405180910390fd5b611005828261237d565b5050565b61102483838360405180602001604052806000815250611969565b505050565b60006110336109fa565b8210611074576040517f08c379a000000000000000000000000000000000000000000000000000000000815260040161106b9061474c565b60405180910390fd5b600882815481106110885761108761476c565b5b90600052602060002001549050919050565b6060600c80546110a99061408d565b80601f01602080910402602001604051908101604052809291908181526020018280546110d59061408d565b80156111225780601f106110f757610100808354040283529160200191611122565b820191906000526020600020905b81548152906001019060200180831161110557829003601f168201915b5050505050905090565b6000801b611139816120af565b81600d90816111489190614483565b505050565b60006111576109fa565b905090565b6000806002600084815260200190815260200160002060009054906101000a900473ffffffffffffffffffffffffffffffffffffffff169050600073ffffffffffffffffffffffffffffffffffffffff168173ffffffffffffffffffffffffffffffffffffffff1603611204576040517f08c379a00000000000000000000000000000000000000000000000000000000081526004016111fb906147e7565b60405180910390fd5b80915050919050565b600e60009054906101000a900460ff1681565b6000801b61122d816120af565b61123a6000801b83610c25565b5050565b60008073ffffffffffffffffffffffffffffffffffffffff168273ffffffffffffffffffffffffffffffffffffffff16036112ae576040517f08c379a00000000000000000000000000000000000000000000000000000000081526004016112a590614879565b60405180910390fd5b600360008373ffffffffffffffffffffffffffffffffffffffff1673ffffffffffffffffffffffffffffffffffffffff168152602001908152602001600020549050919050565b61131f7f72d66193ff00a845b4aed5f27e02d9b558ef32be1495a41d00c5c5fb191a07638261245f565b50565b6000801b61132f816120af565b81600c908161133e9190614483565b505050565b6000801b611350816120af565b61137a7f72d66193ff00a845b4aed5f27e02d9b558ef32be1495a41d00c5c5fb191a076383610c25565b5050565b600b6020528060005260406000206000915090508060000154908060020180546113a79061408d565b80601f01602080910402602001604051908101604052809291908181526020018280546113d39061408d565b80156114205780601f106113f557610100808354040283529160200191611420565b820191906000526020600020905b81548152906001019060200180831161140357829003601f168201915b5050505050908060030180546114359061408d565b80601f01602080910402602001604051908101604052809291908181526020018280546114619061408d565b80156114ae5780601f10611483576101008083540402835291602001916114ae565b820191906000526020600020905b81548152906001019060200180831161149157829003601f168201915b5050505050908060040180546114c39061408d565b80601f01602080910402602001604051908101604052809291908181526020018280546114ef9061408d565b801561153c5780601f106115115761010080835404028352916020019161153c565b820191906000526020600020905b81548152906001019060200180831161151f57829003601f168201915b5050505050908060050180546115519061408d565b80601f016020809104026020016040519081016040528092919081815260200182805461157d9061408d565b80156115ca5780601f1061159f576101008083540402835291602001916115ca565b820191906000526020600020905b8154815290600101906020018083116115ad57829003601f168201915b5050505050908060060154908060070160009054906101000a900460ff16905087565b6000801b6115fa816120af565b6116076000801b33610f86565b50565b6000600a600084815260200190815260200160002060000160008373ffffffffffffffffffffffffffffffffffffffff1673ffffffffffffffffffffffffffffffffffffffff16815260200190815260200160002060009054906101000a900460ff16905092915050565b6060600180546116849061408d565b80601f01602080910402602001604051908101604052809291908181526020018280546116b09061408d565b80156116fd5780601f106116d2576101008083540402835291602001916116fd565b820191906000526020600020905b8154815290600101906020018083116116e057829003601f168201915b5050505050905090565b6117317f60460dbe4b1f79d9efa1691d671057dc56200fed92b7dc0eb552fafb819b082c8261245f565b50565b6000801b81565b61174d611746611f8e565b83836124fc565b5050565b7f72d66193ff00a845b4aed5f27e02d9b558ef32be1495a41d00c5c5fb191a076361177b816120af565b600b60008381526020019081526020016000206001016001600b6000858152602001908152602001600020600101805490506117b79190614899565b815481106117c8576117c761476c565b5b9060005260206000200160009054906101000a900473ffffffffffffffffffffffffffffffffffffffff1673ffffffffffffffffffffffffffffffffffffffff163373ffffffffffffffffffffffffffffffffffffffff1614611860576040517f08c379a000000000000000000000000000000000000000000000000000000000815260040161185790614919565b60405180910390fd5b60001515600b600084815260200190815260200160002060070160009054906101000a900460ff161515146118ca576040517f08c379a00000000000000000000000000000000000000000000000000000000081526004016118c190614985565b60405180910390fd5b600b600083815260200190815260200160002060070160009054906101000a900460ff1615600b600084815260200190815260200160002060070160006101000a81548160ff021916908315150217905550600d600b6000848152602001908152602001600020600201908161194091906149d0565b505050565b7f60460dbe4b1f79d9efa1691d671057dc56200fed92b7dc0eb552fafb819b082c81565b61197a611974611f8e565b83612668565b6119b9576040517f08c379a00000000000000000000000000000000000000000000000000000000081526004016119b090614b2a565b60405180910390fd5b6119c5848484846126fd565b50505050565b60606119d682611f43565b60006119e0612759565b90506000815111611a005760405180602001604052806000815250611a2b565b80611a0a84612770565b604051602001611a1b929190614b86565b6040516020818303038152906040525b915050919050565b611a3c82610a8e565b611a45816120af565b611a4f838361237d565b505050565b611a616000801b8261245f565b50565b6000600560008473ffffffffffffffffffffffffffffffffffffffff1673ffffffffffffffffffffffffffffffffffffffff16815260200190815260200160002060008373ffffffffffffffffffffffffffffffffffffffff1673ffffffffffffffffffffffffffffffffffffffff16815260200190815260200160002060009054906101000a900460ff16905092915050565b60006060806060806060600080600b60008a81526020019081526020016000206000015403611b5c576040517f08c379a0000000000000000000000000000000000000000000000000000000008152600401611b5390614bf6565b60405180910390fd5b600b600089815260200190815260200160002060000154600b60008a8152602001908152602001600020600101600b60008b8152602001908152602001600020600201600b60008c8152602001908152602001600020600301600b60008d8152602001908152602001600020600401600b60008e8152602001908152602001600020600501600b60008f81526020019081526020016000206006015485805480602002602001604051908101604052809291908181526020018280548015611c7957602002820191906000526020600020905b8160009054906101000a900473ffffffffffffffffffffffffffffffffffffffff1673ffffffffffffffffffffffffffffffffffffffff1681526020019060010190808311611c2f575b50505050509550848054611c8c9061408d565b80601f0160208091040260200160405190810160405280929190818152602001828054611cb89061408d565b8015611d055780601f10611cda57610100808354040283529160200191611d05565b820191906000526020600020905b815481529060010190602001808311611ce857829003601f168201915b50505050509450838054611d189061408d565b80601f0160208091040260200160405190810160405280929190818152602001828054611d449061408d565b8015611d915780601f10611d6657610100808354040283529160200191611d91565b820191906000526020600020905b815481529060010190602001808311611d7457829003601f168201915b50505050509350828054611da49061408d565b80601f0160208091040260200160405190810160405280929190818152602001828054611dd09061408d565b8015611e1d5780601f10611df257610100808354040283529160200191611e1d565b820191906000526020600020905b815481529060010190602001808311611e0057829003601f168201915b50505050509250818054611e309061408d565b80601f0160208091040260200160405190810160405280929190818152602001828054611e5c9061408d565b8015611ea95780601f10611e7e57610100808354040283529160200191611ea9565b820191906000526020600020905b815481529060010190602001808311611e8c57829003601f168201915b505050505091509650965096509650965096509650919395979092949650565b60007f7965db0b000000000000000000000000000000000000000000000000000000007bffffffffffffffffffffffffffffffffffffffffffffffffffffffff1916827bffffffffffffffffffffffffffffffffffffffffffffffffffffffff19161480611f3c5750611f3b826128d0565b5b9050919050565b611f4c8161294a565b611f8b576040517f08c379a0000000000000000000000000000000000000000000000000000000008152600401611f82906147e7565b60405180910390fd5b50565b600033905090565b816004600083815260200190815260200160002060006101000a81548173ffffffffffffffffffffffffffffffffffffffff021916908373ffffffffffffffffffffffffffffffffffffffff160217905550808273ffffffffffffffffffffffffffffffffffffffff166120098361115c565b73ffffffffffffffffffffffffffffffffffffffff167f8c5be1e5ebec7d5bd14f71427d1e84f3dd0314c0f7b2291e5b200ac8c7c3b92560405160405180910390a45050565b61206061205a611f8e565b82612668565b61209f576040517f08c379a000000000000000000000000000000000000000000000000000000000815260040161209690614b2a565b60405180910390fd5b6120aa8383836129b6565b505050565b6120c0816120bb611f8e565b61245f565b50565b6120cd828261160a565b6121a0576001600a600084815260200190815260200160002060000160008373ffffffffffffffffffffffffffffffffffffffff1673ffffffffffffffffffffffffffffffffffffffff16815260200190815260200160002060006101000a81548160ff021916908315150217905550612145611f8e565b73ffffffffffffffffffffffffffffffffffffffff168173ffffffffffffffffffffffffffffffffffffffff16837f2f8788117e7eff1d82e926ec794901d17c78024a50270940304540a733656f0d60405160405180910390a45b5050565b600073ffffffffffffffffffffffffffffffffffffffff168273ffffffffffffffffffffffffffffffffffffffff1603612213576040517f08c379a000000000000000000000000000000000000000000000000000000000815260040161220a90614c62565b60405180910390fd5b61221c8161294a565b1561225c576040517f08c379a000000000000000000000000000000000000000000000000000000000815260040161225390614cce565b60405180910390fd5b61226860008383612c1c565b6001600360008473ffffffffffffffffffffffffffffffffffffffff1673ffffffffffffffffffffffffffffffffffffffff16815260200190815260200160002060008282546122b891906142a3565b92505081905550816002600083815260200190815260200160002060006101000a81548173ffffffffffffffffffffffffffffffffffffffff021916908373ffffffffffffffffffffffffffffffffffffffff160217905550808273ffffffffffffffffffffffffffffffffffffffff16600073ffffffffffffffffffffffffffffffffffffffff167fddf252ad1be2c89b69c2b068fc378daa952ba7f163c4a11628f55a4df523b3ef60405160405180910390a461237960008383612d2e565b5050565b612387828261160a565b1561245b576000600a600084815260200190815260200160002060000160008373ffffffffffffffffffffffffffffffffffffffff1673ffffffffffffffffffffffffffffffffffffffff16815260200190815260200160002060006101000a81548160ff021916908315150217905550612400611f8e565b73ffffffffffffffffffffffffffffffffffffffff168173ffffffffffffffffffffffffffffffffffffffff16837ff6391f5c32d9c69d2a47ea670b442974b53935d1edc7fd64eb21e047a839171b60405160405180910390a45b5050565b612469828261160a565b6124f85761248e8173ffffffffffffffffffffffffffffffffffffffff166014612d33565b61249c8360001c6020612d33565b6040516020016124ad929190614d86565b6040516020818303038152906040526040517f08c379a00000000000000000000000000000000000000000000000000000000081526004016124ef9190613776565b60405180910390fd5b5050565b8173ffffffffffffffffffffffffffffffffffffffff168373ffffffffffffffffffffffffffffffffffffffff160361256a576040517f08c379a000000000000000000000000000000000000000000000000000000000815260040161256190614e0c565b60405180910390fd5b80600560008573ffffffffffffffffffffffffffffffffffffffff1673ffffffffffffffffffffffffffffffffffffffff16815260200190815260200160002060008473ffffffffffffffffffffffffffffffffffffffff1673ffffffffffffffffffffffffffffffffffffffff16815260200190815260200160002060006101000a81548160ff0219169083151502179055508173ffffffffffffffffffffffffffffffffffffffff168373ffffffffffffffffffffffffffffffffffffffff167f17307eab39ab6107e8899845ad3d59bd9653f200f220920489ca2b5937696c318360405161265b91906136cb565b60405180910390a3505050565b6000806126748361115c565b90508073ffffffffffffffffffffffffffffffffffffffff168473ffffffffffffffffffffffffffffffffffffffff1614806126b657506126b58185611a64565b5b806126f457508373ffffffffffffffffffffffffffffffffffffffff166126dc8461089d565b73ffffffffffffffffffffffffffffffffffffffff16145b91505092915050565b6127088484846129b6565b61271484848484612f6f565b612753576040517f08c379a000000000000000000000000000000000000000000000000000000000815260040161274a90614e9e565b60405180910390fd5b50505050565b606060405180602001604052806000815250905090565b6060600082036127b7576040518060400160405280600181526020017f300000000000000000000000000000000000000000000000000000000000000081525090506128cb565b600082905060005b600082146127e95780806127d290614ebe565b915050600a826127e29190614f35565b91506127bf565b60008167ffffffffffffffff81111561280557612804613a84565b5b6040519080825280601f01601f1916602001820160405280156128375781602001600182028036833780820191505090505b5090505b600085146128c4576001826128509190614899565b9150600a8561285f9190614f66565b603061286b91906142a3565b60f81b8183815181106128815761288061476c565b5b60200101907effffffffffffffffffffffffffffffffffffffffffffffffffffffffffffff1916908160001a905350600a856128bd9190614f35565b945061283b565b8093505050505b919050565b60007f780e9d63000000000000000000000000000000000000000000000000000000007bffffffffffffffffffffffffffffffffffffffffffffffffffffffff1916827bffffffffffffffffffffffffffffffffffffffffffffffffffffffff191614806129435750612942826130f6565b5b9050919050565b60008073ffffffffffffffffffffffffffffffffffffffff166002600084815260200190815260200160002060009054906101000a900473ffffffffffffffffffffffffffffffffffffffff1673ffffffffffffffffffffffffffffffffffffffff1614159050919050565b8273ffffffffffffffffffffffffffffffffffffffff166129d68261115c565b73ffffffffffffffffffffffffffffffffffffffff1614612a2c576040517f08c379a0000000000000000000000000000000000000000000000000000000008152600401612a2390615009565b60405180910390fd5b600073ffffffffffffffffffffffffffffffffffffffff168273ffffffffffffffffffffffffffffffffffffffff1603612a9b576040517f08c379a0000000000000000000000000000000000000000000000000000000008152600401612a929061509b565b60405180910390fd5b612aa6838383612c1c565b612ab1600082611f96565b6001600360008573ffffffffffffffffffffffffffffffffffffffff1673ffffffffffffffffffffffffffffffffffffffff1681526020019081526020016000206000828254612b019190614899565b925050819055506001600360008473ffffffffffffffffffffffffffffffffffffffff1673ffffffffffffffffffffffffffffffffffffffff1681526020019081526020016000206000828254612b5891906142a3565b92505081905550816002600083815260200190815260200160002060006101000a81548173ffffffffffffffffffffffffffffffffffffffff021916908373ffffffffffffffffffffffffffffffffffffffff160217905550808273ffffffffffffffffffffffffffffffffffffffff168473ffffffffffffffffffffffffffffffffffffffff167fddf252ad1be2c89b69c2b068fc378daa952ba7f163c4a11628f55a4df523b3ef60405160405180910390a4612c17838383612d2e565b505050565b612c278383836131d8565b600073ffffffffffffffffffffffffffffffffffffffff168373ffffffffffffffffffffffffffffffffffffffff1603612c6957612c64816131dd565b612ca8565b8173ffffffffffffffffffffffffffffffffffffffff168373ffffffffffffffffffffffffffffffffffffffff1614612ca757612ca68382613226565b5b5b600073ffffffffffffffffffffffffffffffffffffffff168273ffffffffffffffffffffffffffffffffffffffff1603612cea57612ce581613393565b612d29565b8273ffffffffffffffffffffffffffffffffffffffff168273ffffffffffffffffffffffffffffffffffffffff1614612d2857612d278282613464565b5b5b505050565b505050565b606060006002836002612d4691906150bb565b612d5091906142a3565b67ffffffffffffffff811115612d6957612d68613a84565b5b6040519080825280601f01601f191660200182016040528015612d9b5781602001600182028036833780820191505090505b5090507f300000000000000000000000000000000000000000000000000000000000000081600081518110612dd357612dd261476c565b5b60200101907effffffffffffffffffffffffffffffffffffffffffffffffffffffffffffff1916908160001a9053507f780000000000000000000000000000000000000000000000000000000000000081600181518110612e3757612e3661476c565b5b60200101907effffffffffffffffffffffffffffffffffffffffffffffffffffffffffffff1916908160001a90535060006001846002612e7791906150bb565b612e8191906142a3565b90505b6001811115612f21577f3031323334353637383961626364656600000000000000000000000000000000600f861660108110612ec357612ec261476c565b5b1a60f81b828281518110612eda57612ed961476c565b5b60200101907effffffffffffffffffffffffffffffffffffffffffffffffffffffffffffff1916908160001a905350600485901c945080612f1a906150fd565b9050612e84565b5060008414612f65576040517f08c379a0000000000000000000000000000000000000000000000000000000008152600401612f5c90615172565b60405180910390fd5b8091505092915050565b6000612f908473ffffffffffffffffffffffffffffffffffffffff166134e3565b156130e9578373ffffffffffffffffffffffffffffffffffffffff1663150b7a02612fb9611f8e565b8786866040518563ffffffff1660e01b8152600401612fdb94939291906151e7565b6020604051808303816000875af192505050801561301757506040513d601f19601f820116820180604052508101906130149190615248565b60015b613099573d8060008114613047576040519150601f19603f3d011682016040523d82523d6000602084013e61304c565b606091505b506000815103613091576040517f08c379a000000000000000000000000000000000000000000000000000000000815260040161308890614e9e565b60405180910390fd5b805181602001fd5b63150b7a0260e01b7bffffffffffffffffffffffffffffffffffffffffffffffffffffffff1916817bffffffffffffffffffffffffffffffffffffffffffffffffffffffff1916149150506130ee565b600190505b949350505050565b60007f80ac58cd000000000000000000000000000000000000000000000000000000007bffffffffffffffffffffffffffffffffffffffffffffffffffffffff1916827bffffffffffffffffffffffffffffffffffffffffffffffffffffffff191614806131c157507f5b5e139f000000000000000000000000000000000000000000000000000000007bffffffffffffffffffffffffffffffffffffffffffffffffffffffff1916827bffffffffffffffffffffffffffffffffffffffffffffffffffffffff1916145b806131d157506131d082613506565b5b9050919050565b505050565b6008805490506009600083815260200190815260200160002081905550600881908060018154018082558091505060019003906000526020600020016000909190919091505550565b600060016132338461123e565b61323d9190614899565b9050600060076000848152602001908152602001600020549050818114613322576000600660008673ffffffffffffffffffffffffffffffffffffffff1673ffffffffffffffffffffffffffffffffffffffff168152602001908152602001600020600084815260200190815260200160002054905080600660008773ffffffffffffffffffffffffffffffffffffffff1673ffffffffffffffffffffffffffffffffffffffff168152602001908152602001600020600084815260200190815260200160002081905550816007600083815260200190815260200160002081905550505b6007600084815260200190815260200160002060009055600660008573ffffffffffffffffffffffffffffffffffffffff1673ffffffffffffffffffffffffffffffffffffffff16815260200190815260200160002060008381526020019081526020016000206000905550505050565b600060016008805490506133a79190614899565b90506000600960008481526020019081526020016000205490506000600883815481106133d7576133d661476c565b5b9060005260206000200154905080600883815481106133f9576133f861476c565b5b90600052602060002001819055508160096000838152602001908152602001600020819055506009600085815260200190815260200160002060009055600880548061344857613447615275565b5b6001900381819060005260206000200160009055905550505050565b600061346f8361123e565b905081600660008573ffffffffffffffffffffffffffffffffffffffff1673ffffffffffffffffffffffffffffffffffffffff168152602001908152602001600020600083815260200190815260200160002081905550806007600084815260200190815260200160002081905550505050565b6000808273ffffffffffffffffffffffffffffffffffffffff163b119050919050565b60007f01ffc9a7000000000000000000000000000000000000000000000000000000007bffffffffffffffffffffffffffffffffffffffffffffffffffffffff1916827bffffffffffffffffffffffffffffffffffffffffffffffffffffffff1916149050919050565b8280548282559060005260206000209081019282156135e9579160200282015b828111156135e85782518260006101000a81548173ffffffffffffffffffffffffffffffffffffffff021916908373ffffffffffffffffffffffffffffffffffffffff16021790555091602001919060010190613590565b5b5090506135f691906135fa565b5090565b5b808211156136135760008160009055506001016135fb565b5090565b6000604051905090565b600080fd5b600080fd5b60007fffffffff0000000000000000000000000000000000000000000000000000000082169050919050565b6136608161362b565b811461366b57600080fd5b50565b60008135905061367d81613657565b92915050565b60006020828403121561369957613698613621565b5b60006136a78482850161366e565b91505092915050565b60008115159050919050565b6136c5816136b0565b82525050565b60006020820190506136e060008301846136bc565b92915050565b600081519050919050565b600082825260208201905092915050565b60005b83811015613720578082015181840152602081019050613705565b60008484015250505050565b6000601f19601f8301169050919050565b6000613748826136e6565b61375281856136f1565b9350613762818560208601613702565b61376b8161372c565b840191505092915050565b60006020820190508181036000830152613790818461373d565b905092915050565b6000819050919050565b6137ab81613798565b81146137b657600080fd5b50565b6000813590506137c8816137a2565b92915050565b6000602082840312156137e4576137e3613621565b5b60006137f2848285016137b9565b91505092915050565b600073ffffffffffffffffffffffffffffffffffffffff82169050919050565b6000613826826137fb565b9050919050565b6138368161381b565b82525050565b6000602082019050613851600083018461382d565b92915050565b6138608161381b565b811461386b57600080fd5b50565b60008135905061387d81613857565b92915050565b6000806040838503121561389a57613899613621565b5b60006138a88582860161386e565b92505060206138b9858286016137b9565b9150509250929050565b6138cc81613798565b82525050565b60006020820190506138e760008301846138c3565b92915050565b60008060006060848603121561390657613905613621565b5b60006139148682870161386e565b93505060206139258682870161386e565b9250506040613936868287016137b9565b9150509250925092565b6000819050919050565b61395381613940565b811461395e57600080fd5b50565b6000813590506139708161394a565b92915050565b60006020828403121561398c5761398b613621565b5b600061399a84828501613961565b91505092915050565b6139ac81613940565b82525050565b60006020820190506139c760008301846139a3565b92915050565b6000602082840312156139e3576139e2613621565b5b60006139f18482850161386e565b91505092915050565b60008060408385031215613a1157613a10613621565b5b6000613a1f858286016137b9565b9250506020613a308582860161386e565b9150509250929050565b60008060408385031215613a5157613a50613621565b5b6000613a5f85828601613961565b9250506020613a708582860161386e565b9150509250929050565b600080fd5b600080fd5b7f4e487b7100000000000000000000000000000000000000000000000000000000600052604160045260246000fd5b613abc8261372c565b810181811067ffffffffffffffff82111715613adb57613ada613a84565b5b80604052505050565b6000613aee613617565b9050613afa8282613ab3565b919050565b600067ffffffffffffffff821115613b1a57613b19613a84565b5b613b238261372c565b9050602081019050919050565b82818337600083830152505050565b6000613b52613b4d84613aff565b613ae4565b905082815260208101848484011115613b6e57613b6d613a7f565b5b613b79848285613b30565b509392505050565b600082601f830112613b9657613b95613a7a565b5b8135613ba6848260208601613b3f565b91505092915050565b60008060008060808587031215613bc957613bc8613621565b5b600085013567ffffffffffffffff811115613be757613be6613626565b5b613bf387828801613b81565b945050602085013567ffffffffffffffff811115613c1457613c13613626565b5b613c2087828801613b81565b935050604085013567ffffffffffffffff811115613c4157613c40613626565b5b613c4d87828801613b81565b9250506060613c5e8782880161386e565b91505092959194509250565b600060208284031215613c8057613c7f613621565b5b600082013567ffffffffffffffff811115613c9e57613c9d613626565b5b613caa84828501613b81565b91505092915050565b600060e082019050613cc8600083018a6138c3565b8181036020830152613cda818961373d565b90508181036040830152613cee818861373d565b90508181036060830152613d02818761373d565b90508181036080830152613d16818661373d565b9050613d2560a08301856138c3565b613d3260c08301846136bc565b98975050505050505050565b613d47816136b0565b8114613d5257600080fd5b50565b600081359050613d6481613d3e565b92915050565b60008060408385031215613d8157613d80613621565b5b6000613d8f8582860161386e565b9250506020613da085828601613d55565b9150509250929050565b600067ffffffffffffffff821115613dc557613dc4613a84565b5b613dce8261372c565b9050602081019050919050565b6000613dee613de984613daa565b613ae4565b905082815260208101848484011115613e0a57613e09613a7f565b5b613e15848285613b30565b509392505050565b600082601f830112613e3257613e31613a7a565b5b8135613e42848260208601613ddb565b91505092915050565b60008060008060808587031215613e6557613e64613621565b5b6000613e738782880161386e565b9450506020613e848782880161386e565b9350506040613e95878288016137b9565b925050606085013567ffffffffffffffff811115613eb657613eb5613626565b5b613ec287828801613e1d565b91505092959194509250565b60008060408385031215613ee557613ee4613621565b5b6000613ef38582860161386e565b9250506020613f048582860161386e565b9150509250929050565b600081519050919050565b600082825260208201905092915050565b6000819050602082019050919050565b613f438161381b565b82525050565b6000613f558383613f3a565b60208301905092915050565b6000602082019050919050565b6000613f7982613f0e565b613f838185613f19565b9350613f8e83613f2a565b8060005b83811015613fbf578151613fa68882613f49565b9750613fb183613f61565b925050600181019050613f92565b5085935050505092915050565b600060e082019050613fe1600083018a6138c3565b8181036020830152613ff38189613f6e565b90508181036040830152614007818861373d565b9050818103606083015261401b818761373d565b9050818103608083015261402f818661373d565b905081810360a0830152614043818561373d565b905061405260c08301846138c3565b98975050505050505050565b7f4e487b7100000000000000000000000000000000000000000000000000000000600052602260045260246000fd5b600060028204905060018216806140a557607f821691505b6020821081036140b8576140b761405e565b5b50919050565b7f4552433732313a20617070726f76616c20746f2063757272656e74206f776e6560008201527f7200000000000000000000000000000000000000000000000000000000000000602082015250565b600061411a6021836136f1565b9150614125826140be565b604082019050919050565b600060208201905081810360008301526141498161410d565b9050919050565b7f4552433732313a20617070726f76652063616c6c6572206973206e6f7420746f60008201527f6b656e206f776e6572206e6f7220617070726f76656420666f7220616c6c0000602082015250565b60006141ac603e836136f1565b91506141b782614150565b604082019050919050565b600060208201905081810360008301526141db8161419f565b9050919050565b7f455243373231456e756d657261626c653a206f776e657220696e646578206f7560008201527f74206f6620626f756e6473000000000000000000000000000000000000000000602082015250565b600061423e602b836136f1565b9150614249826141e2565b604082019050919050565b6000602082019050818103600083015261426d81614231565b9050919050565b7f4e487b7100000000000000000000000000000000000000000000000000000000600052601160045260246000fd5b60006142ae82613798565b91506142b983613798565b92508282019050808211156142d1576142d0614274565b5b92915050565b60008190508160005260206000209050919050565b60006020601f8301049050919050565b600082821b905092915050565b6000600883026143397fffffffffffffffffffffffffffffffffffffffffffffffffffffffffffffffff826142fc565b61434386836142fc565b95508019841693508086168417925050509392505050565b6000819050919050565b600061438061437b61437684613798565b61435b565b613798565b9050919050565b6000819050919050565b61439a83614365565b6143ae6143a682614387565b848454614309565b825550505050565b600090565b6143c36143b6565b6143ce818484614391565b505050565b5b818110156143f2576143e76000826143bb565b6001810190506143d4565b5050565b601f82111561443757614408816142d7565b614411846142ec565b81016020851015614420578190505b61443461442c856142ec565b8301826143d3565b50505b505050565b600082821c905092915050565b600061445a6000198460080261443c565b1980831691505092915050565b60006144738383614449565b9150826002028217905092915050565b61448c826136e6565b67ffffffffffffffff8111156144a5576144a4613a84565b5b6144af825461408d565b6144ba8282856143f6565b600060209050601f8311600181146144ed57600084156144db578287015190505b6144e58582614467565b86555061454d565b601f1984166144fb866142d7565b60005b82811015614523578489015182556001820191506020850194506020810190506144fe565b86831015614540578489015161453c601f891682614449565b8355505b6001600288020188555050505b505050505050565b600081546145628161408d565b61456c81866136f1565b94506001821660008114614587576001811461459d576145d0565b60ff1983168652811515602002860193506145d0565b6145a6856142d7565b60005b838110156145c8578154818901526001820191506020810190506145a9565b808801955050505b50505092915050565b600060a08201905081810360008301526145f38188614555565b90508181036020830152614607818761373d565b9050818103604083015261461b818661373d565b9050818103606083015261462f818561373d565b905061463e60808301846138c3565b9695505050505050565b7f416363657373436f6e74726f6c3a2063616e206f6e6c792072656e6f756e636560008201527f20726f6c657320666f722073656c660000000000000000000000000000000000602082015250565b60006146a4602f836136f1565b91506146af82614648565b604082019050919050565b600060208201905081810360008301526146d381614697565b9050919050565b7f455243373231456e756d657261626c653a20676c6f62616c20696e646578206f60008201527f7574206f6620626f756e64730000000000000000000000000000000000000000602082015250565b6000614736602c836136f1565b9150614741826146da565b604082019050919050565b6000602082019050818103600083015261476581614729565b9050919050565b7f4e487b7100000000000000000000000000000000000000000000000000000000600052603260045260246000fd5b7f4552433732313a20696e76616c696420746f6b656e2049440000000000000000600082015250565b60006147d16018836136f1565b91506147dc8261479b565b602082019050919050565b60006020820190508181036000830152614800816147c4565b9050919050565b7f4552433732313a2061646472657373207a65726f206973206e6f74206120766160008201527f6c6964206f776e65720000000000000000000000000000000000000000000000602082015250565b60006148636029836136f1565b915061486e82614807565b604082019050919050565b6000602082019050818103600083015261489281614856565b9050919050565b60006148a482613798565b91506148af83613798565b92508282039050818111156148c7576148c6614274565b5b92915050565b7f596f75206861766520746f206f776e6564206120746f6b656e21000000000000600082015250565b6000614903601a836136f1565b915061490e826148cd565b602082019050919050565b60006020820190508181036000830152614932816148f6565b9050919050565b7f416c726561647920757365642e00000000000000000000000000000000000000600082015250565b600061496f600d836136f1565b915061497a82614939565b602082019050919050565b6000602082019050818103600083015261499e81614962565b9050919050565b6000815490506149b48161408d565b9050919050565b60008190508160005260206000209050919050565b8181036149de575050614ab6565b6149e7826149a5565b67ffffffffffffffff811115614a00576149ff613a84565b5b614a0a825461408d565b614a158282856143f6565b6000601f831160018114614a445760008415614a32578287015490505b614a3c8582614467565b865550614aaf565b601f198416614a52876149bb565b9650614a5d866142d7565b60005b82811015614a8557848901548255600182019150600185019450602081019050614a60565b86831015614aa25784890154614a9e601f891682614449565b8355505b6001600288020188555050505b5050505050505b565b7f4552433732313a2063616c6c6572206973206e6f7420746f6b656e206f776e6560008201527f72206e6f7220617070726f766564000000000000000000000000000000000000602082015250565b6000614b14602e836136f1565b9150614b1f82614ab8565b604082019050919050565b60006020820190508181036000830152614b4381614b07565b9050919050565b600081905092915050565b6000614b60826136e6565b614b6a8185614b4a565b9350614b7a818560208601613702565b80840191505092915050565b6000614b928285614b55565b9150614b9e8284614b55565b91508190509392505050565b7f426c6f6f6420646f6573206e6f74206578697374000000000000000000000000600082015250565b6000614be06014836136f1565b9150614beb82614baa565b602082019050919050565b60006020820190508181036000830152614c0f81614bd3565b9050919050565b7f4552433732313a206d696e7420746f20746865207a65726f2061646472657373600082015250565b6000614c4c6020836136f1565b9150614c5782614c16565b602082019050919050565b60006020820190508181036000830152614c7b81614c3f565b9050919050565b7f4552433732313a20746f6b656e20616c7265616479206d696e74656400000000600082015250565b6000614cb8601c836136f1565b9150614cc382614c82565b602082019050919050565b60006020820190508181036000830152614ce781614cab565b9050919050565b7f416363657373436f6e74726f6c3a206163636f756e7420000000000000000000600082015250565b6000614d24601783614b4a565b9150614d2f82614cee565b601782019050919050565b7f206973206d697373696e6720726f6c6520000000000000000000000000000000600082015250565b6000614d70601183614b4a565b9150614d7b82614d3a565b601182019050919050565b6000614d9182614d17565b9150614d9d8285614b55565b9150614da882614d63565b9150614db48284614b55565b91508190509392505050565b7f4552433732313a20617070726f766520746f2063616c6c657200000000000000600082015250565b6000614df66019836136f1565b9150614e0182614dc0565b602082019050919050565b60006020820190508181036000830152614e2581614de9565b9050919050565b7f4552433732313a207472616e7366657220746f206e6f6e20455243373231526560008201527f63656976657220696d706c656d656e7465720000000000000000000000000000602082015250565b6000614e886032836136f1565b9150614e9382614e2c565b604082019050919050565b60006020820190508181036000830152614eb781614e7b565b9050919050565b6000614ec982613798565b91507fffffffffffffffffffffffffffffffffffffffffffffffffffffffffffffffff8203614efb57614efa614274565b5b600182019050919050565b7f4e487b7100000000000000000000000000000000000000000000000000000000600052601260045260246000fd5b6000614f4082613798565b9150614f4b83613798565b925082614f5b57614f5a614f06565b5b828204905092915050565b6000614f7182613798565b9150614f7c83613798565b925082614f8c57614f8b614f06565b5b828206905092915050565b7f4552433732313a207472616e736665722066726f6d20696e636f72726563742060008201527f6f776e6572000000000000000000000000000000000000000000000000000000602082015250565b6000614ff36025836136f1565b9150614ffe82614f97565b604082019050919050565b6000602082019050818103600083015261502281614fe6565b9050919050565b7f4552433732313a207472616e7366657220746f20746865207a65726f2061646460008201527f7265737300000000000000000000000000000000000000000000000000000000602082015250565b60006150856024836136f1565b915061509082615029565b604082019050919050565b600060208201905081810360008301526150b481615078565b9050919050565b60006150c682613798565b91506150d183613798565b92508282026150df81613798565b915082820484148315176150f6576150f5614274565b5b5092915050565b600061510882613798565b91506000820361511b5761511a614274565b5b600182039050919050565b7f537472696e67733a20686578206c656e67746820696e73756666696369656e74600082015250565b600061515c6020836136f1565b915061516782615126565b602082019050919050565b6000602082019050818103600083015261518b8161514f565b9050919050565b600081519050919050565b600082825260208201905092915050565b60006151b982615192565b6151c3818561519d565b93506151d3818560208601613702565b6151dc8161372c565b840191505092915050565b60006080820190506151fc600083018761382d565b615209602083018661382d565b61521660408301856138c3565b818103606083015261522881846151ae565b905095945050505050565b60008151905061524281613657565b92915050565b60006020828403121561525e5761525d613621565b5b600061526c84828501615233565b91505092915050565b7f4e487b7100000000000000000000000000000000000000000000000000000000600052603160045260246000fdfea2646970667358221220f4a6a507f0c0f57452a61920831ec41d943d63aefffadc8886d58343c79ec5bb64736f6c63430008110033697066733a2f2f516d53683332644b75676f6f336539585876714b5a53366e44596232454d45425a4c4c7635546562675a36586445697066733a2f2f516d61786639746b455a555431386b336a526859646246437379627241737a34743936506b435a5a746742546f46",
  "linkReferences": {},
  "deployedLinkReferences": {}
}