{
  "_format": "hh-sol-artifact-1",
  "contractName": "BloodDonation",
  "sourceName": "contracts/BloodDonation.sol",
  "abi": [
    {
      "inputs": [],
      "stateMutability": "nonpayable",
      "type": "constructor"
    },
    {
      "anonymous": false,
      "inputs": [
        {
          "indexed": true,
          "internalType": "address",
          "name": "owner",
          "type": "address"
        },
        {
          "indexed": true,
          "internalType": "address",
          "name": "approved",
          "type": "address"
        },
        {
          "indexed": true,
          "internalType": "uint256",
          "name": "tokenId",
          "type": "uint256"
        }
      ],
      "name": "Approval",
      "type": "event"
    },
    {
      "anonymous": false,
      "inputs": [
        {
          "indexed": true,
          "internalType": "address",
          "name": "owner",
          "type": "address"
        },
        {
          "indexed": true,
          "internalType": "address",
          "name": "operator",
          "type": "address"
        },
        {
          "indexed": false,
          "internalType": "bool",
          "name": "approved",
          "type": "bool"
        }
      ],
      "name": "ApprovalForAll",
      "type": "event"
    },
    {
      "anonymous": false,
      "inputs": [
        {
          "indexed": true,
          "internalType": "uint256",
          "name": "tokenId",
          "type": "uint256"
        },
        {
          "indexed": false,
          "internalType": "string",
          "name": "photo",
          "type": "string"
        },
        {
          "indexed": false,
          "internalType": "string",
          "name": "title",
          "type": "string"
        },
        {
          "indexed": false,
          "internalType": "string",
          "name": "location",
          "type": "string"
        },
        {
          "indexed": false,
          "internalType": "string",
          "name": "description",
          "type": "string"
        },
        {
          "indexed": false,
          "internalType": "uint256",
          "name": "timestamp",
          "type": "uint256"
        }
      ],
      "name": "BDUploaded",
      "type": "event"
    },
    {
      "anonymous": false,
      "inputs": [
        {
          "indexed": true,
          "internalType": "bytes32",
          "name": "role",
          "type": "bytes32"
        },
        {
          "indexed": true,
          "internalType": "bytes32",
          "name": "previousAdminRole",
          "type": "bytes32"
        },
        {
          "indexed": true,
          "internalType": "bytes32",
          "name": "newAdminRole",
          "type": "bytes32"
        }
      ],
      "name": "RoleAdminChanged",
      "type": "event"
    },
    {
      "anonymous": false,
      "inputs": [
        {
          "indexed": true,
          "internalType": "bytes32",
          "name": "role",
          "type": "bytes32"
        },
        {
          "indexed": true,
          "internalType": "address",
          "name": "account",
          "type": "address"
        },
        {
          "indexed": true,
          "internalType": "address",
          "name": "sender",
          "type": "address"
        }
      ],
      "name": "RoleGranted",
      "type": "event"
    },
    {
      "anonymous": false,
      "inputs": [
        {
          "indexed": true,
          "internalType": "bytes32",
          "name": "role",
          "type": "bytes32"
        },
        {
          "indexed": true,
          "internalType": "address",
          "name": "account",
          "type": "address"
        },
        {
          "indexed": true,
          "internalType": "address",
          "name": "sender",
          "type": "address"
        }
      ],
      "name": "RoleRevoked",
      "type": "event"
    },
    {
      "anonymous": false,
      "inputs": [
        {
          "indexed": true,
          "internalType": "address",
          "name": "from",
          "type": "address"
        },
        {
          "indexed": true,
          "internalType": "address",
          "name": "to",
          "type": "address"
        },
        {
          "indexed": true,
          "internalType": "uint256",
          "name": "tokenId",
          "type": "uint256"
        }
      ],
      "name": "Transfer",
      "type": "event"
    },
    {
      "inputs": [],
      "name": "DEFAULT_ADMIN_ROLE",
      "outputs": [
        {
          "internalType": "bytes32",
          "name": "",
          "type": "bytes32"
        }
      ],
      "stateMutability": "view",
      "type": "function"
    },
    {
      "inputs": [],
      "name": "HOSPITAL",
      "outputs": [
        {
          "internalType": "bytes32",
          "name": "",
          "type": "bytes32"
        }
      ],
      "stateMutability": "view",
      "type": "function"
    },
    {
      "inputs": [],
      "name": "REDCROSS",
      "outputs": [
        {
          "internalType": "bytes32",
          "name": "",
          "type": "bytes32"
        }
      ],
      "stateMutability": "view",
      "type": "function"
    },
    {
      "inputs": [],
      "name": "_notUsedPhotoURI",
      "outputs": [
        {
          "internalType": "string",
          "name": "",
          "type": "string"
        }
      ],
      "stateMutability": "view",
      "type": "function"
    },
    {
      "inputs": [],
      "name": "_usedPhotoURI",
      "outputs": [
        {
          "internalType": "string",
          "name": "",
          "type": "string"
        }
      ],
      "stateMutability": "view",
      "type": "function"
    },
    {
      "inputs": [
        {
          "internalType": "address",
          "name": "to",
          "type": "address"
        },
        {
          "internalType": "uint256",
          "name": "tokenId",
          "type": "uint256"
        }
      ],
      "name": "approve",
      "outputs": [],
      "stateMutability": "nonpayable",
      "type": "function"
    },
    {
      "inputs": [
        {
          "internalType": "address",
          "name": "owner",
          "type": "address"
        }
      ],
      "name": "balanceOf",
      "outputs": [
        {
          "internalType": "uint256",
          "name": "",
          "type": "uint256"
        }
      ],
      "stateMutability": "view",
      "type": "function"
    },
    {
      "inputs": [
        {
          "internalType": "address",
          "name": "account",
          "type": "address"
        }
      ],
      "name": "checkAdminRole",
      "outputs": [],
      "stateMutability": "view",
      "type": "function"
    },
    {
      "inputs": [
        {
          "internalType": "address",
          "name": "account",
          "type": "address"
        }
      ],
      "name": "checkHospitalRole",
      "outputs": [],
      "stateMutability": "view",
      "type": "function"
    },
    {
      "inputs": [
        {
          "internalType": "address",
          "name": "account",
          "type": "address"
        }
      ],
      "name": "checkRedCrossRole",
      "outputs": [],
      "stateMutability": "view",
      "type": "function"
    },
    {
      "inputs": [
        {
          "internalType": "uint256",
          "name": "tokenId",
          "type": "uint256"
        }
      ],
      "name": "getApproved",
      "outputs": [
        {
          "internalType": "address",
          "name": "",
          "type": "address"
        }
      ],
      "stateMutability": "view",
      "type": "function"
    },
    {
      "inputs": [
        {
          "internalType": "uint256",
          "name": "tokenId",
          "type": "uint256"
        }
      ],
      "name": "getBD",
      "outputs": [
        {
          "internalType": "uint256",
          "name": "",
          "type": "uint256"
        },
        {
          "internalType": "address[]",
          "name": "",
          "type": "address[]"
        },
        {
          "internalType": "string",
          "name": "",
          "type": "string"
        },
        {
          "internalType": "string",
          "name": "",
          "type": "string"
        },
        {
          "internalType": "string",
          "name": "",
          "type": "string"
        },
        {
          "internalType": "string",
          "name": "",
          "type": "string"
        },
        {
          "internalType": "uint256",
          "name": "",
          "type": "uint256"
        }
      ],
      "stateMutability": "view",
      "type": "function"
    },
    {
      "inputs": [
        {
          "internalType": "bytes32",
          "name": "role",
          "type": "bytes32"
        }
      ],
      "name": "getRoleAdmin",
      "outputs": [
        {
          "internalType": "bytes32",
          "name": "",
          "type": "bytes32"
        }
      ],
      "stateMutability": "view",
      "type": "function"
    },
    {
      "inputs": [],
      "name": "getTotalBDCount",
      "outputs": [
        {
          "internalType": "uint256",
          "name": "",
          "type": "uint256"
        }
      ],
      "stateMutability": "view",
      "type": "function"
    },
    {
      "inputs": [
        {
          "internalType": "bytes32",
          "name": "role",
          "type": "bytes32"
        },
        {
          "internalType": "address",
          "name": "account",
          "type": "address"
        }
      ],
      "name": "grantRole",
      "outputs": [],
      "stateMutability": "nonpayable",
      "type": "function"
    },
    {
      "inputs": [
        {
          "internalType": "bytes32",
          "name": "role",
          "type": "bytes32"
        },
        {
          "internalType": "address",
          "name": "account",
          "type": "address"
        }
      ],
      "name": "hasRole",
      "outputs": [
        {
          "internalType": "bool",
          "name": "",
          "type": "bool"
        }
      ],
      "stateMutability": "view",
      "type": "function"
    },
    {
      "inputs": [
        {
          "internalType": "address",
          "name": "owner",
          "type": "address"
        },
        {
          "internalType": "address",
          "name": "operator",
          "type": "address"
        }
      ],
      "name": "isApprovedForAll",
      "outputs": [
        {
          "internalType": "bool",
          "name": "",
          "type": "bool"
        }
      ],
      "stateMutability": "view",
      "type": "function"
    },
    {
      "inputs": [
        {
          "internalType": "string",
          "name": "title",
          "type": "string"
        },
        {
          "internalType": "string",
          "name": "location",
          "type": "string"
        },
        {
          "internalType": "string",
          "name": "description",
          "type": "string"
        },
        {
          "internalType": "address",
          "name": "to",
          "type": "address"
        }
      ],
      "name": "mintBD",
      "outputs": [],
      "stateMutability": "nonpayable",
      "type": "function"
    },
    {
      "inputs": [],
      "name": "name",
      "outputs": [
        {
          "internalType": "string",
          "name": "",
          "type": "string"
        }
      ],
      "stateMutability": "view",
      "type": "function"
    },
    {
      "inputs": [
        {
          "internalType": "uint256",
          "name": "tokenId",
          "type": "uint256"
        }
      ],
      "name": "ownerOf",
      "outputs": [
        {
          "internalType": "address",
          "name": "",
          "type": "address"
        }
      ],
      "stateMutability": "view",
      "type": "function"
    },
    {
      "inputs": [
        {
          "internalType": "bytes32",
          "name": "role",
          "type": "bytes32"
        },
        {
          "internalType": "address",
          "name": "account",
          "type": "address"
        }
      ],
      "name": "renounceRole",
      "outputs": [],
      "stateMutability": "nonpayable",
      "type": "function"
    },
    {
      "inputs": [
        {
          "internalType": "bytes32",
          "name": "role",
          "type": "bytes32"
        },
        {
          "internalType": "address",
          "name": "account",
          "type": "address"
        }
      ],
      "name": "revokeRole",
      "outputs": [],
      "stateMutability": "nonpayable",
      "type": "function"
    },
    {
      "inputs": [
        {
          "internalType": "address",
          "name": "from",
          "type": "address"
        },
        {
          "internalType": "address",
          "name": "to",
          "type": "address"
        },
        {
          "internalType": "uint256",
          "name": "tokenId",
          "type": "uint256"
        }
      ],
      "name": "safeTransferFrom",
      "outputs": [],
      "stateMutability": "nonpayable",
      "type": "function"
    },
    {
      "inputs": [
        {
          "internalType": "address",
          "name": "from",
          "type": "address"
        },
        {
          "internalType": "address",
          "name": "to",
          "type": "address"
        },
        {
          "internalType": "uint256",
          "name": "tokenId",
          "type": "uint256"
        },
        {
          "internalType": "bytes",
          "name": "data",
          "type": "bytes"
        }
      ],
      "name": "safeTransferFrom",
      "outputs": [],
      "stateMutability": "nonpayable",
      "type": "function"
    },
    {
      "inputs": [
        {
          "internalType": "address",
          "name": "operator",
          "type": "address"
        },
        {
          "internalType": "bool",
          "name": "approved",
          "type": "bool"
        }
      ],
      "name": "setApprovalForAll",
      "outputs": [],
      "stateMutability": "nonpayable",
      "type": "function"
    },
    {
      "inputs": [
        {
          "internalType": "bytes4",
          "name": "interfaceId",
          "type": "bytes4"
        }
      ],
      "name": "supportsInterface",
      "outputs": [
        {
          "internalType": "bool",
          "name": "",
          "type": "bool"
        }
      ],
      "stateMutability": "view",
      "type": "function"
    },
    {
      "inputs": [],
      "name": "symbol",
      "outputs": [
        {
          "internalType": "string",
          "name": "",
          "type": "string"
        }
      ],
      "stateMutability": "view",
      "type": "function"
    },
    {
      "inputs": [
        {
          "internalType": "uint256",
          "name": "index",
          "type": "uint256"
        }
      ],
      "name": "tokenByIndex",
      "outputs": [
        {
          "internalType": "uint256",
          "name": "",
          "type": "uint256"
        }
      ],
      "stateMutability": "view",
      "type": "function"
    },
    {
      "inputs": [
        {
          "internalType": "address",
          "name": "owner",
          "type": "address"
        },
        {
          "internalType": "uint256",
          "name": "index",
          "type": "uint256"
        }
      ],
      "name": "tokenOfOwnerByIndex",
      "outputs": [
        {
          "internalType": "uint256",
          "name": "",
          "type": "uint256"
        }
      ],
      "stateMutability": "view",
      "type": "function"
    },
    {
      "inputs": [
        {
          "internalType": "uint256",
          "name": "tokenId",
          "type": "uint256"
        }
      ],
      "name": "tokenURI",
      "outputs": [
        {
          "internalType": "string",
          "name": "",
          "type": "string"
        }
      ],
      "stateMutability": "view",
      "type": "function"
    },
    {
      "inputs": [],
      "name": "totalSupply",
      "outputs": [
        {
          "internalType": "uint256",
          "name": "",
          "type": "uint256"
        }
      ],
      "stateMutability": "view",
      "type": "function"
    },
    {
      "inputs": [
        {
          "internalType": "address",
          "name": "from",
          "type": "address"
        },
        {
          "internalType": "address",
          "name": "to",
          "type": "address"
        },
        {
          "internalType": "uint256",
          "name": "tokenId",
          "type": "uint256"
        }
      ],
      "name": "transferFrom",
      "outputs": [],
      "stateMutability": "nonpayable",
      "type": "function"
    },
    {
      "inputs": [
        {
          "internalType": "uint256",
          "name": "tokenId",
          "type": "uint256"
        },
        {
          "internalType": "address",
          "name": "to",
          "type": "address"
        }
      ],
      "name": "transferOwnership",
      "outputs": [
        {
          "internalType": "uint256",
          "name": "",
          "type": "uint256"
        },
        {
          "internalType": "address",
          "name": "",
          "type": "address"
        },
        {
          "internalType": "address",
          "name": "",
          "type": "address"
        },
        {
          "internalType": "address",
          "name": "",
          "type": "address"
        }
      ],
      "stateMutability": "nonpayable",
      "type": "function"
    },
    {
      "inputs": [],
      "name": "used",
      "outputs": [
        {
          "internalType": "bool",
          "name": "",
          "type": "bool"
        }
      ],
      "stateMutability": "view",
      "type": "function"
    }
  ],
  "bytecode": "0x6080604052604051806060016040528060358152602001620050e160359139600c90816200002e919062000525565b50604051806060016040528060358152602001620050e160359139600d908162000059919062000525565b506000600e60006101000a81548160ff0219169083151502179055503480156200008257600080fd5b506040518060400160405280600d81526020017f426c6f6f64446f6e6174696f6e000000000000000000000000000000000000008152506040518060400160405280600581526020017f42444e4654000000000000000000000000000000000000000000000000000000815250816000908162000100919062000525565b50806001908162000112919062000525565b5050506200012a6000801b336200013060201b60201c565b6200060c565b6200014282826200014660201b60201c565b5050565b6200015882826200023860201b60201c565b62000234576001600a600084815260200190815260200160002060000160008373ffffffffffffffffffffffffffffffffffffffff1673ffffffffffffffffffffffffffffffffffffffff16815260200190815260200160002060006101000a81548160ff021916908315150217905550620001d9620002a360201b60201c565b73ffffffffffffffffffffffffffffffffffffffff168173ffffffffffffffffffffffffffffffffffffffff16837f2f8788117e7eff1d82e926ec794901d17c78024a50270940304540a733656f0d60405160405180910390a45b5050565b6000600a600084815260200190815260200160002060000160008373ffffffffffffffffffffffffffffffffffffffff1673ffffffffffffffffffffffffffffffffffffffff16815260200190815260200160002060009054906101000a900460ff16905092915050565b600033905090565b600081519050919050565b7f4e487b7100000000000000000000000000000000000000000000000000000000600052604160045260246000fd5b7f4e487b7100000000000000000000000000000000000000000000000000000000600052602260045260246000fd5b600060028204905060018216806200032d57607f821691505b602082108103620003435762000342620002e5565b5b50919050565b60008190508160005260206000209050919050565b60006020601f8301049050919050565b600082821b905092915050565b600060088302620003ad7fffffffffffffffffffffffffffffffffffffffffffffffffffffffffffffffff826200036e565b620003b986836200036e565b95508019841693508086168417925050509392505050565b6000819050919050565b6000819050919050565b60006200040662000400620003fa84620003d1565b620003db565b620003d1565b9050919050565b6000819050919050565b6200042283620003e5565b6200043a62000431826200040d565b8484546200037b565b825550505050565b600090565b6200045162000442565b6200045e81848462000417565b505050565b5b8181101562000486576200047a60008262000447565b60018101905062000464565b5050565b601f821115620004d5576200049f8162000349565b620004aa846200035e565b81016020851015620004ba578190505b620004d2620004c9856200035e565b83018262000463565b50505b505050565b600082821c905092915050565b6000620004fa60001984600802620004da565b1980831691505092915050565b6000620005158383620004e7565b9150826002028217905092915050565b6200053082620002ab565b67ffffffffffffffff8111156200054c576200054b620002b6565b5b62000558825462000314565b620005658282856200048a565b600060209050601f8311600181146200059d576000841562000588578287015190505b62000594858262000507565b86555062000604565b601f198416620005ad8662000349565b60005b82811015620005d757848901518255600182019150602085019450602081019050620005b0565b86831015620005f75784890151620005f3601f891682620004e7565b8355505b6001600288020188555050505b505050505050565b614ac5806200061c6000396000f3fe608060405234801561001057600080fd5b50600436106102065760003560e01c80635dd9727d1161011a578063a217fddf116100ad578063c87b56dd1161007c578063c87b56dd14610602578063d547741f14610632578063e386be2e1461064e578063e985e9c51461066a578063ed54e96a1461069a57610206565b8063a217fddf1461058e578063a22cb465146105ac578063b0806ea7146105c8578063b88d4fde146105e657610206565b80637b3dc4ef116100e95780637b3dc4ef1461050857806391d148541461052457806395d89b4114610554578063a0562f691461057257610206565b80635dd9727d1461046c5780636352211e1461048a57806363898e2b146104ba57806370a08231146104d857610206565b806329507f731161019d578063353acb331161016c578063353acb33146103ca57806336568abe146103e657806342842e0e146104025780634f6ccce71461041e57806354d0c5491461044e57610206565b806329507f731461032d5780632de31f3c146103605780632f2ff15d1461037e5780632f745c591461039a57610206565b806318160ddd116101d957806318160ddd146102a557806323b872dd146102c3578063248a9ca3146102df57806327bbe7ee1461030f57610206565b806301ffc9a71461020b57806306fdde031461023b578063081812fc14610259578063095ea7b314610289575b600080fd5b610225600480360381019061022091906130e8565b6106d0565b6040516102329190613130565b60405180910390f35b6102436106e2565b60405161025091906131db565b60405180910390f35b610273600480360381019061026e9190613233565b610774565b60405161028091906132a1565b60405180910390f35b6102a3600480360381019061029e91906132e8565b6107ba565b005b6102ad6108d1565b6040516102ba9190613337565b60405180910390f35b6102dd60048036038101906102d89190613352565b6108de565b005b6102f960048036038101906102f491906133db565b610965565b6040516103069190613417565b60405180910390f35b610317610985565b6040516103249190613417565b60405180910390f35b61034760048036038101906103429190613432565b6109a9565b6040516103579493929190613472565b60405180910390f35b610368610b13565b60405161037591906131db565b60405180910390f35b610398600480360381019061039391906134b7565b610ba5565b005b6103b460048036038101906103af91906132e8565b610bc6565b6040516103c19190613337565b60405180910390f35b6103e460048036038101906103df919061362c565b610c6b565b005b61040060048036038101906103fb91906134b7565b610f06565b005b61041c60048036038101906104179190613352565b610f89565b005b61043860048036038101906104339190613233565b610fa9565b6040516104459190613337565b60405180910390f35b61045661101a565b60405161046391906131db565b60405180910390f35b6104746110ac565b6040516104819190613337565b60405180910390f35b6104a4600480360381019061049f9190613233565b6110bb565b6040516104b191906132a1565b60405180910390f35b6104c261116c565b6040516104cf9190613130565b60405180910390f35b6104f260048036038101906104ed91906136e7565b61117f565b6040516104ff9190613337565b60405180910390f35b610522600480360381019061051d91906136e7565b611236565b005b61053e600480360381019061053991906134b7565b611263565b60405161054b9190613130565b60405180910390f35b61055c6112ce565b60405161056991906131db565b60405180910390f35b61058c600480360381019061058791906136e7565b611360565b005b61059661138d565b6040516105a39190613417565b60405180910390f35b6105c660048036038101906105c19190613740565b611394565b005b6105d06113aa565b6040516105dd9190613417565b60405180910390f35b61060060048036038101906105fb9190613821565b6113ce565b005b61061c60048036038101906106179190613233565b611430565b60405161062991906131db565b60405180910390f35b61064c600480360381019061064791906134b7565b611498565b005b610668600480360381019061066391906136e7565b6114b9565b005b610684600480360381019061067f91906138a4565b6114c9565b6040516106919190613130565b60405180910390f35b6106b460048036038101906106af9190613233565b61155d565b6040516106c797969594939291906139a2565b60405180910390f35b60006106db8261192e565b9050919050565b6060600080546106f190613a63565b80601f016020809104026020016040519081016040528092919081815260200182805461071d90613a63565b801561076a5780601f1061073f5761010080835404028352916020019161076a565b820191906000526020600020905b81548152906001019060200180831161074d57829003601f168201915b5050505050905090565b600061077f826119a8565b6004600083815260200190815260200160002060009054906101000a900473ffffffffffffffffffffffffffffffffffffffff169050919050565b60006107c5826110bb565b90508073ffffffffffffffffffffffffffffffffffffffff168373ffffffffffffffffffffffffffffffffffffffff1603610835576040517f08c379a000000000000000000000000000000000000000000000000000000000815260040161082c90613b06565b60405180910390fd5b8073ffffffffffffffffffffffffffffffffffffffff166108546119f3565b73ffffffffffffffffffffffffffffffffffffffff16148061088357506108828161087d6119f3565b6114c9565b5b6108c2576040517f08c379a00000000000000000000000000000000000000000000000000000000081526004016108b990613b98565b60405180910390fd5b6108cc83836119fb565b505050565b6000600880549050905090565b6108e9838383611ab4565b600b6000828152602001908152602001600020600101829080600181540180825580915050600190039060005260206000200160009091909190916101000a81548173ffffffffffffffffffffffffffffffffffffffff021916908373ffffffffffffffffffffffffffffffffffffffff160217905550505050565b6000600a6000838152602001908152602001600020600101549050919050565b7f72d66193ff00a845b4aed5f27e02d9b558ef32be1495a41d00c5c5fb191a076381565b6000806000806109ba338688610f89565b6000600b6000888152602001908152602001600020600101805490509050600b600088815260200190815260200160002060000154600b6000898152602001908152602001600020600101600081548110610a1857610a17613bb8565b5b9060005260206000200160009054906101000a900473ffffffffffffffffffffffffffffffffffffffff16600b60008a8152602001908152602001600020600101600284610a669190613c16565b81548110610a7757610a76613bb8565b5b9060005260206000200160009054906101000a900473ffffffffffffffffffffffffffffffffffffffff16600b60008b8152602001908152602001600020600101600185610ac59190613c16565b81548110610ad657610ad5613bb8565b5b9060005260206000200160009054906101000a900473ffffffffffffffffffffffffffffffffffffffff1694509450945094505092959194509250565b6060600d8054610b2290613a63565b80601f0160208091040260200160405190810160405280929190818152602001828054610b4e90613a63565b8015610b9b5780601f10610b7057610100808354040283529160200191610b9b565b820191906000526020600020905b815481529060010190602001808311610b7e57829003601f168201915b5050505050905090565b610bae82610965565b610bb781611b14565b610bc18383611b28565b505050565b6000610bd18361117f565b8210610c12576040517f08c379a0000000000000000000000000000000000000000000000000000000008152600401610c0990613cbc565b60405180910390fd5b600660008473ffffffffffffffffffffffffffffffffffffffff1673ffffffffffffffffffffffffffffffffffffffff168152602001908152602001600020600083815260200190815260200160002054905092915050565b7f60460dbe4b1f79d9efa1691d671057dc56200fed92b7dc0eb552fafb819b082c610c9581611b14565b60006001610ca16108d1565b610cab9190613cdc565b9050610cb78382611c09565b60606000604051806101000160405280848152602001838152602001600c8054610ce090613a63565b80601f0160208091040260200160405190810160405280929190818152602001828054610d0c90613a63565b8015610d595780601f10610d2e57610100808354040283529160200191610d59565b820191906000526020600020905b815481529060010190602001808311610d3c57829003601f168201915b5050505050815260200189815260200188815260200187815260200142815260200160001515815250905080600b6000858152602001908152602001600020600082015181600001556020820151816001019080519060200190610dbe929190612fd5565b506040820151816002019081610dd49190613ebc565b506060820151816003019081610dea9190613ebc565b506080820151816004019081610e009190613ebc565b5060a0820151816005019081610e169190613ebc565b5060c0820151816006015560e08201518160070160006101000a81548160ff021916908315150217905550905050600b6000848152602001908152602001600020600101859080600181540180825580915050600190039060005260206000200160009091909190916101000a81548173ffffffffffffffffffffffffffffffffffffffff021916908373ffffffffffffffffffffffffffffffffffffffff160217905550827f94da8b1f54d6b112f33b8d347f164fc8f25cd951a157bcc7493673b7cadbf363600c8a8a8a42604051610ef4959493929190614012565b60405180910390a25050505050505050565b610f0e6119f3565b73ffffffffffffffffffffffffffffffffffffffff168173ffffffffffffffffffffffffffffffffffffffff1614610f7b576040517f08c379a0000000000000000000000000000000000000000000000000000000008152600401610f72906140f3565b60405180910390fd5b610f858282611de2565b5050565b610fa4838383604051806020016040528060008152506113ce565b505050565b6000610fb36108d1565b8210610ff4576040517f08c379a0000000000000000000000000000000000000000000000000000000008152600401610feb90614185565b60405180910390fd5b6008828154811061100857611007613bb8565b5b90600052602060002001549050919050565b6060600c805461102990613a63565b80601f016020809104026020016040519081016040528092919081815260200182805461105590613a63565b80156110a25780601f10611077576101008083540402835291602001916110a2565b820191906000526020600020905b81548152906001019060200180831161108557829003601f168201915b5050505050905090565b60006110b66108d1565b905090565b6000806002600084815260200190815260200160002060009054906101000a900473ffffffffffffffffffffffffffffffffffffffff169050600073ffffffffffffffffffffffffffffffffffffffff168173ffffffffffffffffffffffffffffffffffffffff1603611163576040517f08c379a000000000000000000000000000000000000000000000000000000000815260040161115a906141f1565b60405180910390fd5b80915050919050565b600e60009054906101000a900460ff1681565b60008073ffffffffffffffffffffffffffffffffffffffff168273ffffffffffffffffffffffffffffffffffffffff16036111ef576040517f08c379a00000000000000000000000000000000000000000000000000000000081526004016111e690614283565b60405180910390fd5b600360008373ffffffffffffffffffffffffffffffffffffffff1673ffffffffffffffffffffffffffffffffffffffff168152602001908152602001600020549050919050565b6112607f72d66193ff00a845b4aed5f27e02d9b558ef32be1495a41d00c5c5fb191a076382611ec4565b50565b6000600a600084815260200190815260200160002060000160008373ffffffffffffffffffffffffffffffffffffffff1673ffffffffffffffffffffffffffffffffffffffff16815260200190815260200160002060009054906101000a900460ff16905092915050565b6060600180546112dd90613a63565b80601f016020809104026020016040519081016040528092919081815260200182805461130990613a63565b80156113565780601f1061132b57610100808354040283529160200191611356565b820191906000526020600020905b81548152906001019060200180831161133957829003601f168201915b5050505050905090565b61138a7f60460dbe4b1f79d9efa1691d671057dc56200fed92b7dc0eb552fafb819b082c82611ec4565b50565b6000801b81565b6113a661139f6119f3565b8383611f61565b5050565b7f60460dbe4b1f79d9efa1691d671057dc56200fed92b7dc0eb552fafb819b082c81565b6113df6113d96119f3565b836120cd565b61141e576040517f08c379a000000000000000000000000000000000000000000000000000000000815260040161141590614315565b60405180910390fd5b61142a84848484612162565b50505050565b606061143b826119a8565b60006114456121be565b905060008151116114655760405180602001604052806000815250611490565b8061146f846121d5565b604051602001611480929190614371565b6040516020818303038152906040525b915050919050565b6114a182610965565b6114aa81611b14565b6114b48383611de2565b505050565b6114c66000801b82611ec4565b50565b6000600560008473ffffffffffffffffffffffffffffffffffffffff1673ffffffffffffffffffffffffffffffffffffffff16815260200190815260200160002060008373ffffffffffffffffffffffffffffffffffffffff1673ffffffffffffffffffffffffffffffffffffffff16815260200190815260200160002060009054906101000a900460ff16905092915050565b60006060806060806060600080600b60008a815260200190815260200160002060000154036115c1576040517f08c379a00000000000000000000000000000000000000000000000000000000081526004016115b8906143e1565b60405180910390fd5b600b600089815260200190815260200160002060000154600b60008a8152602001908152602001600020600101600b60008b8152602001908152602001600020600201600b60008c8152602001908152602001600020600301600b60008d8152602001908152602001600020600401600b60008e8152602001908152602001600020600501600b60008f815260200190815260200160002060060154858054806020026020016040519081016040528092919081815260200182805480156116de57602002820191906000526020600020905b8160009054906101000a900473ffffffffffffffffffffffffffffffffffffffff1673ffffffffffffffffffffffffffffffffffffffff1681526020019060010190808311611694575b505050505095508480546116f190613a63565b80601f016020809104026020016040519081016040528092919081815260200182805461171d90613a63565b801561176a5780601f1061173f5761010080835404028352916020019161176a565b820191906000526020600020905b81548152906001019060200180831161174d57829003601f168201915b5050505050945083805461177d90613a63565b80601f01602080910402602001604051908101604052809291908181526020018280546117a990613a63565b80156117f65780601f106117cb576101008083540402835291602001916117f6565b820191906000526020600020905b8154815290600101906020018083116117d957829003601f168201915b5050505050935082805461180990613a63565b80601f016020809104026020016040519081016040528092919081815260200182805461183590613a63565b80156118825780601f1061185757610100808354040283529160200191611882565b820191906000526020600020905b81548152906001019060200180831161186557829003601f168201915b5050505050925081805461189590613a63565b80601f01602080910402602001604051908101604052809291908181526020018280546118c190613a63565b801561190e5780601f106118e35761010080835404028352916020019161190e565b820191906000526020600020905b8154815290600101906020018083116118f157829003601f168201915b505050505091509650965096509650965096509650919395979092949650565b60007f7965db0b000000000000000000000000000000000000000000000000000000007bffffffffffffffffffffffffffffffffffffffffffffffffffffffff1916827bffffffffffffffffffffffffffffffffffffffffffffffffffffffff191614806119a157506119a082612335565b5b9050919050565b6119b1816123af565b6119f0576040517f08c379a00000000000000000000000000000000000000000000000000000000081526004016119e7906141f1565b60405180910390fd5b50565b600033905090565b816004600083815260200190815260200160002060006101000a81548173ffffffffffffffffffffffffffffffffffffffff021916908373ffffffffffffffffffffffffffffffffffffffff160217905550808273ffffffffffffffffffffffffffffffffffffffff16611a6e836110bb565b73ffffffffffffffffffffffffffffffffffffffff167f8c5be1e5ebec7d5bd14f71427d1e84f3dd0314c0f7b2291e5b200ac8c7c3b92560405160405180910390a45050565b611ac5611abf6119f3565b826120cd565b611b04576040517f08c379a0000000000000000000000000000000000000000000000000000000008152600401611afb90614315565b60405180910390fd5b611b0f83838361241b565b505050565b611b2581611b206119f3565b611ec4565b50565b611b328282611263565b611c05576001600a600084815260200190815260200160002060000160008373ffffffffffffffffffffffffffffffffffffffff1673ffffffffffffffffffffffffffffffffffffffff16815260200190815260200160002060006101000a81548160ff021916908315150217905550611baa6119f3565b73ffffffffffffffffffffffffffffffffffffffff168173ffffffffffffffffffffffffffffffffffffffff16837f2f8788117e7eff1d82e926ec794901d17c78024a50270940304540a733656f0d60405160405180910390a45b5050565b600073ffffffffffffffffffffffffffffffffffffffff168273ffffffffffffffffffffffffffffffffffffffff1603611c78576040517f08c379a0000000000000000000000000000000000000000000000000000000008152600401611c6f9061444d565b60405180910390fd5b611c81816123af565b15611cc1576040517f08c379a0000000000000000000000000000000000000000000000000000000008152600401611cb8906144b9565b60405180910390fd5b611ccd60008383612681565b6001600360008473ffffffffffffffffffffffffffffffffffffffff1673ffffffffffffffffffffffffffffffffffffffff1681526020019081526020016000206000828254611d1d9190613cdc565b92505081905550816002600083815260200190815260200160002060006101000a81548173ffffffffffffffffffffffffffffffffffffffff021916908373ffffffffffffffffffffffffffffffffffffffff160217905550808273ffffffffffffffffffffffffffffffffffffffff16600073ffffffffffffffffffffffffffffffffffffffff167fddf252ad1be2c89b69c2b068fc378daa952ba7f163c4a11628f55a4df523b3ef60405160405180910390a4611dde60008383612793565b5050565b611dec8282611263565b15611ec0576000600a600084815260200190815260200160002060000160008373ffffffffffffffffffffffffffffffffffffffff1673ffffffffffffffffffffffffffffffffffffffff16815260200190815260200160002060006101000a81548160ff021916908315150217905550611e656119f3565b73ffffffffffffffffffffffffffffffffffffffff168173ffffffffffffffffffffffffffffffffffffffff16837ff6391f5c32d9c69d2a47ea670b442974b53935d1edc7fd64eb21e047a839171b60405160405180910390a45b5050565b611ece8282611263565b611f5d57611ef38173ffffffffffffffffffffffffffffffffffffffff166014612798565b611f018360001c6020612798565b604051602001611f12929190614571565b6040516020818303038152906040526040517f08c379a0000000000000000000000000000000000000000000000000000000008152600401611f5491906131db565b60405180910390fd5b5050565b8173ffffffffffffffffffffffffffffffffffffffff168373ffffffffffffffffffffffffffffffffffffffff1603611fcf576040517f08c379a0000000000000000000000000000000000000000000000000000000008152600401611fc6906145f7565b60405180910390fd5b80600560008573ffffffffffffffffffffffffffffffffffffffff1673ffffffffffffffffffffffffffffffffffffffff16815260200190815260200160002060008473ffffffffffffffffffffffffffffffffffffffff1673ffffffffffffffffffffffffffffffffffffffff16815260200190815260200160002060006101000a81548160ff0219169083151502179055508173ffffffffffffffffffffffffffffffffffffffff168373ffffffffffffffffffffffffffffffffffffffff167f17307eab39ab6107e8899845ad3d59bd9653f200f220920489ca2b5937696c31836040516120c09190613130565b60405180910390a3505050565b6000806120d9836110bb565b90508073ffffffffffffffffffffffffffffffffffffffff168473ffffffffffffffffffffffffffffffffffffffff16148061211b575061211a81856114c9565b5b8061215957508373ffffffffffffffffffffffffffffffffffffffff1661214184610774565b73ffffffffffffffffffffffffffffffffffffffff16145b91505092915050565b61216d84848461241b565b612179848484846129d4565b6121b8576040517f08c379a00000000000000000000000000000000000000000000000000000000081526004016121af90614689565b60405180910390fd5b50505050565b606060405180602001604052806000815250905090565b60606000820361221c576040518060400160405280600181526020017f30000000000000000000000000000000000000000000000000000000000000008152509050612330565b600082905060005b6000821461224e578080612237906146a9565b915050600a826122479190614720565b9150612224565b60008167ffffffffffffffff81111561226a57612269613501565b5b6040519080825280601f01601f19166020018201604052801561229c5781602001600182028036833780820191505090505b5090505b60008514612329576001826122b59190613c16565b9150600a856122c49190614751565b60306122d09190613cdc565b60f81b8183815181106122e6576122e5613bb8565b5b60200101907effffffffffffffffffffffffffffffffffffffffffffffffffffffffffffff1916908160001a905350600a856123229190614720565b94506122a0565b8093505050505b919050565b60007f780e9d63000000000000000000000000000000000000000000000000000000007bffffffffffffffffffffffffffffffffffffffffffffffffffffffff1916827bffffffffffffffffffffffffffffffffffffffffffffffffffffffff191614806123a857506123a782612b5b565b5b9050919050565b60008073ffffffffffffffffffffffffffffffffffffffff166002600084815260200190815260200160002060009054906101000a900473ffffffffffffffffffffffffffffffffffffffff1673ffffffffffffffffffffffffffffffffffffffff1614159050919050565b8273ffffffffffffffffffffffffffffffffffffffff1661243b826110bb565b73ffffffffffffffffffffffffffffffffffffffff1614612491576040517f08c379a0000000000000000000000000000000000000000000000000000000008152600401612488906147f4565b60405180910390fd5b600073ffffffffffffffffffffffffffffffffffffffff168273ffffffffffffffffffffffffffffffffffffffff1603612500576040517f08c379a00000000000000000000000000000000000000000000000000000000081526004016124f790614886565b60405180910390fd5b61250b838383612681565b6125166000826119fb565b6001600360008573ffffffffffffffffffffffffffffffffffffffff1673ffffffffffffffffffffffffffffffffffffffff16815260200190815260200160002060008282546125669190613c16565b925050819055506001600360008473ffffffffffffffffffffffffffffffffffffffff1673ffffffffffffffffffffffffffffffffffffffff16815260200190815260200160002060008282546125bd9190613cdc565b92505081905550816002600083815260200190815260200160002060006101000a81548173ffffffffffffffffffffffffffffffffffffffff021916908373ffffffffffffffffffffffffffffffffffffffff160217905550808273ffffffffffffffffffffffffffffffffffffffff168473ffffffffffffffffffffffffffffffffffffffff167fddf252ad1be2c89b69c2b068fc378daa952ba7f163c4a11628f55a4df523b3ef60405160405180910390a461267c838383612793565b505050565b61268c838383612c3d565b600073ffffffffffffffffffffffffffffffffffffffff168373ffffffffffffffffffffffffffffffffffffffff16036126ce576126c981612c42565b61270d565b8173ffffffffffffffffffffffffffffffffffffffff168373ffffffffffffffffffffffffffffffffffffffff161461270c5761270b8382612c8b565b5b5b600073ffffffffffffffffffffffffffffffffffffffff168273ffffffffffffffffffffffffffffffffffffffff160361274f5761274a81612df8565b61278e565b8273ffffffffffffffffffffffffffffffffffffffff168273ffffffffffffffffffffffffffffffffffffffff161461278d5761278c8282612ec9565b5b5b505050565b505050565b6060600060028360026127ab91906148a6565b6127b59190613cdc565b67ffffffffffffffff8111156127ce576127cd613501565b5b6040519080825280601f01601f1916602001820160405280156128005781602001600182028036833780820191505090505b5090507f30000000000000000000000000000000000000000000000000000000000000008160008151811061283857612837613bb8565b5b60200101907effffffffffffffffffffffffffffffffffffffffffffffffffffffffffffff1916908160001a9053507f78000000000000000000000000000000000000000000000000000000000000008160018151811061289c5761289b613bb8565b5b60200101907effffffffffffffffffffffffffffffffffffffffffffffffffffffffffffff1916908160001a905350600060018460026128dc91906148a6565b6128e69190613cdc565b90505b6001811115612986577f3031323334353637383961626364656600000000000000000000000000000000600f86166010811061292857612927613bb8565b5b1a60f81b82828151811061293f5761293e613bb8565b5b60200101907effffffffffffffffffffffffffffffffffffffffffffffffffffffffffffff1916908160001a905350600485901c94508061297f906148e8565b90506128e9565b50600084146129ca576040517f08c379a00000000000000000000000000000000000000000000000000000000081526004016129c19061495d565b60405180910390fd5b8091505092915050565b60006129f58473ffffffffffffffffffffffffffffffffffffffff16612f48565b15612b4e578373ffffffffffffffffffffffffffffffffffffffff1663150b7a02612a1e6119f3565b8786866040518563ffffffff1660e01b8152600401612a4094939291906149d2565b6020604051808303816000875af1925050508015612a7c57506040513d601f19601f82011682018060405250810190612a799190614a33565b60015b612afe573d8060008114612aac576040519150601f19603f3d011682016040523d82523d6000602084013e612ab1565b606091505b506000815103612af6576040517f08c379a0000000000000000000000000000000000000000000000000000000008152600401612aed90614689565b60405180910390fd5b805181602001fd5b63150b7a0260e01b7bffffffffffffffffffffffffffffffffffffffffffffffffffffffff1916817bffffffffffffffffffffffffffffffffffffffffffffffffffffffff191614915050612b53565b600190505b949350505050565b60007f80ac58cd000000000000000000000000000000000000000000000000000000007bffffffffffffffffffffffffffffffffffffffffffffffffffffffff1916827bffffffffffffffffffffffffffffffffffffffffffffffffffffffff19161480612c2657507f5b5e139f000000000000000000000000000000000000000000000000000000007bffffffffffffffffffffffffffffffffffffffffffffffffffffffff1916827bffffffffffffffffffffffffffffffffffffffffffffffffffffffff1916145b80612c365750612c3582612f6b565b5b9050919050565b505050565b6008805490506009600083815260200190815260200160002081905550600881908060018154018082558091505060019003906000526020600020016000909190919091505550565b60006001612c988461117f565b612ca29190613c16565b9050600060076000848152602001908152602001600020549050818114612d87576000600660008673ffffffffffffffffffffffffffffffffffffffff1673ffffffffffffffffffffffffffffffffffffffff168152602001908152602001600020600084815260200190815260200160002054905080600660008773ffffffffffffffffffffffffffffffffffffffff1673ffffffffffffffffffffffffffffffffffffffff168152602001908152602001600020600084815260200190815260200160002081905550816007600083815260200190815260200160002081905550505b6007600084815260200190815260200160002060009055600660008573ffffffffffffffffffffffffffffffffffffffff1673ffffffffffffffffffffffffffffffffffffffff16815260200190815260200160002060008381526020019081526020016000206000905550505050565b60006001600880549050612e0c9190613c16565b9050600060096000848152602001908152602001600020549050600060088381548110612e3c57612e3b613bb8565b5b906000526020600020015490508060088381548110612e5e57612e5d613bb8565b5b906000526020600020018190555081600960008381526020019081526020016000208190555060096000858152602001908152602001600020600090556008805480612ead57612eac614a60565b5b6001900381819060005260206000200160009055905550505050565b6000612ed48361117f565b905081600660008573ffffffffffffffffffffffffffffffffffffffff1673ffffffffffffffffffffffffffffffffffffffff168152602001908152602001600020600083815260200190815260200160002081905550806007600084815260200190815260200160002081905550505050565b6000808273ffffffffffffffffffffffffffffffffffffffff163b119050919050565b60007f01ffc9a7000000000000000000000000000000000000000000000000000000007bffffffffffffffffffffffffffffffffffffffffffffffffffffffff1916827bffffffffffffffffffffffffffffffffffffffffffffffffffffffff1916149050919050565b82805482825590600052602060002090810192821561304e579160200282015b8281111561304d5782518260006101000a81548173ffffffffffffffffffffffffffffffffffffffff021916908373ffffffffffffffffffffffffffffffffffffffff16021790555091602001919060010190612ff5565b5b50905061305b919061305f565b5090565b5b80821115613078576000816000905550600101613060565b5090565b6000604051905090565b600080fd5b600080fd5b60007fffffffff0000000000000000000000000000000000000000000000000000000082169050919050565b6130c581613090565b81146130d057600080fd5b50565b6000813590506130e2816130bc565b92915050565b6000602082840312156130fe576130fd613086565b5b600061310c848285016130d3565b91505092915050565b60008115159050919050565b61312a81613115565b82525050565b60006020820190506131456000830184613121565b92915050565b600081519050919050565b600082825260208201905092915050565b60005b8381101561318557808201518184015260208101905061316a565b60008484015250505050565b6000601f19601f8301169050919050565b60006131ad8261314b565b6131b78185613156565b93506131c7818560208601613167565b6131d081613191565b840191505092915050565b600060208201905081810360008301526131f581846131a2565b905092915050565b6000819050919050565b613210816131fd565b811461321b57600080fd5b50565b60008135905061322d81613207565b92915050565b60006020828403121561324957613248613086565b5b60006132578482850161321e565b91505092915050565b600073ffffffffffffffffffffffffffffffffffffffff82169050919050565b600061328b82613260565b9050919050565b61329b81613280565b82525050565b60006020820190506132b66000830184613292565b92915050565b6132c581613280565b81146132d057600080fd5b50565b6000813590506132e2816132bc565b92915050565b600080604083850312156132ff576132fe613086565b5b600061330d858286016132d3565b925050602061331e8582860161321e565b9150509250929050565b613331816131fd565b82525050565b600060208201905061334c6000830184613328565b92915050565b60008060006060848603121561336b5761336a613086565b5b6000613379868287016132d3565b935050602061338a868287016132d3565b925050604061339b8682870161321e565b9150509250925092565b6000819050919050565b6133b8816133a5565b81146133c357600080fd5b50565b6000813590506133d5816133af565b92915050565b6000602082840312156133f1576133f0613086565b5b60006133ff848285016133c6565b91505092915050565b613411816133a5565b82525050565b600060208201905061342c6000830184613408565b92915050565b6000806040838503121561344957613448613086565b5b60006134578582860161321e565b9250506020613468858286016132d3565b9150509250929050565b60006080820190506134876000830187613328565b6134946020830186613292565b6134a16040830185613292565b6134ae6060830184613292565b95945050505050565b600080604083850312156134ce576134cd613086565b5b60006134dc858286016133c6565b92505060206134ed858286016132d3565b9150509250929050565b600080fd5b600080fd5b7f4e487b7100000000000000000000000000000000000000000000000000000000600052604160045260246000fd5b61353982613191565b810181811067ffffffffffffffff8211171561355857613557613501565b5b80604052505050565b600061356b61307c565b90506135778282613530565b919050565b600067ffffffffffffffff82111561359757613596613501565b5b6135a082613191565b9050602081019050919050565b82818337600083830152505050565b60006135cf6135ca8461357c565b613561565b9050828152602081018484840111156135eb576135ea6134fc565b5b6135f68482856135ad565b509392505050565b600082601f830112613613576136126134f7565b5b81356136238482602086016135bc565b91505092915050565b6000806000806080858703121561364657613645613086565b5b600085013567ffffffffffffffff8111156136645761366361308b565b5b613670878288016135fe565b945050602085013567ffffffffffffffff8111156136915761369061308b565b5b61369d878288016135fe565b935050604085013567ffffffffffffffff8111156136be576136bd61308b565b5b6136ca878288016135fe565b92505060606136db878288016132d3565b91505092959194509250565b6000602082840312156136fd576136fc613086565b5b600061370b848285016132d3565b91505092915050565b61371d81613115565b811461372857600080fd5b50565b60008135905061373a81613714565b92915050565b6000806040838503121561375757613756613086565b5b6000613765858286016132d3565b92505060206137768582860161372b565b9150509250929050565b600067ffffffffffffffff82111561379b5761379a613501565b5b6137a482613191565b9050602081019050919050565b60006137c46137bf84613780565b613561565b9050828152602081018484840111156137e0576137df6134fc565b5b6137eb8482856135ad565b509392505050565b600082601f830112613808576138076134f7565b5b81356138188482602086016137b1565b91505092915050565b6000806000806080858703121561383b5761383a613086565b5b6000613849878288016132d3565b945050602061385a878288016132d3565b935050604061386b8782880161321e565b925050606085013567ffffffffffffffff81111561388c5761388b61308b565b5b613898878288016137f3565b91505092959194509250565b600080604083850312156138bb576138ba613086565b5b60006138c9858286016132d3565b92505060206138da858286016132d3565b9150509250929050565b600081519050919050565b600082825260208201905092915050565b6000819050602082019050919050565b61391981613280565b82525050565b600061392b8383613910565b60208301905092915050565b6000602082019050919050565b600061394f826138e4565b61395981856138ef565b935061396483613900565b8060005b8381101561399557815161397c888261391f565b975061398783613937565b925050600181019050613968565b5085935050505092915050565b600060e0820190506139b7600083018a613328565b81810360208301526139c98189613944565b905081810360408301526139dd81886131a2565b905081810360608301526139f181876131a2565b90508181036080830152613a0581866131a2565b905081810360a0830152613a1981856131a2565b9050613a2860c0830184613328565b98975050505050505050565b7f4e487b7100000000000000000000000000000000000000000000000000000000600052602260045260246000fd5b60006002820490506001821680613a7b57607f821691505b602082108103613a8e57613a8d613a34565b5b50919050565b7f4552433732313a20617070726f76616c20746f2063757272656e74206f776e6560008201527f7200000000000000000000000000000000000000000000000000000000000000602082015250565b6000613af0602183613156565b9150613afb82613a94565b604082019050919050565b60006020820190508181036000830152613b1f81613ae3565b9050919050565b7f4552433732313a20617070726f76652063616c6c6572206973206e6f7420746f60008201527f6b656e206f776e6572206e6f7220617070726f76656420666f7220616c6c0000602082015250565b6000613b82603e83613156565b9150613b8d82613b26565b604082019050919050565b60006020820190508181036000830152613bb181613b75565b9050919050565b7f4e487b7100000000000000000000000000000000000000000000000000000000600052603260045260246000fd5b7f4e487b7100000000000000000000000000000000000000000000000000000000600052601160045260246000fd5b6000613c21826131fd565b9150613c2c836131fd565b9250828203905081811115613c4457613c43613be7565b5b92915050565b7f455243373231456e756d657261626c653a206f776e657220696e646578206f7560008201527f74206f6620626f756e6473000000000000000000000000000000000000000000602082015250565b6000613ca6602b83613156565b9150613cb182613c4a565b604082019050919050565b60006020820190508181036000830152613cd581613c99565b9050919050565b6000613ce7826131fd565b9150613cf2836131fd565b9250828201905080821115613d0a57613d09613be7565b5b92915050565b60008190508160005260206000209050919050565b60006020601f8301049050919050565b600082821b905092915050565b600060088302613d727fffffffffffffffffffffffffffffffffffffffffffffffffffffffffffffffff82613d35565b613d7c8683613d35565b95508019841693508086168417925050509392505050565b6000819050919050565b6000613db9613db4613daf846131fd565b613d94565b6131fd565b9050919050565b6000819050919050565b613dd383613d9e565b613de7613ddf82613dc0565b848454613d42565b825550505050565b600090565b613dfc613def565b613e07818484613dca565b505050565b5b81811015613e2b57613e20600082613df4565b600181019050613e0d565b5050565b601f821115613e7057613e4181613d10565b613e4a84613d25565b81016020851015613e59578190505b613e6d613e6585613d25565b830182613e0c565b50505b505050565b600082821c905092915050565b6000613e9360001984600802613e75565b1980831691505092915050565b6000613eac8383613e82565b9150826002028217905092915050565b613ec58261314b565b67ffffffffffffffff811115613ede57613edd613501565b5b613ee88254613a63565b613ef3828285613e2f565b600060209050601f831160018114613f265760008415613f14578287015190505b613f1e8582613ea0565b865550613f86565b601f198416613f3486613d10565b60005b82811015613f5c57848901518255600182019150602085019450602081019050613f37565b86831015613f795784890151613f75601f891682613e82565b8355505b6001600288020188555050505b505050505050565b60008154613f9b81613a63565b613fa58186613156565b94506001821660008114613fc05760018114613fd657614009565b60ff198316865281151560200286019350614009565b613fdf85613d10565b60005b8381101561400157815481890152600182019150602081019050613fe2565b808801955050505b50505092915050565b600060a082019050818103600083015261402c8188613f8e565b9050818103602083015261404081876131a2565b9050818103604083015261405481866131a2565b9050818103606083015261406881856131a2565b90506140776080830184613328565b9695505050505050565b7f416363657373436f6e74726f6c3a2063616e206f6e6c792072656e6f756e636560008201527f20726f6c657320666f722073656c660000000000000000000000000000000000602082015250565b60006140dd602f83613156565b91506140e882614081565b604082019050919050565b6000602082019050818103600083015261410c816140d0565b9050919050565b7f455243373231456e756d657261626c653a20676c6f62616c20696e646578206f60008201527f7574206f6620626f756e64730000000000000000000000000000000000000000602082015250565b600061416f602c83613156565b915061417a82614113565b604082019050919050565b6000602082019050818103600083015261419e81614162565b9050919050565b7f4552433732313a20696e76616c696420746f6b656e2049440000000000000000600082015250565b60006141db601883613156565b91506141e6826141a5565b602082019050919050565b6000602082019050818103600083015261420a816141ce565b9050919050565b7f4552433732313a2061646472657373207a65726f206973206e6f74206120766160008201527f6c6964206f776e65720000000000000000000000000000000000000000000000602082015250565b600061426d602983613156565b915061427882614211565b604082019050919050565b6000602082019050818103600083015261429c81614260565b9050919050565b7f4552433732313a2063616c6c6572206973206e6f7420746f6b656e206f776e6560008201527f72206e6f7220617070726f766564000000000000000000000000000000000000602082015250565b60006142ff602e83613156565b915061430a826142a3565b604082019050919050565b6000602082019050818103600083015261432e816142f2565b9050919050565b600081905092915050565b600061434b8261314b565b6143558185614335565b9350614365818560208601613167565b80840191505092915050565b600061437d8285614340565b91506143898284614340565b91508190509392505050565b7f426c6f6f6420646f6573206e6f74206578697374000000000000000000000000600082015250565b60006143cb601483613156565b91506143d682614395565b602082019050919050565b600060208201905081810360008301526143fa816143be565b9050919050565b7f4552433732313a206d696e7420746f20746865207a65726f2061646472657373600082015250565b6000614437602083613156565b915061444282614401565b602082019050919050565b600060208201905081810360008301526144668161442a565b9050919050565b7f4552433732313a20746f6b656e20616c7265616479206d696e74656400000000600082015250565b60006144a3601c83613156565b91506144ae8261446d565b602082019050919050565b600060208201905081810360008301526144d281614496565b9050919050565b7f416363657373436f6e74726f6c3a206163636f756e7420000000000000000000600082015250565b600061450f601783614335565b915061451a826144d9565b601782019050919050565b7f206973206d697373696e6720726f6c6520000000000000000000000000000000600082015250565b600061455b601183614335565b915061456682614525565b601182019050919050565b600061457c82614502565b91506145888285614340565b91506145938261454e565b915061459f8284614340565b91508190509392505050565b7f4552433732313a20617070726f766520746f2063616c6c657200000000000000600082015250565b60006145e1601983613156565b91506145ec826145ab565b602082019050919050565b60006020820190508181036000830152614610816145d4565b9050919050565b7f4552433732313a207472616e7366657220746f206e6f6e20455243373231526560008201527f63656976657220696d706c656d656e7465720000000000000000000000000000602082015250565b6000614673603283613156565b915061467e82614617565b604082019050919050565b600060208201905081810360008301526146a281614666565b9050919050565b60006146b4826131fd565b91507fffffffffffffffffffffffffffffffffffffffffffffffffffffffffffffffff82036146e6576146e5613be7565b5b600182019050919050565b7f4e487b7100000000000000000000000000000000000000000000000000000000600052601260045260246000fd5b600061472b826131fd565b9150614736836131fd565b925082614746576147456146f1565b5b828204905092915050565b600061475c826131fd565b9150614767836131fd565b925082614777576147766146f1565b5b828206905092915050565b7f4552433732313a207472616e736665722066726f6d20696e636f72726563742060008201527f6f776e6572000000000000000000000000000000000000000000000000000000602082015250565b60006147de602583613156565b91506147e982614782565b604082019050919050565b6000602082019050818103600083015261480d816147d1565b9050919050565b7f4552433732313a207472616e7366657220746f20746865207a65726f2061646460008201527f7265737300000000000000000000000000000000000000000000000000000000602082015250565b6000614870602483613156565b915061487b82614814565b604082019050919050565b6000602082019050818103600083015261489f81614863565b9050919050565b60006148b1826131fd565b91506148bc836131fd565b92508282026148ca816131fd565b915082820484148315176148e1576148e0613be7565b5b5092915050565b60006148f3826131fd565b91506000820361490657614905613be7565b5b600182039050919050565b7f537472696e67733a20686578206c656e67746820696e73756666696369656e74600082015250565b6000614947602083613156565b915061495282614911565b602082019050919050565b600060208201905081810360008301526149768161493a565b9050919050565b600081519050919050565b600082825260208201905092915050565b60006149a48261497d565b6149ae8185614988565b93506149be818560208601613167565b6149c781613191565b840191505092915050565b60006080820190506149e76000830187613292565b6149f46020830186613292565b614a016040830185613328565b8181036060830152614a138184614999565b905095945050505050565b600081519050614a2d816130bc565b92915050565b600060208284031215614a4957614a48613086565b5b6000614a5784828501614a1e565b91505092915050565b7f4e487b7100000000000000000000000000000000000000000000000000000000600052603160045260246000fdfea2646970667358221220f7d6caa1aa54b28e42c04c6a6e2ecdbb408cbe1b95807123bde7c6a11dae6b9f64736f6c63430008110033697066733a2f2f516d54416d33416d5a37763544716175766d3754366f364c35614e3733377a556f7a63355350784457664b753954",
  "linkReferences": {},
  "deployedLinkReferences": {}
}