{
  "_format": "hh-sol-artifact-1",
  "contractName": "BloodDonation",
  "sourceName": "contracts/BloodDonation.sol",
  "abi": [
    {
      "inputs": [],
      "stateMutability": "nonpayable",
      "type": "constructor"
    },
    {
      "anonymous": false,
      "inputs": [
        {
          "indexed": true,
          "internalType": "address",
          "name": "owner",
          "type": "address"
        },
        {
          "indexed": true,
          "internalType": "address",
          "name": "approved",
          "type": "address"
        },
        {
          "indexed": true,
          "internalType": "uint256",
          "name": "tokenId",
          "type": "uint256"
        }
      ],
      "name": "Approval",
      "type": "event"
    },
    {
      "anonymous": false,
      "inputs": [
        {
          "indexed": true,
          "internalType": "address",
          "name": "owner",
          "type": "address"
        },
        {
          "indexed": true,
          "internalType": "address",
          "name": "operator",
          "type": "address"
        },
        {
          "indexed": false,
          "internalType": "bool",
          "name": "approved",
          "type": "bool"
        }
      ],
      "name": "ApprovalForAll",
      "type": "event"
    },
    {
      "anonymous": false,
      "inputs": [
        {
          "indexed": true,
          "internalType": "uint256",
          "name": "tokenId",
          "type": "uint256"
        },
        {
          "indexed": false,
          "internalType": "string",
          "name": "photo",
          "type": "string"
        },
        {
          "indexed": false,
          "internalType": "string",
          "name": "title",
          "type": "string"
        },
        {
          "indexed": false,
          "internalType": "string",
          "name": "location",
          "type": "string"
        },
        {
          "indexed": false,
          "internalType": "string",
          "name": "description",
          "type": "string"
        },
        {
          "indexed": false,
          "internalType": "uint256",
          "name": "timestamp",
          "type": "uint256"
        }
      ],
      "name": "BDUploaded",
      "type": "event"
    },
    {
      "anonymous": false,
      "inputs": [
        {
          "indexed": true,
          "internalType": "bytes32",
          "name": "role",
          "type": "bytes32"
        },
        {
          "indexed": true,
          "internalType": "bytes32",
          "name": "previousAdminRole",
          "type": "bytes32"
        },
        {
          "indexed": true,
          "internalType": "bytes32",
          "name": "newAdminRole",
          "type": "bytes32"
        }
      ],
      "name": "RoleAdminChanged",
      "type": "event"
    },
    {
      "anonymous": false,
      "inputs": [
        {
          "indexed": true,
          "internalType": "bytes32",
          "name": "role",
          "type": "bytes32"
        },
        {
          "indexed": true,
          "internalType": "address",
          "name": "account",
          "type": "address"
        },
        {
          "indexed": true,
          "internalType": "address",
          "name": "sender",
          "type": "address"
        }
      ],
      "name": "RoleGranted",
      "type": "event"
    },
    {
      "anonymous": false,
      "inputs": [
        {
          "indexed": true,
          "internalType": "bytes32",
          "name": "role",
          "type": "bytes32"
        },
        {
          "indexed": true,
          "internalType": "address",
          "name": "account",
          "type": "address"
        },
        {
          "indexed": true,
          "internalType": "address",
          "name": "sender",
          "type": "address"
        }
      ],
      "name": "RoleRevoked",
      "type": "event"
    },
    {
      "anonymous": false,
      "inputs": [
        {
          "indexed": true,
          "internalType": "address",
          "name": "from",
          "type": "address"
        },
        {
          "indexed": true,
          "internalType": "address",
          "name": "to",
          "type": "address"
        },
        {
          "indexed": true,
          "internalType": "uint256",
          "name": "tokenId",
          "type": "uint256"
        }
      ],
      "name": "Transfer",
      "type": "event"
    },
    {
      "inputs": [],
      "name": "DEFAULT_ADMIN_ROLE",
      "outputs": [
        {
          "internalType": "bytes32",
          "name": "",
          "type": "bytes32"
        }
      ],
      "stateMutability": "view",
      "type": "function"
    },
    {
      "inputs": [],
      "name": "HOSPITAL",
      "outputs": [
        {
          "internalType": "bytes32",
          "name": "",
          "type": "bytes32"
        }
      ],
      "stateMutability": "view",
      "type": "function"
    },
    {
      "inputs": [],
      "name": "REDCROSS",
      "outputs": [
        {
          "internalType": "bytes32",
          "name": "",
          "type": "bytes32"
        }
      ],
      "stateMutability": "view",
      "type": "function"
    },
    {
      "inputs": [
        {
          "internalType": "uint256",
          "name": "",
          "type": "uint256"
        }
      ],
      "name": "_BDList",
      "outputs": [
        {
          "internalType": "uint256",
          "name": "tokenId",
          "type": "uint256"
        },
        {
          "internalType": "string",
          "name": "photo",
          "type": "string"
        },
        {
          "internalType": "string",
          "name": "title",
          "type": "string"
        },
        {
          "internalType": "string",
          "name": "location",
          "type": "string"
        },
        {
          "internalType": "string",
          "name": "description",
          "type": "string"
        },
        {
          "internalType": "uint256",
          "name": "timestamp",
          "type": "uint256"
        },
        {
          "internalType": "bool",
          "name": "used",
          "type": "bool"
        }
      ],
      "stateMutability": "view",
      "type": "function"
    },
    {
      "inputs": [],
      "name": "_notUsedPhotoURI",
      "outputs": [
        {
          "internalType": "string",
          "name": "",
          "type": "string"
        }
      ],
      "stateMutability": "view",
      "type": "function"
    },
    {
      "inputs": [],
      "name": "_usedPhotoURI",
      "outputs": [
        {
          "internalType": "string",
          "name": "",
          "type": "string"
        }
      ],
      "stateMutability": "view",
      "type": "function"
    },
    {
      "inputs": [
        {
          "internalType": "address",
          "name": "account",
          "type": "address"
        }
      ],
      "name": "addAdmin",
      "outputs": [],
      "stateMutability": "nonpayable",
      "type": "function"
    },
    {
      "inputs": [
        {
          "internalType": "address",
          "name": "to",
          "type": "address"
        },
        {
          "internalType": "uint256",
          "name": "tokenId",
          "type": "uint256"
        }
      ],
      "name": "approve",
      "outputs": [],
      "stateMutability": "nonpayable",
      "type": "function"
    },
    {
      "inputs": [
        {
          "internalType": "address",
          "name": "owner",
          "type": "address"
        }
      ],
      "name": "balanceOf",
      "outputs": [
        {
          "internalType": "uint256",
          "name": "",
          "type": "uint256"
        }
      ],
      "stateMutability": "view",
      "type": "function"
    },
    {
      "inputs": [
        {
          "internalType": "uint256[]",
          "name": "tokenIds",
          "type": "uint256[]"
        },
        {
          "internalType": "address",
          "name": "to",
          "type": "address"
        }
      ],
      "name": "batchTransferOwnership",
      "outputs": [],
      "stateMutability": "nonpayable",
      "type": "function"
    },
    {
      "inputs": [
        {
          "internalType": "address",
          "name": "account",
          "type": "address"
        }
      ],
      "name": "checkAdminRole",
      "outputs": [],
      "stateMutability": "view",
      "type": "function"
    },
    {
      "inputs": [
        {
          "internalType": "address",
          "name": "account",
          "type": "address"
        }
      ],
      "name": "checkHospitalRole",
      "outputs": [],
      "stateMutability": "view",
      "type": "function"
    },
    {
      "inputs": [
        {
          "internalType": "address",
          "name": "account",
          "type": "address"
        }
      ],
      "name": "checkRedCrossRole",
      "outputs": [],
      "stateMutability": "view",
      "type": "function"
    },
    {
      "inputs": [
        {
          "internalType": "uint256",
          "name": "tokenId",
          "type": "uint256"
        }
      ],
      "name": "getApproved",
      "outputs": [
        {
          "internalType": "address",
          "name": "",
          "type": "address"
        }
      ],
      "stateMutability": "view",
      "type": "function"
    },
    {
      "inputs": [
        {
          "internalType": "uint256",
          "name": "tokenId",
          "type": "uint256"
        }
      ],
      "name": "getBD",
      "outputs": [
        {
          "internalType": "uint256",
          "name": "",
          "type": "uint256"
        },
        {
          "internalType": "address[]",
          "name": "",
          "type": "address[]"
        },
        {
          "internalType": "string",
          "name": "",
          "type": "string"
        },
        {
          "internalType": "string",
          "name": "",
          "type": "string"
        },
        {
          "internalType": "string",
          "name": "",
          "type": "string"
        },
        {
          "internalType": "string",
          "name": "",
          "type": "string"
        },
        {
          "internalType": "uint256",
          "name": "",
          "type": "uint256"
        }
      ],
      "stateMutability": "view",
      "type": "function"
    },
    {
      "inputs": [
        {
          "internalType": "bytes32",
          "name": "role",
          "type": "bytes32"
        }
      ],
      "name": "getRoleAdmin",
      "outputs": [
        {
          "internalType": "bytes32",
          "name": "",
          "type": "bytes32"
        }
      ],
      "stateMutability": "view",
      "type": "function"
    },
    {
      "inputs": [],
      "name": "getTotalBDCount",
      "outputs": [
        {
          "internalType": "uint256",
          "name": "",
          "type": "uint256"
        }
      ],
      "stateMutability": "view",
      "type": "function"
    },
    {
      "inputs": [
        {
          "internalType": "address",
          "name": "account",
          "type": "address"
        }
      ],
      "name": "grantHospitalRole",
      "outputs": [],
      "stateMutability": "nonpayable",
      "type": "function"
    },
    {
      "inputs": [
        {
          "internalType": "address",
          "name": "account",
          "type": "address"
        }
      ],
      "name": "grantRedCrossRole",
      "outputs": [],
      "stateMutability": "nonpayable",
      "type": "function"
    },
    {
      "inputs": [
        {
          "internalType": "bytes32",
          "name": "role",
          "type": "bytes32"
        },
        {
          "internalType": "address",
          "name": "account",
          "type": "address"
        }
      ],
      "name": "grantRole",
      "outputs": [],
      "stateMutability": "nonpayable",
      "type": "function"
    },
    {
      "inputs": [
        {
          "internalType": "bytes32",
          "name": "role",
          "type": "bytes32"
        },
        {
          "internalType": "address",
          "name": "account",
          "type": "address"
        }
      ],
      "name": "hasRole",
      "outputs": [
        {
          "internalType": "bool",
          "name": "",
          "type": "bool"
        }
      ],
      "stateMutability": "view",
      "type": "function"
    },
    {
      "inputs": [
        {
          "internalType": "address",
          "name": "owner",
          "type": "address"
        },
        {
          "internalType": "address",
          "name": "operator",
          "type": "address"
        }
      ],
      "name": "isApprovedForAll",
      "outputs": [
        {
          "internalType": "bool",
          "name": "",
          "type": "bool"
        }
      ],
      "stateMutability": "view",
      "type": "function"
    },
    {
      "inputs": [
        {
          "internalType": "string",
          "name": "title",
          "type": "string"
        },
        {
          "internalType": "string",
          "name": "location",
          "type": "string"
        },
        {
          "internalType": "string",
          "name": "description",
          "type": "string"
        },
        {
          "internalType": "address",
          "name": "to",
          "type": "address"
        }
      ],
      "name": "mintBD",
      "outputs": [],
      "stateMutability": "nonpayable",
      "type": "function"
    },
    {
      "inputs": [],
      "name": "name",
      "outputs": [
        {
          "internalType": "string",
          "name": "",
          "type": "string"
        }
      ],
      "stateMutability": "view",
      "type": "function"
    },
    {
      "inputs": [
        {
          "internalType": "uint256",
          "name": "tokenId",
          "type": "uint256"
        }
      ],
      "name": "ownerOf",
      "outputs": [
        {
          "internalType": "address",
          "name": "",
          "type": "address"
        }
      ],
      "stateMutability": "view",
      "type": "function"
    },
    {
      "inputs": [],
      "name": "renounceAdmin",
      "outputs": [],
      "stateMutability": "nonpayable",
      "type": "function"
    },
    {
      "inputs": [
        {
          "internalType": "bytes32",
          "name": "role",
          "type": "bytes32"
        },
        {
          "internalType": "address",
          "name": "account",
          "type": "address"
        }
      ],
      "name": "renounceRole",
      "outputs": [],
      "stateMutability": "nonpayable",
      "type": "function"
    },
    {
      "inputs": [
        {
          "internalType": "bytes32",
          "name": "role",
          "type": "bytes32"
        },
        {
          "internalType": "address",
          "name": "account",
          "type": "address"
        }
      ],
      "name": "revokeRole",
      "outputs": [],
      "stateMutability": "nonpayable",
      "type": "function"
    },
    {
      "inputs": [
        {
          "internalType": "address",
          "name": "from",
          "type": "address"
        },
        {
          "internalType": "address",
          "name": "to",
          "type": "address"
        },
        {
          "internalType": "uint256",
          "name": "tokenId",
          "type": "uint256"
        }
      ],
      "name": "safeTransferFrom",
      "outputs": [],
      "stateMutability": "nonpayable",
      "type": "function"
    },
    {
      "inputs": [
        {
          "internalType": "address",
          "name": "from",
          "type": "address"
        },
        {
          "internalType": "address",
          "name": "to",
          "type": "address"
        },
        {
          "internalType": "uint256",
          "name": "tokenId",
          "type": "uint256"
        },
        {
          "internalType": "bytes",
          "name": "data",
          "type": "bytes"
        }
      ],
      "name": "safeTransferFrom",
      "outputs": [],
      "stateMutability": "nonpayable",
      "type": "function"
    },
    {
      "inputs": [
        {
          "internalType": "address",
          "name": "operator",
          "type": "address"
        },
        {
          "internalType": "bool",
          "name": "approved",
          "type": "bool"
        }
      ],
      "name": "setApprovalForAll",
      "outputs": [],
      "stateMutability": "nonpayable",
      "type": "function"
    },
    {
      "inputs": [
        {
          "internalType": "string",
          "name": "_newNotUsedURI",
          "type": "string"
        }
      ],
      "name": "setNotUsedURI",
      "outputs": [],
      "stateMutability": "nonpayable",
      "type": "function"
    },
    {
      "inputs": [
        {
          "internalType": "string",
          "name": "_newUsedURI",
          "type": "string"
        }
      ],
      "name": "setUsedURI",
      "outputs": [],
      "stateMutability": "nonpayable",
      "type": "function"
    },
    {
      "inputs": [
        {
          "internalType": "bytes4",
          "name": "interfaceId",
          "type": "bytes4"
        }
      ],
      "name": "supportsInterface",
      "outputs": [
        {
          "internalType": "bool",
          "name": "",
          "type": "bool"
        }
      ],
      "stateMutability": "view",
      "type": "function"
    },
    {
      "inputs": [],
      "name": "symbol",
      "outputs": [
        {
          "internalType": "string",
          "name": "",
          "type": "string"
        }
      ],
      "stateMutability": "view",
      "type": "function"
    },
    {
      "inputs": [
        {
          "internalType": "uint256",
          "name": "index",
          "type": "uint256"
        }
      ],
      "name": "tokenByIndex",
      "outputs": [
        {
          "internalType": "uint256",
          "name": "",
          "type": "uint256"
        }
      ],
      "stateMutability": "view",
      "type": "function"
    },
    {
      "inputs": [
        {
          "internalType": "address",
          "name": "owner",
          "type": "address"
        },
        {
          "internalType": "uint256",
          "name": "index",
          "type": "uint256"
        }
      ],
      "name": "tokenOfOwnerByIndex",
      "outputs": [
        {
          "internalType": "uint256",
          "name": "",
          "type": "uint256"
        }
      ],
      "stateMutability": "view",
      "type": "function"
    },
    {
      "inputs": [
        {
          "internalType": "uint256",
          "name": "tokenId",
          "type": "uint256"
        }
      ],
      "name": "tokenURI",
      "outputs": [
        {
          "internalType": "string",
          "name": "",
          "type": "string"
        }
      ],
      "stateMutability": "view",
      "type": "function"
    },
    {
      "inputs": [],
      "name": "totalSupply",
      "outputs": [
        {
          "internalType": "uint256",
          "name": "",
          "type": "uint256"
        }
      ],
      "stateMutability": "view",
      "type": "function"
    },
    {
      "inputs": [
        {
          "internalType": "address",
          "name": "from",
          "type": "address"
        },
        {
          "internalType": "address",
          "name": "to",
          "type": "address"
        },
        {
          "internalType": "uint256",
          "name": "tokenId",
          "type": "uint256"
        }
      ],
      "name": "transferFrom",
      "outputs": [],
      "stateMutability": "nonpayable",
      "type": "function"
    },
    {
      "inputs": [
        {
          "internalType": "uint256",
          "name": "tokenId",
          "type": "uint256"
        },
        {
          "internalType": "address",
          "name": "to",
          "type": "address"
        }
      ],
      "name": "transferOwnership",
      "outputs": [],
      "stateMutability": "nonpayable",
      "type": "function"
    },
    {
      "inputs": [
        {
          "internalType": "uint256",
          "name": "tokenId",
          "type": "uint256"
        }
      ],
      "name": "use",
      "outputs": [],
      "stateMutability": "nonpayable",
      "type": "function"
    },
    {
      "inputs": [],
      "name": "used",
      "outputs": [
        {
          "internalType": "bool",
          "name": "",
          "type": "bool"
        }
      ],
      "stateMutability": "view",
      "type": "function"
    }
  ],
  "bytecode": "0x608060405260405180606001604052806035815260200162005eab60359139600c90816200002e919062000525565b5060405180606001604052806035815260200162005e7660359139600d908162000059919062000525565b506000600e60006101000a81548160ff0219169083151502179055503480156200008257600080fd5b506040518060400160405280600d81526020017f426c6f6f64446f6e6174696f6e000000000000000000000000000000000000008152506040518060400160405280600581526020017f42444e4654000000000000000000000000000000000000000000000000000000815250816000908162000100919062000525565b50806001908162000112919062000525565b5050506200012a6000801b336200013060201b60201c565b6200060c565b6200014282826200014660201b60201c565b5050565b6200015882826200023860201b60201c565b62000234576001600a600084815260200190815260200160002060000160008373ffffffffffffffffffffffffffffffffffffffff1673ffffffffffffffffffffffffffffffffffffffff16815260200190815260200160002060006101000a81548160ff021916908315150217905550620001d9620002a360201b60201c565b73ffffffffffffffffffffffffffffffffffffffff168173ffffffffffffffffffffffffffffffffffffffff16837f2f8788117e7eff1d82e926ec794901d17c78024a50270940304540a733656f0d60405160405180910390a45b5050565b6000600a600084815260200190815260200160002060000160008373ffffffffffffffffffffffffffffffffffffffff1673ffffffffffffffffffffffffffffffffffffffff16815260200190815260200160002060009054906101000a900460ff16905092915050565b600033905090565b600081519050919050565b7f4e487b7100000000000000000000000000000000000000000000000000000000600052604160045260246000fd5b7f4e487b7100000000000000000000000000000000000000000000000000000000600052602260045260246000fd5b600060028204905060018216806200032d57607f821691505b602082108103620003435762000342620002e5565b5b50919050565b60008190508160005260206000209050919050565b60006020601f8301049050919050565b600082821b905092915050565b600060088302620003ad7fffffffffffffffffffffffffffffffffffffffffffffffffffffffffffffffff826200036e565b620003b986836200036e565b95508019841693508086168417925050509392505050565b6000819050919050565b6000819050919050565b60006200040662000400620003fa84620003d1565b620003db565b620003d1565b9050919050565b6000819050919050565b6200042283620003e5565b6200043a62000431826200040d565b8484546200037b565b825550505050565b600090565b6200045162000442565b6200045e81848462000417565b505050565b5b8181101562000486576200047a60008262000447565b60018101905062000464565b5050565b601f821115620004d5576200049f8162000349565b620004aa846200035e565b81016020851015620004ba578190505b620004d2620004c9856200035e565b83018262000463565b50505b505050565b600082821c905092915050565b6000620004fa60001984600802620004da565b1980831691505092915050565b6000620005158383620004e7565b9150826002028217905092915050565b6200053082620002ab565b67ffffffffffffffff8111156200054c576200054b620002b6565b5b62000558825462000314565b620005658282856200048a565b600060209050601f8311600181146200059d576000841562000588578287015190505b62000594858262000507565b86555062000604565b601f198416620005ad8662000349565b60005b82811015620005d757848901518255600182019150602085019450602081019050620005b0565b86831015620005f75784890151620005f3601f891682620004e7565b8355505b6001600288020188555050505b505050505050565b61585a806200061c6000396000f3fe608060405234801561001057600080fd5b50600436106102695760003560e01c806363898e2b11610151578063a217fddf116100c3578063c87b56dd11610087578063c87b56dd14610736578063d547741f14610766578063e386be2e14610782578063e985e9c51461079e578063ed54e96a146107ce578063f639ec791461080457610269565b8063a217fddf146106a6578063a22cb465146106c4578063ab5b4456146106e0578063b0806ea7146106fc578063b88d4fde1461071a57610269565b80637ee756f2116101155780637ee756f2146105e057806389d04f00146105fc5780638bad0c0a1461063257806391d148541461063c57806395d89b411461066c578063a0562f691461068a57610269565b806363898e2b1461053e578063704802751461055c57806370a08231146105785780637b3dc4ef146105a85780637def8928146105c457610269565b80632de31f3c116101ea57806342842e0e116101ae57806342842e0e1461046a5780634f6ccce71461048657806354d0c549146104b65780635bf47d9d146104d45780635dd9727d146104f05780636352211e1461050e57610269565b80632de31f3c146103c85780632f2ff15d146103e65780632f745c5914610402578063353acb331461043257806336568abe1461044e57610269565b806323b872dd1161023157806323b872dd14610326578063248a9ca31461034257806327bbe7ee14610372578063280a337d1461039057806329507f73146103ac57610269565b806301ffc9a71461026e57806306fdde031461029e578063081812fc146102bc578063095ea7b3146102ec57806318160ddd14610308575b600080fd5b61028860048036038101906102839190613a43565b610820565b6040516102959190613a8b565b60405180910390f35b6102a6610832565b6040516102b39190613b36565b60405180910390f35b6102d660048036038101906102d19190613b8e565b6108c4565b6040516102e39190613bfc565b60405180910390f35b61030660048036038101906103019190613c43565b61090a565b005b610310610a21565b60405161031d9190613c92565b60405180910390f35b610340600480360381019061033b9190613cad565b610a2e565b005b61035c60048036038101906103579190613d36565b610a8e565b6040516103699190613d72565b60405180910390f35b61037a610aae565b6040516103879190613d72565b60405180910390f35b6103aa60048036038101906103a59190613d8d565b610ad2565b005b6103c660048036038101906103c19190613dba565b610b0d565b005b6103d0610b93565b6040516103dd9190613b36565b60405180910390f35b61040060048036038101906103fb9190613dfa565b610c25565b005b61041c60048036038101906104179190613c43565b610c46565b6040516104299190613c92565b60405180910390f35b61044c60048036038101906104479190613f6f565b610ceb565b005b61046860048036038101906104639190613dfa565b610f86565b005b610484600480360381019061047f9190613cad565b611009565b005b6104a0600480360381019061049b9190613b8e565b611029565b6040516104ad9190613c92565b60405180910390f35b6104be61109a565b6040516104cb9190613b36565b60405180910390f35b6104ee60048036038101906104e9919061402a565b61112c565b005b6104f861114d565b6040516105059190613c92565b60405180910390f35b61052860048036038101906105239190613b8e565b61115c565b6040516105359190613bfc565b60405180910390f35b6105466111e2565b6040516105539190613a8b565b60405180910390f35b61057660048036038101906105719190613d8d565b6111f5565b005b610592600480360381019061058d9190613d8d565b611213565b60405161059f9190613c92565b60405180910390f35b6105c260048036038101906105bd9190613d8d565b6112ca565b005b6105de60048036038101906105d9919061402a565b6112f7565b005b6105fa60048036038101906105f59190613d8d565b611318565b005b61061660048036038101906106119190613b8e565b611353565b6040516106299796959493929190614073565b60405180910390f35b61063a6115c2565b005b61065660048036038101906106519190613dfa565b6115df565b6040516106639190613a8b565b60405180910390f35b61067461164a565b6040516106819190613b36565b60405180910390f35b6106a4600480360381019061069f9190613d8d565b6116dc565b005b6106ae611709565b6040516106bb9190613d72565b60405180910390f35b6106de60048036038101906106d9919061412a565b611710565b005b6106fa60048036038101906106f59190613b8e565b611726565b005b61070461191a565b6040516107119190613d72565b60405180910390f35b610734600480360381019061072f919061420b565b61193e565b005b610750600480360381019061074b9190613b8e565b6119a0565b60405161075d9190613b36565b60405180910390f35b610780600480360381019061077b9190613dfa565b611a08565b005b61079c60048036038101906107979190613d8d565b611a29565b005b6107b860048036038101906107b3919061428e565b611a39565b6040516107c59190613a8b565b60405180910390f35b6107e860048036038101906107e39190613b8e565b611acd565b6040516107fb979695949392919061438c565b60405180910390f35b61081e600480360381019061081991906144e6565b611e9e565b005b600061082b82611fbc565b9050919050565b60606000805461084190614571565b80601f016020809104026020016040519081016040528092919081815260200182805461086d90614571565b80156108ba5780601f1061088f576101008083540402835291602001916108ba565b820191906000526020600020905b81548152906001019060200180831161089d57829003601f168201915b5050505050905090565b60006108cf82612036565b6004600083815260200190815260200160002060009054906101000a900473ffffffffffffffffffffffffffffffffffffffff169050919050565b60006109158261115c565b90508073ffffffffffffffffffffffffffffffffffffffff168373ffffffffffffffffffffffffffffffffffffffff1603610985576040517f08c379a000000000000000000000000000000000000000000000000000000000815260040161097c90614614565b60405180910390fd5b8073ffffffffffffffffffffffffffffffffffffffff166109a4612081565b73ffffffffffffffffffffffffffffffffffffffff1614806109d357506109d2816109cd612081565b611a39565b5b610a12576040517f08c379a0000000000000000000000000000000000000000000000000000000008152600401610a09906146a6565b60405180910390fd5b610a1c8383612089565b505050565b6000600880549050905090565b610a3f610a39612081565b82612142565b610a7e576040517f08c379a0000000000000000000000000000000000000000000000000000000008152600401610a7590614738565b60405180910390fd5b610a898383836121d7565b505050565b6000600a6000838152602001908152602001600020600101549050919050565b7f72d66193ff00a845b4aed5f27e02d9b558ef32be1495a41d00c5c5fb191a076381565b6000801b610adf816124d0565b610b097f60460dbe4b1f79d9efa1691d671057dc56200fed92b7dc0eb552fafb819b082c83610c25565b5050565b610b18338284611009565b600b6000838152602001908152602001600020600101819080600181540180825580915050600190039060005260206000200160009091909190916101000a81548173ffffffffffffffffffffffffffffffffffffffff021916908373ffffffffffffffffffffffffffffffffffffffff1602179055505050565b6060600d8054610ba290614571565b80601f0160208091040260200160405190810160405280929190818152602001828054610bce90614571565b8015610c1b5780601f10610bf057610100808354040283529160200191610c1b565b820191906000526020600020905b815481529060010190602001808311610bfe57829003601f168201915b5050505050905090565b610c2e82610a8e565b610c37816124d0565b610c4183836124e4565b505050565b6000610c5183611213565b8210610c92576040517f08c379a0000000000000000000000000000000000000000000000000000000008152600401610c89906147ca565b60405180910390fd5b600660008473ffffffffffffffffffffffffffffffffffffffff1673ffffffffffffffffffffffffffffffffffffffff168152602001908152602001600020600083815260200190815260200160002054905092915050565b7f60460dbe4b1f79d9efa1691d671057dc56200fed92b7dc0eb552fafb819b082c610d15816124d0565b60006001610d21610a21565b610d2b9190614819565b9050610d3783826125c5565b60606000604051806101000160405280848152602001838152602001600c8054610d6090614571565b80601f0160208091040260200160405190810160405280929190818152602001828054610d8c90614571565b8015610dd95780601f10610dae57610100808354040283529160200191610dd9565b820191906000526020600020905b815481529060010190602001808311610dbc57829003601f168201915b5050505050815260200189815260200188815260200187815260200142815260200160001515815250905080600b6000858152602001908152602001600020600082015181600001556020820151816001019080519060200190610e3e929190613930565b506040820151816002019081610e5491906149f9565b506060820151816003019081610e6a91906149f9565b506080820151816004019081610e8091906149f9565b5060a0820151816005019081610e9691906149f9565b5060c0820151816006015560e08201518160070160006101000a81548160ff021916908315150217905550905050600b6000848152602001908152602001600020600101859080600181540180825580915050600190039060005260206000200160009091909190916101000a81548173ffffffffffffffffffffffffffffffffffffffff021916908373ffffffffffffffffffffffffffffffffffffffff160217905550827f94da8b1f54d6b112f33b8d347f164fc8f25cd951a157bcc7493673b7cadbf363600c8a8a8a42604051610f74959493929190614b4f565b60405180910390a25050505050505050565b610f8e612081565b73ffffffffffffffffffffffffffffffffffffffff168173ffffffffffffffffffffffffffffffffffffffff1614610ffb576040517f08c379a0000000000000000000000000000000000000000000000000000000008152600401610ff290614c30565b60405180910390fd5b61100582826127e2565b5050565b6110248383836040518060200160405280600081525061193e565b505050565b6000611033610a21565b8210611074576040517f08c379a000000000000000000000000000000000000000000000000000000000815260040161106b90614cc2565b60405180910390fd5b6008828154811061108857611087614ce2565b5b90600052602060002001549050919050565b6060600c80546110a990614571565b80601f01602080910402602001604051908101604052809291908181526020018280546110d590614571565b80156111225780601f106110f757610100808354040283529160200191611122565b820191906000526020600020905b81548152906001019060200180831161110557829003601f168201915b5050505050905090565b6000801b611139816124d0565b81600d908161114891906149f9565b505050565b6000611157610a21565b905090565b600080611168836128c4565b9050600073ffffffffffffffffffffffffffffffffffffffff168173ffffffffffffffffffffffffffffffffffffffff16036111d9576040517f08c379a00000000000000000000000000000000000000000000000000000000081526004016111d090614d5d565b60405180910390fd5b80915050919050565b600e60009054906101000a900460ff1681565b6000801b611202816124d0565b61120f6000801b83610c25565b5050565b60008073ffffffffffffffffffffffffffffffffffffffff168273ffffffffffffffffffffffffffffffffffffffff1603611283576040517f08c379a000000000000000000000000000000000000000000000000000000000815260040161127a90614def565b60405180910390fd5b600360008373ffffffffffffffffffffffffffffffffffffffff1673ffffffffffffffffffffffffffffffffffffffff168152602001908152602001600020549050919050565b6112f47f72d66193ff00a845b4aed5f27e02d9b558ef32be1495a41d00c5c5fb191a076382612901565b50565b6000801b611304816124d0565b81600c908161131391906149f9565b505050565b6000801b611325816124d0565b61134f7f72d66193ff00a845b4aed5f27e02d9b558ef32be1495a41d00c5c5fb191a076383610c25565b5050565b600b60205280600052604060002060009150905080600001549080600201805461137c90614571565b80601f01602080910402602001604051908101604052809291908181526020018280546113a890614571565b80156113f55780601f106113ca576101008083540402835291602001916113f5565b820191906000526020600020905b8154815290600101906020018083116113d857829003601f168201915b50505050509080600301805461140a90614571565b80601f016020809104026020016040519081016040528092919081815260200182805461143690614571565b80156114835780601f1061145857610100808354040283529160200191611483565b820191906000526020600020905b81548152906001019060200180831161146657829003601f168201915b50505050509080600401805461149890614571565b80601f01602080910402602001604051908101604052809291908181526020018280546114c490614571565b80156115115780601f106114e657610100808354040283529160200191611511565b820191906000526020600020905b8154815290600101906020018083116114f457829003601f168201915b50505050509080600501805461152690614571565b80601f016020809104026020016040519081016040528092919081815260200182805461155290614571565b801561159f5780601f106115745761010080835404028352916020019161159f565b820191906000526020600020905b81548152906001019060200180831161158257829003601f168201915b5050505050908060060154908060070160009054906101000a900460ff16905087565b6000801b6115cf816124d0565b6115dc6000801b33610f86565b50565b6000600a600084815260200190815260200160002060000160008373ffffffffffffffffffffffffffffffffffffffff1673ffffffffffffffffffffffffffffffffffffffff16815260200190815260200160002060009054906101000a900460ff16905092915050565b60606001805461165990614571565b80601f016020809104026020016040519081016040528092919081815260200182805461168590614571565b80156116d25780601f106116a7576101008083540402835291602001916116d2565b820191906000526020600020905b8154815290600101906020018083116116b557829003601f168201915b5050505050905090565b6117067f60460dbe4b1f79d9efa1691d671057dc56200fed92b7dc0eb552fafb819b082c82612901565b50565b6000801b81565b61172261171b612081565b8383612986565b5050565b7f72d66193ff00a845b4aed5f27e02d9b558ef32be1495a41d00c5c5fb191a0763611750816124d0565b600b60008381526020019081526020016000206001016001600b60008581526020019081526020016000206001018054905061178c9190614e0f565b8154811061179d5761179c614ce2565b5b9060005260206000200160009054906101000a900473ffffffffffffffffffffffffffffffffffffffff1673ffffffffffffffffffffffffffffffffffffffff163373ffffffffffffffffffffffffffffffffffffffff1614611835576040517f08c379a000000000000000000000000000000000000000000000000000000000815260040161182c90614e8f565b60405180910390fd5b60001515600b600084815260200190815260200160002060070160009054906101000a900460ff1615151461189f576040517f08c379a000000000000000000000000000000000000000000000000000000000815260040161189690614efb565b60405180910390fd5b600b600083815260200190815260200160002060070160009054906101000a900460ff1615600b600084815260200190815260200160002060070160006101000a81548160ff021916908315150217905550600d600b600084815260200190815260200160002060020190816119159190614f46565b505050565b7f60460dbe4b1f79d9efa1691d671057dc56200fed92b7dc0eb552fafb819b082c81565b61194f611949612081565b83612142565b61198e576040517f08c379a000000000000000000000000000000000000000000000000000000000815260040161198590614738565b60405180910390fd5b61199a84848484612af2565b50505050565b60606119ab82612036565b60006119b5612b4e565b905060008151116119d55760405180602001604052806000815250611a00565b806119df84612b65565b6040516020016119f092919061506a565b6040516020818303038152906040525b915050919050565b611a1182610a8e565b611a1a816124d0565b611a2483836127e2565b505050565b611a366000801b82612901565b50565b6000600560008473ffffffffffffffffffffffffffffffffffffffff1673ffffffffffffffffffffffffffffffffffffffff16815260200190815260200160002060008373ffffffffffffffffffffffffffffffffffffffff1673ffffffffffffffffffffffffffffffffffffffff16815260200190815260200160002060009054906101000a900460ff16905092915050565b60006060806060806060600080600b60008a81526020019081526020016000206000015403611b31576040517f08c379a0000000000000000000000000000000000000000000000000000000008152600401611b28906150da565b60405180910390fd5b600b600089815260200190815260200160002060000154600b60008a8152602001908152602001600020600101600b60008b8152602001908152602001600020600201600b60008c8152602001908152602001600020600301600b60008d8152602001908152602001600020600401600b60008e8152602001908152602001600020600501600b60008f81526020019081526020016000206006015485805480602002602001604051908101604052809291908181526020018280548015611c4e57602002820191906000526020600020905b8160009054906101000a900473ffffffffffffffffffffffffffffffffffffffff1673ffffffffffffffffffffffffffffffffffffffff1681526020019060010190808311611c04575b50505050509550848054611c6190614571565b80601f0160208091040260200160405190810160405280929190818152602001828054611c8d90614571565b8015611cda5780601f10611caf57610100808354040283529160200191611cda565b820191906000526020600020905b815481529060010190602001808311611cbd57829003601f168201915b50505050509450838054611ced90614571565b80601f0160208091040260200160405190810160405280929190818152602001828054611d1990614571565b8015611d665780601f10611d3b57610100808354040283529160200191611d66565b820191906000526020600020905b815481529060010190602001808311611d4957829003601f168201915b50505050509350828054611d7990614571565b80601f0160208091040260200160405190810160405280929190818152602001828054611da590614571565b8015611df25780601f10611dc757610100808354040283529160200191611df2565b820191906000526020600020905b815481529060010190602001808311611dd557829003601f168201915b50505050509250818054611e0590614571565b80601f0160208091040260200160405190810160405280929190818152602001828054611e3190614571565b8015611e7e5780601f10611e5357610100808354040283529160200191611e7e565b820191906000526020600020905b815481529060010190602001808311611e6157829003601f168201915b505050505091509650965096509650965096509650919395979092949650565b6000825111611ee2576040517f08c379a0000000000000000000000000000000000000000000000000000000008152600401611ed990615146565b60405180910390fd5b60005b8251811015611fb757611f133383858481518110611f0657611f05614ce2565b5b6020026020010151611009565b600b6000848381518110611f2a57611f29614ce2565b5b60200260200101518152602001908152602001600020600101829080600181540180825580915050600190039060005260206000200160009091909190916101000a81548173ffffffffffffffffffffffffffffffffffffffff021916908373ffffffffffffffffffffffffffffffffffffffff1602179055508080611faf90615166565b915050611ee5565b505050565b60007f7965db0b000000000000000000000000000000000000000000000000000000007bffffffffffffffffffffffffffffffffffffffffffffffffffffffff1916827bffffffffffffffffffffffffffffffffffffffffffffffffffffffff1916148061202f575061202e82612c33565b5b9050919050565b61203f81612cad565b61207e576040517f08c379a000000000000000000000000000000000000000000000000000000000815260040161207590614d5d565b60405180910390fd5b50565b600033905090565b816004600083815260200190815260200160002060006101000a81548173ffffffffffffffffffffffffffffffffffffffff021916908373ffffffffffffffffffffffffffffffffffffffff160217905550808273ffffffffffffffffffffffffffffffffffffffff166120fc8361115c565b73ffffffffffffffffffffffffffffffffffffffff167f8c5be1e5ebec7d5bd14f71427d1e84f3dd0314c0f7b2291e5b200ac8c7c3b92560405160405180910390a45050565b60008061214e8361115c565b90508073ffffffffffffffffffffffffffffffffffffffff168473ffffffffffffffffffffffffffffffffffffffff161480612190575061218f8185611a39565b5b806121ce57508373ffffffffffffffffffffffffffffffffffffffff166121b6846108c4565b73ffffffffffffffffffffffffffffffffffffffff16145b91505092915050565b8273ffffffffffffffffffffffffffffffffffffffff166121f78261115c565b73ffffffffffffffffffffffffffffffffffffffff161461224d576040517f08c379a000000000000000000000000000000000000000000000000000000000815260040161224490615220565b60405180910390fd5b600073ffffffffffffffffffffffffffffffffffffffff168273ffffffffffffffffffffffffffffffffffffffff16036122bc576040517f08c379a00000000000000000000000000000000000000000000000000000000081526004016122b3906152b2565b60405180910390fd5b6122c98383836001612cee565b8273ffffffffffffffffffffffffffffffffffffffff166122e98261115c565b73ffffffffffffffffffffffffffffffffffffffff161461233f576040517f08c379a000000000000000000000000000000000000000000000000000000000815260040161233690615220565b60405180910390fd5b6004600082815260200190815260200160002060006101000a81549073ffffffffffffffffffffffffffffffffffffffff02191690556001600360008573ffffffffffffffffffffffffffffffffffffffff1673ffffffffffffffffffffffffffffffffffffffff168152602001908152602001600020600082825403925050819055506001600360008473ffffffffffffffffffffffffffffffffffffffff1673ffffffffffffffffffffffffffffffffffffffff16815260200190815260200160002060008282540192505081905550816002600083815260200190815260200160002060006101000a81548173ffffffffffffffffffffffffffffffffffffffff021916908373ffffffffffffffffffffffffffffffffffffffff160217905550808273ffffffffffffffffffffffffffffffffffffffff168473ffffffffffffffffffffffffffffffffffffffff167fddf252ad1be2c89b69c2b068fc378daa952ba7f163c4a11628f55a4df523b3ef60405160405180910390a46124cb8383836001612e4c565b505050565b6124e1816124dc612081565b612901565b50565b6124ee82826115df565b6125c1576001600a600084815260200190815260200160002060000160008373ffffffffffffffffffffffffffffffffffffffff1673ffffffffffffffffffffffffffffffffffffffff16815260200190815260200160002060006101000a81548160ff021916908315150217905550612566612081565b73ffffffffffffffffffffffffffffffffffffffff168173ffffffffffffffffffffffffffffffffffffffff16837f2f8788117e7eff1d82e926ec794901d17c78024a50270940304540a733656f0d60405160405180910390a45b5050565b600073ffffffffffffffffffffffffffffffffffffffff168273ffffffffffffffffffffffffffffffffffffffff1603612634576040517f08c379a000000000000000000000000000000000000000000000000000000000815260040161262b9061531e565b60405180910390fd5b61263d81612cad565b1561267d576040517f08c379a00000000000000000000000000000000000000000000000000000000081526004016126749061538a565b60405180910390fd5b61268b600083836001612cee565b61269481612cad565b156126d4576040517f08c379a00000000000000000000000000000000000000000000000000000000081526004016126cb9061538a565b60405180910390fd5b6001600360008473ffffffffffffffffffffffffffffffffffffffff1673ffffffffffffffffffffffffffffffffffffffff16815260200190815260200160002060008282540192505081905550816002600083815260200190815260200160002060006101000a81548173ffffffffffffffffffffffffffffffffffffffff021916908373ffffffffffffffffffffffffffffffffffffffff160217905550808273ffffffffffffffffffffffffffffffffffffffff16600073ffffffffffffffffffffffffffffffffffffffff167fddf252ad1be2c89b69c2b068fc378daa952ba7f163c4a11628f55a4df523b3ef60405160405180910390a46127de600083836001612e4c565b5050565b6127ec82826115df565b156128c0576000600a600084815260200190815260200160002060000160008373ffffffffffffffffffffffffffffffffffffffff1673ffffffffffffffffffffffffffffffffffffffff16815260200190815260200160002060006101000a81548160ff021916908315150217905550612865612081565b73ffffffffffffffffffffffffffffffffffffffff168173ffffffffffffffffffffffffffffffffffffffff16837ff6391f5c32d9c69d2a47ea670b442974b53935d1edc7fd64eb21e047a839171b60405160405180910390a45b5050565b60006002600083815260200190815260200160002060009054906101000a900473ffffffffffffffffffffffffffffffffffffffff169050919050565b61290b82826115df565b6129825761291881612e52565b6129268360001c6020612e7f565b604051602001612937929190615442565b6040516020818303038152906040526040517f08c379a00000000000000000000000000000000000000000000000000000000081526004016129799190613b36565b60405180910390fd5b5050565b8173ffffffffffffffffffffffffffffffffffffffff168373ffffffffffffffffffffffffffffffffffffffff16036129f4576040517f08c379a00000000000000000000000000000000000000000000000000000000081526004016129eb906154c8565b60405180910390fd5b80600560008573ffffffffffffffffffffffffffffffffffffffff1673ffffffffffffffffffffffffffffffffffffffff16815260200190815260200160002060008473ffffffffffffffffffffffffffffffffffffffff1673ffffffffffffffffffffffffffffffffffffffff16815260200190815260200160002060006101000a81548160ff0219169083151502179055508173ffffffffffffffffffffffffffffffffffffffff168373ffffffffffffffffffffffffffffffffffffffff167f17307eab39ab6107e8899845ad3d59bd9653f200f220920489ca2b5937696c3183604051612ae59190613a8b565b60405180910390a3505050565b612afd8484846121d7565b612b09848484846130bb565b612b48576040517f08c379a0000000000000000000000000000000000000000000000000000000008152600401612b3f9061555a565b60405180910390fd5b50505050565b606060405180602001604052806000815250905090565b606060006001612b7484613242565b01905060008167ffffffffffffffff811115612b9357612b92613e44565b5b6040519080825280601f01601f191660200182016040528015612bc55781602001600182028036833780820191505090505b509050600082602001820190505b600115612c28578080600190039150507f3031323334353637383961626364656600000000000000000000000000000000600a86061a8153600a8581612c1c57612c1b61557a565b5b04945060008503612bd3575b819350505050919050565b60007f780e9d63000000000000000000000000000000000000000000000000000000007bffffffffffffffffffffffffffffffffffffffffffffffffffffffff1916827bffffffffffffffffffffffffffffffffffffffffffffffffffffffff19161480612ca65750612ca582613395565b5b9050919050565b60008073ffffffffffffffffffffffffffffffffffffffff16612ccf836128c4565b73ffffffffffffffffffffffffffffffffffffffff1614159050919050565b612cfa84848484613477565b6001811115612d3e576040517f08c379a0000000000000000000000000000000000000000000000000000000008152600401612d359061561b565b60405180910390fd5b6000829050600073ffffffffffffffffffffffffffffffffffffffff168573ffffffffffffffffffffffffffffffffffffffff1603612d8557612d808161359d565b612dc4565b8373ffffffffffffffffffffffffffffffffffffffff168573ffffffffffffffffffffffffffffffffffffffff1614612dc357612dc285826135e6565b5b5b600073ffffffffffffffffffffffffffffffffffffffff168473ffffffffffffffffffffffffffffffffffffffff1603612e0657612e0181613753565b612e45565b8473ffffffffffffffffffffffffffffffffffffffff168473ffffffffffffffffffffffffffffffffffffffff1614612e4457612e438482613824565b5b5b5050505050565b50505050565b6060612e788273ffffffffffffffffffffffffffffffffffffffff16601460ff16612e7f565b9050919050565b606060006002836002612e92919061563b565b612e9c9190614819565b67ffffffffffffffff811115612eb557612eb4613e44565b5b6040519080825280601f01601f191660200182016040528015612ee75781602001600182028036833780820191505090505b5090507f300000000000000000000000000000000000000000000000000000000000000081600081518110612f1f57612f1e614ce2565b5b60200101907effffffffffffffffffffffffffffffffffffffffffffffffffffffffffffff1916908160001a9053507f780000000000000000000000000000000000000000000000000000000000000081600181518110612f8357612f82614ce2565b5b60200101907effffffffffffffffffffffffffffffffffffffffffffffffffffffffffffff1916908160001a90535060006001846002612fc3919061563b565b612fcd9190614819565b90505b600181111561306d577f3031323334353637383961626364656600000000000000000000000000000000600f86166010811061300f5761300e614ce2565b5b1a60f81b82828151811061302657613025614ce2565b5b60200101907effffffffffffffffffffffffffffffffffffffffffffffffffffffffffffff1916908160001a905350600485901c9450806130669061567d565b9050612fd0565b50600084146130b1576040517f08c379a00000000000000000000000000000000000000000000000000000000081526004016130a8906156f2565b60405180910390fd5b8091505092915050565b60006130dc8473ffffffffffffffffffffffffffffffffffffffff166138a3565b15613235578373ffffffffffffffffffffffffffffffffffffffff1663150b7a02613105612081565b8786866040518563ffffffff1660e01b81526004016131279493929190615767565b6020604051808303816000875af192505050801561316357506040513d601f19601f8201168201806040525081019061316091906157c8565b60015b6131e5573d8060008114613193576040519150601f19603f3d011682016040523d82523d6000602084013e613198565b606091505b5060008151036131dd576040517f08c379a00000000000000000000000000000000000000000000000000000000081526004016131d49061555a565b60405180910390fd5b805181602001fd5b63150b7a0260e01b7bffffffffffffffffffffffffffffffffffffffffffffffffffffffff1916817bffffffffffffffffffffffffffffffffffffffffffffffffffffffff19161491505061323a565b600190505b949350505050565b600080600090507a184f03e93ff9f4daa797ed6e38ed64bf6a1f01000000000000000083106132a0577a184f03e93ff9f4daa797ed6e38ed64bf6a1f01000000000000000083816132965761329561557a565b5b0492506040810190505b6d04ee2d6d415b85acef810000000083106132dd576d04ee2d6d415b85acef810000000083816132d3576132d261557a565b5b0492506020810190505b662386f26fc10000831061330c57662386f26fc1000083816133025761330161557a565b5b0492506010810190505b6305f5e1008310613335576305f5e100838161332b5761332a61557a565b5b0492506008810190505b612710831061335a5761271083816133505761334f61557a565b5b0492506004810190505b6064831061337d57606483816133735761337261557a565b5b0492506002810190505b600a831061338c576001810190505b80915050919050565b60007f80ac58cd000000000000000000000000000000000000000000000000000000007bffffffffffffffffffffffffffffffffffffffffffffffffffffffff1916827bffffffffffffffffffffffffffffffffffffffffffffffffffffffff1916148061346057507f5b5e139f000000000000000000000000000000000000000000000000000000007bffffffffffffffffffffffffffffffffffffffffffffffffffffffff1916827bffffffffffffffffffffffffffffffffffffffffffffffffffffffff1916145b80613470575061346f826138c6565b5b9050919050565b600181111561359757600073ffffffffffffffffffffffffffffffffffffffff168473ffffffffffffffffffffffffffffffffffffffff161461350b5780600360008673ffffffffffffffffffffffffffffffffffffffff1673ffffffffffffffffffffffffffffffffffffffff16815260200190815260200160002060008282546135039190614e0f565b925050819055505b600073ffffffffffffffffffffffffffffffffffffffff168373ffffffffffffffffffffffffffffffffffffffff16146135965780600360008573ffffffffffffffffffffffffffffffffffffffff1673ffffffffffffffffffffffffffffffffffffffff168152602001908152602001600020600082825461358e9190614819565b925050819055505b5b50505050565b6008805490506009600083815260200190815260200160002081905550600881908060018154018082558091505060019003906000526020600020016000909190919091505550565b600060016135f384611213565b6135fd9190614e0f565b90506000600760008481526020019081526020016000205490508181146136e2576000600660008673ffffffffffffffffffffffffffffffffffffffff1673ffffffffffffffffffffffffffffffffffffffff168152602001908152602001600020600084815260200190815260200160002054905080600660008773ffffffffffffffffffffffffffffffffffffffff1673ffffffffffffffffffffffffffffffffffffffff168152602001908152602001600020600084815260200190815260200160002081905550816007600083815260200190815260200160002081905550505b6007600084815260200190815260200160002060009055600660008573ffffffffffffffffffffffffffffffffffffffff1673ffffffffffffffffffffffffffffffffffffffff16815260200190815260200160002060008381526020019081526020016000206000905550505050565b600060016008805490506137679190614e0f565b905060006009600084815260200190815260200160002054905060006008838154811061379757613796614ce2565b5b9060005260206000200154905080600883815481106137b9576137b8614ce2565b5b906000526020600020018190555081600960008381526020019081526020016000208190555060096000858152602001908152602001600020600090556008805480613808576138076157f5565b5b6001900381819060005260206000200160009055905550505050565b600061382f83611213565b905081600660008573ffffffffffffffffffffffffffffffffffffffff1673ffffffffffffffffffffffffffffffffffffffff168152602001908152602001600020600083815260200190815260200160002081905550806007600084815260200190815260200160002081905550505050565b6000808273ffffffffffffffffffffffffffffffffffffffff163b119050919050565b60007f01ffc9a7000000000000000000000000000000000000000000000000000000007bffffffffffffffffffffffffffffffffffffffffffffffffffffffff1916827bffffffffffffffffffffffffffffffffffffffffffffffffffffffff1916149050919050565b8280548282559060005260206000209081019282156139a9579160200282015b828111156139a85782518260006101000a81548173ffffffffffffffffffffffffffffffffffffffff021916908373ffffffffffffffffffffffffffffffffffffffff16021790555091602001919060010190613950565b5b5090506139b691906139ba565b5090565b5b808211156139d35760008160009055506001016139bb565b5090565b6000604051905090565b600080fd5b600080fd5b60007fffffffff0000000000000000000000000000000000000000000000000000000082169050919050565b613a20816139eb565b8114613a2b57600080fd5b50565b600081359050613a3d81613a17565b92915050565b600060208284031215613a5957613a586139e1565b5b6000613a6784828501613a2e565b91505092915050565b60008115159050919050565b613a8581613a70565b82525050565b6000602082019050613aa06000830184613a7c565b92915050565b600081519050919050565b600082825260208201905092915050565b60005b83811015613ae0578082015181840152602081019050613ac5565b60008484015250505050565b6000601f19601f8301169050919050565b6000613b0882613aa6565b613b128185613ab1565b9350613b22818560208601613ac2565b613b2b81613aec565b840191505092915050565b60006020820190508181036000830152613b508184613afd565b905092915050565b6000819050919050565b613b6b81613b58565b8114613b7657600080fd5b50565b600081359050613b8881613b62565b92915050565b600060208284031215613ba457613ba36139e1565b5b6000613bb284828501613b79565b91505092915050565b600073ffffffffffffffffffffffffffffffffffffffff82169050919050565b6000613be682613bbb565b9050919050565b613bf681613bdb565b82525050565b6000602082019050613c116000830184613bed565b92915050565b613c2081613bdb565b8114613c2b57600080fd5b50565b600081359050613c3d81613c17565b92915050565b60008060408385031215613c5a57613c596139e1565b5b6000613c6885828601613c2e565b9250506020613c7985828601613b79565b9150509250929050565b613c8c81613b58565b82525050565b6000602082019050613ca76000830184613c83565b92915050565b600080600060608486031215613cc657613cc56139e1565b5b6000613cd486828701613c2e565b9350506020613ce586828701613c2e565b9250506040613cf686828701613b79565b9150509250925092565b6000819050919050565b613d1381613d00565b8114613d1e57600080fd5b50565b600081359050613d3081613d0a565b92915050565b600060208284031215613d4c57613d4b6139e1565b5b6000613d5a84828501613d21565b91505092915050565b613d6c81613d00565b82525050565b6000602082019050613d876000830184613d63565b92915050565b600060208284031215613da357613da26139e1565b5b6000613db184828501613c2e565b91505092915050565b60008060408385031215613dd157613dd06139e1565b5b6000613ddf85828601613b79565b9250506020613df085828601613c2e565b9150509250929050565b60008060408385031215613e1157613e106139e1565b5b6000613e1f85828601613d21565b9250506020613e3085828601613c2e565b9150509250929050565b600080fd5b600080fd5b7f4e487b7100000000000000000000000000000000000000000000000000000000600052604160045260246000fd5b613e7c82613aec565b810181811067ffffffffffffffff82111715613e9b57613e9a613e44565b5b80604052505050565b6000613eae6139d7565b9050613eba8282613e73565b919050565b600067ffffffffffffffff821115613eda57613ed9613e44565b5b613ee382613aec565b9050602081019050919050565b82818337600083830152505050565b6000613f12613f0d84613ebf565b613ea4565b905082815260208101848484011115613f2e57613f2d613e3f565b5b613f39848285613ef0565b509392505050565b600082601f830112613f5657613f55613e3a565b5b8135613f66848260208601613eff565b91505092915050565b60008060008060808587031215613f8957613f886139e1565b5b600085013567ffffffffffffffff811115613fa757613fa66139e6565b5b613fb387828801613f41565b945050602085013567ffffffffffffffff811115613fd457613fd36139e6565b5b613fe087828801613f41565b935050604085013567ffffffffffffffff811115614001576140006139e6565b5b61400d87828801613f41565b925050606061401e87828801613c2e565b91505092959194509250565b6000602082840312156140405761403f6139e1565b5b600082013567ffffffffffffffff81111561405e5761405d6139e6565b5b61406a84828501613f41565b91505092915050565b600060e082019050614088600083018a613c83565b818103602083015261409a8189613afd565b905081810360408301526140ae8188613afd565b905081810360608301526140c28187613afd565b905081810360808301526140d68186613afd565b90506140e560a0830185613c83565b6140f260c0830184613a7c565b98975050505050505050565b61410781613a70565b811461411257600080fd5b50565b600081359050614124816140fe565b92915050565b60008060408385031215614141576141406139e1565b5b600061414f85828601613c2e565b925050602061416085828601614115565b9150509250929050565b600067ffffffffffffffff82111561418557614184613e44565b5b61418e82613aec565b9050602081019050919050565b60006141ae6141a98461416a565b613ea4565b9050828152602081018484840111156141ca576141c9613e3f565b5b6141d5848285613ef0565b509392505050565b600082601f8301126141f2576141f1613e3a565b5b813561420284826020860161419b565b91505092915050565b60008060008060808587031215614225576142246139e1565b5b600061423387828801613c2e565b945050602061424487828801613c2e565b935050604061425587828801613b79565b925050606085013567ffffffffffffffff811115614276576142756139e6565b5b614282878288016141dd565b91505092959194509250565b600080604083850312156142a5576142a46139e1565b5b60006142b385828601613c2e565b92505060206142c485828601613c2e565b9150509250929050565b600081519050919050565b600082825260208201905092915050565b6000819050602082019050919050565b61430381613bdb565b82525050565b600061431583836142fa565b60208301905092915050565b6000602082019050919050565b6000614339826142ce565b61434381856142d9565b935061434e836142ea565b8060005b8381101561437f5781516143668882614309565b975061437183614321565b925050600181019050614352565b5085935050505092915050565b600060e0820190506143a1600083018a613c83565b81810360208301526143b3818961432e565b905081810360408301526143c78188613afd565b905081810360608301526143db8187613afd565b905081810360808301526143ef8186613afd565b905081810360a08301526144038185613afd565b905061441260c0830184613c83565b98975050505050505050565b600067ffffffffffffffff82111561443957614438613e44565b5b602082029050602081019050919050565b600080fd5b600061446261445d8461441e565b613ea4565b905080838252602082019050602084028301858111156144855761448461444a565b5b835b818110156144ae578061449a8882613b79565b845260208401935050602081019050614487565b5050509392505050565b600082601f8301126144cd576144cc613e3a565b5b81356144dd84826020860161444f565b91505092915050565b600080604083850312156144fd576144fc6139e1565b5b600083013567ffffffffffffffff81111561451b5761451a6139e6565b5b614527858286016144b8565b925050602061453885828601613c2e565b9150509250929050565b7f4e487b7100000000000000000000000000000000000000000000000000000000600052602260045260246000fd5b6000600282049050600182168061458957607f821691505b60208210810361459c5761459b614542565b5b50919050565b7f4552433732313a20617070726f76616c20746f2063757272656e74206f776e6560008201527f7200000000000000000000000000000000000000000000000000000000000000602082015250565b60006145fe602183613ab1565b9150614609826145a2565b604082019050919050565b6000602082019050818103600083015261462d816145f1565b9050919050565b7f4552433732313a20617070726f76652063616c6c6572206973206e6f7420746f60008201527f6b656e206f776e6572206f7220617070726f76656420666f7220616c6c000000602082015250565b6000614690603d83613ab1565b915061469b82614634565b604082019050919050565b600060208201905081810360008301526146bf81614683565b9050919050565b7f4552433732313a2063616c6c6572206973206e6f7420746f6b656e206f776e6560008201527f72206f7220617070726f76656400000000000000000000000000000000000000602082015250565b6000614722602d83613ab1565b915061472d826146c6565b604082019050919050565b6000602082019050818103600083015261475181614715565b9050919050565b7f455243373231456e756d657261626c653a206f776e657220696e646578206f7560008201527f74206f6620626f756e6473000000000000000000000000000000000000000000602082015250565b60006147b4602b83613ab1565b91506147bf82614758565b604082019050919050565b600060208201905081810360008301526147e3816147a7565b9050919050565b7f4e487b7100000000000000000000000000000000000000000000000000000000600052601160045260246000fd5b600061482482613b58565b915061482f83613b58565b9250828201905080821115614847576148466147ea565b5b92915050565b60008190508160005260206000209050919050565b60006020601f8301049050919050565b600082821b905092915050565b6000600883026148af7fffffffffffffffffffffffffffffffffffffffffffffffffffffffffffffffff82614872565b6148b98683614872565b95508019841693508086168417925050509392505050565b6000819050919050565b60006148f66148f16148ec84613b58565b6148d1565b613b58565b9050919050565b6000819050919050565b614910836148db565b61492461491c826148fd565b84845461487f565b825550505050565b600090565b61493961492c565b614944818484614907565b505050565b5b818110156149685761495d600082614931565b60018101905061494a565b5050565b601f8211156149ad5761497e8161484d565b61498784614862565b81016020851015614996578190505b6149aa6149a285614862565b830182614949565b50505b505050565b600082821c905092915050565b60006149d0600019846008026149b2565b1980831691505092915050565b60006149e983836149bf565b9150826002028217905092915050565b614a0282613aa6565b67ffffffffffffffff811115614a1b57614a1a613e44565b5b614a258254614571565b614a3082828561496c565b600060209050601f831160018114614a635760008415614a51578287015190505b614a5b85826149dd565b865550614ac3565b601f198416614a718661484d565b60005b82811015614a9957848901518255600182019150602085019450602081019050614a74565b86831015614ab65784890151614ab2601f8916826149bf565b8355505b6001600288020188555050505b505050505050565b60008154614ad881614571565b614ae28186613ab1565b94506001821660008114614afd5760018114614b1357614b46565b60ff198316865281151560200286019350614b46565b614b1c8561484d565b60005b83811015614b3e57815481890152600182019150602081019050614b1f565b808801955050505b50505092915050565b600060a0820190508181036000830152614b698188614acb565b90508181036020830152614b7d8187613afd565b90508181036040830152614b918186613afd565b90508181036060830152614ba58185613afd565b9050614bb46080830184613c83565b9695505050505050565b7f416363657373436f6e74726f6c3a2063616e206f6e6c792072656e6f756e636560008201527f20726f6c657320666f722073656c660000000000000000000000000000000000602082015250565b6000614c1a602f83613ab1565b9150614c2582614bbe565b604082019050919050565b60006020820190508181036000830152614c4981614c0d565b9050919050565b7f455243373231456e756d657261626c653a20676c6f62616c20696e646578206f60008201527f7574206f6620626f756e64730000000000000000000000000000000000000000602082015250565b6000614cac602c83613ab1565b9150614cb782614c50565b604082019050919050565b60006020820190508181036000830152614cdb81614c9f565b9050919050565b7f4e487b7100000000000000000000000000000000000000000000000000000000600052603260045260246000fd5b7f4552433732313a20696e76616c696420746f6b656e2049440000000000000000600082015250565b6000614d47601883613ab1565b9150614d5282614d11565b602082019050919050565b60006020820190508181036000830152614d7681614d3a565b9050919050565b7f4552433732313a2061646472657373207a65726f206973206e6f74206120766160008201527f6c6964206f776e65720000000000000000000000000000000000000000000000602082015250565b6000614dd9602983613ab1565b9150614de482614d7d565b604082019050919050565b60006020820190508181036000830152614e0881614dcc565b9050919050565b6000614e1a82613b58565b9150614e2583613b58565b9250828203905081811115614e3d57614e3c6147ea565b5b92915050565b7f596f75206861766520746f206f776e6564206120746f6b656e21000000000000600082015250565b6000614e79601a83613ab1565b9150614e8482614e43565b602082019050919050565b60006020820190508181036000830152614ea881614e6c565b9050919050565b7f416c726561647920757365642e00000000000000000000000000000000000000600082015250565b6000614ee5600d83613ab1565b9150614ef082614eaf565b602082019050919050565b60006020820190508181036000830152614f1481614ed8565b9050919050565b600081549050614f2a81614571565b9050919050565b60008190508160005260206000209050919050565b818103614f5457505061502c565b614f5d82614f1b565b67ffffffffffffffff811115614f7657614f75613e44565b5b614f808254614571565b614f8b82828561496c565b6000601f831160018114614fba5760008415614fa8578287015490505b614fb285826149dd565b865550615025565b601f198416614fc887614f31565b9650614fd38661484d565b60005b82811015614ffb57848901548255600182019150600185019450602081019050614fd6565b868310156150185784890154615014601f8916826149bf565b8355505b6001600288020188555050505b5050505050505b565b600081905092915050565b600061504482613aa6565b61504e818561502e565b935061505e818560208601613ac2565b80840191505092915050565b60006150768285615039565b91506150828284615039565b91508190509392505050565b7f426c6f6f6420646f6573206e6f74206578697374000000000000000000000000600082015250565b60006150c4601483613ab1565b91506150cf8261508e565b602082019050919050565b600060208201905081810360008301526150f3816150b7565b9050919050565b7f4e6f7468696e6720656e74657265642e00000000000000000000000000000000600082015250565b6000615130601083613ab1565b915061513b826150fa565b602082019050919050565b6000602082019050818103600083015261515f81615123565b9050919050565b600061517182613b58565b91507fffffffffffffffffffffffffffffffffffffffffffffffffffffffffffffffff82036151a3576151a26147ea565b5b600182019050919050565b7f4552433732313a207472616e736665722066726f6d20696e636f72726563742060008201527f6f776e6572000000000000000000000000000000000000000000000000000000602082015250565b600061520a602583613ab1565b9150615215826151ae565b604082019050919050565b60006020820190508181036000830152615239816151fd565b9050919050565b7f4552433732313a207472616e7366657220746f20746865207a65726f2061646460008201527f7265737300000000000000000000000000000000000000000000000000000000602082015250565b600061529c602483613ab1565b91506152a782615240565b604082019050919050565b600060208201905081810360008301526152cb8161528f565b9050919050565b7f4552433732313a206d696e7420746f20746865207a65726f2061646472657373600082015250565b6000615308602083613ab1565b9150615313826152d2565b602082019050919050565b60006020820190508181036000830152615337816152fb565b9050919050565b7f4552433732313a20746f6b656e20616c7265616479206d696e74656400000000600082015250565b6000615374601c83613ab1565b915061537f8261533e565b602082019050919050565b600060208201905081810360008301526153a381615367565b9050919050565b7f416363657373436f6e74726f6c3a206163636f756e7420000000000000000000600082015250565b60006153e060178361502e565b91506153eb826153aa565b601782019050919050565b7f206973206d697373696e6720726f6c6520000000000000000000000000000000600082015250565b600061542c60118361502e565b9150615437826153f6565b601182019050919050565b600061544d826153d3565b91506154598285615039565b91506154648261541f565b91506154708284615039565b91508190509392505050565b7f4552433732313a20617070726f766520746f2063616c6c657200000000000000600082015250565b60006154b2601983613ab1565b91506154bd8261547c565b602082019050919050565b600060208201905081810360008301526154e1816154a5565b9050919050565b7f4552433732313a207472616e7366657220746f206e6f6e20455243373231526560008201527f63656976657220696d706c656d656e7465720000000000000000000000000000602082015250565b6000615544603283613ab1565b915061554f826154e8565b604082019050919050565b6000602082019050818103600083015261557381615537565b9050919050565b7f4e487b7100000000000000000000000000000000000000000000000000000000600052601260045260246000fd5b7f455243373231456e756d657261626c653a20636f6e736563757469766520747260008201527f616e7366657273206e6f7420737570706f727465640000000000000000000000602082015250565b6000615605603583613ab1565b9150615610826155a9565b604082019050919050565b60006020820190508181036000830152615634816155f8565b9050919050565b600061564682613b58565b915061565183613b58565b925082820261565f81613b58565b91508282048414831517615676576156756147ea565b5b5092915050565b600061568882613b58565b91506000820361569b5761569a6147ea565b5b600182039050919050565b7f537472696e67733a20686578206c656e67746820696e73756666696369656e74600082015250565b60006156dc602083613ab1565b91506156e7826156a6565b602082019050919050565b6000602082019050818103600083015261570b816156cf565b9050919050565b600081519050919050565b600082825260208201905092915050565b600061573982615712565b615743818561571d565b9350615753818560208601613ac2565b61575c81613aec565b840191505092915050565b600060808201905061577c6000830187613bed565b6157896020830186613bed565b6157966040830185613c83565b81810360608301526157a8818461572e565b905095945050505050565b6000815190506157c281613a17565b92915050565b6000602082840312156157de576157dd6139e1565b5b60006157ec848285016157b3565b91505092915050565b7f4e487b7100000000000000000000000000000000000000000000000000000000600052603160045260246000fdfea2646970667358221220d0742ef01dee05ca7d57ae8a62e8672ac56888c04ddd51a6626693fa1059eab264736f6c63430008110033697066733a2f2f516d53683332644b75676f6f336539585876714b5a53366e44596232454d45425a4c4c7635546562675a36586445697066733a2f2f516d61786639746b455a555431386b336a526859646246437379627241737a34743936506b435a5a746742546f46",
  "linkReferences": {},
  "deployedLinkReferences": {}
}