{
  "_format": "hh-sol-artifact-1",
  "contractName": "BloodDonation",
  "sourceName": "contracts/BloodDonation.sol",
  "abi": [
    {
      "inputs": [],
      "stateMutability": "nonpayable",
      "type": "constructor"
    },
    {
      "anonymous": false,
      "inputs": [
        {
          "indexed": true,
          "internalType": "address",
          "name": "owner",
          "type": "address"
        },
        {
          "indexed": true,
          "internalType": "address",
          "name": "approved",
          "type": "address"
        },
        {
          "indexed": true,
          "internalType": "uint256",
          "name": "tokenId",
          "type": "uint256"
        }
      ],
      "name": "Approval",
      "type": "event"
    },
    {
      "anonymous": false,
      "inputs": [
        {
          "indexed": true,
          "internalType": "address",
          "name": "owner",
          "type": "address"
        },
        {
          "indexed": true,
          "internalType": "address",
          "name": "operator",
          "type": "address"
        },
        {
          "indexed": false,
          "internalType": "bool",
          "name": "approved",
          "type": "bool"
        }
      ],
      "name": "ApprovalForAll",
      "type": "event"
    },
    {
      "anonymous": false,
      "inputs": [
        {
          "indexed": true,
          "internalType": "uint256",
          "name": "tokenId",
          "type": "uint256"
        },
        {
          "indexed": false,
          "internalType": "string",
          "name": "photo",
          "type": "string"
        },
        {
          "indexed": false,
          "internalType": "string",
          "name": "title",
          "type": "string"
        },
        {
          "indexed": false,
          "internalType": "string",
          "name": "location",
          "type": "string"
        },
        {
          "indexed": false,
          "internalType": "string",
          "name": "description",
          "type": "string"
        },
        {
          "indexed": false,
          "internalType": "uint256",
          "name": "timestamp",
          "type": "uint256"
        }
      ],
      "name": "BDUploaded",
      "type": "event"
    },
    {
      "anonymous": false,
      "inputs": [
        {
          "indexed": true,
          "internalType": "bytes32",
          "name": "role",
          "type": "bytes32"
        },
        {
          "indexed": true,
          "internalType": "bytes32",
          "name": "previousAdminRole",
          "type": "bytes32"
        },
        {
          "indexed": true,
          "internalType": "bytes32",
          "name": "newAdminRole",
          "type": "bytes32"
        }
      ],
      "name": "RoleAdminChanged",
      "type": "event"
    },
    {
      "anonymous": false,
      "inputs": [
        {
          "indexed": true,
          "internalType": "bytes32",
          "name": "role",
          "type": "bytes32"
        },
        {
          "indexed": true,
          "internalType": "address",
          "name": "account",
          "type": "address"
        },
        {
          "indexed": true,
          "internalType": "address",
          "name": "sender",
          "type": "address"
        }
      ],
      "name": "RoleGranted",
      "type": "event"
    },
    {
      "anonymous": false,
      "inputs": [
        {
          "indexed": true,
          "internalType": "bytes32",
          "name": "role",
          "type": "bytes32"
        },
        {
          "indexed": true,
          "internalType": "address",
          "name": "account",
          "type": "address"
        },
        {
          "indexed": true,
          "internalType": "address",
          "name": "sender",
          "type": "address"
        }
      ],
      "name": "RoleRevoked",
      "type": "event"
    },
    {
      "anonymous": false,
      "inputs": [
        {
          "indexed": true,
          "internalType": "address",
          "name": "from",
          "type": "address"
        },
        {
          "indexed": true,
          "internalType": "address",
          "name": "to",
          "type": "address"
        },
        {
          "indexed": true,
          "internalType": "uint256",
          "name": "tokenId",
          "type": "uint256"
        }
      ],
      "name": "Transfer",
      "type": "event"
    },
    {
      "inputs": [],
      "name": "DEFAULT_ADMIN_ROLE",
      "outputs": [
        {
          "internalType": "bytes32",
          "name": "",
          "type": "bytes32"
        }
      ],
      "stateMutability": "view",
      "type": "function"
    },
    {
      "inputs": [],
      "name": "HOSPITAL",
      "outputs": [
        {
          "internalType": "bytes32",
          "name": "",
          "type": "bytes32"
        }
      ],
      "stateMutability": "view",
      "type": "function"
    },
    {
      "inputs": [],
      "name": "REDCROSS",
      "outputs": [
        {
          "internalType": "bytes32",
          "name": "",
          "type": "bytes32"
        }
      ],
      "stateMutability": "view",
      "type": "function"
    },
    {
      "inputs": [
        {
          "internalType": "uint256",
          "name": "",
          "type": "uint256"
        }
      ],
      "name": "_BDList",
      "outputs": [
        {
          "internalType": "uint256",
          "name": "tokenId",
          "type": "uint256"
        },
        {
          "internalType": "string",
          "name": "photo",
          "type": "string"
        },
        {
          "internalType": "string",
          "name": "title",
          "type": "string"
        },
        {
          "internalType": "string",
          "name": "location",
          "type": "string"
        },
        {
          "internalType": "string",
          "name": "description",
          "type": "string"
        },
        {
          "internalType": "uint256",
          "name": "timestamp",
          "type": "uint256"
        },
        {
          "internalType": "bool",
          "name": "used",
          "type": "bool"
        }
      ],
      "stateMutability": "view",
      "type": "function"
    },
    {
      "inputs": [],
      "name": "_notUsedPhotoURI",
      "outputs": [
        {
          "internalType": "string",
          "name": "",
          "type": "string"
        }
      ],
      "stateMutability": "view",
      "type": "function"
    },
    {
      "inputs": [],
      "name": "_usedPhotoURI",
      "outputs": [
        {
          "internalType": "string",
          "name": "",
          "type": "string"
        }
      ],
      "stateMutability": "view",
      "type": "function"
    },
    {
      "inputs": [
        {
          "internalType": "address",
          "name": "account",
          "type": "address"
        }
      ],
      "name": "addAdmin",
      "outputs": [],
      "stateMutability": "nonpayable",
      "type": "function"
    },
    {
      "inputs": [
        {
          "internalType": "address",
          "name": "to",
          "type": "address"
        },
        {
          "internalType": "uint256",
          "name": "tokenId",
          "type": "uint256"
        }
      ],
      "name": "approve",
      "outputs": [],
      "stateMutability": "nonpayable",
      "type": "function"
    },
    {
      "inputs": [
        {
          "internalType": "address",
          "name": "owner",
          "type": "address"
        }
      ],
      "name": "balanceOf",
      "outputs": [
        {
          "internalType": "uint256",
          "name": "",
          "type": "uint256"
        }
      ],
      "stateMutability": "view",
      "type": "function"
    },
    {
      "inputs": [
        {
          "internalType": "address",
          "name": "account",
          "type": "address"
        }
      ],
      "name": "checkAdminRole",
      "outputs": [],
      "stateMutability": "view",
      "type": "function"
    },
    {
      "inputs": [
        {
          "internalType": "address",
          "name": "account",
          "type": "address"
        }
      ],
      "name": "checkHospitalRole",
      "outputs": [],
      "stateMutability": "view",
      "type": "function"
    },
    {
      "inputs": [
        {
          "internalType": "address",
          "name": "account",
          "type": "address"
        }
      ],
      "name": "checkRedCrossRole",
      "outputs": [],
      "stateMutability": "view",
      "type": "function"
    },
    {
      "inputs": [
        {
          "internalType": "uint256",
          "name": "tokenId",
          "type": "uint256"
        }
      ],
      "name": "getApproved",
      "outputs": [
        {
          "internalType": "address",
          "name": "",
          "type": "address"
        }
      ],
      "stateMutability": "view",
      "type": "function"
    },
    {
      "inputs": [
        {
          "internalType": "uint256",
          "name": "tokenId",
          "type": "uint256"
        }
      ],
      "name": "getBD",
      "outputs": [
        {
          "internalType": "uint256",
          "name": "",
          "type": "uint256"
        },
        {
          "internalType": "address[]",
          "name": "",
          "type": "address[]"
        },
        {
          "internalType": "string",
          "name": "",
          "type": "string"
        },
        {
          "internalType": "string",
          "name": "",
          "type": "string"
        },
        {
          "internalType": "string",
          "name": "",
          "type": "string"
        },
        {
          "internalType": "string",
          "name": "",
          "type": "string"
        },
        {
          "internalType": "uint256",
          "name": "",
          "type": "uint256"
        }
      ],
      "stateMutability": "view",
      "type": "function"
    },
    {
      "inputs": [
        {
          "internalType": "bytes32",
          "name": "role",
          "type": "bytes32"
        }
      ],
      "name": "getRoleAdmin",
      "outputs": [
        {
          "internalType": "bytes32",
          "name": "",
          "type": "bytes32"
        }
      ],
      "stateMutability": "view",
      "type": "function"
    },
    {
      "inputs": [],
      "name": "getTotalBDCount",
      "outputs": [
        {
          "internalType": "uint256",
          "name": "",
          "type": "uint256"
        }
      ],
      "stateMutability": "view",
      "type": "function"
    },
    {
      "inputs": [
        {
          "internalType": "address",
          "name": "account",
          "type": "address"
        }
      ],
      "name": "grantHospitalRole",
      "outputs": [],
      "stateMutability": "nonpayable",
      "type": "function"
    },
    {
      "inputs": [
        {
          "internalType": "address",
          "name": "account",
          "type": "address"
        }
      ],
      "name": "grantRedCrossRole",
      "outputs": [],
      "stateMutability": "nonpayable",
      "type": "function"
    },
    {
      "inputs": [
        {
          "internalType": "bytes32",
          "name": "role",
          "type": "bytes32"
        },
        {
          "internalType": "address",
          "name": "account",
          "type": "address"
        }
      ],
      "name": "grantRole",
      "outputs": [],
      "stateMutability": "nonpayable",
      "type": "function"
    },
    {
      "inputs": [
        {
          "internalType": "bytes32",
          "name": "role",
          "type": "bytes32"
        },
        {
          "internalType": "address",
          "name": "account",
          "type": "address"
        }
      ],
      "name": "hasRole",
      "outputs": [
        {
          "internalType": "bool",
          "name": "",
          "type": "bool"
        }
      ],
      "stateMutability": "view",
      "type": "function"
    },
    {
      "inputs": [
        {
          "internalType": "address",
          "name": "owner",
          "type": "address"
        },
        {
          "internalType": "address",
          "name": "operator",
          "type": "address"
        }
      ],
      "name": "isApprovedForAll",
      "outputs": [
        {
          "internalType": "bool",
          "name": "",
          "type": "bool"
        }
      ],
      "stateMutability": "view",
      "type": "function"
    },
    {
      "inputs": [
        {
          "internalType": "string",
          "name": "title",
          "type": "string"
        },
        {
          "internalType": "string",
          "name": "location",
          "type": "string"
        },
        {
          "internalType": "string",
          "name": "description",
          "type": "string"
        },
        {
          "internalType": "address",
          "name": "to",
          "type": "address"
        }
      ],
      "name": "mintBD",
      "outputs": [],
      "stateMutability": "nonpayable",
      "type": "function"
    },
    {
      "inputs": [],
      "name": "name",
      "outputs": [
        {
          "internalType": "string",
          "name": "",
          "type": "string"
        }
      ],
      "stateMutability": "view",
      "type": "function"
    },
    {
      "inputs": [
        {
          "internalType": "uint256",
          "name": "tokenId",
          "type": "uint256"
        }
      ],
      "name": "ownerOf",
      "outputs": [
        {
          "internalType": "address",
          "name": "",
          "type": "address"
        }
      ],
      "stateMutability": "view",
      "type": "function"
    },
    {
      "inputs": [],
      "name": "renounceAdmin",
      "outputs": [],
      "stateMutability": "nonpayable",
      "type": "function"
    },
    {
      "inputs": [
        {
          "internalType": "bytes32",
          "name": "role",
          "type": "bytes32"
        },
        {
          "internalType": "address",
          "name": "account",
          "type": "address"
        }
      ],
      "name": "renounceRole",
      "outputs": [],
      "stateMutability": "nonpayable",
      "type": "function"
    },
    {
      "inputs": [
        {
          "internalType": "bytes32",
          "name": "role",
          "type": "bytes32"
        },
        {
          "internalType": "address",
          "name": "account",
          "type": "address"
        }
      ],
      "name": "revokeRole",
      "outputs": [],
      "stateMutability": "nonpayable",
      "type": "function"
    },
    {
      "inputs": [
        {
          "internalType": "address",
          "name": "from",
          "type": "address"
        },
        {
          "internalType": "address",
          "name": "to",
          "type": "address"
        },
        {
          "internalType": "uint256",
          "name": "tokenId",
          "type": "uint256"
        }
      ],
      "name": "safeTransferFrom",
      "outputs": [],
      "stateMutability": "nonpayable",
      "type": "function"
    },
    {
      "inputs": [
        {
          "internalType": "address",
          "name": "from",
          "type": "address"
        },
        {
          "internalType": "address",
          "name": "to",
          "type": "address"
        },
        {
          "internalType": "uint256",
          "name": "tokenId",
          "type": "uint256"
        },
        {
          "internalType": "bytes",
          "name": "data",
          "type": "bytes"
        }
      ],
      "name": "safeTransferFrom",
      "outputs": [],
      "stateMutability": "nonpayable",
      "type": "function"
    },
    {
      "inputs": [
        {
          "internalType": "address",
          "name": "operator",
          "type": "address"
        },
        {
          "internalType": "bool",
          "name": "approved",
          "type": "bool"
        }
      ],
      "name": "setApprovalForAll",
      "outputs": [],
      "stateMutability": "nonpayable",
      "type": "function"
    },
    {
      "inputs": [
        {
          "internalType": "string",
          "name": "_newNotUsedURI",
          "type": "string"
        }
      ],
      "name": "setNotUsedURI",
      "outputs": [],
      "stateMutability": "nonpayable",
      "type": "function"
    },
    {
      "inputs": [
        {
          "internalType": "string",
          "name": "_newUsedURI",
          "type": "string"
        }
      ],
      "name": "setUsedURI",
      "outputs": [],
      "stateMutability": "nonpayable",
      "type": "function"
    },
    {
      "inputs": [
        {
          "internalType": "bytes4",
          "name": "interfaceId",
          "type": "bytes4"
        }
      ],
      "name": "supportsInterface",
      "outputs": [
        {
          "internalType": "bool",
          "name": "",
          "type": "bool"
        }
      ],
      "stateMutability": "view",
      "type": "function"
    },
    {
      "inputs": [],
      "name": "symbol",
      "outputs": [
        {
          "internalType": "string",
          "name": "",
          "type": "string"
        }
      ],
      "stateMutability": "view",
      "type": "function"
    },
    {
      "inputs": [
        {
          "internalType": "uint256",
          "name": "index",
          "type": "uint256"
        }
      ],
      "name": "tokenByIndex",
      "outputs": [
        {
          "internalType": "uint256",
          "name": "",
          "type": "uint256"
        }
      ],
      "stateMutability": "view",
      "type": "function"
    },
    {
      "inputs": [
        {
          "internalType": "address",
          "name": "owner",
          "type": "address"
        },
        {
          "internalType": "uint256",
          "name": "index",
          "type": "uint256"
        }
      ],
      "name": "tokenOfOwnerByIndex",
      "outputs": [
        {
          "internalType": "uint256",
          "name": "",
          "type": "uint256"
        }
      ],
      "stateMutability": "view",
      "type": "function"
    },
    {
      "inputs": [
        {
          "internalType": "uint256",
          "name": "tokenId",
          "type": "uint256"
        }
      ],
      "name": "tokenURI",
      "outputs": [
        {
          "internalType": "string",
          "name": "",
          "type": "string"
        }
      ],
      "stateMutability": "view",
      "type": "function"
    },
    {
      "inputs": [],
      "name": "totalSupply",
      "outputs": [
        {
          "internalType": "uint256",
          "name": "",
          "type": "uint256"
        }
      ],
      "stateMutability": "view",
      "type": "function"
    },
    {
      "inputs": [
        {
          "internalType": "address",
          "name": "from",
          "type": "address"
        },
        {
          "internalType": "address",
          "name": "to",
          "type": "address"
        },
        {
          "internalType": "uint256",
          "name": "tokenId",
          "type": "uint256"
        }
      ],
      "name": "transferFrom",
      "outputs": [],
      "stateMutability": "nonpayable",
      "type": "function"
    },
    {
      "inputs": [
        {
          "internalType": "uint256",
          "name": "tokenId",
          "type": "uint256"
        },
        {
          "internalType": "address",
          "name": "to",
          "type": "address"
        }
      ],
      "name": "transferOwnership",
      "outputs": [],
      "stateMutability": "nonpayable",
      "type": "function"
    },
    {
      "inputs": [
        {
          "internalType": "uint256",
          "name": "tokenId",
          "type": "uint256"
        }
      ],
      "name": "use",
      "outputs": [],
      "stateMutability": "nonpayable",
      "type": "function"
    },
    {
      "inputs": [],
      "name": "used",
      "outputs": [
        {
          "internalType": "bool",
          "name": "",
          "type": "bool"
        }
      ],
      "stateMutability": "view",
      "type": "function"
    }
  ],
  "bytecode": "0x608060405260405180606001604052806035815260200162005c1560359139600c90816200002e919062000525565b5060405180606001604052806035815260200162005be060359139600d908162000059919062000525565b506000600e60006101000a81548160ff0219169083151502179055503480156200008257600080fd5b506040518060400160405280600d81526020017f426c6f6f64446f6e6174696f6e000000000000000000000000000000000000008152506040518060400160405280600581526020017f42444e4654000000000000000000000000000000000000000000000000000000815250816000908162000100919062000525565b50806001908162000112919062000525565b5050506200012a6000801b336200013060201b60201c565b6200060c565b6200014282826200014660201b60201c565b5050565b6200015882826200023860201b60201c565b62000234576001600a600084815260200190815260200160002060000160008373ffffffffffffffffffffffffffffffffffffffff1673ffffffffffffffffffffffffffffffffffffffff16815260200190815260200160002060006101000a81548160ff021916908315150217905550620001d9620002a360201b60201c565b73ffffffffffffffffffffffffffffffffffffffff168173ffffffffffffffffffffffffffffffffffffffff16837f2f8788117e7eff1d82e926ec794901d17c78024a50270940304540a733656f0d60405160405180910390a45b5050565b6000600a600084815260200190815260200160002060000160008373ffffffffffffffffffffffffffffffffffffffff1673ffffffffffffffffffffffffffffffffffffffff16815260200190815260200160002060009054906101000a900460ff16905092915050565b600033905090565b600081519050919050565b7f4e487b7100000000000000000000000000000000000000000000000000000000600052604160045260246000fd5b7f4e487b7100000000000000000000000000000000000000000000000000000000600052602260045260246000fd5b600060028204905060018216806200032d57607f821691505b602082108103620003435762000342620002e5565b5b50919050565b60008190508160005260206000209050919050565b60006020601f8301049050919050565b600082821b905092915050565b600060088302620003ad7fffffffffffffffffffffffffffffffffffffffffffffffffffffffffffffffff826200036e565b620003b986836200036e565b95508019841693508086168417925050509392505050565b6000819050919050565b6000819050919050565b60006200040662000400620003fa84620003d1565b620003db565b620003d1565b9050919050565b6000819050919050565b6200042283620003e5565b6200043a62000431826200040d565b8484546200037b565b825550505050565b600090565b6200045162000442565b6200045e81848462000417565b505050565b5b8181101562000486576200047a60008262000447565b60018101905062000464565b5050565b601f821115620004d5576200049f8162000349565b620004aa846200035e565b81016020851015620004ba578190505b620004d2620004c9856200035e565b83018262000463565b50505b505050565b600082821c905092915050565b6000620004fa60001984600802620004da565b1980831691505092915050565b6000620005158383620004e7565b9150826002028217905092915050565b6200053082620002ab565b67ffffffffffffffff8111156200054c576200054b620002b6565b5b62000558825462000314565b620005658282856200048a565b600060209050601f8311600181146200059d576000841562000588578287015190505b62000594858262000507565b86555062000604565b601f198416620005ad8662000349565b60005b82811015620005d757848901518255600182019150602085019450602081019050620005b0565b86831015620005f75784890151620005f3601f891682620004e7565b8355505b6001600288020188555050505b505050505050565b6155c4806200061c6000396000f3fe608060405234801561001057600080fd5b506004361061025e5760003560e01c806363898e2b11610146578063a0562f69116100c3578063b88d4fde11610087578063b88d4fde1461070f578063c87b56dd1461072b578063d547741f1461075b578063e386be2e14610777578063e985e9c514610793578063ed54e96a146107c35761025e565b8063a0562f691461067f578063a217fddf1461069b578063a22cb465146106b9578063ab5b4456146106d5578063b0806ea7146106f15761025e565b80637ee756f21161010a5780637ee756f2146105d557806389d04f00146105f15780638bad0c0a1461062757806391d148541461063157806395d89b41146106615761025e565b806363898e2b14610533578063704802751461055157806370a082311461056d5780637b3dc4ef1461059d5780637def8928146105b95761025e565b80632de31f3c116101df57806342842e0e116101a357806342842e0e1461045f5780634f6ccce71461047b57806354d0c549146104ab5780635bf47d9d146104c95780635dd9727d146104e55780636352211e146105035761025e565b80632de31f3c146103bd5780632f2ff15d146103db5780632f745c59146103f7578063353acb331461042757806336568abe146104435761025e565b806323b872dd1161022657806323b872dd1461031b578063248a9ca31461033757806327bbe7ee14610367578063280a337d1461038557806329507f73146103a15761025e565b806301ffc9a71461026357806306fdde0314610293578063081812fc146102b1578063095ea7b3146102e157806318160ddd146102fd575b600080fd5b61027d60048036038101906102789190613985565b6107f9565b60405161028a91906139cd565b60405180910390f35b61029b61080b565b6040516102a89190613a78565b60405180910390f35b6102cb60048036038101906102c69190613ad0565b61089d565b6040516102d89190613b3e565b60405180910390f35b6102fb60048036038101906102f69190613b85565b6108e3565b005b6103056109fa565b6040516103129190613bd4565b60405180910390f35b61033560048036038101906103309190613bef565b610a07565b005b610351600480360381019061034c9190613c78565b610a8e565b60405161035e9190613cb4565b60405180910390f35b61036f610aae565b60405161037c9190613cb4565b60405180910390f35b61039f600480360381019061039a9190613ccf565b610ad2565b005b6103bb60048036038101906103b69190613cfc565b610b0d565b005b6103c5610b93565b6040516103d29190613a78565b60405180910390f35b6103f560048036038101906103f09190613d3c565b610c25565b005b610411600480360381019061040c9190613b85565b610c46565b60405161041e9190613bd4565b60405180910390f35b610441600480360381019061043c9190613eb1565b610ceb565b005b61045d60048036038101906104589190613d3c565b610f86565b005b61047960048036038101906104749190613bef565b611009565b005b61049560048036038101906104909190613ad0565b611029565b6040516104a29190613bd4565b60405180910390f35b6104b361109a565b6040516104c09190613a78565b60405180910390f35b6104e360048036038101906104de9190613f6c565b61112c565b005b6104ed61114d565b6040516104fa9190613bd4565b60405180910390f35b61051d60048036038101906105189190613ad0565b61115c565b60405161052a9190613b3e565b60405180910390f35b61053b6111e2565b60405161054891906139cd565b60405180910390f35b61056b60048036038101906105669190613ccf565b6111f5565b005b61058760048036038101906105829190613ccf565b611213565b6040516105949190613bd4565b60405180910390f35b6105b760048036038101906105b29190613ccf565b6112ca565b005b6105d360048036038101906105ce9190613f6c565b6112f7565b005b6105ef60048036038101906105ea9190613ccf565b611318565b005b61060b60048036038101906106069190613ad0565b611353565b60405161061e9796959493929190613fb5565b60405180910390f35b61062f6115c2565b005b61064b60048036038101906106469190613d3c565b6115df565b60405161065891906139cd565b60405180910390f35b61066961164a565b6040516106769190613a78565b60405180910390f35b61069960048036038101906106949190613ccf565b6116dc565b005b6106a3611709565b6040516106b09190613cb4565b60405180910390f35b6106d360048036038101906106ce919061406c565b611710565b005b6106ef60048036038101906106ea9190613ad0565b611726565b005b6106f961191a565b6040516107069190613cb4565b60405180910390f35b6107296004803603810190610724919061414d565b61193e565b005b61074560048036038101906107409190613ad0565b6119a0565b6040516107529190613a78565b60405180910390f35b61077560048036038101906107709190613d3c565b611a08565b005b610791600480360381019061078c9190613ccf565b611a29565b005b6107ad60048036038101906107a891906141d0565b611a39565b6040516107ba91906139cd565b60405180910390f35b6107dd60048036038101906107d89190613ad0565b611acd565b6040516107f097969594939291906142ce565b60405180910390f35b600061080482611e9e565b9050919050565b60606000805461081a9061438f565b80601f01602080910402602001604051908101604052809291908181526020018280546108469061438f565b80156108935780601f1061086857610100808354040283529160200191610893565b820191906000526020600020905b81548152906001019060200180831161087657829003601f168201915b5050505050905090565b60006108a882611f18565b6004600083815260200190815260200160002060009054906101000a900473ffffffffffffffffffffffffffffffffffffffff169050919050565b60006108ee8261115c565b90508073ffffffffffffffffffffffffffffffffffffffff168373ffffffffffffffffffffffffffffffffffffffff160361095e576040517f08c379a000000000000000000000000000000000000000000000000000000000815260040161095590614432565b60405180910390fd5b8073ffffffffffffffffffffffffffffffffffffffff1661097d611f63565b73ffffffffffffffffffffffffffffffffffffffff1614806109ac57506109ab816109a6611f63565b611a39565b5b6109eb576040517f08c379a00000000000000000000000000000000000000000000000000000000081526004016109e2906144c4565b60405180910390fd5b6109f58383611f6b565b505050565b6000600880549050905090565b610a12838383612024565b600b6000828152602001908152602001600020600101829080600181540180825580915050600190039060005260206000200160009091909190916101000a81548173ffffffffffffffffffffffffffffffffffffffff021916908373ffffffffffffffffffffffffffffffffffffffff160217905550505050565b6000600a6000838152602001908152602001600020600101549050919050565b7f72d66193ff00a845b4aed5f27e02d9b558ef32be1495a41d00c5c5fb191a076381565b6000801b610adf81612084565b610b097f60460dbe4b1f79d9efa1691d671057dc56200fed92b7dc0eb552fafb819b082c83610c25565b5050565b610b18338284611009565b600b6000838152602001908152602001600020600101819080600181540180825580915050600190039060005260206000200160009091909190916101000a81548173ffffffffffffffffffffffffffffffffffffffff021916908373ffffffffffffffffffffffffffffffffffffffff1602179055505050565b6060600d8054610ba29061438f565b80601f0160208091040260200160405190810160405280929190818152602001828054610bce9061438f565b8015610c1b5780601f10610bf057610100808354040283529160200191610c1b565b820191906000526020600020905b815481529060010190602001808311610bfe57829003601f168201915b5050505050905090565b610c2e82610a8e565b610c3781612084565b610c418383612098565b505050565b6000610c5183611213565b8210610c92576040517f08c379a0000000000000000000000000000000000000000000000000000000008152600401610c8990614556565b60405180910390fd5b600660008473ffffffffffffffffffffffffffffffffffffffff1673ffffffffffffffffffffffffffffffffffffffff168152602001908152602001600020600083815260200190815260200160002054905092915050565b7f60460dbe4b1f79d9efa1691d671057dc56200fed92b7dc0eb552fafb819b082c610d1581612084565b60006001610d216109fa565b610d2b91906145a5565b9050610d378382612179565b60606000604051806101000160405280848152602001838152602001600c8054610d609061438f565b80601f0160208091040260200160405190810160405280929190818152602001828054610d8c9061438f565b8015610dd95780601f10610dae57610100808354040283529160200191610dd9565b820191906000526020600020905b815481529060010190602001808311610dbc57829003601f168201915b5050505050815260200189815260200188815260200187815260200142815260200160001515815250905080600b6000858152602001908152602001600020600082015181600001556020820151816001019080519060200190610e3e929190613872565b506040820151816002019081610e549190614785565b506060820151816003019081610e6a9190614785565b506080820151816004019081610e809190614785565b5060a0820151816005019081610e969190614785565b5060c0820151816006015560e08201518160070160006101000a81548160ff021916908315150217905550905050600b6000848152602001908152602001600020600101859080600181540180825580915050600190039060005260206000200160009091909190916101000a81548173ffffffffffffffffffffffffffffffffffffffff021916908373ffffffffffffffffffffffffffffffffffffffff160217905550827f94da8b1f54d6b112f33b8d347f164fc8f25cd951a157bcc7493673b7cadbf363600c8a8a8a42604051610f749594939291906148db565b60405180910390a25050505050505050565b610f8e611f63565b73ffffffffffffffffffffffffffffffffffffffff168173ffffffffffffffffffffffffffffffffffffffff1614610ffb576040517f08c379a0000000000000000000000000000000000000000000000000000000008152600401610ff2906149bc565b60405180910390fd5b6110058282612396565b5050565b6110248383836040518060200160405280600081525061193e565b505050565b60006110336109fa565b8210611074576040517f08c379a000000000000000000000000000000000000000000000000000000000815260040161106b90614a4e565b60405180910390fd5b6008828154811061108857611087614a6e565b5b90600052602060002001549050919050565b6060600c80546110a99061438f565b80601f01602080910402602001604051908101604052809291908181526020018280546110d59061438f565b80156111225780601f106110f757610100808354040283529160200191611122565b820191906000526020600020905b81548152906001019060200180831161110557829003601f168201915b5050505050905090565b6000801b61113981612084565b81600d90816111489190614785565b505050565b60006111576109fa565b905090565b60008061116883612478565b9050600073ffffffffffffffffffffffffffffffffffffffff168173ffffffffffffffffffffffffffffffffffffffff16036111d9576040517f08c379a00000000000000000000000000000000000000000000000000000000081526004016111d090614ae9565b60405180910390fd5b80915050919050565b600e60009054906101000a900460ff1681565b6000801b61120281612084565b61120f6000801b83610c25565b5050565b60008073ffffffffffffffffffffffffffffffffffffffff168273ffffffffffffffffffffffffffffffffffffffff1603611283576040517f08c379a000000000000000000000000000000000000000000000000000000000815260040161127a90614b7b565b60405180910390fd5b600360008373ffffffffffffffffffffffffffffffffffffffff1673ffffffffffffffffffffffffffffffffffffffff168152602001908152602001600020549050919050565b6112f47f72d66193ff00a845b4aed5f27e02d9b558ef32be1495a41d00c5c5fb191a0763826124b5565b50565b6000801b61130481612084565b81600c90816113139190614785565b505050565b6000801b61132581612084565b61134f7f72d66193ff00a845b4aed5f27e02d9b558ef32be1495a41d00c5c5fb191a076383610c25565b5050565b600b60205280600052604060002060009150905080600001549080600201805461137c9061438f565b80601f01602080910402602001604051908101604052809291908181526020018280546113a89061438f565b80156113f55780601f106113ca576101008083540402835291602001916113f5565b820191906000526020600020905b8154815290600101906020018083116113d857829003601f168201915b50505050509080600301805461140a9061438f565b80601f01602080910402602001604051908101604052809291908181526020018280546114369061438f565b80156114835780601f1061145857610100808354040283529160200191611483565b820191906000526020600020905b81548152906001019060200180831161146657829003601f168201915b5050505050908060040180546114989061438f565b80601f01602080910402602001604051908101604052809291908181526020018280546114c49061438f565b80156115115780601f106114e657610100808354040283529160200191611511565b820191906000526020600020905b8154815290600101906020018083116114f457829003601f168201915b5050505050908060050180546115269061438f565b80601f01602080910402602001604051908101604052809291908181526020018280546115529061438f565b801561159f5780601f106115745761010080835404028352916020019161159f565b820191906000526020600020905b81548152906001019060200180831161158257829003601f168201915b5050505050908060060154908060070160009054906101000a900460ff16905087565b6000801b6115cf81612084565b6115dc6000801b33610f86565b50565b6000600a600084815260200190815260200160002060000160008373ffffffffffffffffffffffffffffffffffffffff1673ffffffffffffffffffffffffffffffffffffffff16815260200190815260200160002060009054906101000a900460ff16905092915050565b6060600180546116599061438f565b80601f01602080910402602001604051908101604052809291908181526020018280546116859061438f565b80156116d25780601f106116a7576101008083540402835291602001916116d2565b820191906000526020600020905b8154815290600101906020018083116116b557829003601f168201915b5050505050905090565b6117067f60460dbe4b1f79d9efa1691d671057dc56200fed92b7dc0eb552fafb819b082c826124b5565b50565b6000801b81565b61172261171b611f63565b838361253a565b5050565b7f72d66193ff00a845b4aed5f27e02d9b558ef32be1495a41d00c5c5fb191a076361175081612084565b600b60008381526020019081526020016000206001016001600b60008581526020019081526020016000206001018054905061178c9190614b9b565b8154811061179d5761179c614a6e565b5b9060005260206000200160009054906101000a900473ffffffffffffffffffffffffffffffffffffffff1673ffffffffffffffffffffffffffffffffffffffff163373ffffffffffffffffffffffffffffffffffffffff1614611835576040517f08c379a000000000000000000000000000000000000000000000000000000000815260040161182c90614c1b565b60405180910390fd5b60001515600b600084815260200190815260200160002060070160009054906101000a900460ff1615151461189f576040517f08c379a000000000000000000000000000000000000000000000000000000000815260040161189690614c87565b60405180910390fd5b600b600083815260200190815260200160002060070160009054906101000a900460ff1615600b600084815260200190815260200160002060070160006101000a81548160ff021916908315150217905550600d600b600084815260200190815260200160002060020190816119159190614cd2565b505050565b7f60460dbe4b1f79d9efa1691d671057dc56200fed92b7dc0eb552fafb819b082c81565b61194f611949611f63565b836126a6565b61198e576040517f08c379a000000000000000000000000000000000000000000000000000000000815260040161198590614e2c565b60405180910390fd5b61199a8484848461273b565b50505050565b60606119ab82611f18565b60006119b5612797565b905060008151116119d55760405180602001604052806000815250611a00565b806119df846127ae565b6040516020016119f0929190614e88565b6040516020818303038152906040525b915050919050565b611a1182610a8e565b611a1a81612084565b611a248383612396565b505050565b611a366000801b826124b5565b50565b6000600560008473ffffffffffffffffffffffffffffffffffffffff1673ffffffffffffffffffffffffffffffffffffffff16815260200190815260200160002060008373ffffffffffffffffffffffffffffffffffffffff1673ffffffffffffffffffffffffffffffffffffffff16815260200190815260200160002060009054906101000a900460ff16905092915050565b60006060806060806060600080600b60008a81526020019081526020016000206000015403611b31576040517f08c379a0000000000000000000000000000000000000000000000000000000008152600401611b2890614ef8565b60405180910390fd5b600b600089815260200190815260200160002060000154600b60008a8152602001908152602001600020600101600b60008b8152602001908152602001600020600201600b60008c8152602001908152602001600020600301600b60008d8152602001908152602001600020600401600b60008e8152602001908152602001600020600501600b60008f81526020019081526020016000206006015485805480602002602001604051908101604052809291908181526020018280548015611c4e57602002820191906000526020600020905b8160009054906101000a900473ffffffffffffffffffffffffffffffffffffffff1673ffffffffffffffffffffffffffffffffffffffff1681526020019060010190808311611c04575b50505050509550848054611c619061438f565b80601f0160208091040260200160405190810160405280929190818152602001828054611c8d9061438f565b8015611cda5780601f10611caf57610100808354040283529160200191611cda565b820191906000526020600020905b815481529060010190602001808311611cbd57829003601f168201915b50505050509450838054611ced9061438f565b80601f0160208091040260200160405190810160405280929190818152602001828054611d199061438f565b8015611d665780601f10611d3b57610100808354040283529160200191611d66565b820191906000526020600020905b815481529060010190602001808311611d4957829003601f168201915b50505050509350828054611d799061438f565b80601f0160208091040260200160405190810160405280929190818152602001828054611da59061438f565b8015611df25780601f10611dc757610100808354040283529160200191611df2565b820191906000526020600020905b815481529060010190602001808311611dd557829003601f168201915b50505050509250818054611e059061438f565b80601f0160208091040260200160405190810160405280929190818152602001828054611e319061438f565b8015611e7e5780601f10611e5357610100808354040283529160200191611e7e565b820191906000526020600020905b815481529060010190602001808311611e6157829003601f168201915b505050505091509650965096509650965096509650919395979092949650565b60007f7965db0b000000000000000000000000000000000000000000000000000000007bffffffffffffffffffffffffffffffffffffffffffffffffffffffff1916827bffffffffffffffffffffffffffffffffffffffffffffffffffffffff19161480611f115750611f108261287c565b5b9050919050565b611f21816128f6565b611f60576040517f08c379a0000000000000000000000000000000000000000000000000000000008152600401611f5790614ae9565b60405180910390fd5b50565b600033905090565b816004600083815260200190815260200160002060006101000a81548173ffffffffffffffffffffffffffffffffffffffff021916908373ffffffffffffffffffffffffffffffffffffffff160217905550808273ffffffffffffffffffffffffffffffffffffffff16611fde8361115c565b73ffffffffffffffffffffffffffffffffffffffff167f8c5be1e5ebec7d5bd14f71427d1e84f3dd0314c0f7b2291e5b200ac8c7c3b92560405160405180910390a45050565b61203561202f611f63565b826126a6565b612074576040517f08c379a000000000000000000000000000000000000000000000000000000000815260040161206b90614e2c565b60405180910390fd5b61207f838383612937565b505050565b61209581612090611f63565b6124b5565b50565b6120a282826115df565b612175576001600a600084815260200190815260200160002060000160008373ffffffffffffffffffffffffffffffffffffffff1673ffffffffffffffffffffffffffffffffffffffff16815260200190815260200160002060006101000a81548160ff02191690831515021790555061211a611f63565b73ffffffffffffffffffffffffffffffffffffffff168173ffffffffffffffffffffffffffffffffffffffff16837f2f8788117e7eff1d82e926ec794901d17c78024a50270940304540a733656f0d60405160405180910390a45b5050565b600073ffffffffffffffffffffffffffffffffffffffff168273ffffffffffffffffffffffffffffffffffffffff16036121e8576040517f08c379a00000000000000000000000000000000000000000000000000000000081526004016121df90614f64565b60405180910390fd5b6121f1816128f6565b15612231576040517f08c379a000000000000000000000000000000000000000000000000000000000815260040161222890614fd0565b60405180910390fd5b61223f600083836001612c30565b612248816128f6565b15612288576040517f08c379a000000000000000000000000000000000000000000000000000000000815260040161227f90614fd0565b60405180910390fd5b6001600360008473ffffffffffffffffffffffffffffffffffffffff1673ffffffffffffffffffffffffffffffffffffffff16815260200190815260200160002060008282540192505081905550816002600083815260200190815260200160002060006101000a81548173ffffffffffffffffffffffffffffffffffffffff021916908373ffffffffffffffffffffffffffffffffffffffff160217905550808273ffffffffffffffffffffffffffffffffffffffff16600073ffffffffffffffffffffffffffffffffffffffff167fddf252ad1be2c89b69c2b068fc378daa952ba7f163c4a11628f55a4df523b3ef60405160405180910390a4612392600083836001612d8e565b5050565b6123a082826115df565b15612474576000600a600084815260200190815260200160002060000160008373ffffffffffffffffffffffffffffffffffffffff1673ffffffffffffffffffffffffffffffffffffffff16815260200190815260200160002060006101000a81548160ff021916908315150217905550612419611f63565b73ffffffffffffffffffffffffffffffffffffffff168173ffffffffffffffffffffffffffffffffffffffff16837ff6391f5c32d9c69d2a47ea670b442974b53935d1edc7fd64eb21e047a839171b60405160405180910390a45b5050565b60006002600083815260200190815260200160002060009054906101000a900473ffffffffffffffffffffffffffffffffffffffff169050919050565b6124bf82826115df565b612536576124cc81612d94565b6124da8360001c6020612dc1565b6040516020016124eb929190615088565b6040516020818303038152906040526040517f08c379a000000000000000000000000000000000000000000000000000000000815260040161252d9190613a78565b60405180910390fd5b5050565b8173ffffffffffffffffffffffffffffffffffffffff168373ffffffffffffffffffffffffffffffffffffffff16036125a8576040517f08c379a000000000000000000000000000000000000000000000000000000000815260040161259f9061510e565b60405180910390fd5b80600560008573ffffffffffffffffffffffffffffffffffffffff1673ffffffffffffffffffffffffffffffffffffffff16815260200190815260200160002060008473ffffffffffffffffffffffffffffffffffffffff1673ffffffffffffffffffffffffffffffffffffffff16815260200190815260200160002060006101000a81548160ff0219169083151502179055508173ffffffffffffffffffffffffffffffffffffffff168373ffffffffffffffffffffffffffffffffffffffff167f17307eab39ab6107e8899845ad3d59bd9653f200f220920489ca2b5937696c318360405161269991906139cd565b60405180910390a3505050565b6000806126b28361115c565b90508073ffffffffffffffffffffffffffffffffffffffff168473ffffffffffffffffffffffffffffffffffffffff1614806126f457506126f38185611a39565b5b8061273257508373ffffffffffffffffffffffffffffffffffffffff1661271a8461089d565b73ffffffffffffffffffffffffffffffffffffffff16145b91505092915050565b612746848484612937565b61275284848484612ffd565b612791576040517f08c379a0000000000000000000000000000000000000000000000000000000008152600401612788906151a0565b60405180910390fd5b50505050565b606060405180602001604052806000815250905090565b6060600060016127bd84613184565b01905060008167ffffffffffffffff8111156127dc576127db613d86565b5b6040519080825280601f01601f19166020018201604052801561280e5781602001600182028036833780820191505090505b509050600082602001820190505b600115612871578080600190039150507f3031323334353637383961626364656600000000000000000000000000000000600a86061a8153600a8581612865576128646151c0565b5b0494506000850361281c575b819350505050919050565b60007f780e9d63000000000000000000000000000000000000000000000000000000007bffffffffffffffffffffffffffffffffffffffffffffffffffffffff1916827bffffffffffffffffffffffffffffffffffffffffffffffffffffffff191614806128ef57506128ee826132d7565b5b9050919050565b60008073ffffffffffffffffffffffffffffffffffffffff1661291883612478565b73ffffffffffffffffffffffffffffffffffffffff1614159050919050565b8273ffffffffffffffffffffffffffffffffffffffff166129578261115c565b73ffffffffffffffffffffffffffffffffffffffff16146129ad576040517f08c379a00000000000000000000000000000000000000000000000000000000081526004016129a490615261565b60405180910390fd5b600073ffffffffffffffffffffffffffffffffffffffff168273ffffffffffffffffffffffffffffffffffffffff1603612a1c576040517f08c379a0000000000000000000000000000000000000000000000000000000008152600401612a13906152f3565b60405180910390fd5b612a298383836001612c30565b8273ffffffffffffffffffffffffffffffffffffffff16612a498261115c565b73ffffffffffffffffffffffffffffffffffffffff1614612a9f576040517f08c379a0000000000000000000000000000000000000000000000000000000008152600401612a9690615261565b60405180910390fd5b6004600082815260200190815260200160002060006101000a81549073ffffffffffffffffffffffffffffffffffffffff02191690556001600360008573ffffffffffffffffffffffffffffffffffffffff1673ffffffffffffffffffffffffffffffffffffffff168152602001908152602001600020600082825403925050819055506001600360008473ffffffffffffffffffffffffffffffffffffffff1673ffffffffffffffffffffffffffffffffffffffff16815260200190815260200160002060008282540192505081905550816002600083815260200190815260200160002060006101000a81548173ffffffffffffffffffffffffffffffffffffffff021916908373ffffffffffffffffffffffffffffffffffffffff160217905550808273ffffffffffffffffffffffffffffffffffffffff168473ffffffffffffffffffffffffffffffffffffffff167fddf252ad1be2c89b69c2b068fc378daa952ba7f163c4a11628f55a4df523b3ef60405160405180910390a4612c2b8383836001612d8e565b505050565b612c3c848484846133b9565b6001811115612c80576040517f08c379a0000000000000000000000000000000000000000000000000000000008152600401612c7790615385565b60405180910390fd5b6000829050600073ffffffffffffffffffffffffffffffffffffffff168573ffffffffffffffffffffffffffffffffffffffff1603612cc757612cc2816134df565b612d06565b8373ffffffffffffffffffffffffffffffffffffffff168573ffffffffffffffffffffffffffffffffffffffff1614612d0557612d048582613528565b5b5b600073ffffffffffffffffffffffffffffffffffffffff168473ffffffffffffffffffffffffffffffffffffffff1603612d4857612d4381613695565b612d87565b8473ffffffffffffffffffffffffffffffffffffffff168473ffffffffffffffffffffffffffffffffffffffff1614612d8657612d858482613766565b5b5b5050505050565b50505050565b6060612dba8273ffffffffffffffffffffffffffffffffffffffff16601460ff16612dc1565b9050919050565b606060006002836002612dd491906153a5565b612dde91906145a5565b67ffffffffffffffff811115612df757612df6613d86565b5b6040519080825280601f01601f191660200182016040528015612e295781602001600182028036833780820191505090505b5090507f300000000000000000000000000000000000000000000000000000000000000081600081518110612e6157612e60614a6e565b5b60200101907effffffffffffffffffffffffffffffffffffffffffffffffffffffffffffff1916908160001a9053507f780000000000000000000000000000000000000000000000000000000000000081600181518110612ec557612ec4614a6e565b5b60200101907effffffffffffffffffffffffffffffffffffffffffffffffffffffffffffff1916908160001a90535060006001846002612f0591906153a5565b612f0f91906145a5565b90505b6001811115612faf577f3031323334353637383961626364656600000000000000000000000000000000600f861660108110612f5157612f50614a6e565b5b1a60f81b828281518110612f6857612f67614a6e565b5b60200101907effffffffffffffffffffffffffffffffffffffffffffffffffffffffffffff1916908160001a905350600485901c945080612fa8906153e7565b9050612f12565b5060008414612ff3576040517f08c379a0000000000000000000000000000000000000000000000000000000008152600401612fea9061545c565b60405180910390fd5b8091505092915050565b600061301e8473ffffffffffffffffffffffffffffffffffffffff166137e5565b15613177578373ffffffffffffffffffffffffffffffffffffffff1663150b7a02613047611f63565b8786866040518563ffffffff1660e01b815260040161306994939291906154d1565b6020604051808303816000875af19250505080156130a557506040513d601f19601f820116820180604052508101906130a29190615532565b60015b613127573d80600081146130d5576040519150601f19603f3d011682016040523d82523d6000602084013e6130da565b606091505b50600081510361311f576040517f08c379a0000000000000000000000000000000000000000000000000000000008152600401613116906151a0565b60405180910390fd5b805181602001fd5b63150b7a0260e01b7bffffffffffffffffffffffffffffffffffffffffffffffffffffffff1916817bffffffffffffffffffffffffffffffffffffffffffffffffffffffff19161491505061317c565b600190505b949350505050565b600080600090507a184f03e93ff9f4daa797ed6e38ed64bf6a1f01000000000000000083106131e2577a184f03e93ff9f4daa797ed6e38ed64bf6a1f01000000000000000083816131d8576131d76151c0565b5b0492506040810190505b6d04ee2d6d415b85acef8100000000831061321f576d04ee2d6d415b85acef81000000008381613215576132146151c0565b5b0492506020810190505b662386f26fc10000831061324e57662386f26fc100008381613244576132436151c0565b5b0492506010810190505b6305f5e1008310613277576305f5e100838161326d5761326c6151c0565b5b0492506008810190505b612710831061329c576127108381613292576132916151c0565b5b0492506004810190505b606483106132bf57606483816132b5576132b46151c0565b5b0492506002810190505b600a83106132ce576001810190505b80915050919050565b60007f80ac58cd000000000000000000000000000000000000000000000000000000007bffffffffffffffffffffffffffffffffffffffffffffffffffffffff1916827bffffffffffffffffffffffffffffffffffffffffffffffffffffffff191614806133a257507f5b5e139f000000000000000000000000000000000000000000000000000000007bffffffffffffffffffffffffffffffffffffffffffffffffffffffff1916827bffffffffffffffffffffffffffffffffffffffffffffffffffffffff1916145b806133b257506133b182613808565b5b9050919050565b60018111156134d957600073ffffffffffffffffffffffffffffffffffffffff168473ffffffffffffffffffffffffffffffffffffffff161461344d5780600360008673ffffffffffffffffffffffffffffffffffffffff1673ffffffffffffffffffffffffffffffffffffffff16815260200190815260200160002060008282546134459190614b9b565b925050819055505b600073ffffffffffffffffffffffffffffffffffffffff168373ffffffffffffffffffffffffffffffffffffffff16146134d85780600360008573ffffffffffffffffffffffffffffffffffffffff1673ffffffffffffffffffffffffffffffffffffffff16815260200190815260200160002060008282546134d091906145a5565b925050819055505b5b50505050565b6008805490506009600083815260200190815260200160002081905550600881908060018154018082558091505060019003906000526020600020016000909190919091505550565b6000600161353584611213565b61353f9190614b9b565b9050600060076000848152602001908152602001600020549050818114613624576000600660008673ffffffffffffffffffffffffffffffffffffffff1673ffffffffffffffffffffffffffffffffffffffff168152602001908152602001600020600084815260200190815260200160002054905080600660008773ffffffffffffffffffffffffffffffffffffffff1673ffffffffffffffffffffffffffffffffffffffff168152602001908152602001600020600084815260200190815260200160002081905550816007600083815260200190815260200160002081905550505b6007600084815260200190815260200160002060009055600660008573ffffffffffffffffffffffffffffffffffffffff1673ffffffffffffffffffffffffffffffffffffffff16815260200190815260200160002060008381526020019081526020016000206000905550505050565b600060016008805490506136a99190614b9b565b90506000600960008481526020019081526020016000205490506000600883815481106136d9576136d8614a6e565b5b9060005260206000200154905080600883815481106136fb576136fa614a6e565b5b90600052602060002001819055508160096000838152602001908152602001600020819055506009600085815260200190815260200160002060009055600880548061374a5761374961555f565b5b6001900381819060005260206000200160009055905550505050565b600061377183611213565b905081600660008573ffffffffffffffffffffffffffffffffffffffff1673ffffffffffffffffffffffffffffffffffffffff168152602001908152602001600020600083815260200190815260200160002081905550806007600084815260200190815260200160002081905550505050565b6000808273ffffffffffffffffffffffffffffffffffffffff163b119050919050565b60007f01ffc9a7000000000000000000000000000000000000000000000000000000007bffffffffffffffffffffffffffffffffffffffffffffffffffffffff1916827bffffffffffffffffffffffffffffffffffffffffffffffffffffffff1916149050919050565b8280548282559060005260206000209081019282156138eb579160200282015b828111156138ea5782518260006101000a81548173ffffffffffffffffffffffffffffffffffffffff021916908373ffffffffffffffffffffffffffffffffffffffff16021790555091602001919060010190613892565b5b5090506138f891906138fc565b5090565b5b808211156139155760008160009055506001016138fd565b5090565b6000604051905090565b600080fd5b600080fd5b60007fffffffff0000000000000000000000000000000000000000000000000000000082169050919050565b6139628161392d565b811461396d57600080fd5b50565b60008135905061397f81613959565b92915050565b60006020828403121561399b5761399a613923565b5b60006139a984828501613970565b91505092915050565b60008115159050919050565b6139c7816139b2565b82525050565b60006020820190506139e260008301846139be565b92915050565b600081519050919050565b600082825260208201905092915050565b60005b83811015613a22578082015181840152602081019050613a07565b60008484015250505050565b6000601f19601f8301169050919050565b6000613a4a826139e8565b613a5481856139f3565b9350613a64818560208601613a04565b613a6d81613a2e565b840191505092915050565b60006020820190508181036000830152613a928184613a3f565b905092915050565b6000819050919050565b613aad81613a9a565b8114613ab857600080fd5b50565b600081359050613aca81613aa4565b92915050565b600060208284031215613ae657613ae5613923565b5b6000613af484828501613abb565b91505092915050565b600073ffffffffffffffffffffffffffffffffffffffff82169050919050565b6000613b2882613afd565b9050919050565b613b3881613b1d565b82525050565b6000602082019050613b536000830184613b2f565b92915050565b613b6281613b1d565b8114613b6d57600080fd5b50565b600081359050613b7f81613b59565b92915050565b60008060408385031215613b9c57613b9b613923565b5b6000613baa85828601613b70565b9250506020613bbb85828601613abb565b9150509250929050565b613bce81613a9a565b82525050565b6000602082019050613be96000830184613bc5565b92915050565b600080600060608486031215613c0857613c07613923565b5b6000613c1686828701613b70565b9350506020613c2786828701613b70565b9250506040613c3886828701613abb565b9150509250925092565b6000819050919050565b613c5581613c42565b8114613c6057600080fd5b50565b600081359050613c7281613c4c565b92915050565b600060208284031215613c8e57613c8d613923565b5b6000613c9c84828501613c63565b91505092915050565b613cae81613c42565b82525050565b6000602082019050613cc96000830184613ca5565b92915050565b600060208284031215613ce557613ce4613923565b5b6000613cf384828501613b70565b91505092915050565b60008060408385031215613d1357613d12613923565b5b6000613d2185828601613abb565b9250506020613d3285828601613b70565b9150509250929050565b60008060408385031215613d5357613d52613923565b5b6000613d6185828601613c63565b9250506020613d7285828601613b70565b9150509250929050565b600080fd5b600080fd5b7f4e487b7100000000000000000000000000000000000000000000000000000000600052604160045260246000fd5b613dbe82613a2e565b810181811067ffffffffffffffff82111715613ddd57613ddc613d86565b5b80604052505050565b6000613df0613919565b9050613dfc8282613db5565b919050565b600067ffffffffffffffff821115613e1c57613e1b613d86565b5b613e2582613a2e565b9050602081019050919050565b82818337600083830152505050565b6000613e54613e4f84613e01565b613de6565b905082815260208101848484011115613e7057613e6f613d81565b5b613e7b848285613e32565b509392505050565b600082601f830112613e9857613e97613d7c565b5b8135613ea8848260208601613e41565b91505092915050565b60008060008060808587031215613ecb57613eca613923565b5b600085013567ffffffffffffffff811115613ee957613ee8613928565b5b613ef587828801613e83565b945050602085013567ffffffffffffffff811115613f1657613f15613928565b5b613f2287828801613e83565b935050604085013567ffffffffffffffff811115613f4357613f42613928565b5b613f4f87828801613e83565b9250506060613f6087828801613b70565b91505092959194509250565b600060208284031215613f8257613f81613923565b5b600082013567ffffffffffffffff811115613fa057613f9f613928565b5b613fac84828501613e83565b91505092915050565b600060e082019050613fca600083018a613bc5565b8181036020830152613fdc8189613a3f565b90508181036040830152613ff08188613a3f565b905081810360608301526140048187613a3f565b905081810360808301526140188186613a3f565b905061402760a0830185613bc5565b61403460c08301846139be565b98975050505050505050565b614049816139b2565b811461405457600080fd5b50565b60008135905061406681614040565b92915050565b6000806040838503121561408357614082613923565b5b600061409185828601613b70565b92505060206140a285828601614057565b9150509250929050565b600067ffffffffffffffff8211156140c7576140c6613d86565b5b6140d082613a2e565b9050602081019050919050565b60006140f06140eb846140ac565b613de6565b90508281526020810184848401111561410c5761410b613d81565b5b614117848285613e32565b509392505050565b600082601f83011261413457614133613d7c565b5b81356141448482602086016140dd565b91505092915050565b6000806000806080858703121561416757614166613923565b5b600061417587828801613b70565b945050602061418687828801613b70565b935050604061419787828801613abb565b925050606085013567ffffffffffffffff8111156141b8576141b7613928565b5b6141c48782880161411f565b91505092959194509250565b600080604083850312156141e7576141e6613923565b5b60006141f585828601613b70565b925050602061420685828601613b70565b9150509250929050565b600081519050919050565b600082825260208201905092915050565b6000819050602082019050919050565b61424581613b1d565b82525050565b6000614257838361423c565b60208301905092915050565b6000602082019050919050565b600061427b82614210565b614285818561421b565b93506142908361422c565b8060005b838110156142c15781516142a8888261424b565b97506142b383614263565b925050600181019050614294565b5085935050505092915050565b600060e0820190506142e3600083018a613bc5565b81810360208301526142f58189614270565b905081810360408301526143098188613a3f565b9050818103606083015261431d8187613a3f565b905081810360808301526143318186613a3f565b905081810360a08301526143458185613a3f565b905061435460c0830184613bc5565b98975050505050505050565b7f4e487b7100000000000000000000000000000000000000000000000000000000600052602260045260246000fd5b600060028204905060018216806143a757607f821691505b6020821081036143ba576143b9614360565b5b50919050565b7f4552433732313a20617070726f76616c20746f2063757272656e74206f776e6560008201527f7200000000000000000000000000000000000000000000000000000000000000602082015250565b600061441c6021836139f3565b9150614427826143c0565b604082019050919050565b6000602082019050818103600083015261444b8161440f565b9050919050565b7f4552433732313a20617070726f76652063616c6c6572206973206e6f7420746f60008201527f6b656e206f776e6572206f7220617070726f76656420666f7220616c6c000000602082015250565b60006144ae603d836139f3565b91506144b982614452565b604082019050919050565b600060208201905081810360008301526144dd816144a1565b9050919050565b7f455243373231456e756d657261626c653a206f776e657220696e646578206f7560008201527f74206f6620626f756e6473000000000000000000000000000000000000000000602082015250565b6000614540602b836139f3565b915061454b826144e4565b604082019050919050565b6000602082019050818103600083015261456f81614533565b9050919050565b7f4e487b7100000000000000000000000000000000000000000000000000000000600052601160045260246000fd5b60006145b082613a9a565b91506145bb83613a9a565b92508282019050808211156145d3576145d2614576565b5b92915050565b60008190508160005260206000209050919050565b60006020601f8301049050919050565b600082821b905092915050565b60006008830261463b7fffffffffffffffffffffffffffffffffffffffffffffffffffffffffffffffff826145fe565b61464586836145fe565b95508019841693508086168417925050509392505050565b6000819050919050565b600061468261467d61467884613a9a565b61465d565b613a9a565b9050919050565b6000819050919050565b61469c83614667565b6146b06146a882614689565b84845461460b565b825550505050565b600090565b6146c56146b8565b6146d0818484614693565b505050565b5b818110156146f4576146e96000826146bd565b6001810190506146d6565b5050565b601f8211156147395761470a816145d9565b614713846145ee565b81016020851015614722578190505b61473661472e856145ee565b8301826146d5565b50505b505050565b600082821c905092915050565b600061475c6000198460080261473e565b1980831691505092915050565b6000614775838361474b565b9150826002028217905092915050565b61478e826139e8565b67ffffffffffffffff8111156147a7576147a6613d86565b5b6147b1825461438f565b6147bc8282856146f8565b600060209050601f8311600181146147ef57600084156147dd578287015190505b6147e78582614769565b86555061484f565b601f1984166147fd866145d9565b60005b8281101561482557848901518255600182019150602085019450602081019050614800565b86831015614842578489015161483e601f89168261474b565b8355505b6001600288020188555050505b505050505050565b600081546148648161438f565b61486e81866139f3565b94506001821660008114614889576001811461489f576148d2565b60ff1983168652811515602002860193506148d2565b6148a8856145d9565b60005b838110156148ca578154818901526001820191506020810190506148ab565b808801955050505b50505092915050565b600060a08201905081810360008301526148f58188614857565b905081810360208301526149098187613a3f565b9050818103604083015261491d8186613a3f565b905081810360608301526149318185613a3f565b90506149406080830184613bc5565b9695505050505050565b7f416363657373436f6e74726f6c3a2063616e206f6e6c792072656e6f756e636560008201527f20726f6c657320666f722073656c660000000000000000000000000000000000602082015250565b60006149a6602f836139f3565b91506149b18261494a565b604082019050919050565b600060208201905081810360008301526149d581614999565b9050919050565b7f455243373231456e756d657261626c653a20676c6f62616c20696e646578206f60008201527f7574206f6620626f756e64730000000000000000000000000000000000000000602082015250565b6000614a38602c836139f3565b9150614a43826149dc565b604082019050919050565b60006020820190508181036000830152614a6781614a2b565b9050919050565b7f4e487b7100000000000000000000000000000000000000000000000000000000600052603260045260246000fd5b7f4552433732313a20696e76616c696420746f6b656e2049440000000000000000600082015250565b6000614ad36018836139f3565b9150614ade82614a9d565b602082019050919050565b60006020820190508181036000830152614b0281614ac6565b9050919050565b7f4552433732313a2061646472657373207a65726f206973206e6f74206120766160008201527f6c6964206f776e65720000000000000000000000000000000000000000000000602082015250565b6000614b656029836139f3565b9150614b7082614b09565b604082019050919050565b60006020820190508181036000830152614b9481614b58565b9050919050565b6000614ba682613a9a565b9150614bb183613a9a565b9250828203905081811115614bc957614bc8614576565b5b92915050565b7f596f75206861766520746f206f776e6564206120746f6b656e21000000000000600082015250565b6000614c05601a836139f3565b9150614c1082614bcf565b602082019050919050565b60006020820190508181036000830152614c3481614bf8565b9050919050565b7f416c726561647920757365642e00000000000000000000000000000000000000600082015250565b6000614c71600d836139f3565b9150614c7c82614c3b565b602082019050919050565b60006020820190508181036000830152614ca081614c64565b9050919050565b600081549050614cb68161438f565b9050919050565b60008190508160005260206000209050919050565b818103614ce0575050614db8565b614ce982614ca7565b67ffffffffffffffff811115614d0257614d01613d86565b5b614d0c825461438f565b614d178282856146f8565b6000601f831160018114614d465760008415614d34578287015490505b614d3e8582614769565b865550614db1565b601f198416614d5487614cbd565b9650614d5f866145d9565b60005b82811015614d8757848901548255600182019150600185019450602081019050614d62565b86831015614da45784890154614da0601f89168261474b565b8355505b6001600288020188555050505b5050505050505b565b7f4552433732313a2063616c6c6572206973206e6f7420746f6b656e206f776e6560008201527f72206f7220617070726f76656400000000000000000000000000000000000000602082015250565b6000614e16602d836139f3565b9150614e2182614dba565b604082019050919050565b60006020820190508181036000830152614e4581614e09565b9050919050565b600081905092915050565b6000614e62826139e8565b614e6c8185614e4c565b9350614e7c818560208601613a04565b80840191505092915050565b6000614e948285614e57565b9150614ea08284614e57565b91508190509392505050565b7f426c6f6f6420646f6573206e6f74206578697374000000000000000000000000600082015250565b6000614ee26014836139f3565b9150614eed82614eac565b602082019050919050565b60006020820190508181036000830152614f1181614ed5565b9050919050565b7f4552433732313a206d696e7420746f20746865207a65726f2061646472657373600082015250565b6000614f4e6020836139f3565b9150614f5982614f18565b602082019050919050565b60006020820190508181036000830152614f7d81614f41565b9050919050565b7f4552433732313a20746f6b656e20616c7265616479206d696e74656400000000600082015250565b6000614fba601c836139f3565b9150614fc582614f84565b602082019050919050565b60006020820190508181036000830152614fe981614fad565b9050919050565b7f416363657373436f6e74726f6c3a206163636f756e7420000000000000000000600082015250565b6000615026601783614e4c565b915061503182614ff0565b601782019050919050565b7f206973206d697373696e6720726f6c6520000000000000000000000000000000600082015250565b6000615072601183614e4c565b915061507d8261503c565b601182019050919050565b600061509382615019565b915061509f8285614e57565b91506150aa82615065565b91506150b68284614e57565b91508190509392505050565b7f4552433732313a20617070726f766520746f2063616c6c657200000000000000600082015250565b60006150f86019836139f3565b9150615103826150c2565b602082019050919050565b60006020820190508181036000830152615127816150eb565b9050919050565b7f4552433732313a207472616e7366657220746f206e6f6e20455243373231526560008201527f63656976657220696d706c656d656e7465720000000000000000000000000000602082015250565b600061518a6032836139f3565b91506151958261512e565b604082019050919050565b600060208201905081810360008301526151b98161517d565b9050919050565b7f4e487b7100000000000000000000000000000000000000000000000000000000600052601260045260246000fd5b7f4552433732313a207472616e736665722066726f6d20696e636f72726563742060008201527f6f776e6572000000000000000000000000000000000000000000000000000000602082015250565b600061524b6025836139f3565b9150615256826151ef565b604082019050919050565b6000602082019050818103600083015261527a8161523e565b9050919050565b7f4552433732313a207472616e7366657220746f20746865207a65726f2061646460008201527f7265737300000000000000000000000000000000000000000000000000000000602082015250565b60006152dd6024836139f3565b91506152e882615281565b604082019050919050565b6000602082019050818103600083015261530c816152d0565b9050919050565b7f455243373231456e756d657261626c653a20636f6e736563757469766520747260008201527f616e7366657273206e6f7420737570706f727465640000000000000000000000602082015250565b600061536f6035836139f3565b915061537a82615313565b604082019050919050565b6000602082019050818103600083015261539e81615362565b9050919050565b60006153b082613a9a565b91506153bb83613a9a565b92508282026153c981613a9a565b915082820484148315176153e0576153df614576565b5b5092915050565b60006153f282613a9a565b91506000820361540557615404614576565b5b600182039050919050565b7f537472696e67733a20686578206c656e67746820696e73756666696369656e74600082015250565b60006154466020836139f3565b915061545182615410565b602082019050919050565b6000602082019050818103600083015261547581615439565b9050919050565b600081519050919050565b600082825260208201905092915050565b60006154a38261547c565b6154ad8185615487565b93506154bd818560208601613a04565b6154c681613a2e565b840191505092915050565b60006080820190506154e66000830187613b2f565b6154f36020830186613b2f565b6155006040830185613bc5565b81810360608301526155128184615498565b905095945050505050565b60008151905061552c81613959565b92915050565b60006020828403121561554857615547613923565b5b60006155568482850161551d565b91505092915050565b7f4e487b7100000000000000000000000000000000000000000000000000000000600052603160045260246000fdfea26469706673582212201cbf16dd43ed93ace8e9add62fca1c395d5b866b5da2e49b1091d2f84050fe5264736f6c63430008110033697066733a2f2f516d53683332644b75676f6f336539585876714b5a53366e44596232454d45425a4c4c7635546562675a36586445697066733a2f2f516d61786639746b455a555431386b336a526859646246437379627241737a34743936506b435a5a746742546f46",
  "linkReferences": {},
  "deployedLinkReferences": {}
}