{
  "_format": "hh-sol-artifact-1",
  "contractName": "BloodDonation",
  "sourceName": "contracts/BloodDonation.sol",
  "abi": [
    {
      "inputs": [],
      "stateMutability": "nonpayable",
      "type": "constructor"
    },
    {
      "anonymous": false,
      "inputs": [
        {
          "indexed": true,
          "internalType": "address",
          "name": "owner",
          "type": "address"
        },
        {
          "indexed": true,
          "internalType": "address",
          "name": "approved",
          "type": "address"
        },
        {
          "indexed": true,
          "internalType": "uint256",
          "name": "tokenId",
          "type": "uint256"
        }
      ],
      "name": "Approval",
      "type": "event"
    },
    {
      "anonymous": false,
      "inputs": [
        {
          "indexed": true,
          "internalType": "address",
          "name": "owner",
          "type": "address"
        },
        {
          "indexed": true,
          "internalType": "address",
          "name": "operator",
          "type": "address"
        },
        {
          "indexed": false,
          "internalType": "bool",
          "name": "approved",
          "type": "bool"
        }
      ],
      "name": "ApprovalForAll",
      "type": "event"
    },
    {
      "anonymous": false,
      "inputs": [
        {
          "indexed": true,
          "internalType": "uint256",
          "name": "tokenId",
          "type": "uint256"
        },
        {
          "indexed": false,
          "internalType": "string",
          "name": "photo",
          "type": "string"
        },
        {
          "indexed": false,
          "internalType": "string",
          "name": "title",
          "type": "string"
        },
        {
          "indexed": false,
          "internalType": "string",
          "name": "location",
          "type": "string"
        },
        {
          "indexed": false,
          "internalType": "string",
          "name": "description",
          "type": "string"
        },
        {
          "indexed": false,
          "internalType": "uint256",
          "name": "timestamp",
          "type": "uint256"
        }
      ],
      "name": "BDUploaded",
      "type": "event"
    },
    {
      "anonymous": false,
      "inputs": [
        {
          "indexed": true,
          "internalType": "bytes32",
          "name": "role",
          "type": "bytes32"
        },
        {
          "indexed": true,
          "internalType": "bytes32",
          "name": "previousAdminRole",
          "type": "bytes32"
        },
        {
          "indexed": true,
          "internalType": "bytes32",
          "name": "newAdminRole",
          "type": "bytes32"
        }
      ],
      "name": "RoleAdminChanged",
      "type": "event"
    },
    {
      "anonymous": false,
      "inputs": [
        {
          "indexed": true,
          "internalType": "bytes32",
          "name": "role",
          "type": "bytes32"
        },
        {
          "indexed": true,
          "internalType": "address",
          "name": "account",
          "type": "address"
        },
        {
          "indexed": true,
          "internalType": "address",
          "name": "sender",
          "type": "address"
        }
      ],
      "name": "RoleGranted",
      "type": "event"
    },
    {
      "anonymous": false,
      "inputs": [
        {
          "indexed": true,
          "internalType": "bytes32",
          "name": "role",
          "type": "bytes32"
        },
        {
          "indexed": true,
          "internalType": "address",
          "name": "account",
          "type": "address"
        },
        {
          "indexed": true,
          "internalType": "address",
          "name": "sender",
          "type": "address"
        }
      ],
      "name": "RoleRevoked",
      "type": "event"
    },
    {
      "anonymous": false,
      "inputs": [
        {
          "indexed": true,
          "internalType": "address",
          "name": "from",
          "type": "address"
        },
        {
          "indexed": true,
          "internalType": "address",
          "name": "to",
          "type": "address"
        },
        {
          "indexed": true,
          "internalType": "uint256",
          "name": "tokenId",
          "type": "uint256"
        }
      ],
      "name": "Transfer",
      "type": "event"
    },
    {
      "inputs": [],
      "name": "DEFAULT_ADMIN_ROLE",
      "outputs": [
        {
          "internalType": "bytes32",
          "name": "",
          "type": "bytes32"
        }
      ],
      "stateMutability": "view",
      "type": "function"
    },
    {
      "inputs": [],
      "name": "HOSPITAL",
      "outputs": [
        {
          "internalType": "bytes32",
          "name": "",
          "type": "bytes32"
        }
      ],
      "stateMutability": "view",
      "type": "function"
    },
    {
      "inputs": [],
      "name": "REDCROSS",
      "outputs": [
        {
          "internalType": "bytes32",
          "name": "",
          "type": "bytes32"
        }
      ],
      "stateMutability": "view",
      "type": "function"
    },
    {
      "inputs": [
        {
          "internalType": "uint256",
          "name": "",
          "type": "uint256"
        }
      ],
      "name": "_BDList",
      "outputs": [
        {
          "internalType": "uint256",
          "name": "tokenId",
          "type": "uint256"
        },
        {
          "internalType": "string",
          "name": "photo",
          "type": "string"
        },
        {
          "internalType": "string",
          "name": "title",
          "type": "string"
        },
        {
          "internalType": "string",
          "name": "location",
          "type": "string"
        },
        {
          "internalType": "string",
          "name": "description",
          "type": "string"
        },
        {
          "internalType": "uint256",
          "name": "timestamp",
          "type": "uint256"
        },
        {
          "internalType": "bool",
          "name": "used",
          "type": "bool"
        }
      ],
      "stateMutability": "view",
      "type": "function"
    },
    {
      "inputs": [],
      "name": "_notUsedPhotoURI",
      "outputs": [
        {
          "internalType": "string",
          "name": "",
          "type": "string"
        }
      ],
      "stateMutability": "view",
      "type": "function"
    },
    {
      "inputs": [],
      "name": "_usedPhotoURI",
      "outputs": [
        {
          "internalType": "string",
          "name": "",
          "type": "string"
        }
      ],
      "stateMutability": "view",
      "type": "function"
    },
    {
      "inputs": [
        {
          "internalType": "address",
          "name": "account",
          "type": "address"
        }
      ],
      "name": "addAdmin",
      "outputs": [],
      "stateMutability": "nonpayable",
      "type": "function"
    },
    {
      "inputs": [
        {
          "internalType": "address",
          "name": "to",
          "type": "address"
        },
        {
          "internalType": "uint256",
          "name": "tokenId",
          "type": "uint256"
        }
      ],
      "name": "approve",
      "outputs": [],
      "stateMutability": "nonpayable",
      "type": "function"
    },
    {
      "inputs": [
        {
          "internalType": "address",
          "name": "owner",
          "type": "address"
        }
      ],
      "name": "balanceOf",
      "outputs": [
        {
          "internalType": "uint256",
          "name": "",
          "type": "uint256"
        }
      ],
      "stateMutability": "view",
      "type": "function"
    },
    {
      "inputs": [
        {
          "internalType": "uint256[]",
          "name": "tokenIds",
          "type": "uint256[]"
        },
        {
          "internalType": "address",
          "name": "to",
          "type": "address"
        }
      ],
      "name": "batchTransferOwnership",
      "outputs": [],
      "stateMutability": "nonpayable",
      "type": "function"
    },
    {
      "inputs": [
        {
          "internalType": "address",
          "name": "account",
          "type": "address"
        }
      ],
      "name": "checkAdminRole",
      "outputs": [],
      "stateMutability": "view",
      "type": "function"
    },
    {
      "inputs": [
        {
          "internalType": "address",
          "name": "account",
          "type": "address"
        }
      ],
      "name": "checkHospitalRole",
      "outputs": [],
      "stateMutability": "view",
      "type": "function"
    },
    {
      "inputs": [
        {
          "internalType": "address",
          "name": "account",
          "type": "address"
        }
      ],
      "name": "checkRedCrossRole",
      "outputs": [],
      "stateMutability": "view",
      "type": "function"
    },
    {
      "inputs": [
        {
          "internalType": "uint256",
          "name": "_tokenId",
          "type": "uint256"
        }
      ],
      "name": "checkUse",
      "outputs": [
        {
          "internalType": "bool",
          "name": "",
          "type": "bool"
        }
      ],
      "stateMutability": "view",
      "type": "function"
    },
    {
      "inputs": [
        {
          "internalType": "uint256",
          "name": "tokenId",
          "type": "uint256"
        }
      ],
      "name": "getApproved",
      "outputs": [
        {
          "internalType": "address",
          "name": "",
          "type": "address"
        }
      ],
      "stateMutability": "view",
      "type": "function"
    },
    {
      "inputs": [
        {
          "internalType": "uint256",
          "name": "tokenId",
          "type": "uint256"
        }
      ],
      "name": "getBD",
      "outputs": [
        {
          "internalType": "uint256",
          "name": "",
          "type": "uint256"
        },
        {
          "internalType": "address[]",
          "name": "",
          "type": "address[]"
        },
        {
          "internalType": "string",
          "name": "",
          "type": "string"
        },
        {
          "internalType": "string",
          "name": "",
          "type": "string"
        },
        {
          "internalType": "string",
          "name": "",
          "type": "string"
        },
        {
          "internalType": "string",
          "name": "",
          "type": "string"
        },
        {
          "internalType": "uint256",
          "name": "",
          "type": "uint256"
        }
      ],
      "stateMutability": "view",
      "type": "function"
    },
    {
      "inputs": [
        {
          "internalType": "bytes32",
          "name": "role",
          "type": "bytes32"
        }
      ],
      "name": "getRoleAdmin",
      "outputs": [
        {
          "internalType": "bytes32",
          "name": "",
          "type": "bytes32"
        }
      ],
      "stateMutability": "view",
      "type": "function"
    },
    {
      "inputs": [],
      "name": "getTotalBDCount",
      "outputs": [
        {
          "internalType": "uint256",
          "name": "",
          "type": "uint256"
        }
      ],
      "stateMutability": "view",
      "type": "function"
    },
    {
      "inputs": [
        {
          "internalType": "address",
          "name": "account",
          "type": "address"
        }
      ],
      "name": "grantHospitalRole",
      "outputs": [],
      "stateMutability": "nonpayable",
      "type": "function"
    },
    {
      "inputs": [
        {
          "internalType": "address",
          "name": "account",
          "type": "address"
        }
      ],
      "name": "grantRedCrossRole",
      "outputs": [],
      "stateMutability": "nonpayable",
      "type": "function"
    },
    {
      "inputs": [
        {
          "internalType": "bytes32",
          "name": "role",
          "type": "bytes32"
        },
        {
          "internalType": "address",
          "name": "account",
          "type": "address"
        }
      ],
      "name": "grantRole",
      "outputs": [],
      "stateMutability": "nonpayable",
      "type": "function"
    },
    {
      "inputs": [
        {
          "internalType": "bytes32",
          "name": "role",
          "type": "bytes32"
        },
        {
          "internalType": "address",
          "name": "account",
          "type": "address"
        }
      ],
      "name": "hasRole",
      "outputs": [
        {
          "internalType": "bool",
          "name": "",
          "type": "bool"
        }
      ],
      "stateMutability": "view",
      "type": "function"
    },
    {
      "inputs": [
        {
          "internalType": "address",
          "name": "owner",
          "type": "address"
        },
        {
          "internalType": "address",
          "name": "operator",
          "type": "address"
        }
      ],
      "name": "isApprovedForAll",
      "outputs": [
        {
          "internalType": "bool",
          "name": "",
          "type": "bool"
        }
      ],
      "stateMutability": "view",
      "type": "function"
    },
    {
      "inputs": [
        {
          "internalType": "string",
          "name": "title",
          "type": "string"
        },
        {
          "internalType": "string",
          "name": "location",
          "type": "string"
        },
        {
          "internalType": "string",
          "name": "description",
          "type": "string"
        },
        {
          "internalType": "address",
          "name": "to",
          "type": "address"
        }
      ],
      "name": "mintBD",
      "outputs": [],
      "stateMutability": "nonpayable",
      "type": "function"
    },
    {
      "inputs": [],
      "name": "name",
      "outputs": [
        {
          "internalType": "string",
          "name": "",
          "type": "string"
        }
      ],
      "stateMutability": "view",
      "type": "function"
    },
    {
      "inputs": [
        {
          "internalType": "uint256",
          "name": "tokenId",
          "type": "uint256"
        }
      ],
      "name": "ownerOf",
      "outputs": [
        {
          "internalType": "address",
          "name": "",
          "type": "address"
        }
      ],
      "stateMutability": "view",
      "type": "function"
    },
    {
      "inputs": [],
      "name": "renounceAdmin",
      "outputs": [],
      "stateMutability": "nonpayable",
      "type": "function"
    },
    {
      "inputs": [
        {
          "internalType": "bytes32",
          "name": "role",
          "type": "bytes32"
        },
        {
          "internalType": "address",
          "name": "account",
          "type": "address"
        }
      ],
      "name": "renounceRole",
      "outputs": [],
      "stateMutability": "nonpayable",
      "type": "function"
    },
    {
      "inputs": [
        {
          "internalType": "bytes32",
          "name": "role",
          "type": "bytes32"
        },
        {
          "internalType": "address",
          "name": "account",
          "type": "address"
        }
      ],
      "name": "revokeRole",
      "outputs": [],
      "stateMutability": "nonpayable",
      "type": "function"
    },
    {
      "inputs": [
        {
          "internalType": "address",
          "name": "from",
          "type": "address"
        },
        {
          "internalType": "address",
          "name": "to",
          "type": "address"
        },
        {
          "internalType": "uint256",
          "name": "tokenId",
          "type": "uint256"
        }
      ],
      "name": "safeTransferFrom",
      "outputs": [],
      "stateMutability": "nonpayable",
      "type": "function"
    },
    {
      "inputs": [
        {
          "internalType": "address",
          "name": "from",
          "type": "address"
        },
        {
          "internalType": "address",
          "name": "to",
          "type": "address"
        },
        {
          "internalType": "uint256",
          "name": "tokenId",
          "type": "uint256"
        },
        {
          "internalType": "bytes",
          "name": "data",
          "type": "bytes"
        }
      ],
      "name": "safeTransferFrom",
      "outputs": [],
      "stateMutability": "nonpayable",
      "type": "function"
    },
    {
      "inputs": [
        {
          "internalType": "address",
          "name": "operator",
          "type": "address"
        },
        {
          "internalType": "bool",
          "name": "approved",
          "type": "bool"
        }
      ],
      "name": "setApprovalForAll",
      "outputs": [],
      "stateMutability": "nonpayable",
      "type": "function"
    },
    {
      "inputs": [
        {
          "internalType": "string",
          "name": "_newNotUsedURI",
          "type": "string"
        }
      ],
      "name": "setNotUsedURI",
      "outputs": [],
      "stateMutability": "nonpayable",
      "type": "function"
    },
    {
      "inputs": [
        {
          "internalType": "string",
          "name": "_newUsedURI",
          "type": "string"
        }
      ],
      "name": "setUsedURI",
      "outputs": [],
      "stateMutability": "nonpayable",
      "type": "function"
    },
    {
      "inputs": [
        {
          "internalType": "bytes4",
          "name": "interfaceId",
          "type": "bytes4"
        }
      ],
      "name": "supportsInterface",
      "outputs": [
        {
          "internalType": "bool",
          "name": "",
          "type": "bool"
        }
      ],
      "stateMutability": "view",
      "type": "function"
    },
    {
      "inputs": [],
      "name": "symbol",
      "outputs": [
        {
          "internalType": "string",
          "name": "",
          "type": "string"
        }
      ],
      "stateMutability": "view",
      "type": "function"
    },
    {
      "inputs": [
        {
          "internalType": "uint256",
          "name": "index",
          "type": "uint256"
        }
      ],
      "name": "tokenByIndex",
      "outputs": [
        {
          "internalType": "uint256",
          "name": "",
          "type": "uint256"
        }
      ],
      "stateMutability": "view",
      "type": "function"
    },
    {
      "inputs": [
        {
          "internalType": "address",
          "name": "owner",
          "type": "address"
        },
        {
          "internalType": "uint256",
          "name": "index",
          "type": "uint256"
        }
      ],
      "name": "tokenOfOwnerByIndex",
      "outputs": [
        {
          "internalType": "uint256",
          "name": "",
          "type": "uint256"
        }
      ],
      "stateMutability": "view",
      "type": "function"
    },
    {
      "inputs": [
        {
          "internalType": "uint256",
          "name": "tokenId",
          "type": "uint256"
        }
      ],
      "name": "tokenURI",
      "outputs": [
        {
          "internalType": "string",
          "name": "",
          "type": "string"
        }
      ],
      "stateMutability": "view",
      "type": "function"
    },
    {
      "inputs": [],
      "name": "totalSupply",
      "outputs": [
        {
          "internalType": "uint256",
          "name": "",
          "type": "uint256"
        }
      ],
      "stateMutability": "view",
      "type": "function"
    },
    {
      "inputs": [
        {
          "internalType": "address",
          "name": "from",
          "type": "address"
        },
        {
          "internalType": "address",
          "name": "to",
          "type": "address"
        },
        {
          "internalType": "uint256",
          "name": "tokenId",
          "type": "uint256"
        }
      ],
      "name": "transferFrom",
      "outputs": [],
      "stateMutability": "nonpayable",
      "type": "function"
    },
    {
      "inputs": [
        {
          "internalType": "uint256",
          "name": "tokenId",
          "type": "uint256"
        },
        {
          "internalType": "address",
          "name": "to",
          "type": "address"
        }
      ],
      "name": "transferOwnership",
      "outputs": [],
      "stateMutability": "nonpayable",
      "type": "function"
    },
    {
      "inputs": [
        {
          "internalType": "uint256",
          "name": "_tokenId",
          "type": "uint256"
        }
      ],
      "name": "use",
      "outputs": [],
      "stateMutability": "nonpayable",
      "type": "function"
    },
    {
      "inputs": [
        {
          "internalType": "uint256[]",
          "name": "tokenIds",
          "type": "uint256[]"
        }
      ],
      "name": "useBatch",
      "outputs": [],
      "stateMutability": "nonpayable",
      "type": "function"
    },
    {
      "inputs": [],
      "name": "used",
      "outputs": [
        {
          "internalType": "bool",
          "name": "",
          "type": "bool"
        }
      ],
      "stateMutability": "view",
      "type": "function"
    }
  ],
  "bytecode": "0x60806040526040518060600160405280603581526020016200603860359139600c90816200002e919062000525565b506040518060600160405280603581526020016200600360359139600d908162000059919062000525565b506000600e60006101000a81548160ff0219169083151502179055503480156200008257600080fd5b506040518060400160405280600d81526020017f426c6f6f64446f6e6174696f6e000000000000000000000000000000000000008152506040518060400160405280600581526020017f42444e4654000000000000000000000000000000000000000000000000000000815250816000908162000100919062000525565b50806001908162000112919062000525565b5050506200012a6000801b336200013060201b60201c565b6200060c565b6200014282826200014660201b60201c565b5050565b6200015882826200023860201b60201c565b62000234576001600a600084815260200190815260200160002060000160008373ffffffffffffffffffffffffffffffffffffffff1673ffffffffffffffffffffffffffffffffffffffff16815260200190815260200160002060006101000a81548160ff021916908315150217905550620001d9620002a360201b60201c565b73ffffffffffffffffffffffffffffffffffffffff168173ffffffffffffffffffffffffffffffffffffffff16837f2f8788117e7eff1d82e926ec794901d17c78024a50270940304540a733656f0d60405160405180910390a45b5050565b6000600a600084815260200190815260200160002060000160008373ffffffffffffffffffffffffffffffffffffffff1673ffffffffffffffffffffffffffffffffffffffff16815260200190815260200160002060009054906101000a900460ff16905092915050565b600033905090565b600081519050919050565b7f4e487b7100000000000000000000000000000000000000000000000000000000600052604160045260246000fd5b7f4e487b7100000000000000000000000000000000000000000000000000000000600052602260045260246000fd5b600060028204905060018216806200032d57607f821691505b602082108103620003435762000342620002e5565b5b50919050565b60008190508160005260206000209050919050565b60006020601f8301049050919050565b600082821b905092915050565b600060088302620003ad7fffffffffffffffffffffffffffffffffffffffffffffffffffffffffffffffff826200036e565b620003b986836200036e565b95508019841693508086168417925050509392505050565b6000819050919050565b6000819050919050565b60006200040662000400620003fa84620003d1565b620003db565b620003d1565b9050919050565b6000819050919050565b6200042283620003e5565b6200043a62000431826200040d565b8484546200037b565b825550505050565b600090565b6200045162000442565b6200045e81848462000417565b505050565b5b8181101562000486576200047a60008262000447565b60018101905062000464565b5050565b601f821115620004d5576200049f8162000349565b620004aa846200035e565b81016020851015620004ba578190505b620004d2620004c9856200035e565b83018262000463565b50505b505050565b600082821c905092915050565b6000620004fa60001984600802620004da565b1980831691505092915050565b6000620005158383620004e7565b9150826002028217905092915050565b6200053082620002ab565b67ffffffffffffffff8111156200054c576200054b620002b6565b5b62000558825462000314565b620005658282856200048a565b600060209050601f8311600181146200059d576000841562000588578287015190505b62000594858262000507565b86555062000604565b601f198416620005ad8662000349565b60005b82811015620005d757848901518255600182019150602085019450602081019050620005b0565b86831015620005f75784890151620005f3601f891682620004e7565b8355505b6001600288020188555050505b505050505050565b6159e7806200061c6000396000f3fe608060405234801561001057600080fd5b506004361061027f5760003560e01c806363898e2b1161015c578063a0562f69116100ce578063c87b56dd11610087578063c87b56dd14610798578063d547741f146107c8578063e386be2e146107e4578063e985e9c514610800578063ed54e96a14610830578063f639ec79146108665761027f565b8063a0562f69146106ec578063a217fddf14610708578063a22cb46514610726578063ab5b445614610742578063b0806ea71461075e578063b88d4fde1461077c5761027f565b80637e11f03c116101205780637e11f03c146106265780637ee756f21461064257806389d04f001461065e5780638bad0c0a1461069457806391d148541461069e57806395d89b41146106ce5761027f565b806363898e2b1461058457806370480275146105a257806370a08231146105be5780637b3dc4ef146105ee5780637def89281461060a5761027f565b80632f2ff15d116101f557806342842e0e116101b957806342842e0e146104b05780634f6ccce7146104cc57806354d0c549146104fc5780635bf47d9d1461051a5780635dd9727d146105365780636352211e146105545761027f565b80632f2ff15d146103fc5780632f745c5914610418578063353acb331461044857806336568abe146104645780633751d134146104805761027f565b806323b872dd1161024757806323b872dd1461033c578063248a9ca31461035857806327bbe7ee14610388578063280a337d146103a657806329507f73146103c25780632de31f3c146103de5761027f565b806301ffc9a71461028457806306fdde03146102b4578063081812fc146102d2578063095ea7b31461030257806318160ddd1461031e575b600080fd5b61029e60048036038101906102999190613b87565b610882565b6040516102ab9190613bcf565b60405180910390f35b6102bc610894565b6040516102c99190613c7a565b60405180910390f35b6102ec60048036038101906102e79190613cd2565b610926565b6040516102f99190613d40565b60405180910390f35b61031c60048036038101906103179190613d87565b61096c565b005b610326610a83565b6040516103339190613dd6565b60405180910390f35b61035660048036038101906103519190613df1565b610a90565b005b610372600480360381019061036d9190613e7a565b610af0565b60405161037f9190613eb6565b60405180910390f35b610390610b10565b60405161039d9190613eb6565b60405180910390f35b6103c060048036038101906103bb9190613ed1565b610b34565b005b6103dc60048036038101906103d79190613efe565b610b6f565b005b6103e6610bf5565b6040516103f39190613c7a565b60405180910390f35b61041660048036038101906104119190613f3e565b610c87565b005b610432600480360381019061042d9190613d87565b610ca8565b60405161043f9190613dd6565b60405180910390f35b610462600480360381019061045d91906140b3565b610d4d565b005b61047e60048036038101906104799190613f3e565b610fe8565b005b61049a60048036038101906104959190613cd2565b61106b565b6040516104a79190613bcf565b60405180910390f35b6104ca60048036038101906104c59190613df1565b611098565b005b6104e660048036038101906104e19190613cd2565b6110b8565b6040516104f39190613dd6565b60405180910390f35b610504611129565b6040516105119190613c7a565b60405180910390f35b610534600480360381019061052f919061416e565b6111bb565b005b61053e6111dc565b60405161054b9190613dd6565b60405180910390f35b61056e60048036038101906105699190613cd2565b6111eb565b60405161057b9190613d40565b60405180910390f35b61058c611271565b6040516105999190613bcf565b60405180910390f35b6105bc60048036038101906105b79190613ed1565b611284565b005b6105d860048036038101906105d39190613ed1565b6112a2565b6040516105e59190613dd6565b60405180910390f35b61060860048036038101906106039190613ed1565b611359565b005b610624600480360381019061061f919061416e565b611386565b005b610640600480360381019061063b919061427f565b6113a7565b005b61065c60048036038101906106579190613ed1565b61145c565b005b61067860048036038101906106739190613cd2565b611497565b60405161068b97969594939291906142c8565b60405180910390f35b61069c611706565b005b6106b860048036038101906106b39190613f3e565b611723565b6040516106c59190613bcf565b60405180910390f35b6106d661178e565b6040516106e39190613c7a565b60405180910390f35b61070660048036038101906107019190613ed1565b611820565b005b61071061184d565b60405161071d9190613eb6565b60405180910390f35b610740600480360381019061073b919061437f565b611854565b005b61075c60048036038101906107579190613cd2565b61186a565b005b610766611a5e565b6040516107739190613eb6565b60405180910390f35b61079660048036038101906107919190614460565b611a82565b005b6107b260048036038101906107ad9190613cd2565b611ae4565b6040516107bf9190613c7a565b60405180910390f35b6107e260048036038101906107dd9190613f3e565b611b4c565b005b6107fe60048036038101906107f99190613ed1565b611b6d565b005b61081a600480360381019061081591906144e3565b611b7d565b6040516108279190613bcf565b60405180910390f35b61084a60048036038101906108459190613cd2565b611c11565b60405161085d97969594939291906145e1565b60405180910390f35b610880600480360381019061087b9190614673565b611fe2565b005b600061088d82612100565b9050919050565b6060600080546108a3906146fe565b80601f01602080910402602001604051908101604052809291908181526020018280546108cf906146fe565b801561091c5780601f106108f15761010080835404028352916020019161091c565b820191906000526020600020905b8154815290600101906020018083116108ff57829003601f168201915b5050505050905090565b60006109318261217a565b6004600083815260200190815260200160002060009054906101000a900473ffffffffffffffffffffffffffffffffffffffff169050919050565b6000610977826111eb565b90508073ffffffffffffffffffffffffffffffffffffffff168373ffffffffffffffffffffffffffffffffffffffff16036109e7576040517f08c379a00000000000000000000000000000000000000000000000000000000081526004016109de906147a1565b60405180910390fd5b8073ffffffffffffffffffffffffffffffffffffffff16610a066121c5565b73ffffffffffffffffffffffffffffffffffffffff161480610a355750610a3481610a2f6121c5565b611b7d565b5b610a74576040517f08c379a0000000000000000000000000000000000000000000000000000000008152600401610a6b90614833565b60405180910390fd5b610a7e83836121cd565b505050565b6000600880549050905090565b610aa1610a9b6121c5565b82612286565b610ae0576040517f08c379a0000000000000000000000000000000000000000000000000000000008152600401610ad7906148c5565b60405180910390fd5b610aeb83838361231b565b505050565b6000600a6000838152602001908152602001600020600101549050919050565b7f72d66193ff00a845b4aed5f27e02d9b558ef32be1495a41d00c5c5fb191a076381565b6000801b610b4181612614565b610b6b7f60460dbe4b1f79d9efa1691d671057dc56200fed92b7dc0eb552fafb819b082c83610c87565b5050565b610b7a338284611098565b600b6000838152602001908152602001600020600101819080600181540180825580915050600190039060005260206000200160009091909190916101000a81548173ffffffffffffffffffffffffffffffffffffffff021916908373ffffffffffffffffffffffffffffffffffffffff1602179055505050565b6060600d8054610c04906146fe565b80601f0160208091040260200160405190810160405280929190818152602001828054610c30906146fe565b8015610c7d5780601f10610c5257610100808354040283529160200191610c7d565b820191906000526020600020905b815481529060010190602001808311610c6057829003601f168201915b5050505050905090565b610c9082610af0565b610c9981612614565b610ca38383612628565b505050565b6000610cb3836112a2565b8210610cf4576040517f08c379a0000000000000000000000000000000000000000000000000000000008152600401610ceb90614957565b60405180910390fd5b600660008473ffffffffffffffffffffffffffffffffffffffff1673ffffffffffffffffffffffffffffffffffffffff168152602001908152602001600020600083815260200190815260200160002054905092915050565b7f60460dbe4b1f79d9efa1691d671057dc56200fed92b7dc0eb552fafb819b082c610d7781612614565b60006001610d83610a83565b610d8d91906149a6565b9050610d998382612709565b60606000604051806101000160405280848152602001838152602001600c8054610dc2906146fe565b80601f0160208091040260200160405190810160405280929190818152602001828054610dee906146fe565b8015610e3b5780601f10610e1057610100808354040283529160200191610e3b565b820191906000526020600020905b815481529060010190602001808311610e1e57829003601f168201915b5050505050815260200189815260200188815260200187815260200142815260200160001515815250905080600b6000858152602001908152602001600020600082015181600001556020820151816001019080519060200190610ea0929190613a74565b506040820151816002019081610eb69190614b86565b506060820151816003019081610ecc9190614b86565b506080820151816004019081610ee29190614b86565b5060a0820151816005019081610ef89190614b86565b5060c0820151816006015560e08201518160070160006101000a81548160ff021916908315150217905550905050600b6000848152602001908152602001600020600101859080600181540180825580915050600190039060005260206000200160009091909190916101000a81548173ffffffffffffffffffffffffffffffffffffffff021916908373ffffffffffffffffffffffffffffffffffffffff160217905550827f94da8b1f54d6b112f33b8d347f164fc8f25cd951a157bcc7493673b7cadbf363600c8a8a8a42604051610fd6959493929190614cdc565b60405180910390a25050505050505050565b610ff06121c5565b73ffffffffffffffffffffffffffffffffffffffff168173ffffffffffffffffffffffffffffffffffffffff161461105d576040517f08c379a000000000000000000000000000000000000000000000000000000000815260040161105490614dbd565b60405180910390fd5b6110678282612926565b5050565b6000600b600083815260200190815260200160002060070160009054906101000a900460ff169050919050565b6110b383838360405180602001604052806000815250611a82565b505050565b60006110c2610a83565b8210611103576040517f08c379a00000000000000000000000000000000000000000000000000000000081526004016110fa90614e4f565b60405180910390fd5b6008828154811061111757611116614e6f565b5b90600052602060002001549050919050565b6060600c8054611138906146fe565b80601f0160208091040260200160405190810160405280929190818152602001828054611164906146fe565b80156111b15780601f10611186576101008083540402835291602001916111b1565b820191906000526020600020905b81548152906001019060200180831161119457829003601f168201915b5050505050905090565b6000801b6111c881612614565b81600d90816111d79190614b86565b505050565b60006111e6610a83565b905090565b6000806111f783612a08565b9050600073ffffffffffffffffffffffffffffffffffffffff168173ffffffffffffffffffffffffffffffffffffffff1603611268576040517f08c379a000000000000000000000000000000000000000000000000000000000815260040161125f90614eea565b60405180910390fd5b80915050919050565b600e60009054906101000a900460ff1681565b6000801b61129181612614565b61129e6000801b83610c87565b5050565b60008073ffffffffffffffffffffffffffffffffffffffff168273ffffffffffffffffffffffffffffffffffffffff1603611312576040517f08c379a000000000000000000000000000000000000000000000000000000000815260040161130990614f7c565b60405180910390fd5b600360008373ffffffffffffffffffffffffffffffffffffffff1673ffffffffffffffffffffffffffffffffffffffff168152602001908152602001600020549050919050565b6113837f72d66193ff00a845b4aed5f27e02d9b558ef32be1495a41d00c5c5fb191a076382612a45565b50565b6000801b61139381612614565b81600c90816113a29190614b86565b505050565b7f72d66193ff00a845b4aed5f27e02d9b558ef32be1495a41d00c5c5fb191a07636113d181612614565b6000825111611415576040517f08c379a000000000000000000000000000000000000000000000000000000000815260040161140c90614fe8565b60405180910390fd5b60005b82518110156114575761144483828151811061143757611436614e6f565b5b602002602001015161186a565b808061144f90615008565b915050611418565b505050565b6000801b61146981612614565b6114937f72d66193ff00a845b4aed5f27e02d9b558ef32be1495a41d00c5c5fb191a076383610c87565b5050565b600b6020528060005260406000206000915090508060000154908060020180546114c0906146fe565b80601f01602080910402602001604051908101604052809291908181526020018280546114ec906146fe565b80156115395780601f1061150e57610100808354040283529160200191611539565b820191906000526020600020905b81548152906001019060200180831161151c57829003601f168201915b50505050509080600301805461154e906146fe565b80601f016020809104026020016040519081016040528092919081815260200182805461157a906146fe565b80156115c75780601f1061159c576101008083540402835291602001916115c7565b820191906000526020600020905b8154815290600101906020018083116115aa57829003601f168201915b5050505050908060040180546115dc906146fe565b80601f0160208091040260200160405190810160405280929190818152602001828054611608906146fe565b80156116555780601f1061162a57610100808354040283529160200191611655565b820191906000526020600020905b81548152906001019060200180831161163857829003601f168201915b50505050509080600501805461166a906146fe565b80601f0160208091040260200160405190810160405280929190818152602001828054611696906146fe565b80156116e35780601f106116b8576101008083540402835291602001916116e3565b820191906000526020600020905b8154815290600101906020018083116116c657829003601f168201915b5050505050908060060154908060070160009054906101000a900460ff16905087565b6000801b61171381612614565b6117206000801b33610fe8565b50565b6000600a600084815260200190815260200160002060000160008373ffffffffffffffffffffffffffffffffffffffff1673ffffffffffffffffffffffffffffffffffffffff16815260200190815260200160002060009054906101000a900460ff16905092915050565b60606001805461179d906146fe565b80601f01602080910402602001604051908101604052809291908181526020018280546117c9906146fe565b80156118165780601f106117eb57610100808354040283529160200191611816565b820191906000526020600020905b8154815290600101906020018083116117f957829003601f168201915b5050505050905090565b61184a7f60460dbe4b1f79d9efa1691d671057dc56200fed92b7dc0eb552fafb819b082c82612a45565b50565b6000801b81565b61186661185f6121c5565b8383612aca565b5050565b7f72d66193ff00a845b4aed5f27e02d9b558ef32be1495a41d00c5c5fb191a076361189481612614565b600b60008381526020019081526020016000206001016001600b6000858152602001908152602001600020600101805490506118d09190615050565b815481106118e1576118e0614e6f565b5b9060005260206000200160009054906101000a900473ffffffffffffffffffffffffffffffffffffffff1673ffffffffffffffffffffffffffffffffffffffff163373ffffffffffffffffffffffffffffffffffffffff1614611979576040517f08c379a0000000000000000000000000000000000000000000000000000000008152600401611970906150d0565b60405180910390fd5b60001515600b600084815260200190815260200160002060070160009054906101000a900460ff161515146119e3576040517f08c379a00000000000000000000000000000000000000000000000000000000081526004016119da9061513c565b60405180910390fd5b600b600083815260200190815260200160002060070160009054906101000a900460ff1615600b600084815260200190815260200160002060070160006101000a81548160ff021916908315150217905550600d600b60008481526020019081526020016000206002019081611a599190615187565b505050565b7f60460dbe4b1f79d9efa1691d671057dc56200fed92b7dc0eb552fafb819b082c81565b611a93611a8d6121c5565b83612286565b611ad2576040517f08c379a0000000000000000000000000000000000000000000000000000000008152600401611ac9906148c5565b60405180910390fd5b611ade84848484612c36565b50505050565b6060611aef8261217a565b6000611af9612c92565b90506000815111611b195760405180602001604052806000815250611b44565b80611b2384612ca9565b604051602001611b349291906152ab565b6040516020818303038152906040525b915050919050565b611b5582610af0565b611b5e81612614565b611b688383612926565b505050565b611b7a6000801b82612a45565b50565b6000600560008473ffffffffffffffffffffffffffffffffffffffff1673ffffffffffffffffffffffffffffffffffffffff16815260200190815260200160002060008373ffffffffffffffffffffffffffffffffffffffff1673ffffffffffffffffffffffffffffffffffffffff16815260200190815260200160002060009054906101000a900460ff16905092915050565b60006060806060806060600080600b60008a81526020019081526020016000206000015403611c75576040517f08c379a0000000000000000000000000000000000000000000000000000000008152600401611c6c9061531b565b60405180910390fd5b600b600089815260200190815260200160002060000154600b60008a8152602001908152602001600020600101600b60008b8152602001908152602001600020600201600b60008c8152602001908152602001600020600301600b60008d8152602001908152602001600020600401600b60008e8152602001908152602001600020600501600b60008f81526020019081526020016000206006015485805480602002602001604051908101604052809291908181526020018280548015611d9257602002820191906000526020600020905b8160009054906101000a900473ffffffffffffffffffffffffffffffffffffffff1673ffffffffffffffffffffffffffffffffffffffff1681526020019060010190808311611d48575b50505050509550848054611da5906146fe565b80601f0160208091040260200160405190810160405280929190818152602001828054611dd1906146fe565b8015611e1e5780601f10611df357610100808354040283529160200191611e1e565b820191906000526020600020905b815481529060010190602001808311611e0157829003601f168201915b50505050509450838054611e31906146fe565b80601f0160208091040260200160405190810160405280929190818152602001828054611e5d906146fe565b8015611eaa5780601f10611e7f57610100808354040283529160200191611eaa565b820191906000526020600020905b815481529060010190602001808311611e8d57829003601f168201915b50505050509350828054611ebd906146fe565b80601f0160208091040260200160405190810160405280929190818152602001828054611ee9906146fe565b8015611f365780601f10611f0b57610100808354040283529160200191611f36565b820191906000526020600020905b815481529060010190602001808311611f1957829003601f168201915b50505050509250818054611f49906146fe565b80601f0160208091040260200160405190810160405280929190818152602001828054611f75906146fe565b8015611fc25780601f10611f9757610100808354040283529160200191611fc2565b820191906000526020600020905b815481529060010190602001808311611fa557829003601f168201915b505050505091509650965096509650965096509650919395979092949650565b6000825111612026576040517f08c379a000000000000000000000000000000000000000000000000000000000815260040161201d90614fe8565b60405180910390fd5b60005b82518110156120fb57612057338385848151811061204a57612049614e6f565b5b6020026020010151611098565b600b600084838151811061206e5761206d614e6f565b5b60200260200101518152602001908152602001600020600101829080600181540180825580915050600190039060005260206000200160009091909190916101000a81548173ffffffffffffffffffffffffffffffffffffffff021916908373ffffffffffffffffffffffffffffffffffffffff16021790555080806120f390615008565b915050612029565b505050565b60007f7965db0b000000000000000000000000000000000000000000000000000000007bffffffffffffffffffffffffffffffffffffffffffffffffffffffff1916827bffffffffffffffffffffffffffffffffffffffffffffffffffffffff19161480612173575061217282612d77565b5b9050919050565b61218381612df1565b6121c2576040517f08c379a00000000000000000000000000000000000000000000000000000000081526004016121b990614eea565b60405180910390fd5b50565b600033905090565b816004600083815260200190815260200160002060006101000a81548173ffffffffffffffffffffffffffffffffffffffff021916908373ffffffffffffffffffffffffffffffffffffffff160217905550808273ffffffffffffffffffffffffffffffffffffffff16612240836111eb565b73ffffffffffffffffffffffffffffffffffffffff167f8c5be1e5ebec7d5bd14f71427d1e84f3dd0314c0f7b2291e5b200ac8c7c3b92560405160405180910390a45050565b600080612292836111eb565b90508073ffffffffffffffffffffffffffffffffffffffff168473ffffffffffffffffffffffffffffffffffffffff1614806122d457506122d38185611b7d565b5b8061231257508373ffffffffffffffffffffffffffffffffffffffff166122fa84610926565b73ffffffffffffffffffffffffffffffffffffffff16145b91505092915050565b8273ffffffffffffffffffffffffffffffffffffffff1661233b826111eb565b73ffffffffffffffffffffffffffffffffffffffff1614612391576040517f08c379a0000000000000000000000000000000000000000000000000000000008152600401612388906153ad565b60405180910390fd5b600073ffffffffffffffffffffffffffffffffffffffff168273ffffffffffffffffffffffffffffffffffffffff1603612400576040517f08c379a00000000000000000000000000000000000000000000000000000000081526004016123f79061543f565b60405180910390fd5b61240d8383836001612e32565b8273ffffffffffffffffffffffffffffffffffffffff1661242d826111eb565b73ffffffffffffffffffffffffffffffffffffffff1614612483576040517f08c379a000000000000000000000000000000000000000000000000000000000815260040161247a906153ad565b60405180910390fd5b6004600082815260200190815260200160002060006101000a81549073ffffffffffffffffffffffffffffffffffffffff02191690556001600360008573ffffffffffffffffffffffffffffffffffffffff1673ffffffffffffffffffffffffffffffffffffffff168152602001908152602001600020600082825403925050819055506001600360008473ffffffffffffffffffffffffffffffffffffffff1673ffffffffffffffffffffffffffffffffffffffff16815260200190815260200160002060008282540192505081905550816002600083815260200190815260200160002060006101000a81548173ffffffffffffffffffffffffffffffffffffffff021916908373ffffffffffffffffffffffffffffffffffffffff160217905550808273ffffffffffffffffffffffffffffffffffffffff168473ffffffffffffffffffffffffffffffffffffffff167fddf252ad1be2c89b69c2b068fc378daa952ba7f163c4a11628f55a4df523b3ef60405160405180910390a461260f8383836001612f90565b505050565b612625816126206121c5565b612a45565b50565b6126328282611723565b612705576001600a600084815260200190815260200160002060000160008373ffffffffffffffffffffffffffffffffffffffff1673ffffffffffffffffffffffffffffffffffffffff16815260200190815260200160002060006101000a81548160ff0219169083151502179055506126aa6121c5565b73ffffffffffffffffffffffffffffffffffffffff168173ffffffffffffffffffffffffffffffffffffffff16837f2f8788117e7eff1d82e926ec794901d17c78024a50270940304540a733656f0d60405160405180910390a45b5050565b600073ffffffffffffffffffffffffffffffffffffffff168273ffffffffffffffffffffffffffffffffffffffff1603612778576040517f08c379a000000000000000000000000000000000000000000000000000000000815260040161276f906154ab565b60405180910390fd5b61278181612df1565b156127c1576040517f08c379a00000000000000000000000000000000000000000000000000000000081526004016127b890615517565b60405180910390fd5b6127cf600083836001612e32565b6127d881612df1565b15612818576040517f08c379a000000000000000000000000000000000000000000000000000000000815260040161280f90615517565b60405180910390fd5b6001600360008473ffffffffffffffffffffffffffffffffffffffff1673ffffffffffffffffffffffffffffffffffffffff16815260200190815260200160002060008282540192505081905550816002600083815260200190815260200160002060006101000a81548173ffffffffffffffffffffffffffffffffffffffff021916908373ffffffffffffffffffffffffffffffffffffffff160217905550808273ffffffffffffffffffffffffffffffffffffffff16600073ffffffffffffffffffffffffffffffffffffffff167fddf252ad1be2c89b69c2b068fc378daa952ba7f163c4a11628f55a4df523b3ef60405160405180910390a4612922600083836001612f90565b5050565b6129308282611723565b15612a04576000600a600084815260200190815260200160002060000160008373ffffffffffffffffffffffffffffffffffffffff1673ffffffffffffffffffffffffffffffffffffffff16815260200190815260200160002060006101000a81548160ff0219169083151502179055506129a96121c5565b73ffffffffffffffffffffffffffffffffffffffff168173ffffffffffffffffffffffffffffffffffffffff16837ff6391f5c32d9c69d2a47ea670b442974b53935d1edc7fd64eb21e047a839171b60405160405180910390a45b5050565b60006002600083815260200190815260200160002060009054906101000a900473ffffffffffffffffffffffffffffffffffffffff169050919050565b612a4f8282611723565b612ac657612a5c81612f96565b612a6a8360001c6020612fc3565b604051602001612a7b9291906155cf565b6040516020818303038152906040526040517f08c379a0000000000000000000000000000000000000000000000000000000008152600401612abd9190613c7a565b60405180910390fd5b5050565b8173ffffffffffffffffffffffffffffffffffffffff168373ffffffffffffffffffffffffffffffffffffffff1603612b38576040517f08c379a0000000000000000000000000000000000000000000000000000000008152600401612b2f90615655565b60405180910390fd5b80600560008573ffffffffffffffffffffffffffffffffffffffff1673ffffffffffffffffffffffffffffffffffffffff16815260200190815260200160002060008473ffffffffffffffffffffffffffffffffffffffff1673ffffffffffffffffffffffffffffffffffffffff16815260200190815260200160002060006101000a81548160ff0219169083151502179055508173ffffffffffffffffffffffffffffffffffffffff168373ffffffffffffffffffffffffffffffffffffffff167f17307eab39ab6107e8899845ad3d59bd9653f200f220920489ca2b5937696c3183604051612c299190613bcf565b60405180910390a3505050565b612c4184848461231b565b612c4d848484846131ff565b612c8c576040517f08c379a0000000000000000000000000000000000000000000000000000000008152600401612c83906156e7565b60405180910390fd5b50505050565b606060405180602001604052806000815250905090565b606060006001612cb884613386565b01905060008167ffffffffffffffff811115612cd757612cd6613f88565b5b6040519080825280601f01601f191660200182016040528015612d095781602001600182028036833780820191505090505b509050600082602001820190505b600115612d6c578080600190039150507f3031323334353637383961626364656600000000000000000000000000000000600a86061a8153600a8581612d6057612d5f615707565b5b04945060008503612d17575b819350505050919050565b60007f780e9d63000000000000000000000000000000000000000000000000000000007bffffffffffffffffffffffffffffffffffffffffffffffffffffffff1916827bffffffffffffffffffffffffffffffffffffffffffffffffffffffff19161480612dea5750612de9826134d9565b5b9050919050565b60008073ffffffffffffffffffffffffffffffffffffffff16612e1383612a08565b73ffffffffffffffffffffffffffffffffffffffff1614159050919050565b612e3e848484846135bb565b6001811115612e82576040517f08c379a0000000000000000000000000000000000000000000000000000000008152600401612e79906157a8565b60405180910390fd5b6000829050600073ffffffffffffffffffffffffffffffffffffffff168573ffffffffffffffffffffffffffffffffffffffff1603612ec957612ec4816136e1565b612f08565b8373ffffffffffffffffffffffffffffffffffffffff168573ffffffffffffffffffffffffffffffffffffffff1614612f0757612f06858261372a565b5b5b600073ffffffffffffffffffffffffffffffffffffffff168473ffffffffffffffffffffffffffffffffffffffff1603612f4a57612f4581613897565b612f89565b8473ffffffffffffffffffffffffffffffffffffffff168473ffffffffffffffffffffffffffffffffffffffff1614612f8857612f878482613968565b5b5b5050505050565b50505050565b6060612fbc8273ffffffffffffffffffffffffffffffffffffffff16601460ff16612fc3565b9050919050565b606060006002836002612fd691906157c8565b612fe091906149a6565b67ffffffffffffffff811115612ff957612ff8613f88565b5b6040519080825280601f01601f19166020018201604052801561302b5781602001600182028036833780820191505090505b5090507f30000000000000000000000000000000000000000000000000000000000000008160008151811061306357613062614e6f565b5b60200101907effffffffffffffffffffffffffffffffffffffffffffffffffffffffffffff1916908160001a9053507f7800000000000000000000000000000000000000000000000000000000000000816001815181106130c7576130c6614e6f565b5b60200101907effffffffffffffffffffffffffffffffffffffffffffffffffffffffffffff1916908160001a9053506000600184600261310791906157c8565b61311191906149a6565b90505b60018111156131b1577f3031323334353637383961626364656600000000000000000000000000000000600f86166010811061315357613152614e6f565b5b1a60f81b82828151811061316a57613169614e6f565b5b60200101907effffffffffffffffffffffffffffffffffffffffffffffffffffffffffffff1916908160001a905350600485901c9450806131aa9061580a565b9050613114565b50600084146131f5576040517f08c379a00000000000000000000000000000000000000000000000000000000081526004016131ec9061587f565b60405180910390fd5b8091505092915050565b60006132208473ffffffffffffffffffffffffffffffffffffffff166139e7565b15613379578373ffffffffffffffffffffffffffffffffffffffff1663150b7a026132496121c5565b8786866040518563ffffffff1660e01b815260040161326b94939291906158f4565b6020604051808303816000875af19250505080156132a757506040513d601f19601f820116820180604052508101906132a49190615955565b60015b613329573d80600081146132d7576040519150601f19603f3d011682016040523d82523d6000602084013e6132dc565b606091505b506000815103613321576040517f08c379a0000000000000000000000000000000000000000000000000000000008152600401613318906156e7565b60405180910390fd5b805181602001fd5b63150b7a0260e01b7bffffffffffffffffffffffffffffffffffffffffffffffffffffffff1916817bffffffffffffffffffffffffffffffffffffffffffffffffffffffff19161491505061337e565b600190505b949350505050565b600080600090507a184f03e93ff9f4daa797ed6e38ed64bf6a1f01000000000000000083106133e4577a184f03e93ff9f4daa797ed6e38ed64bf6a1f01000000000000000083816133da576133d9615707565b5b0492506040810190505b6d04ee2d6d415b85acef81000000008310613421576d04ee2d6d415b85acef8100000000838161341757613416615707565b5b0492506020810190505b662386f26fc10000831061345057662386f26fc10000838161344657613445615707565b5b0492506010810190505b6305f5e1008310613479576305f5e100838161346f5761346e615707565b5b0492506008810190505b612710831061349e57612710838161349457613493615707565b5b0492506004810190505b606483106134c157606483816134b7576134b6615707565b5b0492506002810190505b600a83106134d0576001810190505b80915050919050565b60007f80ac58cd000000000000000000000000000000000000000000000000000000007bffffffffffffffffffffffffffffffffffffffffffffffffffffffff1916827bffffffffffffffffffffffffffffffffffffffffffffffffffffffff191614806135a457507f5b5e139f000000000000000000000000000000000000000000000000000000007bffffffffffffffffffffffffffffffffffffffffffffffffffffffff1916827bffffffffffffffffffffffffffffffffffffffffffffffffffffffff1916145b806135b457506135b382613a0a565b5b9050919050565b60018111156136db57600073ffffffffffffffffffffffffffffffffffffffff168473ffffffffffffffffffffffffffffffffffffffff161461364f5780600360008673ffffffffffffffffffffffffffffffffffffffff1673ffffffffffffffffffffffffffffffffffffffff16815260200190815260200160002060008282546136479190615050565b925050819055505b600073ffffffffffffffffffffffffffffffffffffffff168373ffffffffffffffffffffffffffffffffffffffff16146136da5780600360008573ffffffffffffffffffffffffffffffffffffffff1673ffffffffffffffffffffffffffffffffffffffff16815260200190815260200160002060008282546136d291906149a6565b925050819055505b5b50505050565b6008805490506009600083815260200190815260200160002081905550600881908060018154018082558091505060019003906000526020600020016000909190919091505550565b60006001613737846112a2565b6137419190615050565b9050600060076000848152602001908152602001600020549050818114613826576000600660008673ffffffffffffffffffffffffffffffffffffffff1673ffffffffffffffffffffffffffffffffffffffff168152602001908152602001600020600084815260200190815260200160002054905080600660008773ffffffffffffffffffffffffffffffffffffffff1673ffffffffffffffffffffffffffffffffffffffff168152602001908152602001600020600084815260200190815260200160002081905550816007600083815260200190815260200160002081905550505b6007600084815260200190815260200160002060009055600660008573ffffffffffffffffffffffffffffffffffffffff1673ffffffffffffffffffffffffffffffffffffffff16815260200190815260200160002060008381526020019081526020016000206000905550505050565b600060016008805490506138ab9190615050565b90506000600960008481526020019081526020016000205490506000600883815481106138db576138da614e6f565b5b9060005260206000200154905080600883815481106138fd576138fc614e6f565b5b90600052602060002001819055508160096000838152602001908152602001600020819055506009600085815260200190815260200160002060009055600880548061394c5761394b615982565b5b6001900381819060005260206000200160009055905550505050565b6000613973836112a2565b905081600660008573ffffffffffffffffffffffffffffffffffffffff1673ffffffffffffffffffffffffffffffffffffffff168152602001908152602001600020600083815260200190815260200160002081905550806007600084815260200190815260200160002081905550505050565b6000808273ffffffffffffffffffffffffffffffffffffffff163b119050919050565b60007f01ffc9a7000000000000000000000000000000000000000000000000000000007bffffffffffffffffffffffffffffffffffffffffffffffffffffffff1916827bffffffffffffffffffffffffffffffffffffffffffffffffffffffff1916149050919050565b828054828255906000526020600020908101928215613aed579160200282015b82811115613aec5782518260006101000a81548173ffffffffffffffffffffffffffffffffffffffff021916908373ffffffffffffffffffffffffffffffffffffffff16021790555091602001919060010190613a94565b5b509050613afa9190613afe565b5090565b5b80821115613b17576000816000905550600101613aff565b5090565b6000604051905090565b600080fd5b600080fd5b60007fffffffff0000000000000000000000000000000000000000000000000000000082169050919050565b613b6481613b2f565b8114613b6f57600080fd5b50565b600081359050613b8181613b5b565b92915050565b600060208284031215613b9d57613b9c613b25565b5b6000613bab84828501613b72565b91505092915050565b60008115159050919050565b613bc981613bb4565b82525050565b6000602082019050613be46000830184613bc0565b92915050565b600081519050919050565b600082825260208201905092915050565b60005b83811015613c24578082015181840152602081019050613c09565b60008484015250505050565b6000601f19601f8301169050919050565b6000613c4c82613bea565b613c568185613bf5565b9350613c66818560208601613c06565b613c6f81613c30565b840191505092915050565b60006020820190508181036000830152613c948184613c41565b905092915050565b6000819050919050565b613caf81613c9c565b8114613cba57600080fd5b50565b600081359050613ccc81613ca6565b92915050565b600060208284031215613ce857613ce7613b25565b5b6000613cf684828501613cbd565b91505092915050565b600073ffffffffffffffffffffffffffffffffffffffff82169050919050565b6000613d2a82613cff565b9050919050565b613d3a81613d1f565b82525050565b6000602082019050613d556000830184613d31565b92915050565b613d6481613d1f565b8114613d6f57600080fd5b50565b600081359050613d8181613d5b565b92915050565b60008060408385031215613d9e57613d9d613b25565b5b6000613dac85828601613d72565b9250506020613dbd85828601613cbd565b9150509250929050565b613dd081613c9c565b82525050565b6000602082019050613deb6000830184613dc7565b92915050565b600080600060608486031215613e0a57613e09613b25565b5b6000613e1886828701613d72565b9350506020613e2986828701613d72565b9250506040613e3a86828701613cbd565b9150509250925092565b6000819050919050565b613e5781613e44565b8114613e6257600080fd5b50565b600081359050613e7481613e4e565b92915050565b600060208284031215613e9057613e8f613b25565b5b6000613e9e84828501613e65565b91505092915050565b613eb081613e44565b82525050565b6000602082019050613ecb6000830184613ea7565b92915050565b600060208284031215613ee757613ee6613b25565b5b6000613ef584828501613d72565b91505092915050565b60008060408385031215613f1557613f14613b25565b5b6000613f2385828601613cbd565b9250506020613f3485828601613d72565b9150509250929050565b60008060408385031215613f5557613f54613b25565b5b6000613f6385828601613e65565b9250506020613f7485828601613d72565b9150509250929050565b600080fd5b600080fd5b7f4e487b7100000000000000000000000000000000000000000000000000000000600052604160045260246000fd5b613fc082613c30565b810181811067ffffffffffffffff82111715613fdf57613fde613f88565b5b80604052505050565b6000613ff2613b1b565b9050613ffe8282613fb7565b919050565b600067ffffffffffffffff82111561401e5761401d613f88565b5b61402782613c30565b9050602081019050919050565b82818337600083830152505050565b600061405661405184614003565b613fe8565b90508281526020810184848401111561407257614071613f83565b5b61407d848285614034565b509392505050565b600082601f83011261409a57614099613f7e565b5b81356140aa848260208601614043565b91505092915050565b600080600080608085870312156140cd576140cc613b25565b5b600085013567ffffffffffffffff8111156140eb576140ea613b2a565b5b6140f787828801614085565b945050602085013567ffffffffffffffff81111561411857614117613b2a565b5b61412487828801614085565b935050604085013567ffffffffffffffff81111561414557614144613b2a565b5b61415187828801614085565b925050606061416287828801613d72565b91505092959194509250565b60006020828403121561418457614183613b25565b5b600082013567ffffffffffffffff8111156141a2576141a1613b2a565b5b6141ae84828501614085565b91505092915050565b600067ffffffffffffffff8211156141d2576141d1613f88565b5b602082029050602081019050919050565b600080fd5b60006141fb6141f6846141b7565b613fe8565b9050808382526020820190506020840283018581111561421e5761421d6141e3565b5b835b8181101561424757806142338882613cbd565b845260208401935050602081019050614220565b5050509392505050565b600082601f83011261426657614265613f7e565b5b81356142768482602086016141e8565b91505092915050565b60006020828403121561429557614294613b25565b5b600082013567ffffffffffffffff8111156142b3576142b2613b2a565b5b6142bf84828501614251565b91505092915050565b600060e0820190506142dd600083018a613dc7565b81810360208301526142ef8189613c41565b905081810360408301526143038188613c41565b905081810360608301526143178187613c41565b9050818103608083015261432b8186613c41565b905061433a60a0830185613dc7565b61434760c0830184613bc0565b98975050505050505050565b61435c81613bb4565b811461436757600080fd5b50565b60008135905061437981614353565b92915050565b6000806040838503121561439657614395613b25565b5b60006143a485828601613d72565b92505060206143b58582860161436a565b9150509250929050565b600067ffffffffffffffff8211156143da576143d9613f88565b5b6143e382613c30565b9050602081019050919050565b60006144036143fe846143bf565b613fe8565b90508281526020810184848401111561441f5761441e613f83565b5b61442a848285614034565b509392505050565b600082601f83011261444757614446613f7e565b5b81356144578482602086016143f0565b91505092915050565b6000806000806080858703121561447a57614479613b25565b5b600061448887828801613d72565b945050602061449987828801613d72565b93505060406144aa87828801613cbd565b925050606085013567ffffffffffffffff8111156144cb576144ca613b2a565b5b6144d787828801614432565b91505092959194509250565b600080604083850312156144fa576144f9613b25565b5b600061450885828601613d72565b925050602061451985828601613d72565b9150509250929050565b600081519050919050565b600082825260208201905092915050565b6000819050602082019050919050565b61455881613d1f565b82525050565b600061456a838361454f565b60208301905092915050565b6000602082019050919050565b600061458e82614523565b614598818561452e565b93506145a38361453f565b8060005b838110156145d45781516145bb888261455e565b97506145c683614576565b9250506001810190506145a7565b5085935050505092915050565b600060e0820190506145f6600083018a613dc7565b81810360208301526146088189614583565b9050818103604083015261461c8188613c41565b905081810360608301526146308187613c41565b905081810360808301526146448186613c41565b905081810360a08301526146588185613c41565b905061466760c0830184613dc7565b98975050505050505050565b6000806040838503121561468a57614689613b25565b5b600083013567ffffffffffffffff8111156146a8576146a7613b2a565b5b6146b485828601614251565b92505060206146c585828601613d72565b9150509250929050565b7f4e487b7100000000000000000000000000000000000000000000000000000000600052602260045260246000fd5b6000600282049050600182168061471657607f821691505b602082108103614729576147286146cf565b5b50919050565b7f4552433732313a20617070726f76616c20746f2063757272656e74206f776e6560008201527f7200000000000000000000000000000000000000000000000000000000000000602082015250565b600061478b602183613bf5565b91506147968261472f565b604082019050919050565b600060208201905081810360008301526147ba8161477e565b9050919050565b7f4552433732313a20617070726f76652063616c6c6572206973206e6f7420746f60008201527f6b656e206f776e6572206f7220617070726f76656420666f7220616c6c000000602082015250565b600061481d603d83613bf5565b9150614828826147c1565b604082019050919050565b6000602082019050818103600083015261484c81614810565b9050919050565b7f4552433732313a2063616c6c6572206973206e6f7420746f6b656e206f776e6560008201527f72206f7220617070726f76656400000000000000000000000000000000000000602082015250565b60006148af602d83613bf5565b91506148ba82614853565b604082019050919050565b600060208201905081810360008301526148de816148a2565b9050919050565b7f455243373231456e756d657261626c653a206f776e657220696e646578206f7560008201527f74206f6620626f756e6473000000000000000000000000000000000000000000602082015250565b6000614941602b83613bf5565b915061494c826148e5565b604082019050919050565b6000602082019050818103600083015261497081614934565b9050919050565b7f4e487b7100000000000000000000000000000000000000000000000000000000600052601160045260246000fd5b60006149b182613c9c565b91506149bc83613c9c565b92508282019050808211156149d4576149d3614977565b5b92915050565b60008190508160005260206000209050919050565b60006020601f8301049050919050565b600082821b905092915050565b600060088302614a3c7fffffffffffffffffffffffffffffffffffffffffffffffffffffffffffffffff826149ff565b614a4686836149ff565b95508019841693508086168417925050509392505050565b6000819050919050565b6000614a83614a7e614a7984613c9c565b614a5e565b613c9c565b9050919050565b6000819050919050565b614a9d83614a68565b614ab1614aa982614a8a565b848454614a0c565b825550505050565b600090565b614ac6614ab9565b614ad1818484614a94565b505050565b5b81811015614af557614aea600082614abe565b600181019050614ad7565b5050565b601f821115614b3a57614b0b816149da565b614b14846149ef565b81016020851015614b23578190505b614b37614b2f856149ef565b830182614ad6565b50505b505050565b600082821c905092915050565b6000614b5d60001984600802614b3f565b1980831691505092915050565b6000614b768383614b4c565b9150826002028217905092915050565b614b8f82613bea565b67ffffffffffffffff811115614ba857614ba7613f88565b5b614bb282546146fe565b614bbd828285614af9565b600060209050601f831160018114614bf05760008415614bde578287015190505b614be88582614b6a565b865550614c50565b601f198416614bfe866149da565b60005b82811015614c2657848901518255600182019150602085019450602081019050614c01565b86831015614c435784890151614c3f601f891682614b4c565b8355505b6001600288020188555050505b505050505050565b60008154614c65816146fe565b614c6f8186613bf5565b94506001821660008114614c8a5760018114614ca057614cd3565b60ff198316865281151560200286019350614cd3565b614ca9856149da565b60005b83811015614ccb57815481890152600182019150602081019050614cac565b808801955050505b50505092915050565b600060a0820190508181036000830152614cf68188614c58565b90508181036020830152614d0a8187613c41565b90508181036040830152614d1e8186613c41565b90508181036060830152614d328185613c41565b9050614d416080830184613dc7565b9695505050505050565b7f416363657373436f6e74726f6c3a2063616e206f6e6c792072656e6f756e636560008201527f20726f6c657320666f722073656c660000000000000000000000000000000000602082015250565b6000614da7602f83613bf5565b9150614db282614d4b565b604082019050919050565b60006020820190508181036000830152614dd681614d9a565b9050919050565b7f455243373231456e756d657261626c653a20676c6f62616c20696e646578206f60008201527f7574206f6620626f756e64730000000000000000000000000000000000000000602082015250565b6000614e39602c83613bf5565b9150614e4482614ddd565b604082019050919050565b60006020820190508181036000830152614e6881614e2c565b9050919050565b7f4e487b7100000000000000000000000000000000000000000000000000000000600052603260045260246000fd5b7f4552433732313a20696e76616c696420746f6b656e2049440000000000000000600082015250565b6000614ed4601883613bf5565b9150614edf82614e9e565b602082019050919050565b60006020820190508181036000830152614f0381614ec7565b9050919050565b7f4552433732313a2061646472657373207a65726f206973206e6f74206120766160008201527f6c6964206f776e65720000000000000000000000000000000000000000000000602082015250565b6000614f66602983613bf5565b9150614f7182614f0a565b604082019050919050565b60006020820190508181036000830152614f9581614f59565b9050919050565b7f4e6f7468696e6720656e74657265642e00000000000000000000000000000000600082015250565b6000614fd2601083613bf5565b9150614fdd82614f9c565b602082019050919050565b6000602082019050818103600083015261500181614fc5565b9050919050565b600061501382613c9c565b91507fffffffffffffffffffffffffffffffffffffffffffffffffffffffffffffffff820361504557615044614977565b5b600182019050919050565b600061505b82613c9c565b915061506683613c9c565b925082820390508181111561507e5761507d614977565b5b92915050565b7f596f75206861766520746f206f776e6564206120746f6b656e21000000000000600082015250565b60006150ba601a83613bf5565b91506150c582615084565b602082019050919050565b600060208201905081810360008301526150e9816150ad565b9050919050565b7f416c726561647920757365642e00000000000000000000000000000000000000600082015250565b6000615126600d83613bf5565b9150615131826150f0565b602082019050919050565b6000602082019050818103600083015261515581615119565b9050919050565b60008154905061516b816146fe565b9050919050565b60008190508160005260206000209050919050565b81810361519557505061526d565b61519e8261515c565b67ffffffffffffffff8111156151b7576151b6613f88565b5b6151c182546146fe565b6151cc828285614af9565b6000601f8311600181146151fb57600084156151e9578287015490505b6151f38582614b6a565b865550615266565b601f19841661520987615172565b9650615214866149da565b60005b8281101561523c57848901548255600182019150600185019450602081019050615217565b868310156152595784890154615255601f891682614b4c565b8355505b6001600288020188555050505b5050505050505b565b600081905092915050565b600061528582613bea565b61528f818561526f565b935061529f818560208601613c06565b80840191505092915050565b60006152b7828561527a565b91506152c3828461527a565b91508190509392505050565b7f426c6f6f6420646f6573206e6f74206578697374000000000000000000000000600082015250565b6000615305601483613bf5565b9150615310826152cf565b602082019050919050565b60006020820190508181036000830152615334816152f8565b9050919050565b7f4552433732313a207472616e736665722066726f6d20696e636f72726563742060008201527f6f776e6572000000000000000000000000000000000000000000000000000000602082015250565b6000615397602583613bf5565b91506153a28261533b565b604082019050919050565b600060208201905081810360008301526153c68161538a565b9050919050565b7f4552433732313a207472616e7366657220746f20746865207a65726f2061646460008201527f7265737300000000000000000000000000000000000000000000000000000000602082015250565b6000615429602483613bf5565b9150615434826153cd565b604082019050919050565b600060208201905081810360008301526154588161541c565b9050919050565b7f4552433732313a206d696e7420746f20746865207a65726f2061646472657373600082015250565b6000615495602083613bf5565b91506154a08261545f565b602082019050919050565b600060208201905081810360008301526154c481615488565b9050919050565b7f4552433732313a20746f6b656e20616c7265616479206d696e74656400000000600082015250565b6000615501601c83613bf5565b915061550c826154cb565b602082019050919050565b60006020820190508181036000830152615530816154f4565b9050919050565b7f416363657373436f6e74726f6c3a206163636f756e7420000000000000000000600082015250565b600061556d60178361526f565b915061557882615537565b601782019050919050565b7f206973206d697373696e6720726f6c6520000000000000000000000000000000600082015250565b60006155b960118361526f565b91506155c482615583565b601182019050919050565b60006155da82615560565b91506155e6828561527a565b91506155f1826155ac565b91506155fd828461527a565b91508190509392505050565b7f4552433732313a20617070726f766520746f2063616c6c657200000000000000600082015250565b600061563f601983613bf5565b915061564a82615609565b602082019050919050565b6000602082019050818103600083015261566e81615632565b9050919050565b7f4552433732313a207472616e7366657220746f206e6f6e20455243373231526560008201527f63656976657220696d706c656d656e7465720000000000000000000000000000602082015250565b60006156d1603283613bf5565b91506156dc82615675565b604082019050919050565b60006020820190508181036000830152615700816156c4565b9050919050565b7f4e487b7100000000000000000000000000000000000000000000000000000000600052601260045260246000fd5b7f455243373231456e756d657261626c653a20636f6e736563757469766520747260008201527f616e7366657273206e6f7420737570706f727465640000000000000000000000602082015250565b6000615792603583613bf5565b915061579d82615736565b604082019050919050565b600060208201905081810360008301526157c181615785565b9050919050565b60006157d382613c9c565b91506157de83613c9c565b92508282026157ec81613c9c565b9150828204841483151761580357615802614977565b5b5092915050565b600061581582613c9c565b91506000820361582857615827614977565b5b600182039050919050565b7f537472696e67733a20686578206c656e67746820696e73756666696369656e74600082015250565b6000615869602083613bf5565b915061587482615833565b602082019050919050565b600060208201905081810360008301526158988161585c565b9050919050565b600081519050919050565b600082825260208201905092915050565b60006158c68261589f565b6158d081856158aa565b93506158e0818560208601613c06565b6158e981613c30565b840191505092915050565b60006080820190506159096000830187613d31565b6159166020830186613d31565b6159236040830185613dc7565b818103606083015261593581846158bb565b905095945050505050565b60008151905061594f81613b5b565b92915050565b60006020828403121561596b5761596a613b25565b5b600061597984828501615940565b91505092915050565b7f4e487b7100000000000000000000000000000000000000000000000000000000600052603160045260246000fdfea26469706673582212206670ece80834d2c968f3d9f41fc1c648ef1eed85ed096ba6fca6563459b5f40f64736f6c63430008110033697066733a2f2f516d53683332644b75676f6f336539585876714b5a53366e44596232454d45425a4c4c7635546562675a36586445697066733a2f2f516d61786639746b455a555431386b336a526859646246437379627241737a34743936506b435a5a746742546f46",
  "linkReferences": {},
  "deployedLinkReferences": {}
}