{
  "_format": "hh-sol-artifact-1",
  "contractName": "BloodDonation",
  "sourceName": "contracts/BloodDonation.sol",
  "abi": [
    {
      "inputs": [],
      "stateMutability": "nonpayable",
      "type": "constructor"
    },
    {
      "anonymous": false,
      "inputs": [
        {
          "indexed": true,
          "internalType": "address",
          "name": "owner",
          "type": "address"
        },
        {
          "indexed": true,
          "internalType": "address",
          "name": "approved",
          "type": "address"
        },
        {
          "indexed": true,
          "internalType": "uint256",
          "name": "tokenId",
          "type": "uint256"
        }
      ],
      "name": "Approval",
      "type": "event"
    },
    {
      "anonymous": false,
      "inputs": [
        {
          "indexed": true,
          "internalType": "address",
          "name": "owner",
          "type": "address"
        },
        {
          "indexed": true,
          "internalType": "address",
          "name": "operator",
          "type": "address"
        },
        {
          "indexed": false,
          "internalType": "bool",
          "name": "approved",
          "type": "bool"
        }
      ],
      "name": "ApprovalForAll",
      "type": "event"
    },
    {
      "anonymous": false,
      "inputs": [
        {
          "indexed": true,
          "internalType": "uint256",
          "name": "tokenId",
          "type": "uint256"
        },
        {
          "indexed": false,
          "internalType": "string",
          "name": "photo",
          "type": "string"
        },
        {
          "indexed": false,
          "internalType": "string",
          "name": "title",
          "type": "string"
        },
        {
          "indexed": false,
          "internalType": "string",
          "name": "location",
          "type": "string"
        },
        {
          "indexed": false,
          "internalType": "string",
          "name": "description",
          "type": "string"
        },
        {
          "indexed": false,
          "internalType": "uint256",
          "name": "timestamp",
          "type": "uint256"
        }
      ],
      "name": "BDUploaded",
      "type": "event"
    },
    {
      "anonymous": false,
      "inputs": [
        {
          "indexed": true,
          "internalType": "bytes32",
          "name": "role",
          "type": "bytes32"
        },
        {
          "indexed": true,
          "internalType": "bytes32",
          "name": "previousAdminRole",
          "type": "bytes32"
        },
        {
          "indexed": true,
          "internalType": "bytes32",
          "name": "newAdminRole",
          "type": "bytes32"
        }
      ],
      "name": "RoleAdminChanged",
      "type": "event"
    },
    {
      "anonymous": false,
      "inputs": [
        {
          "indexed": true,
          "internalType": "bytes32",
          "name": "role",
          "type": "bytes32"
        },
        {
          "indexed": true,
          "internalType": "address",
          "name": "account",
          "type": "address"
        },
        {
          "indexed": true,
          "internalType": "address",
          "name": "sender",
          "type": "address"
        }
      ],
      "name": "RoleGranted",
      "type": "event"
    },
    {
      "anonymous": false,
      "inputs": [
        {
          "indexed": true,
          "internalType": "bytes32",
          "name": "role",
          "type": "bytes32"
        },
        {
          "indexed": true,
          "internalType": "address",
          "name": "account",
          "type": "address"
        },
        {
          "indexed": true,
          "internalType": "address",
          "name": "sender",
          "type": "address"
        }
      ],
      "name": "RoleRevoked",
      "type": "event"
    },
    {
      "anonymous": false,
      "inputs": [
        {
          "indexed": true,
          "internalType": "address",
          "name": "from",
          "type": "address"
        },
        {
          "indexed": true,
          "internalType": "address",
          "name": "to",
          "type": "address"
        },
        {
          "indexed": true,
          "internalType": "uint256",
          "name": "tokenId",
          "type": "uint256"
        }
      ],
      "name": "Transfer",
      "type": "event"
    },
    {
      "inputs": [],
      "name": "DEFAULT_ADMIN_ROLE",
      "outputs": [
        {
          "internalType": "bytes32",
          "name": "",
          "type": "bytes32"
        }
      ],
      "stateMutability": "view",
      "type": "function"
    },
    {
      "inputs": [],
      "name": "HOSPITAL",
      "outputs": [
        {
          "internalType": "bytes32",
          "name": "",
          "type": "bytes32"
        }
      ],
      "stateMutability": "view",
      "type": "function"
    },
    {
      "inputs": [],
      "name": "REDCROSS",
      "outputs": [
        {
          "internalType": "bytes32",
          "name": "",
          "type": "bytes32"
        }
      ],
      "stateMutability": "view",
      "type": "function"
    },
    {
      "inputs": [
        {
          "internalType": "uint256",
          "name": "",
          "type": "uint256"
        }
      ],
      "name": "_BDList",
      "outputs": [
        {
          "internalType": "uint256",
          "name": "tokenId",
          "type": "uint256"
        },
        {
          "internalType": "string",
          "name": "photo",
          "type": "string"
        },
        {
          "internalType": "string",
          "name": "title",
          "type": "string"
        },
        {
          "internalType": "string",
          "name": "location",
          "type": "string"
        },
        {
          "internalType": "string",
          "name": "description",
          "type": "string"
        },
        {
          "internalType": "uint256",
          "name": "timestamp",
          "type": "uint256"
        },
        {
          "internalType": "bool",
          "name": "used",
          "type": "bool"
        }
      ],
      "stateMutability": "view",
      "type": "function"
    },
    {
      "inputs": [],
      "name": "_notUsedPhotoURI",
      "outputs": [
        {
          "internalType": "string",
          "name": "",
          "type": "string"
        }
      ],
      "stateMutability": "view",
      "type": "function"
    },
    {
      "inputs": [],
      "name": "_usedPhotoURI",
      "outputs": [
        {
          "internalType": "string",
          "name": "",
          "type": "string"
        }
      ],
      "stateMutability": "view",
      "type": "function"
    },
    {
      "inputs": [
        {
          "internalType": "address",
          "name": "account",
          "type": "address"
        }
      ],
      "name": "addAdmin",
      "outputs": [],
      "stateMutability": "nonpayable",
      "type": "function"
    },
    {
      "inputs": [
        {
          "internalType": "address",
          "name": "to",
          "type": "address"
        },
        {
          "internalType": "uint256",
          "name": "tokenId",
          "type": "uint256"
        }
      ],
      "name": "approve",
      "outputs": [],
      "stateMutability": "nonpayable",
      "type": "function"
    },
    {
      "inputs": [
        {
          "internalType": "address",
          "name": "owner",
          "type": "address"
        }
      ],
      "name": "balanceOf",
      "outputs": [
        {
          "internalType": "uint256",
          "name": "",
          "type": "uint256"
        }
      ],
      "stateMutability": "view",
      "type": "function"
    },
    {
      "inputs": [
        {
          "internalType": "uint256[]",
          "name": "tokenIds",
          "type": "uint256[]"
        },
        {
          "internalType": "address",
          "name": "to",
          "type": "address"
        }
      ],
      "name": "batchTransferOwnership",
      "outputs": [],
      "stateMutability": "nonpayable",
      "type": "function"
    },
    {
      "inputs": [
        {
          "internalType": "address",
          "name": "account",
          "type": "address"
        }
      ],
      "name": "checkAdminRole",
      "outputs": [],
      "stateMutability": "view",
      "type": "function"
    },
    {
      "inputs": [
        {
          "internalType": "address",
          "name": "account",
          "type": "address"
        }
      ],
      "name": "checkHospitalRole",
      "outputs": [],
      "stateMutability": "view",
      "type": "function"
    },
    {
      "inputs": [
        {
          "internalType": "address",
          "name": "account",
          "type": "address"
        }
      ],
      "name": "checkRedCrossRole",
      "outputs": [],
      "stateMutability": "view",
      "type": "function"
    },
    {
      "inputs": [
        {
          "internalType": "uint256",
          "name": "tokenId",
          "type": "uint256"
        }
      ],
      "name": "getApproved",
      "outputs": [
        {
          "internalType": "address",
          "name": "",
          "type": "address"
        }
      ],
      "stateMutability": "view",
      "type": "function"
    },
    {
      "inputs": [
        {
          "internalType": "uint256",
          "name": "tokenId",
          "type": "uint256"
        }
      ],
      "name": "getBD",
      "outputs": [
        {
          "internalType": "uint256",
          "name": "",
          "type": "uint256"
        },
        {
          "internalType": "address[]",
          "name": "",
          "type": "address[]"
        },
        {
          "internalType": "string",
          "name": "",
          "type": "string"
        },
        {
          "internalType": "string",
          "name": "",
          "type": "string"
        },
        {
          "internalType": "string",
          "name": "",
          "type": "string"
        },
        {
          "internalType": "string",
          "name": "",
          "type": "string"
        },
        {
          "internalType": "uint256",
          "name": "",
          "type": "uint256"
        }
      ],
      "stateMutability": "view",
      "type": "function"
    },
    {
      "inputs": [
        {
          "internalType": "bytes32",
          "name": "role",
          "type": "bytes32"
        }
      ],
      "name": "getRoleAdmin",
      "outputs": [
        {
          "internalType": "bytes32",
          "name": "",
          "type": "bytes32"
        }
      ],
      "stateMutability": "view",
      "type": "function"
    },
    {
      "inputs": [],
      "name": "getTotalBDCount",
      "outputs": [
        {
          "internalType": "uint256",
          "name": "",
          "type": "uint256"
        }
      ],
      "stateMutability": "view",
      "type": "function"
    },
    {
      "inputs": [
        {
          "internalType": "address",
          "name": "account",
          "type": "address"
        }
      ],
      "name": "grantHospitalRole",
      "outputs": [],
      "stateMutability": "nonpayable",
      "type": "function"
    },
    {
      "inputs": [
        {
          "internalType": "address",
          "name": "account",
          "type": "address"
        }
      ],
      "name": "grantRedCrossRole",
      "outputs": [],
      "stateMutability": "nonpayable",
      "type": "function"
    },
    {
      "inputs": [
        {
          "internalType": "bytes32",
          "name": "role",
          "type": "bytes32"
        },
        {
          "internalType": "address",
          "name": "account",
          "type": "address"
        }
      ],
      "name": "grantRole",
      "outputs": [],
      "stateMutability": "nonpayable",
      "type": "function"
    },
    {
      "inputs": [
        {
          "internalType": "bytes32",
          "name": "role",
          "type": "bytes32"
        },
        {
          "internalType": "address",
          "name": "account",
          "type": "address"
        }
      ],
      "name": "hasRole",
      "outputs": [
        {
          "internalType": "bool",
          "name": "",
          "type": "bool"
        }
      ],
      "stateMutability": "view",
      "type": "function"
    },
    {
      "inputs": [
        {
          "internalType": "address",
          "name": "owner",
          "type": "address"
        },
        {
          "internalType": "address",
          "name": "operator",
          "type": "address"
        }
      ],
      "name": "isApprovedForAll",
      "outputs": [
        {
          "internalType": "bool",
          "name": "",
          "type": "bool"
        }
      ],
      "stateMutability": "view",
      "type": "function"
    },
    {
      "inputs": [
        {
          "internalType": "string",
          "name": "title",
          "type": "string"
        },
        {
          "internalType": "string",
          "name": "location",
          "type": "string"
        },
        {
          "internalType": "string",
          "name": "description",
          "type": "string"
        },
        {
          "internalType": "address",
          "name": "to",
          "type": "address"
        }
      ],
      "name": "mintBD",
      "outputs": [],
      "stateMutability": "nonpayable",
      "type": "function"
    },
    {
      "inputs": [],
      "name": "name",
      "outputs": [
        {
          "internalType": "string",
          "name": "",
          "type": "string"
        }
      ],
      "stateMutability": "view",
      "type": "function"
    },
    {
      "inputs": [
        {
          "internalType": "uint256",
          "name": "tokenId",
          "type": "uint256"
        }
      ],
      "name": "ownerOf",
      "outputs": [
        {
          "internalType": "address",
          "name": "",
          "type": "address"
        }
      ],
      "stateMutability": "view",
      "type": "function"
    },
    {
      "inputs": [],
      "name": "renounceAdmin",
      "outputs": [],
      "stateMutability": "nonpayable",
      "type": "function"
    },
    {
      "inputs": [
        {
          "internalType": "bytes32",
          "name": "role",
          "type": "bytes32"
        },
        {
          "internalType": "address",
          "name": "account",
          "type": "address"
        }
      ],
      "name": "renounceRole",
      "outputs": [],
      "stateMutability": "nonpayable",
      "type": "function"
    },
    {
      "inputs": [
        {
          "internalType": "bytes32",
          "name": "role",
          "type": "bytes32"
        },
        {
          "internalType": "address",
          "name": "account",
          "type": "address"
        }
      ],
      "name": "revokeRole",
      "outputs": [],
      "stateMutability": "nonpayable",
      "type": "function"
    },
    {
      "inputs": [
        {
          "internalType": "address",
          "name": "from",
          "type": "address"
        },
        {
          "internalType": "address",
          "name": "to",
          "type": "address"
        },
        {
          "internalType": "uint256",
          "name": "tokenId",
          "type": "uint256"
        }
      ],
      "name": "safeTransferFrom",
      "outputs": [],
      "stateMutability": "nonpayable",
      "type": "function"
    },
    {
      "inputs": [
        {
          "internalType": "address",
          "name": "from",
          "type": "address"
        },
        {
          "internalType": "address",
          "name": "to",
          "type": "address"
        },
        {
          "internalType": "uint256",
          "name": "tokenId",
          "type": "uint256"
        },
        {
          "internalType": "bytes",
          "name": "data",
          "type": "bytes"
        }
      ],
      "name": "safeTransferFrom",
      "outputs": [],
      "stateMutability": "nonpayable",
      "type": "function"
    },
    {
      "inputs": [
        {
          "internalType": "address",
          "name": "operator",
          "type": "address"
        },
        {
          "internalType": "bool",
          "name": "approved",
          "type": "bool"
        }
      ],
      "name": "setApprovalForAll",
      "outputs": [],
      "stateMutability": "nonpayable",
      "type": "function"
    },
    {
      "inputs": [
        {
          "internalType": "string",
          "name": "_newNotUsedURI",
          "type": "string"
        }
      ],
      "name": "setNotUsedURI",
      "outputs": [],
      "stateMutability": "nonpayable",
      "type": "function"
    },
    {
      "inputs": [
        {
          "internalType": "string",
          "name": "_newUsedURI",
          "type": "string"
        }
      ],
      "name": "setUsedURI",
      "outputs": [],
      "stateMutability": "nonpayable",
      "type": "function"
    },
    {
      "inputs": [
        {
          "internalType": "bytes4",
          "name": "interfaceId",
          "type": "bytes4"
        }
      ],
      "name": "supportsInterface",
      "outputs": [
        {
          "internalType": "bool",
          "name": "",
          "type": "bool"
        }
      ],
      "stateMutability": "view",
      "type": "function"
    },
    {
      "inputs": [],
      "name": "symbol",
      "outputs": [
        {
          "internalType": "string",
          "name": "",
          "type": "string"
        }
      ],
      "stateMutability": "view",
      "type": "function"
    },
    {
      "inputs": [
        {
          "internalType": "uint256",
          "name": "index",
          "type": "uint256"
        }
      ],
      "name": "tokenByIndex",
      "outputs": [
        {
          "internalType": "uint256",
          "name": "",
          "type": "uint256"
        }
      ],
      "stateMutability": "view",
      "type": "function"
    },
    {
      "inputs": [
        {
          "internalType": "address",
          "name": "owner",
          "type": "address"
        },
        {
          "internalType": "uint256",
          "name": "index",
          "type": "uint256"
        }
      ],
      "name": "tokenOfOwnerByIndex",
      "outputs": [
        {
          "internalType": "uint256",
          "name": "",
          "type": "uint256"
        }
      ],
      "stateMutability": "view",
      "type": "function"
    },
    {
      "inputs": [
        {
          "internalType": "uint256",
          "name": "tokenId",
          "type": "uint256"
        }
      ],
      "name": "tokenURI",
      "outputs": [
        {
          "internalType": "string",
          "name": "",
          "type": "string"
        }
      ],
      "stateMutability": "view",
      "type": "function"
    },
    {
      "inputs": [],
      "name": "totalSupply",
      "outputs": [
        {
          "internalType": "uint256",
          "name": "",
          "type": "uint256"
        }
      ],
      "stateMutability": "view",
      "type": "function"
    },
    {
      "inputs": [
        {
          "internalType": "address",
          "name": "from",
          "type": "address"
        },
        {
          "internalType": "address",
          "name": "to",
          "type": "address"
        },
        {
          "internalType": "uint256",
          "name": "tokenId",
          "type": "uint256"
        }
      ],
      "name": "transferFrom",
      "outputs": [],
      "stateMutability": "nonpayable",
      "type": "function"
    },
    {
      "inputs": [
        {
          "internalType": "uint256",
          "name": "tokenId",
          "type": "uint256"
        },
        {
          "internalType": "address",
          "name": "to",
          "type": "address"
        }
      ],
      "name": "transferOwnership",
      "outputs": [],
      "stateMutability": "nonpayable",
      "type": "function"
    },
    {
      "inputs": [
        {
          "internalType": "uint256",
          "name": "tokenId",
          "type": "uint256"
        }
      ],
      "name": "use",
      "outputs": [],
      "stateMutability": "nonpayable",
      "type": "function"
    },
    {
      "inputs": [],
      "name": "used",
      "outputs": [
        {
          "internalType": "bool",
          "name": "",
          "type": "bool"
        }
      ],
      "stateMutability": "view",
      "type": "function"
    }
  ],
  "bytecode": "0x608060405260405180606001604052806035815260200162005de560359139600c90816200002e919062000525565b5060405180606001604052806035815260200162005db060359139600d908162000059919062000525565b506000600e60006101000a81548160ff0219169083151502179055503480156200008257600080fd5b506040518060400160405280600d81526020017f426c6f6f64446f6e6174696f6e000000000000000000000000000000000000008152506040518060400160405280600581526020017f42444e4654000000000000000000000000000000000000000000000000000000815250816000908162000100919062000525565b50806001908162000112919062000525565b5050506200012a6000801b336200013060201b60201c565b6200060c565b6200014282826200014660201b60201c565b5050565b6200015882826200023860201b60201c565b62000234576001600a600084815260200190815260200160002060000160008373ffffffffffffffffffffffffffffffffffffffff1673ffffffffffffffffffffffffffffffffffffffff16815260200190815260200160002060006101000a81548160ff021916908315150217905550620001d9620002a360201b60201c565b73ffffffffffffffffffffffffffffffffffffffff168173ffffffffffffffffffffffffffffffffffffffff16837f2f8788117e7eff1d82e926ec794901d17c78024a50270940304540a733656f0d60405160405180910390a45b5050565b6000600a600084815260200190815260200160002060000160008373ffffffffffffffffffffffffffffffffffffffff1673ffffffffffffffffffffffffffffffffffffffff16815260200190815260200160002060009054906101000a900460ff16905092915050565b600033905090565b600081519050919050565b7f4e487b7100000000000000000000000000000000000000000000000000000000600052604160045260246000fd5b7f4e487b7100000000000000000000000000000000000000000000000000000000600052602260045260246000fd5b600060028204905060018216806200032d57607f821691505b602082108103620003435762000342620002e5565b5b50919050565b60008190508160005260206000209050919050565b60006020601f8301049050919050565b600082821b905092915050565b600060088302620003ad7fffffffffffffffffffffffffffffffffffffffffffffffffffffffffffffffff826200036e565b620003b986836200036e565b95508019841693508086168417925050509392505050565b6000819050919050565b6000819050919050565b60006200040662000400620003fa84620003d1565b620003db565b620003d1565b9050919050565b6000819050919050565b6200042283620003e5565b6200043a62000431826200040d565b8484546200037b565b825550505050565b600090565b6200045162000442565b6200045e81848462000417565b505050565b5b8181101562000486576200047a60008262000447565b60018101905062000464565b5050565b601f821115620004d5576200049f8162000349565b620004aa846200035e565b81016020851015620004ba578190505b620004d2620004c9856200035e565b83018262000463565b50505b505050565b600082821c905092915050565b6000620004fa60001984600802620004da565b1980831691505092915050565b6000620005158383620004e7565b9150826002028217905092915050565b6200053082620002ab565b67ffffffffffffffff8111156200054c576200054b620002b6565b5b62000558825462000314565b620005658282856200048a565b600060209050601f8311600181146200059d576000841562000588578287015190505b62000594858262000507565b86555062000604565b601f198416620005ad8662000349565b60005b82811015620005d757848901518255600182019150602085019450602081019050620005b0565b86831015620005f75784890151620005f3601f891682620004e7565b8355505b6001600288020188555050505b505050505050565b615794806200061c6000396000f3fe608060405234801561001057600080fd5b50600436106102695760003560e01c806363898e2b11610151578063a217fddf116100c3578063c87b56dd11610087578063c87b56dd14610736578063d547741f14610766578063e386be2e14610782578063e985e9c51461079e578063ed54e96a146107ce578063f639ec791461080457610269565b8063a217fddf146106a6578063a22cb465146106c4578063ab5b4456146106e0578063b0806ea7146106fc578063b88d4fde1461071a57610269565b80637ee756f2116101155780637ee756f2146105e057806389d04f00146105fc5780638bad0c0a1461063257806391d148541461063c57806395d89b411461066c578063a0562f691461068a57610269565b806363898e2b1461053e578063704802751461055c57806370a08231146105785780637b3dc4ef146105a85780637def8928146105c457610269565b80632de31f3c116101ea57806342842e0e116101ae57806342842e0e1461046a5780634f6ccce71461048657806354d0c549146104b65780635bf47d9d146104d45780635dd9727d146104f05780636352211e1461050e57610269565b80632de31f3c146103c85780632f2ff15d146103e65780632f745c5914610402578063353acb331461043257806336568abe1461044e57610269565b806323b872dd1161023157806323b872dd14610326578063248a9ca31461034257806327bbe7ee14610372578063280a337d1461039057806329507f73146103ac57610269565b806301ffc9a71461026e57806306fdde031461029e578063081812fc146102bc578063095ea7b3146102ec57806318160ddd14610308575b600080fd5b610288600480360381019061028391906139e9565b610820565b6040516102959190613a31565b60405180910390f35b6102a6610832565b6040516102b39190613adc565b60405180910390f35b6102d660048036038101906102d19190613b34565b6108c4565b6040516102e39190613ba2565b60405180910390f35b61030660048036038101906103019190613be9565b61090a565b005b610310610a21565b60405161031d9190613c38565b60405180910390f35b610340600480360381019061033b9190613c53565b610a2e565b005b61035c60048036038101906103579190613cdc565b610a8e565b6040516103699190613d18565b60405180910390f35b61037a610aae565b6040516103879190613d18565b60405180910390f35b6103aa60048036038101906103a59190613d33565b610ad2565b005b6103c660048036038101906103c19190613d60565b610b0d565b005b6103d0610b93565b6040516103dd9190613adc565b60405180910390f35b61040060048036038101906103fb9190613da0565b610c25565b005b61041c60048036038101906104179190613be9565b610c46565b6040516104299190613c38565b60405180910390f35b61044c60048036038101906104479190613f15565b610ceb565b005b61046860048036038101906104639190613da0565b610f86565b005b610484600480360381019061047f9190613c53565b611009565b005b6104a0600480360381019061049b9190613b34565b611029565b6040516104ad9190613c38565b60405180910390f35b6104be61109a565b6040516104cb9190613adc565b60405180910390f35b6104ee60048036038101906104e99190613fd0565b61112c565b005b6104f861114d565b6040516105059190613c38565b60405180910390f35b61052860048036038101906105239190613b34565b61115c565b6040516105359190613ba2565b60405180910390f35b6105466111e2565b6040516105539190613a31565b60405180910390f35b61057660048036038101906105719190613d33565b6111f5565b005b610592600480360381019061058d9190613d33565b611213565b60405161059f9190613c38565b60405180910390f35b6105c260048036038101906105bd9190613d33565b6112ca565b005b6105de60048036038101906105d99190613fd0565b6112f7565b005b6105fa60048036038101906105f59190613d33565b611318565b005b61061660048036038101906106119190613b34565b611353565b6040516106299796959493929190614019565b60405180910390f35b61063a6115c2565b005b61065660048036038101906106519190613da0565b6115df565b6040516106639190613a31565b60405180910390f35b61067461164a565b6040516106819190613adc565b60405180910390f35b6106a4600480360381019061069f9190613d33565b6116dc565b005b6106ae611709565b6040516106bb9190613d18565b60405180910390f35b6106de60048036038101906106d991906140d0565b611710565b005b6106fa60048036038101906106f59190613b34565b611726565b005b61070461191a565b6040516107119190613d18565b60405180910390f35b610734600480360381019061072f91906141b1565b61193e565b005b610750600480360381019061074b9190613b34565b6119a0565b60405161075d9190613adc565b60405180910390f35b610780600480360381019061077b9190613da0565b611a08565b005b61079c60048036038101906107979190613d33565b611a29565b005b6107b860048036038101906107b39190614234565b611a39565b6040516107c59190613a31565b60405180910390f35b6107e860048036038101906107e39190613b34565b611acd565b6040516107fb9796959493929190614332565b60405180910390f35b61081e6004803603810190610819919061448c565b611e9e565b005b600061082b82611f62565b9050919050565b60606000805461084190614517565b80601f016020809104026020016040519081016040528092919081815260200182805461086d90614517565b80156108ba5780601f1061088f576101008083540402835291602001916108ba565b820191906000526020600020905b81548152906001019060200180831161089d57829003601f168201915b5050505050905090565b60006108cf82611fdc565b6004600083815260200190815260200160002060009054906101000a900473ffffffffffffffffffffffffffffffffffffffff169050919050565b60006109158261115c565b90508073ffffffffffffffffffffffffffffffffffffffff168373ffffffffffffffffffffffffffffffffffffffff1603610985576040517f08c379a000000000000000000000000000000000000000000000000000000000815260040161097c906145ba565b60405180910390fd5b8073ffffffffffffffffffffffffffffffffffffffff166109a4612027565b73ffffffffffffffffffffffffffffffffffffffff1614806109d357506109d2816109cd612027565b611a39565b5b610a12576040517f08c379a0000000000000000000000000000000000000000000000000000000008152600401610a099061464c565b60405180910390fd5b610a1c838361202f565b505050565b6000600880549050905090565b610a3f610a39612027565b826120e8565b610a7e576040517f08c379a0000000000000000000000000000000000000000000000000000000008152600401610a75906146de565b60405180910390fd5b610a8983838361217d565b505050565b6000600a6000838152602001908152602001600020600101549050919050565b7f72d66193ff00a845b4aed5f27e02d9b558ef32be1495a41d00c5c5fb191a076381565b6000801b610adf81612476565b610b097f60460dbe4b1f79d9efa1691d671057dc56200fed92b7dc0eb552fafb819b082c83610c25565b5050565b610b18338284611009565b600b6000838152602001908152602001600020600101819080600181540180825580915050600190039060005260206000200160009091909190916101000a81548173ffffffffffffffffffffffffffffffffffffffff021916908373ffffffffffffffffffffffffffffffffffffffff1602179055505050565b6060600d8054610ba290614517565b80601f0160208091040260200160405190810160405280929190818152602001828054610bce90614517565b8015610c1b5780601f10610bf057610100808354040283529160200191610c1b565b820191906000526020600020905b815481529060010190602001808311610bfe57829003601f168201915b5050505050905090565b610c2e82610a8e565b610c3781612476565b610c41838361248a565b505050565b6000610c5183611213565b8210610c92576040517f08c379a0000000000000000000000000000000000000000000000000000000008152600401610c8990614770565b60405180910390fd5b600660008473ffffffffffffffffffffffffffffffffffffffff1673ffffffffffffffffffffffffffffffffffffffff168152602001908152602001600020600083815260200190815260200160002054905092915050565b7f60460dbe4b1f79d9efa1691d671057dc56200fed92b7dc0eb552fafb819b082c610d1581612476565b60006001610d21610a21565b610d2b91906147bf565b9050610d37838261256b565b60606000604051806101000160405280848152602001838152602001600c8054610d6090614517565b80601f0160208091040260200160405190810160405280929190818152602001828054610d8c90614517565b8015610dd95780601f10610dae57610100808354040283529160200191610dd9565b820191906000526020600020905b815481529060010190602001808311610dbc57829003601f168201915b5050505050815260200189815260200188815260200187815260200142815260200160001515815250905080600b6000858152602001908152602001600020600082015181600001556020820151816001019080519060200190610e3e9291906138d6565b506040820151816002019081610e54919061499f565b506060820151816003019081610e6a919061499f565b506080820151816004019081610e80919061499f565b5060a0820151816005019081610e96919061499f565b5060c0820151816006015560e08201518160070160006101000a81548160ff021916908315150217905550905050600b6000848152602001908152602001600020600101859080600181540180825580915050600190039060005260206000200160009091909190916101000a81548173ffffffffffffffffffffffffffffffffffffffff021916908373ffffffffffffffffffffffffffffffffffffffff160217905550827f94da8b1f54d6b112f33b8d347f164fc8f25cd951a157bcc7493673b7cadbf363600c8a8a8a42604051610f74959493929190614af5565b60405180910390a25050505050505050565b610f8e612027565b73ffffffffffffffffffffffffffffffffffffffff168173ffffffffffffffffffffffffffffffffffffffff1614610ffb576040517f08c379a0000000000000000000000000000000000000000000000000000000008152600401610ff290614bd6565b60405180910390fd5b6110058282612788565b5050565b6110248383836040518060200160405280600081525061193e565b505050565b6000611033610a21565b8210611074576040517f08c379a000000000000000000000000000000000000000000000000000000000815260040161106b90614c68565b60405180910390fd5b6008828154811061108857611087614c88565b5b90600052602060002001549050919050565b6060600c80546110a990614517565b80601f01602080910402602001604051908101604052809291908181526020018280546110d590614517565b80156111225780601f106110f757610100808354040283529160200191611122565b820191906000526020600020905b81548152906001019060200180831161110557829003601f168201915b5050505050905090565b6000801b61113981612476565b81600d9081611148919061499f565b505050565b6000611157610a21565b905090565b6000806111688361286a565b9050600073ffffffffffffffffffffffffffffffffffffffff168173ffffffffffffffffffffffffffffffffffffffff16036111d9576040517f08c379a00000000000000000000000000000000000000000000000000000000081526004016111d090614d03565b60405180910390fd5b80915050919050565b600e60009054906101000a900460ff1681565b6000801b61120281612476565b61120f6000801b83610c25565b5050565b60008073ffffffffffffffffffffffffffffffffffffffff168273ffffffffffffffffffffffffffffffffffffffff1603611283576040517f08c379a000000000000000000000000000000000000000000000000000000000815260040161127a90614d95565b60405180910390fd5b600360008373ffffffffffffffffffffffffffffffffffffffff1673ffffffffffffffffffffffffffffffffffffffff168152602001908152602001600020549050919050565b6112f47f72d66193ff00a845b4aed5f27e02d9b558ef32be1495a41d00c5c5fb191a0763826128a7565b50565b6000801b61130481612476565b81600c9081611313919061499f565b505050565b6000801b61132581612476565b61134f7f72d66193ff00a845b4aed5f27e02d9b558ef32be1495a41d00c5c5fb191a076383610c25565b5050565b600b60205280600052604060002060009150905080600001549080600201805461137c90614517565b80601f01602080910402602001604051908101604052809291908181526020018280546113a890614517565b80156113f55780601f106113ca576101008083540402835291602001916113f5565b820191906000526020600020905b8154815290600101906020018083116113d857829003601f168201915b50505050509080600301805461140a90614517565b80601f016020809104026020016040519081016040528092919081815260200182805461143690614517565b80156114835780601f1061145857610100808354040283529160200191611483565b820191906000526020600020905b81548152906001019060200180831161146657829003601f168201915b50505050509080600401805461149890614517565b80601f01602080910402602001604051908101604052809291908181526020018280546114c490614517565b80156115115780601f106114e657610100808354040283529160200191611511565b820191906000526020600020905b8154815290600101906020018083116114f457829003601f168201915b50505050509080600501805461152690614517565b80601f016020809104026020016040519081016040528092919081815260200182805461155290614517565b801561159f5780601f106115745761010080835404028352916020019161159f565b820191906000526020600020905b81548152906001019060200180831161158257829003601f168201915b5050505050908060060154908060070160009054906101000a900460ff16905087565b6000801b6115cf81612476565b6115dc6000801b33610f86565b50565b6000600a600084815260200190815260200160002060000160008373ffffffffffffffffffffffffffffffffffffffff1673ffffffffffffffffffffffffffffffffffffffff16815260200190815260200160002060009054906101000a900460ff16905092915050565b60606001805461165990614517565b80601f016020809104026020016040519081016040528092919081815260200182805461168590614517565b80156116d25780601f106116a7576101008083540402835291602001916116d2565b820191906000526020600020905b8154815290600101906020018083116116b557829003601f168201915b5050505050905090565b6117067f60460dbe4b1f79d9efa1691d671057dc56200fed92b7dc0eb552fafb819b082c826128a7565b50565b6000801b81565b61172261171b612027565b838361292c565b5050565b7f72d66193ff00a845b4aed5f27e02d9b558ef32be1495a41d00c5c5fb191a076361175081612476565b600b60008381526020019081526020016000206001016001600b60008581526020019081526020016000206001018054905061178c9190614db5565b8154811061179d5761179c614c88565b5b9060005260206000200160009054906101000a900473ffffffffffffffffffffffffffffffffffffffff1673ffffffffffffffffffffffffffffffffffffffff163373ffffffffffffffffffffffffffffffffffffffff1614611835576040517f08c379a000000000000000000000000000000000000000000000000000000000815260040161182c90614e35565b60405180910390fd5b60001515600b600084815260200190815260200160002060070160009054906101000a900460ff1615151461189f576040517f08c379a000000000000000000000000000000000000000000000000000000000815260040161189690614ea1565b60405180910390fd5b600b600083815260200190815260200160002060070160009054906101000a900460ff1615600b600084815260200190815260200160002060070160006101000a81548160ff021916908315150217905550600d600b600084815260200190815260200160002060020190816119159190614eec565b505050565b7f60460dbe4b1f79d9efa1691d671057dc56200fed92b7dc0eb552fafb819b082c81565b61194f611949612027565b836120e8565b61198e576040517f08c379a0000000000000000000000000000000000000000000000000000000008152600401611985906146de565b60405180910390fd5b61199a84848484612a98565b50505050565b60606119ab82611fdc565b60006119b5612af4565b905060008151116119d55760405180602001604052806000815250611a00565b806119df84612b0b565b6040516020016119f0929190615010565b6040516020818303038152906040525b915050919050565b611a1182610a8e565b611a1a81612476565b611a248383612788565b505050565b611a366000801b826128a7565b50565b6000600560008473ffffffffffffffffffffffffffffffffffffffff1673ffffffffffffffffffffffffffffffffffffffff16815260200190815260200160002060008373ffffffffffffffffffffffffffffffffffffffff1673ffffffffffffffffffffffffffffffffffffffff16815260200190815260200160002060009054906101000a900460ff16905092915050565b60006060806060806060600080600b60008a81526020019081526020016000206000015403611b31576040517f08c379a0000000000000000000000000000000000000000000000000000000008152600401611b2890615080565b60405180910390fd5b600b600089815260200190815260200160002060000154600b60008a8152602001908152602001600020600101600b60008b8152602001908152602001600020600201600b60008c8152602001908152602001600020600301600b60008d8152602001908152602001600020600401600b60008e8152602001908152602001600020600501600b60008f81526020019081526020016000206006015485805480602002602001604051908101604052809291908181526020018280548015611c4e57602002820191906000526020600020905b8160009054906101000a900473ffffffffffffffffffffffffffffffffffffffff1673ffffffffffffffffffffffffffffffffffffffff1681526020019060010190808311611c04575b50505050509550848054611c6190614517565b80601f0160208091040260200160405190810160405280929190818152602001828054611c8d90614517565b8015611cda5780601f10611caf57610100808354040283529160200191611cda565b820191906000526020600020905b815481529060010190602001808311611cbd57829003601f168201915b50505050509450838054611ced90614517565b80601f0160208091040260200160405190810160405280929190818152602001828054611d1990614517565b8015611d665780601f10611d3b57610100808354040283529160200191611d66565b820191906000526020600020905b815481529060010190602001808311611d4957829003601f168201915b50505050509350828054611d7990614517565b80601f0160208091040260200160405190810160405280929190818152602001828054611da590614517565b8015611df25780601f10611dc757610100808354040283529160200191611df2565b820191906000526020600020905b815481529060010190602001808311611dd557829003601f168201915b50505050509250818054611e0590614517565b80601f0160208091040260200160405190810160405280929190818152602001828054611e3190614517565b8015611e7e5780601f10611e5357610100808354040283529160200191611e7e565b820191906000526020600020905b815481529060010190602001808311611e6157829003601f168201915b505050505091509650965096509650965096509650919395979092949650565b60005b8251811015611f5d576000838281518110611ebf57611ebe614c88565b5b60200260200101519050611ed4338483611009565b600b6000828152602001908152602001600020600101839080600181540180825580915050600190039060005260206000200160009091909190916101000a81548173ffffffffffffffffffffffffffffffffffffffff021916908373ffffffffffffffffffffffffffffffffffffffff1602179055505080611f56906150a0565b9050611ea1565b505050565b60007f7965db0b000000000000000000000000000000000000000000000000000000007bffffffffffffffffffffffffffffffffffffffffffffffffffffffff1916827bffffffffffffffffffffffffffffffffffffffffffffffffffffffff19161480611fd55750611fd482612bd9565b5b9050919050565b611fe581612c53565b612024576040517f08c379a000000000000000000000000000000000000000000000000000000000815260040161201b90614d03565b60405180910390fd5b50565b600033905090565b816004600083815260200190815260200160002060006101000a81548173ffffffffffffffffffffffffffffffffffffffff021916908373ffffffffffffffffffffffffffffffffffffffff160217905550808273ffffffffffffffffffffffffffffffffffffffff166120a28361115c565b73ffffffffffffffffffffffffffffffffffffffff167f8c5be1e5ebec7d5bd14f71427d1e84f3dd0314c0f7b2291e5b200ac8c7c3b92560405160405180910390a45050565b6000806120f48361115c565b90508073ffffffffffffffffffffffffffffffffffffffff168473ffffffffffffffffffffffffffffffffffffffff16148061213657506121358185611a39565b5b8061217457508373ffffffffffffffffffffffffffffffffffffffff1661215c846108c4565b73ffffffffffffffffffffffffffffffffffffffff16145b91505092915050565b8273ffffffffffffffffffffffffffffffffffffffff1661219d8261115c565b73ffffffffffffffffffffffffffffffffffffffff16146121f3576040517f08c379a00000000000000000000000000000000000000000000000000000000081526004016121ea9061515a565b60405180910390fd5b600073ffffffffffffffffffffffffffffffffffffffff168273ffffffffffffffffffffffffffffffffffffffff1603612262576040517f08c379a0000000000000000000000000000000000000000000000000000000008152600401612259906151ec565b60405180910390fd5b61226f8383836001612c94565b8273ffffffffffffffffffffffffffffffffffffffff1661228f8261115c565b73ffffffffffffffffffffffffffffffffffffffff16146122e5576040517f08c379a00000000000000000000000000000000000000000000000000000000081526004016122dc9061515a565b60405180910390fd5b6004600082815260200190815260200160002060006101000a81549073ffffffffffffffffffffffffffffffffffffffff02191690556001600360008573ffffffffffffffffffffffffffffffffffffffff1673ffffffffffffffffffffffffffffffffffffffff168152602001908152602001600020600082825403925050819055506001600360008473ffffffffffffffffffffffffffffffffffffffff1673ffffffffffffffffffffffffffffffffffffffff16815260200190815260200160002060008282540192505081905550816002600083815260200190815260200160002060006101000a81548173ffffffffffffffffffffffffffffffffffffffff021916908373ffffffffffffffffffffffffffffffffffffffff160217905550808273ffffffffffffffffffffffffffffffffffffffff168473ffffffffffffffffffffffffffffffffffffffff167fddf252ad1be2c89b69c2b068fc378daa952ba7f163c4a11628f55a4df523b3ef60405160405180910390a46124718383836001612df2565b505050565b61248781612482612027565b6128a7565b50565b61249482826115df565b612567576001600a600084815260200190815260200160002060000160008373ffffffffffffffffffffffffffffffffffffffff1673ffffffffffffffffffffffffffffffffffffffff16815260200190815260200160002060006101000a81548160ff02191690831515021790555061250c612027565b73ffffffffffffffffffffffffffffffffffffffff168173ffffffffffffffffffffffffffffffffffffffff16837f2f8788117e7eff1d82e926ec794901d17c78024a50270940304540a733656f0d60405160405180910390a45b5050565b600073ffffffffffffffffffffffffffffffffffffffff168273ffffffffffffffffffffffffffffffffffffffff16036125da576040517f08c379a00000000000000000000000000000000000000000000000000000000081526004016125d190615258565b60405180910390fd5b6125e381612c53565b15612623576040517f08c379a000000000000000000000000000000000000000000000000000000000815260040161261a906152c4565b60405180910390fd5b612631600083836001612c94565b61263a81612c53565b1561267a576040517f08c379a0000000000000000000000000000000000000000000000000000000008152600401612671906152c4565b60405180910390fd5b6001600360008473ffffffffffffffffffffffffffffffffffffffff1673ffffffffffffffffffffffffffffffffffffffff16815260200190815260200160002060008282540192505081905550816002600083815260200190815260200160002060006101000a81548173ffffffffffffffffffffffffffffffffffffffff021916908373ffffffffffffffffffffffffffffffffffffffff160217905550808273ffffffffffffffffffffffffffffffffffffffff16600073ffffffffffffffffffffffffffffffffffffffff167fddf252ad1be2c89b69c2b068fc378daa952ba7f163c4a11628f55a4df523b3ef60405160405180910390a4612784600083836001612df2565b5050565b61279282826115df565b15612866576000600a600084815260200190815260200160002060000160008373ffffffffffffffffffffffffffffffffffffffff1673ffffffffffffffffffffffffffffffffffffffff16815260200190815260200160002060006101000a81548160ff02191690831515021790555061280b612027565b73ffffffffffffffffffffffffffffffffffffffff168173ffffffffffffffffffffffffffffffffffffffff16837ff6391f5c32d9c69d2a47ea670b442974b53935d1edc7fd64eb21e047a839171b60405160405180910390a45b5050565b60006002600083815260200190815260200160002060009054906101000a900473ffffffffffffffffffffffffffffffffffffffff169050919050565b6128b182826115df565b612928576128be81612df8565b6128cc8360001c6020612e25565b6040516020016128dd92919061537c565b6040516020818303038152906040526040517f08c379a000000000000000000000000000000000000000000000000000000000815260040161291f9190613adc565b60405180910390fd5b5050565b8173ffffffffffffffffffffffffffffffffffffffff168373ffffffffffffffffffffffffffffffffffffffff160361299a576040517f08c379a000000000000000000000000000000000000000000000000000000000815260040161299190615402565b60405180910390fd5b80600560008573ffffffffffffffffffffffffffffffffffffffff1673ffffffffffffffffffffffffffffffffffffffff16815260200190815260200160002060008473ffffffffffffffffffffffffffffffffffffffff1673ffffffffffffffffffffffffffffffffffffffff16815260200190815260200160002060006101000a81548160ff0219169083151502179055508173ffffffffffffffffffffffffffffffffffffffff168373ffffffffffffffffffffffffffffffffffffffff167f17307eab39ab6107e8899845ad3d59bd9653f200f220920489ca2b5937696c3183604051612a8b9190613a31565b60405180910390a3505050565b612aa384848461217d565b612aaf84848484613061565b612aee576040517f08c379a0000000000000000000000000000000000000000000000000000000008152600401612ae590615494565b60405180910390fd5b50505050565b606060405180602001604052806000815250905090565b606060006001612b1a846131e8565b01905060008167ffffffffffffffff811115612b3957612b38613dea565b5b6040519080825280601f01601f191660200182016040528015612b6b5781602001600182028036833780820191505090505b509050600082602001820190505b600115612bce578080600190039150507f3031323334353637383961626364656600000000000000000000000000000000600a86061a8153600a8581612bc257612bc16154b4565b5b04945060008503612b79575b819350505050919050565b60007f780e9d63000000000000000000000000000000000000000000000000000000007bffffffffffffffffffffffffffffffffffffffffffffffffffffffff1916827bffffffffffffffffffffffffffffffffffffffffffffffffffffffff19161480612c4c5750612c4b8261333b565b5b9050919050565b60008073ffffffffffffffffffffffffffffffffffffffff16612c758361286a565b73ffffffffffffffffffffffffffffffffffffffff1614159050919050565b612ca08484848461341d565b6001811115612ce4576040517f08c379a0000000000000000000000000000000000000000000000000000000008152600401612cdb90615555565b60405180910390fd5b6000829050600073ffffffffffffffffffffffffffffffffffffffff168573ffffffffffffffffffffffffffffffffffffffff1603612d2b57612d2681613543565b612d6a565b8373ffffffffffffffffffffffffffffffffffffffff168573ffffffffffffffffffffffffffffffffffffffff1614612d6957612d68858261358c565b5b5b600073ffffffffffffffffffffffffffffffffffffffff168473ffffffffffffffffffffffffffffffffffffffff1603612dac57612da7816136f9565b612deb565b8473ffffffffffffffffffffffffffffffffffffffff168473ffffffffffffffffffffffffffffffffffffffff1614612dea57612de984826137ca565b5b5b5050505050565b50505050565b6060612e1e8273ffffffffffffffffffffffffffffffffffffffff16601460ff16612e25565b9050919050565b606060006002836002612e389190615575565b612e4291906147bf565b67ffffffffffffffff811115612e5b57612e5a613dea565b5b6040519080825280601f01601f191660200182016040528015612e8d5781602001600182028036833780820191505090505b5090507f300000000000000000000000000000000000000000000000000000000000000081600081518110612ec557612ec4614c88565b5b60200101907effffffffffffffffffffffffffffffffffffffffffffffffffffffffffffff1916908160001a9053507f780000000000000000000000000000000000000000000000000000000000000081600181518110612f2957612f28614c88565b5b60200101907effffffffffffffffffffffffffffffffffffffffffffffffffffffffffffff1916908160001a90535060006001846002612f699190615575565b612f7391906147bf565b90505b6001811115613013577f3031323334353637383961626364656600000000000000000000000000000000600f861660108110612fb557612fb4614c88565b5b1a60f81b828281518110612fcc57612fcb614c88565b5b60200101907effffffffffffffffffffffffffffffffffffffffffffffffffffffffffffff1916908160001a905350600485901c94508061300c906155b7565b9050612f76565b5060008414613057576040517f08c379a000000000000000000000000000000000000000000000000000000000815260040161304e9061562c565b60405180910390fd5b8091505092915050565b60006130828473ffffffffffffffffffffffffffffffffffffffff16613849565b156131db578373ffffffffffffffffffffffffffffffffffffffff1663150b7a026130ab612027565b8786866040518563ffffffff1660e01b81526004016130cd94939291906156a1565b6020604051808303816000875af192505050801561310957506040513d601f19601f820116820180604052508101906131069190615702565b60015b61318b573d8060008114613139576040519150601f19603f3d011682016040523d82523d6000602084013e61313e565b606091505b506000815103613183576040517f08c379a000000000000000000000000000000000000000000000000000000000815260040161317a90615494565b60405180910390fd5b805181602001fd5b63150b7a0260e01b7bffffffffffffffffffffffffffffffffffffffffffffffffffffffff1916817bffffffffffffffffffffffffffffffffffffffffffffffffffffffff1916149150506131e0565b600190505b949350505050565b600080600090507a184f03e93ff9f4daa797ed6e38ed64bf6a1f0100000000000000008310613246577a184f03e93ff9f4daa797ed6e38ed64bf6a1f010000000000000000838161323c5761323b6154b4565b5b0492506040810190505b6d04ee2d6d415b85acef81000000008310613283576d04ee2d6d415b85acef81000000008381613279576132786154b4565b5b0492506020810190505b662386f26fc1000083106132b257662386f26fc1000083816132a8576132a76154b4565b5b0492506010810190505b6305f5e10083106132db576305f5e10083816132d1576132d06154b4565b5b0492506008810190505b61271083106133005761271083816132f6576132f56154b4565b5b0492506004810190505b606483106133235760648381613319576133186154b4565b5b0492506002810190505b600a8310613332576001810190505b80915050919050565b60007f80ac58cd000000000000000000000000000000000000000000000000000000007bffffffffffffffffffffffffffffffffffffffffffffffffffffffff1916827bffffffffffffffffffffffffffffffffffffffffffffffffffffffff1916148061340657507f5b5e139f000000000000000000000000000000000000000000000000000000007bffffffffffffffffffffffffffffffffffffffffffffffffffffffff1916827bffffffffffffffffffffffffffffffffffffffffffffffffffffffff1916145b8061341657506134158261386c565b5b9050919050565b600181111561353d57600073ffffffffffffffffffffffffffffffffffffffff168473ffffffffffffffffffffffffffffffffffffffff16146134b15780600360008673ffffffffffffffffffffffffffffffffffffffff1673ffffffffffffffffffffffffffffffffffffffff16815260200190815260200160002060008282546134a99190614db5565b925050819055505b600073ffffffffffffffffffffffffffffffffffffffff168373ffffffffffffffffffffffffffffffffffffffff161461353c5780600360008573ffffffffffffffffffffffffffffffffffffffff1673ffffffffffffffffffffffffffffffffffffffff168152602001908152602001600020600082825461353491906147bf565b925050819055505b5b50505050565b6008805490506009600083815260200190815260200160002081905550600881908060018154018082558091505060019003906000526020600020016000909190919091505550565b6000600161359984611213565b6135a39190614db5565b9050600060076000848152602001908152602001600020549050818114613688576000600660008673ffffffffffffffffffffffffffffffffffffffff1673ffffffffffffffffffffffffffffffffffffffff168152602001908152602001600020600084815260200190815260200160002054905080600660008773ffffffffffffffffffffffffffffffffffffffff1673ffffffffffffffffffffffffffffffffffffffff168152602001908152602001600020600084815260200190815260200160002081905550816007600083815260200190815260200160002081905550505b6007600084815260200190815260200160002060009055600660008573ffffffffffffffffffffffffffffffffffffffff1673ffffffffffffffffffffffffffffffffffffffff16815260200190815260200160002060008381526020019081526020016000206000905550505050565b6000600160088054905061370d9190614db5565b905060006009600084815260200190815260200160002054905060006008838154811061373d5761373c614c88565b5b90600052602060002001549050806008838154811061375f5761375e614c88565b5b9060005260206000200181905550816009600083815260200190815260200160002081905550600960008581526020019081526020016000206000905560088054806137ae576137ad61572f565b5b6001900381819060005260206000200160009055905550505050565b60006137d583611213565b905081600660008573ffffffffffffffffffffffffffffffffffffffff1673ffffffffffffffffffffffffffffffffffffffff168152602001908152602001600020600083815260200190815260200160002081905550806007600084815260200190815260200160002081905550505050565b6000808273ffffffffffffffffffffffffffffffffffffffff163b119050919050565b60007f01ffc9a7000000000000000000000000000000000000000000000000000000007bffffffffffffffffffffffffffffffffffffffffffffffffffffffff1916827bffffffffffffffffffffffffffffffffffffffffffffffffffffffff1916149050919050565b82805482825590600052602060002090810192821561394f579160200282015b8281111561394e5782518260006101000a81548173ffffffffffffffffffffffffffffffffffffffff021916908373ffffffffffffffffffffffffffffffffffffffff160217905550916020019190600101906138f6565b5b50905061395c9190613960565b5090565b5b80821115613979576000816000905550600101613961565b5090565b6000604051905090565b600080fd5b600080fd5b60007fffffffff0000000000000000000000000000000000000000000000000000000082169050919050565b6139c681613991565b81146139d157600080fd5b50565b6000813590506139e3816139bd565b92915050565b6000602082840312156139ff576139fe613987565b5b6000613a0d848285016139d4565b91505092915050565b60008115159050919050565b613a2b81613a16565b82525050565b6000602082019050613a466000830184613a22565b92915050565b600081519050919050565b600082825260208201905092915050565b60005b83811015613a86578082015181840152602081019050613a6b565b60008484015250505050565b6000601f19601f8301169050919050565b6000613aae82613a4c565b613ab88185613a57565b9350613ac8818560208601613a68565b613ad181613a92565b840191505092915050565b60006020820190508181036000830152613af68184613aa3565b905092915050565b6000819050919050565b613b1181613afe565b8114613b1c57600080fd5b50565b600081359050613b2e81613b08565b92915050565b600060208284031215613b4a57613b49613987565b5b6000613b5884828501613b1f565b91505092915050565b600073ffffffffffffffffffffffffffffffffffffffff82169050919050565b6000613b8c82613b61565b9050919050565b613b9c81613b81565b82525050565b6000602082019050613bb76000830184613b93565b92915050565b613bc681613b81565b8114613bd157600080fd5b50565b600081359050613be381613bbd565b92915050565b60008060408385031215613c0057613bff613987565b5b6000613c0e85828601613bd4565b9250506020613c1f85828601613b1f565b9150509250929050565b613c3281613afe565b82525050565b6000602082019050613c4d6000830184613c29565b92915050565b600080600060608486031215613c6c57613c6b613987565b5b6000613c7a86828701613bd4565b9350506020613c8b86828701613bd4565b9250506040613c9c86828701613b1f565b9150509250925092565b6000819050919050565b613cb981613ca6565b8114613cc457600080fd5b50565b600081359050613cd681613cb0565b92915050565b600060208284031215613cf257613cf1613987565b5b6000613d0084828501613cc7565b91505092915050565b613d1281613ca6565b82525050565b6000602082019050613d2d6000830184613d09565b92915050565b600060208284031215613d4957613d48613987565b5b6000613d5784828501613bd4565b91505092915050565b60008060408385031215613d7757613d76613987565b5b6000613d8585828601613b1f565b9250506020613d9685828601613bd4565b9150509250929050565b60008060408385031215613db757613db6613987565b5b6000613dc585828601613cc7565b9250506020613dd685828601613bd4565b9150509250929050565b600080fd5b600080fd5b7f4e487b7100000000000000000000000000000000000000000000000000000000600052604160045260246000fd5b613e2282613a92565b810181811067ffffffffffffffff82111715613e4157613e40613dea565b5b80604052505050565b6000613e5461397d565b9050613e608282613e19565b919050565b600067ffffffffffffffff821115613e8057613e7f613dea565b5b613e8982613a92565b9050602081019050919050565b82818337600083830152505050565b6000613eb8613eb384613e65565b613e4a565b905082815260208101848484011115613ed457613ed3613de5565b5b613edf848285613e96565b509392505050565b600082601f830112613efc57613efb613de0565b5b8135613f0c848260208601613ea5565b91505092915050565b60008060008060808587031215613f2f57613f2e613987565b5b600085013567ffffffffffffffff811115613f4d57613f4c61398c565b5b613f5987828801613ee7565b945050602085013567ffffffffffffffff811115613f7a57613f7961398c565b5b613f8687828801613ee7565b935050604085013567ffffffffffffffff811115613fa757613fa661398c565b5b613fb387828801613ee7565b9250506060613fc487828801613bd4565b91505092959194509250565b600060208284031215613fe657613fe5613987565b5b600082013567ffffffffffffffff8111156140045761400361398c565b5b61401084828501613ee7565b91505092915050565b600060e08201905061402e600083018a613c29565b81810360208301526140408189613aa3565b905081810360408301526140548188613aa3565b905081810360608301526140688187613aa3565b9050818103608083015261407c8186613aa3565b905061408b60a0830185613c29565b61409860c0830184613a22565b98975050505050505050565b6140ad81613a16565b81146140b857600080fd5b50565b6000813590506140ca816140a4565b92915050565b600080604083850312156140e7576140e6613987565b5b60006140f585828601613bd4565b9250506020614106858286016140bb565b9150509250929050565b600067ffffffffffffffff82111561412b5761412a613dea565b5b61413482613a92565b9050602081019050919050565b600061415461414f84614110565b613e4a565b9050828152602081018484840111156141705761416f613de5565b5b61417b848285613e96565b509392505050565b600082601f83011261419857614197613de0565b5b81356141a8848260208601614141565b91505092915050565b600080600080608085870312156141cb576141ca613987565b5b60006141d987828801613bd4565b94505060206141ea87828801613bd4565b93505060406141fb87828801613b1f565b925050606085013567ffffffffffffffff81111561421c5761421b61398c565b5b61422887828801614183565b91505092959194509250565b6000806040838503121561424b5761424a613987565b5b600061425985828601613bd4565b925050602061426a85828601613bd4565b9150509250929050565b600081519050919050565b600082825260208201905092915050565b6000819050602082019050919050565b6142a981613b81565b82525050565b60006142bb83836142a0565b60208301905092915050565b6000602082019050919050565b60006142df82614274565b6142e9818561427f565b93506142f483614290565b8060005b8381101561432557815161430c88826142af565b9750614317836142c7565b9250506001810190506142f8565b5085935050505092915050565b600060e082019050614347600083018a613c29565b818103602083015261435981896142d4565b9050818103604083015261436d8188613aa3565b905081810360608301526143818187613aa3565b905081810360808301526143958186613aa3565b905081810360a08301526143a98185613aa3565b90506143b860c0830184613c29565b98975050505050505050565b600067ffffffffffffffff8211156143df576143de613dea565b5b602082029050602081019050919050565b600080fd5b6000614408614403846143c4565b613e4a565b9050808382526020820190506020840283018581111561442b5761442a6143f0565b5b835b8181101561445457806144408882613b1f565b84526020840193505060208101905061442d565b5050509392505050565b600082601f83011261447357614472613de0565b5b81356144838482602086016143f5565b91505092915050565b600080604083850312156144a3576144a2613987565b5b600083013567ffffffffffffffff8111156144c1576144c061398c565b5b6144cd8582860161445e565b92505060206144de85828601613bd4565b9150509250929050565b7f4e487b7100000000000000000000000000000000000000000000000000000000600052602260045260246000fd5b6000600282049050600182168061452f57607f821691505b602082108103614542576145416144e8565b5b50919050565b7f4552433732313a20617070726f76616c20746f2063757272656e74206f776e6560008201527f7200000000000000000000000000000000000000000000000000000000000000602082015250565b60006145a4602183613a57565b91506145af82614548565b604082019050919050565b600060208201905081810360008301526145d381614597565b9050919050565b7f4552433732313a20617070726f76652063616c6c6572206973206e6f7420746f60008201527f6b656e206f776e6572206f7220617070726f76656420666f7220616c6c000000602082015250565b6000614636603d83613a57565b9150614641826145da565b604082019050919050565b6000602082019050818103600083015261466581614629565b9050919050565b7f4552433732313a2063616c6c6572206973206e6f7420746f6b656e206f776e6560008201527f72206f7220617070726f76656400000000000000000000000000000000000000602082015250565b60006146c8602d83613a57565b91506146d38261466c565b604082019050919050565b600060208201905081810360008301526146f7816146bb565b9050919050565b7f455243373231456e756d657261626c653a206f776e657220696e646578206f7560008201527f74206f6620626f756e6473000000000000000000000000000000000000000000602082015250565b600061475a602b83613a57565b9150614765826146fe565b604082019050919050565b600060208201905081810360008301526147898161474d565b9050919050565b7f4e487b7100000000000000000000000000000000000000000000000000000000600052601160045260246000fd5b60006147ca82613afe565b91506147d583613afe565b92508282019050808211156147ed576147ec614790565b5b92915050565b60008190508160005260206000209050919050565b60006020601f8301049050919050565b600082821b905092915050565b6000600883026148557fffffffffffffffffffffffffffffffffffffffffffffffffffffffffffffffff82614818565b61485f8683614818565b95508019841693508086168417925050509392505050565b6000819050919050565b600061489c61489761489284613afe565b614877565b613afe565b9050919050565b6000819050919050565b6148b683614881565b6148ca6148c2826148a3565b848454614825565b825550505050565b600090565b6148df6148d2565b6148ea8184846148ad565b505050565b5b8181101561490e576149036000826148d7565b6001810190506148f0565b5050565b601f82111561495357614924816147f3565b61492d84614808565b8101602085101561493c578190505b61495061494885614808565b8301826148ef565b50505b505050565b600082821c905092915050565b600061497660001984600802614958565b1980831691505092915050565b600061498f8383614965565b9150826002028217905092915050565b6149a882613a4c565b67ffffffffffffffff8111156149c1576149c0613dea565b5b6149cb8254614517565b6149d6828285614912565b600060209050601f831160018114614a0957600084156149f7578287015190505b614a018582614983565b865550614a69565b601f198416614a17866147f3565b60005b82811015614a3f57848901518255600182019150602085019450602081019050614a1a565b86831015614a5c5784890151614a58601f891682614965565b8355505b6001600288020188555050505b505050505050565b60008154614a7e81614517565b614a888186613a57565b94506001821660008114614aa35760018114614ab957614aec565b60ff198316865281151560200286019350614aec565b614ac2856147f3565b60005b83811015614ae457815481890152600182019150602081019050614ac5565b808801955050505b50505092915050565b600060a0820190508181036000830152614b0f8188614a71565b90508181036020830152614b238187613aa3565b90508181036040830152614b378186613aa3565b90508181036060830152614b4b8185613aa3565b9050614b5a6080830184613c29565b9695505050505050565b7f416363657373436f6e74726f6c3a2063616e206f6e6c792072656e6f756e636560008201527f20726f6c657320666f722073656c660000000000000000000000000000000000602082015250565b6000614bc0602f83613a57565b9150614bcb82614b64565b604082019050919050565b60006020820190508181036000830152614bef81614bb3565b9050919050565b7f455243373231456e756d657261626c653a20676c6f62616c20696e646578206f60008201527f7574206f6620626f756e64730000000000000000000000000000000000000000602082015250565b6000614c52602c83613a57565b9150614c5d82614bf6565b604082019050919050565b60006020820190508181036000830152614c8181614c45565b9050919050565b7f4e487b7100000000000000000000000000000000000000000000000000000000600052603260045260246000fd5b7f4552433732313a20696e76616c696420746f6b656e2049440000000000000000600082015250565b6000614ced601883613a57565b9150614cf882614cb7565b602082019050919050565b60006020820190508181036000830152614d1c81614ce0565b9050919050565b7f4552433732313a2061646472657373207a65726f206973206e6f74206120766160008201527f6c6964206f776e65720000000000000000000000000000000000000000000000602082015250565b6000614d7f602983613a57565b9150614d8a82614d23565b604082019050919050565b60006020820190508181036000830152614dae81614d72565b9050919050565b6000614dc082613afe565b9150614dcb83613afe565b9250828203905081811115614de357614de2614790565b5b92915050565b7f596f75206861766520746f206f776e6564206120746f6b656e21000000000000600082015250565b6000614e1f601a83613a57565b9150614e2a82614de9565b602082019050919050565b60006020820190508181036000830152614e4e81614e12565b9050919050565b7f416c726561647920757365642e00000000000000000000000000000000000000600082015250565b6000614e8b600d83613a57565b9150614e9682614e55565b602082019050919050565b60006020820190508181036000830152614eba81614e7e565b9050919050565b600081549050614ed081614517565b9050919050565b60008190508160005260206000209050919050565b818103614efa575050614fd2565b614f0382614ec1565b67ffffffffffffffff811115614f1c57614f1b613dea565b5b614f268254614517565b614f31828285614912565b6000601f831160018114614f605760008415614f4e578287015490505b614f588582614983565b865550614fcb565b601f198416614f6e87614ed7565b9650614f79866147f3565b60005b82811015614fa157848901548255600182019150600185019450602081019050614f7c565b86831015614fbe5784890154614fba601f891682614965565b8355505b6001600288020188555050505b5050505050505b565b600081905092915050565b6000614fea82613a4c565b614ff48185614fd4565b9350615004818560208601613a68565b80840191505092915050565b600061501c8285614fdf565b91506150288284614fdf565b91508190509392505050565b7f426c6f6f6420646f6573206e6f74206578697374000000000000000000000000600082015250565b600061506a601483613a57565b915061507582615034565b602082019050919050565b600060208201905081810360008301526150998161505d565b9050919050565b60006150ab82613afe565b91507fffffffffffffffffffffffffffffffffffffffffffffffffffffffffffffffff82036150dd576150dc614790565b5b600182019050919050565b7f4552433732313a207472616e736665722066726f6d20696e636f72726563742060008201527f6f776e6572000000000000000000000000000000000000000000000000000000602082015250565b6000615144602583613a57565b915061514f826150e8565b604082019050919050565b6000602082019050818103600083015261517381615137565b9050919050565b7f4552433732313a207472616e7366657220746f20746865207a65726f2061646460008201527f7265737300000000000000000000000000000000000000000000000000000000602082015250565b60006151d6602483613a57565b91506151e18261517a565b604082019050919050565b60006020820190508181036000830152615205816151c9565b9050919050565b7f4552433732313a206d696e7420746f20746865207a65726f2061646472657373600082015250565b6000615242602083613a57565b915061524d8261520c565b602082019050919050565b6000602082019050818103600083015261527181615235565b9050919050565b7f4552433732313a20746f6b656e20616c7265616479206d696e74656400000000600082015250565b60006152ae601c83613a57565b91506152b982615278565b602082019050919050565b600060208201905081810360008301526152dd816152a1565b9050919050565b7f416363657373436f6e74726f6c3a206163636f756e7420000000000000000000600082015250565b600061531a601783614fd4565b9150615325826152e4565b601782019050919050565b7f206973206d697373696e6720726f6c6520000000000000000000000000000000600082015250565b6000615366601183614fd4565b915061537182615330565b601182019050919050565b60006153878261530d565b91506153938285614fdf565b915061539e82615359565b91506153aa8284614fdf565b91508190509392505050565b7f4552433732313a20617070726f766520746f2063616c6c657200000000000000600082015250565b60006153ec601983613a57565b91506153f7826153b6565b602082019050919050565b6000602082019050818103600083015261541b816153df565b9050919050565b7f4552433732313a207472616e7366657220746f206e6f6e20455243373231526560008201527f63656976657220696d706c656d656e7465720000000000000000000000000000602082015250565b600061547e603283613a57565b915061548982615422565b604082019050919050565b600060208201905081810360008301526154ad81615471565b9050919050565b7f4e487b7100000000000000000000000000000000000000000000000000000000600052601260045260246000fd5b7f455243373231456e756d657261626c653a20636f6e736563757469766520747260008201527f616e7366657273206e6f7420737570706f727465640000000000000000000000602082015250565b600061553f603583613a57565b915061554a826154e3565b604082019050919050565b6000602082019050818103600083015261556e81615532565b9050919050565b600061558082613afe565b915061558b83613afe565b925082820261559981613afe565b915082820484148315176155b0576155af614790565b5b5092915050565b60006155c282613afe565b9150600082036155d5576155d4614790565b5b600182039050919050565b7f537472696e67733a20686578206c656e67746820696e73756666696369656e74600082015250565b6000615616602083613a57565b9150615621826155e0565b602082019050919050565b6000602082019050818103600083015261564581615609565b9050919050565b600081519050919050565b600082825260208201905092915050565b60006156738261564c565b61567d8185615657565b935061568d818560208601613a68565b61569681613a92565b840191505092915050565b60006080820190506156b66000830187613b93565b6156c36020830186613b93565b6156d06040830185613c29565b81810360608301526156e28184615668565b905095945050505050565b6000815190506156fc816139bd565b92915050565b60006020828403121561571857615717613987565b5b6000615726848285016156ed565b91505092915050565b7f4e487b7100000000000000000000000000000000000000000000000000000000600052603160045260246000fdfea264697066735822122058124def89b47f7be270f56dd74f6b41916b4bb0184e3cd44257f6747802300d64736f6c63430008110033697066733a2f2f516d53683332644b75676f6f336539585876714b5a53366e44596232454d45425a4c4c7635546562675a36586445697066733a2f2f516d61786639746b455a555431386b336a526859646246437379627241737a34743936506b435a5a746742546f46",
  "linkReferences": {},
  "deployedLinkReferences": {}
}