{
  "_format": "hh-sol-artifact-1",
  "contractName": "BloodDonation",
  "sourceName": "contracts/BloodDonation.sol",
  "abi": [
    {
      "inputs": [],
      "stateMutability": "nonpayable",
      "type": "constructor"
    },
    {
      "anonymous": false,
      "inputs": [
        {
          "indexed": true,
          "internalType": "address",
          "name": "owner",
          "type": "address"
        },
        {
          "indexed": true,
          "internalType": "address",
          "name": "approved",
          "type": "address"
        },
        {
          "indexed": true,
          "internalType": "uint256",
          "name": "tokenId",
          "type": "uint256"
        }
      ],
      "name": "Approval",
      "type": "event"
    },
    {
      "anonymous": false,
      "inputs": [
        {
          "indexed": true,
          "internalType": "address",
          "name": "owner",
          "type": "address"
        },
        {
          "indexed": true,
          "internalType": "address",
          "name": "operator",
          "type": "address"
        },
        {
          "indexed": false,
          "internalType": "bool",
          "name": "approved",
          "type": "bool"
        }
      ],
      "name": "ApprovalForAll",
      "type": "event"
    },
    {
      "anonymous": false,
      "inputs": [
        {
          "indexed": true,
          "internalType": "uint256",
          "name": "tokenId",
          "type": "uint256"
        },
        {
          "indexed": false,
          "internalType": "string",
          "name": "photo",
          "type": "string"
        },
        {
          "indexed": false,
          "internalType": "string",
          "name": "title",
          "type": "string"
        },
        {
          "indexed": false,
          "internalType": "string",
          "name": "location",
          "type": "string"
        },
        {
          "indexed": false,
          "internalType": "string",
          "name": "description",
          "type": "string"
        },
        {
          "indexed": false,
          "internalType": "uint256",
          "name": "timestamp",
          "type": "uint256"
        }
      ],
      "name": "BDUploaded",
      "type": "event"
    },
    {
      "anonymous": false,
      "inputs": [
        {
          "indexed": true,
          "internalType": "bytes32",
          "name": "role",
          "type": "bytes32"
        },
        {
          "indexed": true,
          "internalType": "bytes32",
          "name": "previousAdminRole",
          "type": "bytes32"
        },
        {
          "indexed": true,
          "internalType": "bytes32",
          "name": "newAdminRole",
          "type": "bytes32"
        }
      ],
      "name": "RoleAdminChanged",
      "type": "event"
    },
    {
      "anonymous": false,
      "inputs": [
        {
          "indexed": true,
          "internalType": "bytes32",
          "name": "role",
          "type": "bytes32"
        },
        {
          "indexed": true,
          "internalType": "address",
          "name": "account",
          "type": "address"
        },
        {
          "indexed": true,
          "internalType": "address",
          "name": "sender",
          "type": "address"
        }
      ],
      "name": "RoleGranted",
      "type": "event"
    },
    {
      "anonymous": false,
      "inputs": [
        {
          "indexed": true,
          "internalType": "bytes32",
          "name": "role",
          "type": "bytes32"
        },
        {
          "indexed": true,
          "internalType": "address",
          "name": "account",
          "type": "address"
        },
        {
          "indexed": true,
          "internalType": "address",
          "name": "sender",
          "type": "address"
        }
      ],
      "name": "RoleRevoked",
      "type": "event"
    },
    {
      "anonymous": false,
      "inputs": [
        {
          "indexed": true,
          "internalType": "address",
          "name": "from",
          "type": "address"
        },
        {
          "indexed": true,
          "internalType": "address",
          "name": "to",
          "type": "address"
        },
        {
          "indexed": true,
          "internalType": "uint256",
          "name": "tokenId",
          "type": "uint256"
        }
      ],
      "name": "Transfer",
      "type": "event"
    },
    {
      "inputs": [],
      "name": "DEFAULT_ADMIN_ROLE",
      "outputs": [
        {
          "internalType": "bytes32",
          "name": "",
          "type": "bytes32"
        }
      ],
      "stateMutability": "view",
      "type": "function"
    },
    {
      "inputs": [],
      "name": "HOSPITAL",
      "outputs": [
        {
          "internalType": "bytes32",
          "name": "",
          "type": "bytes32"
        }
      ],
      "stateMutability": "view",
      "type": "function"
    },
    {
      "inputs": [],
      "name": "REDCROSS",
      "outputs": [
        {
          "internalType": "bytes32",
          "name": "",
          "type": "bytes32"
        }
      ],
      "stateMutability": "view",
      "type": "function"
    },
    {
      "inputs": [
        {
          "internalType": "uint256",
          "name": "",
          "type": "uint256"
        }
      ],
      "name": "_BDList",
      "outputs": [
        {
          "internalType": "uint256",
          "name": "tokenId",
          "type": "uint256"
        },
        {
          "internalType": "string",
          "name": "photo",
          "type": "string"
        },
        {
          "internalType": "string",
          "name": "title",
          "type": "string"
        },
        {
          "internalType": "string",
          "name": "location",
          "type": "string"
        },
        {
          "internalType": "string",
          "name": "description",
          "type": "string"
        },
        {
          "internalType": "uint256",
          "name": "timestamp",
          "type": "uint256"
        },
        {
          "internalType": "bool",
          "name": "used",
          "type": "bool"
        }
      ],
      "stateMutability": "view",
      "type": "function"
    },
    {
      "inputs": [],
      "name": "_notUsedPhotoURI",
      "outputs": [
        {
          "internalType": "string",
          "name": "",
          "type": "string"
        }
      ],
      "stateMutability": "view",
      "type": "function"
    },
    {
      "inputs": [],
      "name": "_usedPhotoURI",
      "outputs": [
        {
          "internalType": "string",
          "name": "",
          "type": "string"
        }
      ],
      "stateMutability": "view",
      "type": "function"
    },
    {
      "inputs": [
        {
          "internalType": "address",
          "name": "account",
          "type": "address"
        }
      ],
      "name": "addAdmin",
      "outputs": [],
      "stateMutability": "nonpayable",
      "type": "function"
    },
    {
      "inputs": [
        {
          "internalType": "address",
          "name": "to",
          "type": "address"
        },
        {
          "internalType": "uint256",
          "name": "tokenId",
          "type": "uint256"
        }
      ],
      "name": "approve",
      "outputs": [],
      "stateMutability": "nonpayable",
      "type": "function"
    },
    {
      "inputs": [
        {
          "internalType": "address",
          "name": "owner",
          "type": "address"
        }
      ],
      "name": "balanceOf",
      "outputs": [
        {
          "internalType": "uint256",
          "name": "",
          "type": "uint256"
        }
      ],
      "stateMutability": "view",
      "type": "function"
    },
    {
      "inputs": [
        {
          "internalType": "uint256[]",
          "name": "tokenIds",
          "type": "uint256[]"
        },
        {
          "internalType": "address",
          "name": "to",
          "type": "address"
        }
      ],
      "name": "batchTransferOwnership",
      "outputs": [],
      "stateMutability": "nonpayable",
      "type": "function"
    },
    {
      "inputs": [
        {
          "internalType": "address",
          "name": "account",
          "type": "address"
        }
      ],
      "name": "checkAdminRole",
      "outputs": [],
      "stateMutability": "view",
      "type": "function"
    },
    {
      "inputs": [
        {
          "internalType": "address",
          "name": "account",
          "type": "address"
        }
      ],
      "name": "checkHospitalRole",
      "outputs": [],
      "stateMutability": "view",
      "type": "function"
    },
    {
      "inputs": [
        {
          "internalType": "address",
          "name": "account",
          "type": "address"
        }
      ],
      "name": "checkRedCrossRole",
      "outputs": [],
      "stateMutability": "view",
      "type": "function"
    },
    {
      "inputs": [
        {
          "internalType": "uint256",
          "name": "tokenId",
          "type": "uint256"
        }
      ],
      "name": "getApproved",
      "outputs": [
        {
          "internalType": "address",
          "name": "",
          "type": "address"
        }
      ],
      "stateMutability": "view",
      "type": "function"
    },
    {
      "inputs": [
        {
          "internalType": "uint256",
          "name": "tokenId",
          "type": "uint256"
        }
      ],
      "name": "getBD",
      "outputs": [
        {
          "internalType": "uint256",
          "name": "",
          "type": "uint256"
        },
        {
          "internalType": "address[]",
          "name": "",
          "type": "address[]"
        },
        {
          "internalType": "string",
          "name": "",
          "type": "string"
        },
        {
          "internalType": "string",
          "name": "",
          "type": "string"
        },
        {
          "internalType": "string",
          "name": "",
          "type": "string"
        },
        {
          "internalType": "string",
          "name": "",
          "type": "string"
        },
        {
          "internalType": "uint256",
          "name": "",
          "type": "uint256"
        }
      ],
      "stateMutability": "view",
      "type": "function"
    },
    {
      "inputs": [
        {
          "internalType": "bytes32",
          "name": "role",
          "type": "bytes32"
        }
      ],
      "name": "getRoleAdmin",
      "outputs": [
        {
          "internalType": "bytes32",
          "name": "",
          "type": "bytes32"
        }
      ],
      "stateMutability": "view",
      "type": "function"
    },
    {
      "inputs": [],
      "name": "getTotalBDCount",
      "outputs": [
        {
          "internalType": "uint256",
          "name": "",
          "type": "uint256"
        }
      ],
      "stateMutability": "view",
      "type": "function"
    },
    {
      "inputs": [
        {
          "internalType": "address",
          "name": "account",
          "type": "address"
        }
      ],
      "name": "grantHospitalRole",
      "outputs": [],
      "stateMutability": "nonpayable",
      "type": "function"
    },
    {
      "inputs": [
        {
          "internalType": "address",
          "name": "account",
          "type": "address"
        }
      ],
      "name": "grantRedCrossRole",
      "outputs": [],
      "stateMutability": "nonpayable",
      "type": "function"
    },
    {
      "inputs": [
        {
          "internalType": "bytes32",
          "name": "role",
          "type": "bytes32"
        },
        {
          "internalType": "address",
          "name": "account",
          "type": "address"
        }
      ],
      "name": "grantRole",
      "outputs": [],
      "stateMutability": "nonpayable",
      "type": "function"
    },
    {
      "inputs": [
        {
          "internalType": "bytes32",
          "name": "role",
          "type": "bytes32"
        },
        {
          "internalType": "address",
          "name": "account",
          "type": "address"
        }
      ],
      "name": "hasRole",
      "outputs": [
        {
          "internalType": "bool",
          "name": "",
          "type": "bool"
        }
      ],
      "stateMutability": "view",
      "type": "function"
    },
    {
      "inputs": [
        {
          "internalType": "address",
          "name": "owner",
          "type": "address"
        },
        {
          "internalType": "address",
          "name": "operator",
          "type": "address"
        }
      ],
      "name": "isApprovedForAll",
      "outputs": [
        {
          "internalType": "bool",
          "name": "",
          "type": "bool"
        }
      ],
      "stateMutability": "view",
      "type": "function"
    },
    {
      "inputs": [
        {
          "internalType": "string",
          "name": "title",
          "type": "string"
        },
        {
          "internalType": "string",
          "name": "location",
          "type": "string"
        },
        {
          "internalType": "string",
          "name": "description",
          "type": "string"
        },
        {
          "internalType": "address",
          "name": "to",
          "type": "address"
        }
      ],
      "name": "mintBD",
      "outputs": [],
      "stateMutability": "nonpayable",
      "type": "function"
    },
    {
      "inputs": [],
      "name": "name",
      "outputs": [
        {
          "internalType": "string",
          "name": "",
          "type": "string"
        }
      ],
      "stateMutability": "view",
      "type": "function"
    },
    {
      "inputs": [
        {
          "internalType": "uint256",
          "name": "tokenId",
          "type": "uint256"
        }
      ],
      "name": "ownerOf",
      "outputs": [
        {
          "internalType": "address",
          "name": "",
          "type": "address"
        }
      ],
      "stateMutability": "view",
      "type": "function"
    },
    {
      "inputs": [],
      "name": "renounceAdmin",
      "outputs": [],
      "stateMutability": "nonpayable",
      "type": "function"
    },
    {
      "inputs": [
        {
          "internalType": "bytes32",
          "name": "role",
          "type": "bytes32"
        },
        {
          "internalType": "address",
          "name": "account",
          "type": "address"
        }
      ],
      "name": "renounceRole",
      "outputs": [],
      "stateMutability": "nonpayable",
      "type": "function"
    },
    {
      "inputs": [
        {
          "internalType": "bytes32",
          "name": "role",
          "type": "bytes32"
        },
        {
          "internalType": "address",
          "name": "account",
          "type": "address"
        }
      ],
      "name": "revokeRole",
      "outputs": [],
      "stateMutability": "nonpayable",
      "type": "function"
    },
    {
      "inputs": [
        {
          "internalType": "address",
          "name": "from",
          "type": "address"
        },
        {
          "internalType": "address",
          "name": "to",
          "type": "address"
        },
        {
          "internalType": "uint256",
          "name": "tokenId",
          "type": "uint256"
        }
      ],
      "name": "safeTransferFrom",
      "outputs": [],
      "stateMutability": "nonpayable",
      "type": "function"
    },
    {
      "inputs": [
        {
          "internalType": "address",
          "name": "from",
          "type": "address"
        },
        {
          "internalType": "address",
          "name": "to",
          "type": "address"
        },
        {
          "internalType": "uint256",
          "name": "tokenId",
          "type": "uint256"
        },
        {
          "internalType": "bytes",
          "name": "data",
          "type": "bytes"
        }
      ],
      "name": "safeTransferFrom",
      "outputs": [],
      "stateMutability": "nonpayable",
      "type": "function"
    },
    {
      "inputs": [
        {
          "internalType": "address",
          "name": "operator",
          "type": "address"
        },
        {
          "internalType": "bool",
          "name": "approved",
          "type": "bool"
        }
      ],
      "name": "setApprovalForAll",
      "outputs": [],
      "stateMutability": "nonpayable",
      "type": "function"
    },
    {
      "inputs": [
        {
          "internalType": "string",
          "name": "_newNotUsedURI",
          "type": "string"
        }
      ],
      "name": "setNotUsedURI",
      "outputs": [],
      "stateMutability": "nonpayable",
      "type": "function"
    },
    {
      "inputs": [
        {
          "internalType": "string",
          "name": "_newUsedURI",
          "type": "string"
        }
      ],
      "name": "setUsedURI",
      "outputs": [],
      "stateMutability": "nonpayable",
      "type": "function"
    },
    {
      "inputs": [
        {
          "internalType": "bytes4",
          "name": "interfaceId",
          "type": "bytes4"
        }
      ],
      "name": "supportsInterface",
      "outputs": [
        {
          "internalType": "bool",
          "name": "",
          "type": "bool"
        }
      ],
      "stateMutability": "view",
      "type": "function"
    },
    {
      "inputs": [],
      "name": "symbol",
      "outputs": [
        {
          "internalType": "string",
          "name": "",
          "type": "string"
        }
      ],
      "stateMutability": "view",
      "type": "function"
    },
    {
      "inputs": [
        {
          "internalType": "uint256",
          "name": "index",
          "type": "uint256"
        }
      ],
      "name": "tokenByIndex",
      "outputs": [
        {
          "internalType": "uint256",
          "name": "",
          "type": "uint256"
        }
      ],
      "stateMutability": "view",
      "type": "function"
    },
    {
      "inputs": [
        {
          "internalType": "address",
          "name": "owner",
          "type": "address"
        },
        {
          "internalType": "uint256",
          "name": "index",
          "type": "uint256"
        }
      ],
      "name": "tokenOfOwnerByIndex",
      "outputs": [
        {
          "internalType": "uint256",
          "name": "",
          "type": "uint256"
        }
      ],
      "stateMutability": "view",
      "type": "function"
    },
    {
      "inputs": [
        {
          "internalType": "uint256",
          "name": "tokenId",
          "type": "uint256"
        }
      ],
      "name": "tokenURI",
      "outputs": [
        {
          "internalType": "string",
          "name": "",
          "type": "string"
        }
      ],
      "stateMutability": "view",
      "type": "function"
    },
    {
      "inputs": [],
      "name": "totalSupply",
      "outputs": [
        {
          "internalType": "uint256",
          "name": "",
          "type": "uint256"
        }
      ],
      "stateMutability": "view",
      "type": "function"
    },
    {
      "inputs": [
        {
          "internalType": "address",
          "name": "from",
          "type": "address"
        },
        {
          "internalType": "address",
          "name": "to",
          "type": "address"
        },
        {
          "internalType": "uint256",
          "name": "tokenId",
          "type": "uint256"
        }
      ],
      "name": "transferFrom",
      "outputs": [],
      "stateMutability": "nonpayable",
      "type": "function"
    },
    {
      "inputs": [
        {
          "internalType": "uint256",
          "name": "tokenId",
          "type": "uint256"
        },
        {
          "internalType": "address",
          "name": "to",
          "type": "address"
        }
      ],
      "name": "transferOwnership",
      "outputs": [],
      "stateMutability": "nonpayable",
      "type": "function"
    },
    {
      "inputs": [
        {
          "internalType": "uint256",
          "name": "tokenId",
          "type": "uint256"
        }
      ],
      "name": "use",
      "outputs": [],
      "stateMutability": "nonpayable",
      "type": "function"
    },
    {
      "inputs": [
        {
          "internalType": "uint256[]",
          "name": "tokenIds",
          "type": "uint256[]"
        }
      ],
      "name": "useBatch",
      "outputs": [],
      "stateMutability": "nonpayable",
      "type": "function"
    },
    {
      "inputs": [],
      "name": "used",
      "outputs": [
        {
          "internalType": "bool",
          "name": "",
          "type": "bool"
        }
      ],
      "stateMutability": "view",
      "type": "function"
    }
  ],
  "bytecode": "0x608060405260405180606001604052806035815260200162005fd060359139600c90816200002e919062000525565b5060405180606001604052806035815260200162005f9b60359139600d908162000059919062000525565b506000600e60006101000a81548160ff0219169083151502179055503480156200008257600080fd5b506040518060400160405280600d81526020017f426c6f6f64446f6e6174696f6e000000000000000000000000000000000000008152506040518060400160405280600581526020017f42444e4654000000000000000000000000000000000000000000000000000000815250816000908162000100919062000525565b50806001908162000112919062000525565b5050506200012a6000801b336200013060201b60201c565b6200060c565b6200014282826200014660201b60201c565b5050565b6200015882826200023860201b60201c565b62000234576001600a600084815260200190815260200160002060000160008373ffffffffffffffffffffffffffffffffffffffff1673ffffffffffffffffffffffffffffffffffffffff16815260200190815260200160002060006101000a81548160ff021916908315150217905550620001d9620002a360201b60201c565b73ffffffffffffffffffffffffffffffffffffffff168173ffffffffffffffffffffffffffffffffffffffff16837f2f8788117e7eff1d82e926ec794901d17c78024a50270940304540a733656f0d60405160405180910390a45b5050565b6000600a600084815260200190815260200160002060000160008373ffffffffffffffffffffffffffffffffffffffff1673ffffffffffffffffffffffffffffffffffffffff16815260200190815260200160002060009054906101000a900460ff16905092915050565b600033905090565b600081519050919050565b7f4e487b7100000000000000000000000000000000000000000000000000000000600052604160045260246000fd5b7f4e487b7100000000000000000000000000000000000000000000000000000000600052602260045260246000fd5b600060028204905060018216806200032d57607f821691505b602082108103620003435762000342620002e5565b5b50919050565b60008190508160005260206000209050919050565b60006020601f8301049050919050565b600082821b905092915050565b600060088302620003ad7fffffffffffffffffffffffffffffffffffffffffffffffffffffffffffffffff826200036e565b620003b986836200036e565b95508019841693508086168417925050509392505050565b6000819050919050565b6000819050919050565b60006200040662000400620003fa84620003d1565b620003db565b620003d1565b9050919050565b6000819050919050565b6200042283620003e5565b6200043a62000431826200040d565b8484546200037b565b825550505050565b600090565b6200045162000442565b6200045e81848462000417565b505050565b5b8181101562000486576200047a60008262000447565b60018101905062000464565b5050565b601f821115620004d5576200049f8162000349565b620004aa846200035e565b81016020851015620004ba578190505b620004d2620004c9856200035e565b83018262000463565b50505b505050565b600082821c905092915050565b6000620004fa60001984600802620004da565b1980831691505092915050565b6000620005158383620004e7565b9150826002028217905092915050565b6200053082620002ab565b67ffffffffffffffff8111156200054c576200054b620002b6565b5b62000558825462000314565b620005658282856200048a565b600060209050601f8311600181146200059d576000841562000588578287015190505b62000594858262000507565b86555062000604565b601f198416620005ad8662000349565b60005b82811015620005d757848901518255600182019150602085019450602081019050620005b0565b86831015620005f75784890151620005f3601f891682620004e7565b8355505b6001600288020188555050505b505050505050565b61597f806200061c6000396000f3fe608060405234801561001057600080fd5b50600436106102745760003560e01c80637048027511610151578063a217fddf116100c3578063c87b56dd11610087578063c87b56dd1461075d578063d547741f1461078d578063e386be2e146107a9578063e985e9c5146107c5578063ed54e96a146107f5578063f639ec791461082b57610274565b8063a217fddf146106cd578063a22cb465146106eb578063ab5b445614610707578063b0806ea714610723578063b88d4fde1461074157610274565b80637ee756f2116101155780637ee756f21461060757806389d04f00146106235780638bad0c0a1461065957806391d148541461066357806395d89b4114610693578063a0562f69146106b157610274565b8063704802751461056757806370a08231146105835780637b3dc4ef146105b35780637def8928146105cf5780637e11f03c146105eb57610274565b80632f2ff15d116101ea5780634f6ccce7116101ae5780634f6ccce71461049157806354d0c549146104c15780635bf47d9d146104df5780635dd9727d146104fb5780636352211e1461051957806363898e2b1461054957610274565b80632f2ff15d146103f15780632f745c591461040d578063353acb331461043d57806336568abe1461045957806342842e0e1461047557610274565b806323b872dd1161023c57806323b872dd14610331578063248a9ca31461034d57806327bbe7ee1461037d578063280a337d1461039b57806329507f73146103b75780632de31f3c146103d357610274565b806301ffc9a71461027957806306fdde03146102a9578063081812fc146102c7578063095ea7b3146102f757806318160ddd14610313575b600080fd5b610293600480360381019061028e9190613b1f565b610847565b6040516102a09190613b67565b60405180910390f35b6102b1610859565b6040516102be9190613c12565b60405180910390f35b6102e160048036038101906102dc9190613c6a565b6108eb565b6040516102ee9190613cd8565b60405180910390f35b610311600480360381019061030c9190613d1f565b610931565b005b61031b610a48565b6040516103289190613d6e565b60405180910390f35b61034b60048036038101906103469190613d89565b610a55565b005b61036760048036038101906103629190613e12565b610ab5565b6040516103749190613e4e565b60405180910390f35b610385610ad5565b6040516103929190613e4e565b60405180910390f35b6103b560048036038101906103b09190613e69565b610af9565b005b6103d160048036038101906103cc9190613e96565b610b34565b005b6103db610bba565b6040516103e89190613c12565b60405180910390f35b61040b60048036038101906104069190613ed6565b610c4c565b005b61042760048036038101906104229190613d1f565b610c6d565b6040516104349190613d6e565b60405180910390f35b6104576004803603810190610452919061404b565b610d12565b005b610473600480360381019061046e9190613ed6565b610fad565b005b61048f600480360381019061048a9190613d89565b611030565b005b6104ab60048036038101906104a69190613c6a565b611050565b6040516104b89190613d6e565b60405180910390f35b6104c96110c1565b6040516104d69190613c12565b60405180910390f35b6104f960048036038101906104f49190614106565b611153565b005b610503611174565b6040516105109190613d6e565b60405180910390f35b610533600480360381019061052e9190613c6a565b611183565b6040516105409190613cd8565b60405180910390f35b610551611209565b60405161055e9190613b67565b60405180910390f35b610581600480360381019061057c9190613e69565b61121c565b005b61059d60048036038101906105989190613e69565b61123a565b6040516105aa9190613d6e565b60405180910390f35b6105cd60048036038101906105c89190613e69565b6112f1565b005b6105e960048036038101906105e49190614106565b61131e565b005b61060560048036038101906106009190614217565b61133f565b005b610621600480360381019061061c9190613e69565b6113f4565b005b61063d60048036038101906106389190613c6a565b61142f565b6040516106509796959493929190614260565b60405180910390f35b61066161169e565b005b61067d60048036038101906106789190613ed6565b6116bb565b60405161068a9190613b67565b60405180910390f35b61069b611726565b6040516106a89190613c12565b60405180910390f35b6106cb60048036038101906106c69190613e69565b6117b8565b005b6106d56117e5565b6040516106e29190613e4e565b60405180910390f35b61070560048036038101906107009190614317565b6117ec565b005b610721600480360381019061071c9190613c6a565b611802565b005b61072b6119f6565b6040516107389190613e4e565b60405180910390f35b61075b600480360381019061075691906143f8565b611a1a565b005b61077760048036038101906107729190613c6a565b611a7c565b6040516107849190613c12565b60405180910390f35b6107a760048036038101906107a29190613ed6565b611ae4565b005b6107c360048036038101906107be9190613e69565b611b05565b005b6107df60048036038101906107da919061447b565b611b15565b6040516107ec9190613b67565b60405180910390f35b61080f600480360381019061080a9190613c6a565b611ba9565b6040516108229796959493929190614579565b60405180910390f35b6108456004803603810190610840919061460b565b611f7a565b005b600061085282612098565b9050919050565b60606000805461086890614696565b80601f016020809104026020016040519081016040528092919081815260200182805461089490614696565b80156108e15780601f106108b6576101008083540402835291602001916108e1565b820191906000526020600020905b8154815290600101906020018083116108c457829003601f168201915b5050505050905090565b60006108f682612112565b6004600083815260200190815260200160002060009054906101000a900473ffffffffffffffffffffffffffffffffffffffff169050919050565b600061093c82611183565b90508073ffffffffffffffffffffffffffffffffffffffff168373ffffffffffffffffffffffffffffffffffffffff16036109ac576040517f08c379a00000000000000000000000000000000000000000000000000000000081526004016109a390614739565b60405180910390fd5b8073ffffffffffffffffffffffffffffffffffffffff166109cb61215d565b73ffffffffffffffffffffffffffffffffffffffff1614806109fa57506109f9816109f461215d565b611b15565b5b610a39576040517f08c379a0000000000000000000000000000000000000000000000000000000008152600401610a30906147cb565b60405180910390fd5b610a438383612165565b505050565b6000600880549050905090565b610a66610a6061215d565b8261221e565b610aa5576040517f08c379a0000000000000000000000000000000000000000000000000000000008152600401610a9c9061485d565b60405180910390fd5b610ab08383836122b3565b505050565b6000600a6000838152602001908152602001600020600101549050919050565b7f72d66193ff00a845b4aed5f27e02d9b558ef32be1495a41d00c5c5fb191a076381565b6000801b610b06816125ac565b610b307f60460dbe4b1f79d9efa1691d671057dc56200fed92b7dc0eb552fafb819b082c83610c4c565b5050565b610b3f338284611030565b600b6000838152602001908152602001600020600101819080600181540180825580915050600190039060005260206000200160009091909190916101000a81548173ffffffffffffffffffffffffffffffffffffffff021916908373ffffffffffffffffffffffffffffffffffffffff1602179055505050565b6060600d8054610bc990614696565b80601f0160208091040260200160405190810160405280929190818152602001828054610bf590614696565b8015610c425780601f10610c1757610100808354040283529160200191610c42565b820191906000526020600020905b815481529060010190602001808311610c2557829003601f168201915b5050505050905090565b610c5582610ab5565b610c5e816125ac565b610c6883836125c0565b505050565b6000610c788361123a565b8210610cb9576040517f08c379a0000000000000000000000000000000000000000000000000000000008152600401610cb0906148ef565b60405180910390fd5b600660008473ffffffffffffffffffffffffffffffffffffffff1673ffffffffffffffffffffffffffffffffffffffff168152602001908152602001600020600083815260200190815260200160002054905092915050565b7f60460dbe4b1f79d9efa1691d671057dc56200fed92b7dc0eb552fafb819b082c610d3c816125ac565b60006001610d48610a48565b610d52919061493e565b9050610d5e83826126a1565b60606000604051806101000160405280848152602001838152602001600c8054610d8790614696565b80601f0160208091040260200160405190810160405280929190818152602001828054610db390614696565b8015610e005780601f10610dd557610100808354040283529160200191610e00565b820191906000526020600020905b815481529060010190602001808311610de357829003601f168201915b5050505050815260200189815260200188815260200187815260200142815260200160001515815250905080600b6000858152602001908152602001600020600082015181600001556020820151816001019080519060200190610e65929190613a0c565b506040820151816002019081610e7b9190614b1e565b506060820151816003019081610e919190614b1e565b506080820151816004019081610ea79190614b1e565b5060a0820151816005019081610ebd9190614b1e565b5060c0820151816006015560e08201518160070160006101000a81548160ff021916908315150217905550905050600b6000848152602001908152602001600020600101859080600181540180825580915050600190039060005260206000200160009091909190916101000a81548173ffffffffffffffffffffffffffffffffffffffff021916908373ffffffffffffffffffffffffffffffffffffffff160217905550827f94da8b1f54d6b112f33b8d347f164fc8f25cd951a157bcc7493673b7cadbf363600c8a8a8a42604051610f9b959493929190614c74565b60405180910390a25050505050505050565b610fb561215d565b73ffffffffffffffffffffffffffffffffffffffff168173ffffffffffffffffffffffffffffffffffffffff1614611022576040517f08c379a000000000000000000000000000000000000000000000000000000000815260040161101990614d55565b60405180910390fd5b61102c82826128be565b5050565b61104b83838360405180602001604052806000815250611a1a565b505050565b600061105a610a48565b821061109b576040517f08c379a000000000000000000000000000000000000000000000000000000000815260040161109290614de7565b60405180910390fd5b600882815481106110af576110ae614e07565b5b90600052602060002001549050919050565b6060600c80546110d090614696565b80601f01602080910402602001604051908101604052809291908181526020018280546110fc90614696565b80156111495780601f1061111e57610100808354040283529160200191611149565b820191906000526020600020905b81548152906001019060200180831161112c57829003601f168201915b5050505050905090565b6000801b611160816125ac565b81600d908161116f9190614b1e565b505050565b600061117e610a48565b905090565b60008061118f836129a0565b9050600073ffffffffffffffffffffffffffffffffffffffff168173ffffffffffffffffffffffffffffffffffffffff1603611200576040517f08c379a00000000000000000000000000000000000000000000000000000000081526004016111f790614e82565b60405180910390fd5b80915050919050565b600e60009054906101000a900460ff1681565b6000801b611229816125ac565b6112366000801b83610c4c565b5050565b60008073ffffffffffffffffffffffffffffffffffffffff168273ffffffffffffffffffffffffffffffffffffffff16036112aa576040517f08c379a00000000000000000000000000000000000000000000000000000000081526004016112a190614f14565b60405180910390fd5b600360008373ffffffffffffffffffffffffffffffffffffffff1673ffffffffffffffffffffffffffffffffffffffff168152602001908152602001600020549050919050565b61131b7f72d66193ff00a845b4aed5f27e02d9b558ef32be1495a41d00c5c5fb191a0763826129dd565b50565b6000801b61132b816125ac565b81600c908161133a9190614b1e565b505050565b7f72d66193ff00a845b4aed5f27e02d9b558ef32be1495a41d00c5c5fb191a0763611369816125ac565b60008251116113ad576040517f08c379a00000000000000000000000000000000000000000000000000000000081526004016113a490614f80565b60405180910390fd5b60005b82518110156113ef576113dc8382815181106113cf576113ce614e07565b5b6020026020010151611802565b80806113e790614fa0565b9150506113b0565b505050565b6000801b611401816125ac565b61142b7f72d66193ff00a845b4aed5f27e02d9b558ef32be1495a41d00c5c5fb191a076383610c4c565b5050565b600b60205280600052604060002060009150905080600001549080600201805461145890614696565b80601f016020809104026020016040519081016040528092919081815260200182805461148490614696565b80156114d15780601f106114a6576101008083540402835291602001916114d1565b820191906000526020600020905b8154815290600101906020018083116114b457829003601f168201915b5050505050908060030180546114e690614696565b80601f016020809104026020016040519081016040528092919081815260200182805461151290614696565b801561155f5780601f106115345761010080835404028352916020019161155f565b820191906000526020600020905b81548152906001019060200180831161154257829003601f168201915b50505050509080600401805461157490614696565b80601f01602080910402602001604051908101604052809291908181526020018280546115a090614696565b80156115ed5780601f106115c2576101008083540402835291602001916115ed565b820191906000526020600020905b8154815290600101906020018083116115d057829003601f168201915b50505050509080600501805461160290614696565b80601f016020809104026020016040519081016040528092919081815260200182805461162e90614696565b801561167b5780601f106116505761010080835404028352916020019161167b565b820191906000526020600020905b81548152906001019060200180831161165e57829003601f168201915b5050505050908060060154908060070160009054906101000a900460ff16905087565b6000801b6116ab816125ac565b6116b86000801b33610fad565b50565b6000600a600084815260200190815260200160002060000160008373ffffffffffffffffffffffffffffffffffffffff1673ffffffffffffffffffffffffffffffffffffffff16815260200190815260200160002060009054906101000a900460ff16905092915050565b60606001805461173590614696565b80601f016020809104026020016040519081016040528092919081815260200182805461176190614696565b80156117ae5780601f10611783576101008083540402835291602001916117ae565b820191906000526020600020905b81548152906001019060200180831161179157829003601f168201915b5050505050905090565b6117e27f60460dbe4b1f79d9efa1691d671057dc56200fed92b7dc0eb552fafb819b082c826129dd565b50565b6000801b81565b6117fe6117f761215d565b8383612a62565b5050565b7f72d66193ff00a845b4aed5f27e02d9b558ef32be1495a41d00c5c5fb191a076361182c816125ac565b600b60008381526020019081526020016000206001016001600b6000858152602001908152602001600020600101805490506118689190614fe8565b8154811061187957611878614e07565b5b9060005260206000200160009054906101000a900473ffffffffffffffffffffffffffffffffffffffff1673ffffffffffffffffffffffffffffffffffffffff163373ffffffffffffffffffffffffffffffffffffffff1614611911576040517f08c379a000000000000000000000000000000000000000000000000000000000815260040161190890615068565b60405180910390fd5b60001515600b600084815260200190815260200160002060070160009054906101000a900460ff1615151461197b576040517f08c379a0000000000000000000000000000000000000000000000000000000008152600401611972906150d4565b60405180910390fd5b600b600083815260200190815260200160002060070160009054906101000a900460ff1615600b600084815260200190815260200160002060070160006101000a81548160ff021916908315150217905550600d600b600084815260200190815260200160002060020190816119f1919061511f565b505050565b7f60460dbe4b1f79d9efa1691d671057dc56200fed92b7dc0eb552fafb819b082c81565b611a2b611a2561215d565b8361221e565b611a6a576040517f08c379a0000000000000000000000000000000000000000000000000000000008152600401611a619061485d565b60405180910390fd5b611a7684848484612bce565b50505050565b6060611a8782612112565b6000611a91612c2a565b90506000815111611ab15760405180602001604052806000815250611adc565b80611abb84612c41565b604051602001611acc929190615243565b6040516020818303038152906040525b915050919050565b611aed82610ab5565b611af6816125ac565b611b0083836128be565b505050565b611b126000801b826129dd565b50565b6000600560008473ffffffffffffffffffffffffffffffffffffffff1673ffffffffffffffffffffffffffffffffffffffff16815260200190815260200160002060008373ffffffffffffffffffffffffffffffffffffffff1673ffffffffffffffffffffffffffffffffffffffff16815260200190815260200160002060009054906101000a900460ff16905092915050565b60006060806060806060600080600b60008a81526020019081526020016000206000015403611c0d576040517f08c379a0000000000000000000000000000000000000000000000000000000008152600401611c04906152b3565b60405180910390fd5b600b600089815260200190815260200160002060000154600b60008a8152602001908152602001600020600101600b60008b8152602001908152602001600020600201600b60008c8152602001908152602001600020600301600b60008d8152602001908152602001600020600401600b60008e8152602001908152602001600020600501600b60008f81526020019081526020016000206006015485805480602002602001604051908101604052809291908181526020018280548015611d2a57602002820191906000526020600020905b8160009054906101000a900473ffffffffffffffffffffffffffffffffffffffff1673ffffffffffffffffffffffffffffffffffffffff1681526020019060010190808311611ce0575b50505050509550848054611d3d90614696565b80601f0160208091040260200160405190810160405280929190818152602001828054611d6990614696565b8015611db65780601f10611d8b57610100808354040283529160200191611db6565b820191906000526020600020905b815481529060010190602001808311611d9957829003601f168201915b50505050509450838054611dc990614696565b80601f0160208091040260200160405190810160405280929190818152602001828054611df590614696565b8015611e425780601f10611e1757610100808354040283529160200191611e42565b820191906000526020600020905b815481529060010190602001808311611e2557829003601f168201915b50505050509350828054611e5590614696565b80601f0160208091040260200160405190810160405280929190818152602001828054611e8190614696565b8015611ece5780601f10611ea357610100808354040283529160200191611ece565b820191906000526020600020905b815481529060010190602001808311611eb157829003601f168201915b50505050509250818054611ee190614696565b80601f0160208091040260200160405190810160405280929190818152602001828054611f0d90614696565b8015611f5a5780601f10611f2f57610100808354040283529160200191611f5a565b820191906000526020600020905b815481529060010190602001808311611f3d57829003601f168201915b505050505091509650965096509650965096509650919395979092949650565b6000825111611fbe576040517f08c379a0000000000000000000000000000000000000000000000000000000008152600401611fb590614f80565b60405180910390fd5b60005b825181101561209357611fef3383858481518110611fe257611fe1614e07565b5b6020026020010151611030565b600b600084838151811061200657612005614e07565b5b60200260200101518152602001908152602001600020600101829080600181540180825580915050600190039060005260206000200160009091909190916101000a81548173ffffffffffffffffffffffffffffffffffffffff021916908373ffffffffffffffffffffffffffffffffffffffff160217905550808061208b90614fa0565b915050611fc1565b505050565b60007f7965db0b000000000000000000000000000000000000000000000000000000007bffffffffffffffffffffffffffffffffffffffffffffffffffffffff1916827bffffffffffffffffffffffffffffffffffffffffffffffffffffffff1916148061210b575061210a82612d0f565b5b9050919050565b61211b81612d89565b61215a576040517f08c379a000000000000000000000000000000000000000000000000000000000815260040161215190614e82565b60405180910390fd5b50565b600033905090565b816004600083815260200190815260200160002060006101000a81548173ffffffffffffffffffffffffffffffffffffffff021916908373ffffffffffffffffffffffffffffffffffffffff160217905550808273ffffffffffffffffffffffffffffffffffffffff166121d883611183565b73ffffffffffffffffffffffffffffffffffffffff167f8c5be1e5ebec7d5bd14f71427d1e84f3dd0314c0f7b2291e5b200ac8c7c3b92560405160405180910390a45050565b60008061222a83611183565b90508073ffffffffffffffffffffffffffffffffffffffff168473ffffffffffffffffffffffffffffffffffffffff16148061226c575061226b8185611b15565b5b806122aa57508373ffffffffffffffffffffffffffffffffffffffff16612292846108eb565b73ffffffffffffffffffffffffffffffffffffffff16145b91505092915050565b8273ffffffffffffffffffffffffffffffffffffffff166122d382611183565b73ffffffffffffffffffffffffffffffffffffffff1614612329576040517f08c379a000000000000000000000000000000000000000000000000000000000815260040161232090615345565b60405180910390fd5b600073ffffffffffffffffffffffffffffffffffffffff168273ffffffffffffffffffffffffffffffffffffffff1603612398576040517f08c379a000000000000000000000000000000000000000000000000000000000815260040161238f906153d7565b60405180910390fd5b6123a58383836001612dca565b8273ffffffffffffffffffffffffffffffffffffffff166123c582611183565b73ffffffffffffffffffffffffffffffffffffffff161461241b576040517f08c379a000000000000000000000000000000000000000000000000000000000815260040161241290615345565b60405180910390fd5b6004600082815260200190815260200160002060006101000a81549073ffffffffffffffffffffffffffffffffffffffff02191690556001600360008573ffffffffffffffffffffffffffffffffffffffff1673ffffffffffffffffffffffffffffffffffffffff168152602001908152602001600020600082825403925050819055506001600360008473ffffffffffffffffffffffffffffffffffffffff1673ffffffffffffffffffffffffffffffffffffffff16815260200190815260200160002060008282540192505081905550816002600083815260200190815260200160002060006101000a81548173ffffffffffffffffffffffffffffffffffffffff021916908373ffffffffffffffffffffffffffffffffffffffff160217905550808273ffffffffffffffffffffffffffffffffffffffff168473ffffffffffffffffffffffffffffffffffffffff167fddf252ad1be2c89b69c2b068fc378daa952ba7f163c4a11628f55a4df523b3ef60405160405180910390a46125a78383836001612f28565b505050565b6125bd816125b861215d565b6129dd565b50565b6125ca82826116bb565b61269d576001600a600084815260200190815260200160002060000160008373ffffffffffffffffffffffffffffffffffffffff1673ffffffffffffffffffffffffffffffffffffffff16815260200190815260200160002060006101000a81548160ff02191690831515021790555061264261215d565b73ffffffffffffffffffffffffffffffffffffffff168173ffffffffffffffffffffffffffffffffffffffff16837f2f8788117e7eff1d82e926ec794901d17c78024a50270940304540a733656f0d60405160405180910390a45b5050565b600073ffffffffffffffffffffffffffffffffffffffff168273ffffffffffffffffffffffffffffffffffffffff1603612710576040517f08c379a000000000000000000000000000000000000000000000000000000000815260040161270790615443565b60405180910390fd5b61271981612d89565b15612759576040517f08c379a0000000000000000000000000000000000000000000000000000000008152600401612750906154af565b60405180910390fd5b612767600083836001612dca565b61277081612d89565b156127b0576040517f08c379a00000000000000000000000000000000000000000000000000000000081526004016127a7906154af565b60405180910390fd5b6001600360008473ffffffffffffffffffffffffffffffffffffffff1673ffffffffffffffffffffffffffffffffffffffff16815260200190815260200160002060008282540192505081905550816002600083815260200190815260200160002060006101000a81548173ffffffffffffffffffffffffffffffffffffffff021916908373ffffffffffffffffffffffffffffffffffffffff160217905550808273ffffffffffffffffffffffffffffffffffffffff16600073ffffffffffffffffffffffffffffffffffffffff167fddf252ad1be2c89b69c2b068fc378daa952ba7f163c4a11628f55a4df523b3ef60405160405180910390a46128ba600083836001612f28565b5050565b6128c882826116bb565b1561299c576000600a600084815260200190815260200160002060000160008373ffffffffffffffffffffffffffffffffffffffff1673ffffffffffffffffffffffffffffffffffffffff16815260200190815260200160002060006101000a81548160ff02191690831515021790555061294161215d565b73ffffffffffffffffffffffffffffffffffffffff168173ffffffffffffffffffffffffffffffffffffffff16837ff6391f5c32d9c69d2a47ea670b442974b53935d1edc7fd64eb21e047a839171b60405160405180910390a45b5050565b60006002600083815260200190815260200160002060009054906101000a900473ffffffffffffffffffffffffffffffffffffffff169050919050565b6129e782826116bb565b612a5e576129f481612f2e565b612a028360001c6020612f5b565b604051602001612a13929190615567565b6040516020818303038152906040526040517f08c379a0000000000000000000000000000000000000000000000000000000008152600401612a559190613c12565b60405180910390fd5b5050565b8173ffffffffffffffffffffffffffffffffffffffff168373ffffffffffffffffffffffffffffffffffffffff1603612ad0576040517f08c379a0000000000000000000000000000000000000000000000000000000008152600401612ac7906155ed565b60405180910390fd5b80600560008573ffffffffffffffffffffffffffffffffffffffff1673ffffffffffffffffffffffffffffffffffffffff16815260200190815260200160002060008473ffffffffffffffffffffffffffffffffffffffff1673ffffffffffffffffffffffffffffffffffffffff16815260200190815260200160002060006101000a81548160ff0219169083151502179055508173ffffffffffffffffffffffffffffffffffffffff168373ffffffffffffffffffffffffffffffffffffffff167f17307eab39ab6107e8899845ad3d59bd9653f200f220920489ca2b5937696c3183604051612bc19190613b67565b60405180910390a3505050565b612bd98484846122b3565b612be584848484613197565b612c24576040517f08c379a0000000000000000000000000000000000000000000000000000000008152600401612c1b9061567f565b60405180910390fd5b50505050565b606060405180602001604052806000815250905090565b606060006001612c508461331e565b01905060008167ffffffffffffffff811115612c6f57612c6e613f20565b5b6040519080825280601f01601f191660200182016040528015612ca15781602001600182028036833780820191505090505b509050600082602001820190505b600115612d04578080600190039150507f3031323334353637383961626364656600000000000000000000000000000000600a86061a8153600a8581612cf857612cf761569f565b5b04945060008503612caf575b819350505050919050565b60007f780e9d63000000000000000000000000000000000000000000000000000000007bffffffffffffffffffffffffffffffffffffffffffffffffffffffff1916827bffffffffffffffffffffffffffffffffffffffffffffffffffffffff19161480612d825750612d8182613471565b5b9050919050565b60008073ffffffffffffffffffffffffffffffffffffffff16612dab836129a0565b73ffffffffffffffffffffffffffffffffffffffff1614159050919050565b612dd684848484613553565b6001811115612e1a576040517f08c379a0000000000000000000000000000000000000000000000000000000008152600401612e1190615740565b60405180910390fd5b6000829050600073ffffffffffffffffffffffffffffffffffffffff168573ffffffffffffffffffffffffffffffffffffffff1603612e6157612e5c81613679565b612ea0565b8373ffffffffffffffffffffffffffffffffffffffff168573ffffffffffffffffffffffffffffffffffffffff1614612e9f57612e9e85826136c2565b5b5b600073ffffffffffffffffffffffffffffffffffffffff168473ffffffffffffffffffffffffffffffffffffffff1603612ee257612edd8161382f565b612f21565b8473ffffffffffffffffffffffffffffffffffffffff168473ffffffffffffffffffffffffffffffffffffffff1614612f2057612f1f8482613900565b5b5b5050505050565b50505050565b6060612f548273ffffffffffffffffffffffffffffffffffffffff16601460ff16612f5b565b9050919050565b606060006002836002612f6e9190615760565b612f78919061493e565b67ffffffffffffffff811115612f9157612f90613f20565b5b6040519080825280601f01601f191660200182016040528015612fc35781602001600182028036833780820191505090505b5090507f300000000000000000000000000000000000000000000000000000000000000081600081518110612ffb57612ffa614e07565b5b60200101907effffffffffffffffffffffffffffffffffffffffffffffffffffffffffffff1916908160001a9053507f78000000000000000000000000000000000000000000000000000000000000008160018151811061305f5761305e614e07565b5b60200101907effffffffffffffffffffffffffffffffffffffffffffffffffffffffffffff1916908160001a9053506000600184600261309f9190615760565b6130a9919061493e565b90505b6001811115613149577f3031323334353637383961626364656600000000000000000000000000000000600f8616601081106130eb576130ea614e07565b5b1a60f81b82828151811061310257613101614e07565b5b60200101907effffffffffffffffffffffffffffffffffffffffffffffffffffffffffffff1916908160001a905350600485901c945080613142906157a2565b90506130ac565b506000841461318d576040517f08c379a000000000000000000000000000000000000000000000000000000000815260040161318490615817565b60405180910390fd5b8091505092915050565b60006131b88473ffffffffffffffffffffffffffffffffffffffff1661397f565b15613311578373ffffffffffffffffffffffffffffffffffffffff1663150b7a026131e161215d565b8786866040518563ffffffff1660e01b8152600401613203949392919061588c565b6020604051808303816000875af192505050801561323f57506040513d601f19601f8201168201806040525081019061323c91906158ed565b60015b6132c1573d806000811461326f576040519150601f19603f3d011682016040523d82523d6000602084013e613274565b606091505b5060008151036132b9576040517f08c379a00000000000000000000000000000000000000000000000000000000081526004016132b09061567f565b60405180910390fd5b805181602001fd5b63150b7a0260e01b7bffffffffffffffffffffffffffffffffffffffffffffffffffffffff1916817bffffffffffffffffffffffffffffffffffffffffffffffffffffffff191614915050613316565b600190505b949350505050565b600080600090507a184f03e93ff9f4daa797ed6e38ed64bf6a1f010000000000000000831061337c577a184f03e93ff9f4daa797ed6e38ed64bf6a1f01000000000000000083816133725761337161569f565b5b0492506040810190505b6d04ee2d6d415b85acef810000000083106133b9576d04ee2d6d415b85acef810000000083816133af576133ae61569f565b5b0492506020810190505b662386f26fc1000083106133e857662386f26fc1000083816133de576133dd61569f565b5b0492506010810190505b6305f5e1008310613411576305f5e10083816134075761340661569f565b5b0492506008810190505b612710831061343657612710838161342c5761342b61569f565b5b0492506004810190505b60648310613459576064838161344f5761344e61569f565b5b0492506002810190505b600a8310613468576001810190505b80915050919050565b60007f80ac58cd000000000000000000000000000000000000000000000000000000007bffffffffffffffffffffffffffffffffffffffffffffffffffffffff1916827bffffffffffffffffffffffffffffffffffffffffffffffffffffffff1916148061353c57507f5b5e139f000000000000000000000000000000000000000000000000000000007bffffffffffffffffffffffffffffffffffffffffffffffffffffffff1916827bffffffffffffffffffffffffffffffffffffffffffffffffffffffff1916145b8061354c575061354b826139a2565b5b9050919050565b600181111561367357600073ffffffffffffffffffffffffffffffffffffffff168473ffffffffffffffffffffffffffffffffffffffff16146135e75780600360008673ffffffffffffffffffffffffffffffffffffffff1673ffffffffffffffffffffffffffffffffffffffff16815260200190815260200160002060008282546135df9190614fe8565b925050819055505b600073ffffffffffffffffffffffffffffffffffffffff168373ffffffffffffffffffffffffffffffffffffffff16146136725780600360008573ffffffffffffffffffffffffffffffffffffffff1673ffffffffffffffffffffffffffffffffffffffff168152602001908152602001600020600082825461366a919061493e565b925050819055505b5b50505050565b6008805490506009600083815260200190815260200160002081905550600881908060018154018082558091505060019003906000526020600020016000909190919091505550565b600060016136cf8461123a565b6136d99190614fe8565b90506000600760008481526020019081526020016000205490508181146137be576000600660008673ffffffffffffffffffffffffffffffffffffffff1673ffffffffffffffffffffffffffffffffffffffff168152602001908152602001600020600084815260200190815260200160002054905080600660008773ffffffffffffffffffffffffffffffffffffffff1673ffffffffffffffffffffffffffffffffffffffff168152602001908152602001600020600084815260200190815260200160002081905550816007600083815260200190815260200160002081905550505b6007600084815260200190815260200160002060009055600660008573ffffffffffffffffffffffffffffffffffffffff1673ffffffffffffffffffffffffffffffffffffffff16815260200190815260200160002060008381526020019081526020016000206000905550505050565b600060016008805490506138439190614fe8565b905060006009600084815260200190815260200160002054905060006008838154811061387357613872614e07565b5b90600052602060002001549050806008838154811061389557613894614e07565b5b9060005260206000200181905550816009600083815260200190815260200160002081905550600960008581526020019081526020016000206000905560088054806138e4576138e361591a565b5b6001900381819060005260206000200160009055905550505050565b600061390b8361123a565b905081600660008573ffffffffffffffffffffffffffffffffffffffff1673ffffffffffffffffffffffffffffffffffffffff168152602001908152602001600020600083815260200190815260200160002081905550806007600084815260200190815260200160002081905550505050565b6000808273ffffffffffffffffffffffffffffffffffffffff163b119050919050565b60007f01ffc9a7000000000000000000000000000000000000000000000000000000007bffffffffffffffffffffffffffffffffffffffffffffffffffffffff1916827bffffffffffffffffffffffffffffffffffffffffffffffffffffffff1916149050919050565b828054828255906000526020600020908101928215613a85579160200282015b82811115613a845782518260006101000a81548173ffffffffffffffffffffffffffffffffffffffff021916908373ffffffffffffffffffffffffffffffffffffffff16021790555091602001919060010190613a2c565b5b509050613a929190613a96565b5090565b5b80821115613aaf576000816000905550600101613a97565b5090565b6000604051905090565b600080fd5b600080fd5b60007fffffffff0000000000000000000000000000000000000000000000000000000082169050919050565b613afc81613ac7565b8114613b0757600080fd5b50565b600081359050613b1981613af3565b92915050565b600060208284031215613b3557613b34613abd565b5b6000613b4384828501613b0a565b91505092915050565b60008115159050919050565b613b6181613b4c565b82525050565b6000602082019050613b7c6000830184613b58565b92915050565b600081519050919050565b600082825260208201905092915050565b60005b83811015613bbc578082015181840152602081019050613ba1565b60008484015250505050565b6000601f19601f8301169050919050565b6000613be482613b82565b613bee8185613b8d565b9350613bfe818560208601613b9e565b613c0781613bc8565b840191505092915050565b60006020820190508181036000830152613c2c8184613bd9565b905092915050565b6000819050919050565b613c4781613c34565b8114613c5257600080fd5b50565b600081359050613c6481613c3e565b92915050565b600060208284031215613c8057613c7f613abd565b5b6000613c8e84828501613c55565b91505092915050565b600073ffffffffffffffffffffffffffffffffffffffff82169050919050565b6000613cc282613c97565b9050919050565b613cd281613cb7565b82525050565b6000602082019050613ced6000830184613cc9565b92915050565b613cfc81613cb7565b8114613d0757600080fd5b50565b600081359050613d1981613cf3565b92915050565b60008060408385031215613d3657613d35613abd565b5b6000613d4485828601613d0a565b9250506020613d5585828601613c55565b9150509250929050565b613d6881613c34565b82525050565b6000602082019050613d836000830184613d5f565b92915050565b600080600060608486031215613da257613da1613abd565b5b6000613db086828701613d0a565b9350506020613dc186828701613d0a565b9250506040613dd286828701613c55565b9150509250925092565b6000819050919050565b613def81613ddc565b8114613dfa57600080fd5b50565b600081359050613e0c81613de6565b92915050565b600060208284031215613e2857613e27613abd565b5b6000613e3684828501613dfd565b91505092915050565b613e4881613ddc565b82525050565b6000602082019050613e636000830184613e3f565b92915050565b600060208284031215613e7f57613e7e613abd565b5b6000613e8d84828501613d0a565b91505092915050565b60008060408385031215613ead57613eac613abd565b5b6000613ebb85828601613c55565b9250506020613ecc85828601613d0a565b9150509250929050565b60008060408385031215613eed57613eec613abd565b5b6000613efb85828601613dfd565b9250506020613f0c85828601613d0a565b9150509250929050565b600080fd5b600080fd5b7f4e487b7100000000000000000000000000000000000000000000000000000000600052604160045260246000fd5b613f5882613bc8565b810181811067ffffffffffffffff82111715613f7757613f76613f20565b5b80604052505050565b6000613f8a613ab3565b9050613f968282613f4f565b919050565b600067ffffffffffffffff821115613fb657613fb5613f20565b5b613fbf82613bc8565b9050602081019050919050565b82818337600083830152505050565b6000613fee613fe984613f9b565b613f80565b90508281526020810184848401111561400a57614009613f1b565b5b614015848285613fcc565b509392505050565b600082601f83011261403257614031613f16565b5b8135614042848260208601613fdb565b91505092915050565b6000806000806080858703121561406557614064613abd565b5b600085013567ffffffffffffffff81111561408357614082613ac2565b5b61408f8782880161401d565b945050602085013567ffffffffffffffff8111156140b0576140af613ac2565b5b6140bc8782880161401d565b935050604085013567ffffffffffffffff8111156140dd576140dc613ac2565b5b6140e98782880161401d565b92505060606140fa87828801613d0a565b91505092959194509250565b60006020828403121561411c5761411b613abd565b5b600082013567ffffffffffffffff81111561413a57614139613ac2565b5b6141468482850161401d565b91505092915050565b600067ffffffffffffffff82111561416a57614169613f20565b5b602082029050602081019050919050565b600080fd5b600061419361418e8461414f565b613f80565b905080838252602082019050602084028301858111156141b6576141b561417b565b5b835b818110156141df57806141cb8882613c55565b8452602084019350506020810190506141b8565b5050509392505050565b600082601f8301126141fe576141fd613f16565b5b813561420e848260208601614180565b91505092915050565b60006020828403121561422d5761422c613abd565b5b600082013567ffffffffffffffff81111561424b5761424a613ac2565b5b614257848285016141e9565b91505092915050565b600060e082019050614275600083018a613d5f565b81810360208301526142878189613bd9565b9050818103604083015261429b8188613bd9565b905081810360608301526142af8187613bd9565b905081810360808301526142c38186613bd9565b90506142d260a0830185613d5f565b6142df60c0830184613b58565b98975050505050505050565b6142f481613b4c565b81146142ff57600080fd5b50565b600081359050614311816142eb565b92915050565b6000806040838503121561432e5761432d613abd565b5b600061433c85828601613d0a565b925050602061434d85828601614302565b9150509250929050565b600067ffffffffffffffff82111561437257614371613f20565b5b61437b82613bc8565b9050602081019050919050565b600061439b61439684614357565b613f80565b9050828152602081018484840111156143b7576143b6613f1b565b5b6143c2848285613fcc565b509392505050565b600082601f8301126143df576143de613f16565b5b81356143ef848260208601614388565b91505092915050565b6000806000806080858703121561441257614411613abd565b5b600061442087828801613d0a565b945050602061443187828801613d0a565b935050604061444287828801613c55565b925050606085013567ffffffffffffffff81111561446357614462613ac2565b5b61446f878288016143ca565b91505092959194509250565b6000806040838503121561449257614491613abd565b5b60006144a085828601613d0a565b92505060206144b185828601613d0a565b9150509250929050565b600081519050919050565b600082825260208201905092915050565b6000819050602082019050919050565b6144f081613cb7565b82525050565b600061450283836144e7565b60208301905092915050565b6000602082019050919050565b6000614526826144bb565b61453081856144c6565b935061453b836144d7565b8060005b8381101561456c57815161455388826144f6565b975061455e8361450e565b92505060018101905061453f565b5085935050505092915050565b600060e08201905061458e600083018a613d5f565b81810360208301526145a0818961451b565b905081810360408301526145b48188613bd9565b905081810360608301526145c88187613bd9565b905081810360808301526145dc8186613bd9565b905081810360a08301526145f08185613bd9565b90506145ff60c0830184613d5f565b98975050505050505050565b6000806040838503121561462257614621613abd565b5b600083013567ffffffffffffffff8111156146405761463f613ac2565b5b61464c858286016141e9565b925050602061465d85828601613d0a565b9150509250929050565b7f4e487b7100000000000000000000000000000000000000000000000000000000600052602260045260246000fd5b600060028204905060018216806146ae57607f821691505b6020821081036146c1576146c0614667565b5b50919050565b7f4552433732313a20617070726f76616c20746f2063757272656e74206f776e6560008201527f7200000000000000000000000000000000000000000000000000000000000000602082015250565b6000614723602183613b8d565b915061472e826146c7565b604082019050919050565b6000602082019050818103600083015261475281614716565b9050919050565b7f4552433732313a20617070726f76652063616c6c6572206973206e6f7420746f60008201527f6b656e206f776e6572206f7220617070726f76656420666f7220616c6c000000602082015250565b60006147b5603d83613b8d565b91506147c082614759565b604082019050919050565b600060208201905081810360008301526147e4816147a8565b9050919050565b7f4552433732313a2063616c6c6572206973206e6f7420746f6b656e206f776e6560008201527f72206f7220617070726f76656400000000000000000000000000000000000000602082015250565b6000614847602d83613b8d565b9150614852826147eb565b604082019050919050565b600060208201905081810360008301526148768161483a565b9050919050565b7f455243373231456e756d657261626c653a206f776e657220696e646578206f7560008201527f74206f6620626f756e6473000000000000000000000000000000000000000000602082015250565b60006148d9602b83613b8d565b91506148e48261487d565b604082019050919050565b60006020820190508181036000830152614908816148cc565b9050919050565b7f4e487b7100000000000000000000000000000000000000000000000000000000600052601160045260246000fd5b600061494982613c34565b915061495483613c34565b925082820190508082111561496c5761496b61490f565b5b92915050565b60008190508160005260206000209050919050565b60006020601f8301049050919050565b600082821b905092915050565b6000600883026149d47fffffffffffffffffffffffffffffffffffffffffffffffffffffffffffffffff82614997565b6149de8683614997565b95508019841693508086168417925050509392505050565b6000819050919050565b6000614a1b614a16614a1184613c34565b6149f6565b613c34565b9050919050565b6000819050919050565b614a3583614a00565b614a49614a4182614a22565b8484546149a4565b825550505050565b600090565b614a5e614a51565b614a69818484614a2c565b505050565b5b81811015614a8d57614a82600082614a56565b600181019050614a6f565b5050565b601f821115614ad257614aa381614972565b614aac84614987565b81016020851015614abb578190505b614acf614ac785614987565b830182614a6e565b50505b505050565b600082821c905092915050565b6000614af560001984600802614ad7565b1980831691505092915050565b6000614b0e8383614ae4565b9150826002028217905092915050565b614b2782613b82565b67ffffffffffffffff811115614b4057614b3f613f20565b5b614b4a8254614696565b614b55828285614a91565b600060209050601f831160018114614b885760008415614b76578287015190505b614b808582614b02565b865550614be8565b601f198416614b9686614972565b60005b82811015614bbe57848901518255600182019150602085019450602081019050614b99565b86831015614bdb5784890151614bd7601f891682614ae4565b8355505b6001600288020188555050505b505050505050565b60008154614bfd81614696565b614c078186613b8d565b94506001821660008114614c225760018114614c3857614c6b565b60ff198316865281151560200286019350614c6b565b614c4185614972565b60005b83811015614c6357815481890152600182019150602081019050614c44565b808801955050505b50505092915050565b600060a0820190508181036000830152614c8e8188614bf0565b90508181036020830152614ca28187613bd9565b90508181036040830152614cb68186613bd9565b90508181036060830152614cca8185613bd9565b9050614cd96080830184613d5f565b9695505050505050565b7f416363657373436f6e74726f6c3a2063616e206f6e6c792072656e6f756e636560008201527f20726f6c657320666f722073656c660000000000000000000000000000000000602082015250565b6000614d3f602f83613b8d565b9150614d4a82614ce3565b604082019050919050565b60006020820190508181036000830152614d6e81614d32565b9050919050565b7f455243373231456e756d657261626c653a20676c6f62616c20696e646578206f60008201527f7574206f6620626f756e64730000000000000000000000000000000000000000602082015250565b6000614dd1602c83613b8d565b9150614ddc82614d75565b604082019050919050565b60006020820190508181036000830152614e0081614dc4565b9050919050565b7f4e487b7100000000000000000000000000000000000000000000000000000000600052603260045260246000fd5b7f4552433732313a20696e76616c696420746f6b656e2049440000000000000000600082015250565b6000614e6c601883613b8d565b9150614e7782614e36565b602082019050919050565b60006020820190508181036000830152614e9b81614e5f565b9050919050565b7f4552433732313a2061646472657373207a65726f206973206e6f74206120766160008201527f6c6964206f776e65720000000000000000000000000000000000000000000000602082015250565b6000614efe602983613b8d565b9150614f0982614ea2565b604082019050919050565b60006020820190508181036000830152614f2d81614ef1565b9050919050565b7f4e6f7468696e6720656e74657265642e00000000000000000000000000000000600082015250565b6000614f6a601083613b8d565b9150614f7582614f34565b602082019050919050565b60006020820190508181036000830152614f9981614f5d565b9050919050565b6000614fab82613c34565b91507fffffffffffffffffffffffffffffffffffffffffffffffffffffffffffffffff8203614fdd57614fdc61490f565b5b600182019050919050565b6000614ff382613c34565b9150614ffe83613c34565b92508282039050818111156150165761501561490f565b5b92915050565b7f596f75206861766520746f206f776e6564206120746f6b656e21000000000000600082015250565b6000615052601a83613b8d565b915061505d8261501c565b602082019050919050565b6000602082019050818103600083015261508181615045565b9050919050565b7f416c726561647920757365642e00000000000000000000000000000000000000600082015250565b60006150be600d83613b8d565b91506150c982615088565b602082019050919050565b600060208201905081810360008301526150ed816150b1565b9050919050565b60008154905061510381614696565b9050919050565b60008190508160005260206000209050919050565b81810361512d575050615205565b615136826150f4565b67ffffffffffffffff81111561514f5761514e613f20565b5b6151598254614696565b615164828285614a91565b6000601f8311600181146151935760008415615181578287015490505b61518b8582614b02565b8655506151fe565b601f1984166151a18761510a565b96506151ac86614972565b60005b828110156151d4578489015482556001820191506001850194506020810190506151af565b868310156151f157848901546151ed601f891682614ae4565b8355505b6001600288020188555050505b5050505050505b565b600081905092915050565b600061521d82613b82565b6152278185615207565b9350615237818560208601613b9e565b80840191505092915050565b600061524f8285615212565b915061525b8284615212565b91508190509392505050565b7f426c6f6f6420646f6573206e6f74206578697374000000000000000000000000600082015250565b600061529d601483613b8d565b91506152a882615267565b602082019050919050565b600060208201905081810360008301526152cc81615290565b9050919050565b7f4552433732313a207472616e736665722066726f6d20696e636f72726563742060008201527f6f776e6572000000000000000000000000000000000000000000000000000000602082015250565b600061532f602583613b8d565b915061533a826152d3565b604082019050919050565b6000602082019050818103600083015261535e81615322565b9050919050565b7f4552433732313a207472616e7366657220746f20746865207a65726f2061646460008201527f7265737300000000000000000000000000000000000000000000000000000000602082015250565b60006153c1602483613b8d565b91506153cc82615365565b604082019050919050565b600060208201905081810360008301526153f0816153b4565b9050919050565b7f4552433732313a206d696e7420746f20746865207a65726f2061646472657373600082015250565b600061542d602083613b8d565b9150615438826153f7565b602082019050919050565b6000602082019050818103600083015261545c81615420565b9050919050565b7f4552433732313a20746f6b656e20616c7265616479206d696e74656400000000600082015250565b6000615499601c83613b8d565b91506154a482615463565b602082019050919050565b600060208201905081810360008301526154c88161548c565b9050919050565b7f416363657373436f6e74726f6c3a206163636f756e7420000000000000000000600082015250565b6000615505601783615207565b9150615510826154cf565b601782019050919050565b7f206973206d697373696e6720726f6c6520000000000000000000000000000000600082015250565b6000615551601183615207565b915061555c8261551b565b601182019050919050565b6000615572826154f8565b915061557e8285615212565b915061558982615544565b91506155958284615212565b91508190509392505050565b7f4552433732313a20617070726f766520746f2063616c6c657200000000000000600082015250565b60006155d7601983613b8d565b91506155e2826155a1565b602082019050919050565b60006020820190508181036000830152615606816155ca565b9050919050565b7f4552433732313a207472616e7366657220746f206e6f6e20455243373231526560008201527f63656976657220696d706c656d656e7465720000000000000000000000000000602082015250565b6000615669603283613b8d565b91506156748261560d565b604082019050919050565b600060208201905081810360008301526156988161565c565b9050919050565b7f4e487b7100000000000000000000000000000000000000000000000000000000600052601260045260246000fd5b7f455243373231456e756d657261626c653a20636f6e736563757469766520747260008201527f616e7366657273206e6f7420737570706f727465640000000000000000000000602082015250565b600061572a603583613b8d565b9150615735826156ce565b604082019050919050565b600060208201905081810360008301526157598161571d565b9050919050565b600061576b82613c34565b915061577683613c34565b925082820261578481613c34565b9150828204841483151761579b5761579a61490f565b5b5092915050565b60006157ad82613c34565b9150600082036157c0576157bf61490f565b5b600182039050919050565b7f537472696e67733a20686578206c656e67746820696e73756666696369656e74600082015250565b6000615801602083613b8d565b915061580c826157cb565b602082019050919050565b60006020820190508181036000830152615830816157f4565b9050919050565b600081519050919050565b600082825260208201905092915050565b600061585e82615837565b6158688185615842565b9350615878818560208601613b9e565b61588181613bc8565b840191505092915050565b60006080820190506158a16000830187613cc9565b6158ae6020830186613cc9565b6158bb6040830185613d5f565b81810360608301526158cd8184615853565b905095945050505050565b6000815190506158e781613af3565b92915050565b60006020828403121561590357615902613abd565b5b6000615911848285016158d8565b91505092915050565b7f4e487b7100000000000000000000000000000000000000000000000000000000600052603160045260246000fdfea2646970667358221220c33197b90cb085cca6acc79365269334fff62e74512cf2460ea42943ae3dfdd164736f6c63430008110033697066733a2f2f516d53683332644b75676f6f336539585876714b5a53366e44596232454d45425a4c4c7635546562675a36586445697066733a2f2f516d61786639746b455a555431386b336a526859646246437379627241737a34743936506b435a5a746742546f46",
  "linkReferences": {},
  "deployedLinkReferences": {}
}