{
  "_format": "hh-sol-artifact-1",
  "contractName": "BloodDonation",
  "sourceName": "contracts/BloodDonation.sol",
  "abi": [
    {
      "inputs": [
        {
          "internalType": "string",
          "name": "_NFTname",
          "type": "string"
        },
        {
          "internalType": "string",
          "name": "_NFTsymbol",
          "type": "string"
        }
      ],
      "stateMutability": "nonpayable",
      "type": "constructor"
    },
    {
      "anonymous": false,
      "inputs": [
        {
          "indexed": true,
          "internalType": "address",
          "name": "owner",
          "type": "address"
        },
        {
          "indexed": true,
          "internalType": "address",
          "name": "approved",
          "type": "address"
        },
        {
          "indexed": true,
          "internalType": "uint256",
          "name": "tokenId",
          "type": "uint256"
        }
      ],
      "name": "Approval",
      "type": "event"
    },
    {
      "anonymous": false,
      "inputs": [
        {
          "indexed": true,
          "internalType": "address",
          "name": "owner",
          "type": "address"
        },
        {
          "indexed": true,
          "internalType": "address",
          "name": "operator",
          "type": "address"
        },
        {
          "indexed": false,
          "internalType": "bool",
          "name": "approved",
          "type": "bool"
        }
      ],
      "name": "ApprovalForAll",
      "type": "event"
    },
    {
      "anonymous": false,
      "inputs": [
        {
          "indexed": true,
          "internalType": "uint256",
          "name": "tokenId",
          "type": "uint256"
        },
        {
          "indexed": false,
          "internalType": "string",
          "name": "photo",
          "type": "string"
        },
        {
          "indexed": false,
          "internalType": "string",
          "name": "title",
          "type": "string"
        },
        {
          "indexed": false,
          "internalType": "string",
          "name": "location",
          "type": "string"
        },
        {
          "indexed": false,
          "internalType": "string",
          "name": "description",
          "type": "string"
        },
        {
          "indexed": false,
          "internalType": "uint256",
          "name": "timestamp",
          "type": "uint256"
        }
      ],
      "name": "BDUploaded",
      "type": "event"
    },
    {
      "anonymous": false,
      "inputs": [
        {
          "indexed": true,
          "internalType": "bytes32",
          "name": "role",
          "type": "bytes32"
        },
        {
          "indexed": true,
          "internalType": "bytes32",
          "name": "previousAdminRole",
          "type": "bytes32"
        },
        {
          "indexed": true,
          "internalType": "bytes32",
          "name": "newAdminRole",
          "type": "bytes32"
        }
      ],
      "name": "RoleAdminChanged",
      "type": "event"
    },
    {
      "anonymous": false,
      "inputs": [
        {
          "indexed": true,
          "internalType": "bytes32",
          "name": "role",
          "type": "bytes32"
        },
        {
          "indexed": true,
          "internalType": "address",
          "name": "account",
          "type": "address"
        },
        {
          "indexed": true,
          "internalType": "address",
          "name": "sender",
          "type": "address"
        }
      ],
      "name": "RoleGranted",
      "type": "event"
    },
    {
      "anonymous": false,
      "inputs": [
        {
          "indexed": true,
          "internalType": "bytes32",
          "name": "role",
          "type": "bytes32"
        },
        {
          "indexed": true,
          "internalType": "address",
          "name": "account",
          "type": "address"
        },
        {
          "indexed": true,
          "internalType": "address",
          "name": "sender",
          "type": "address"
        }
      ],
      "name": "RoleRevoked",
      "type": "event"
    },
    {
      "anonymous": false,
      "inputs": [
        {
          "indexed": true,
          "internalType": "address",
          "name": "from",
          "type": "address"
        },
        {
          "indexed": true,
          "internalType": "address",
          "name": "to",
          "type": "address"
        },
        {
          "indexed": true,
          "internalType": "uint256",
          "name": "tokenId",
          "type": "uint256"
        }
      ],
      "name": "Transfer",
      "type": "event"
    },
    {
      "inputs": [],
      "name": "DEFAULT_ADMIN_ROLE",
      "outputs": [
        {
          "internalType": "bytes32",
          "name": "",
          "type": "bytes32"
        }
      ],
      "stateMutability": "view",
      "type": "function"
    },
    {
      "inputs": [],
      "name": "HOSPITAL",
      "outputs": [
        {
          "internalType": "bytes32",
          "name": "",
          "type": "bytes32"
        }
      ],
      "stateMutability": "view",
      "type": "function"
    },
    {
      "inputs": [],
      "name": "REDCROSS",
      "outputs": [
        {
          "internalType": "bytes32",
          "name": "",
          "type": "bytes32"
        }
      ],
      "stateMutability": "view",
      "type": "function"
    },
    {
      "inputs": [
        {
          "internalType": "uint256",
          "name": "",
          "type": "uint256"
        }
      ],
      "name": "_BDList",
      "outputs": [
        {
          "internalType": "uint256",
          "name": "tokenId",
          "type": "uint256"
        },
        {
          "internalType": "string",
          "name": "photo",
          "type": "string"
        },
        {
          "internalType": "string",
          "name": "title",
          "type": "string"
        },
        {
          "internalType": "string",
          "name": "location",
          "type": "string"
        },
        {
          "internalType": "string",
          "name": "description",
          "type": "string"
        },
        {
          "internalType": "uint256",
          "name": "timestamp",
          "type": "uint256"
        },
        {
          "internalType": "bool",
          "name": "used",
          "type": "bool"
        }
      ],
      "stateMutability": "view",
      "type": "function"
    },
    {
      "inputs": [],
      "name": "_notUsedPhotoURI",
      "outputs": [
        {
          "internalType": "string",
          "name": "",
          "type": "string"
        }
      ],
      "stateMutability": "view",
      "type": "function"
    },
    {
      "inputs": [],
      "name": "_usedPhotoURI",
      "outputs": [
        {
          "internalType": "string",
          "name": "",
          "type": "string"
        }
      ],
      "stateMutability": "view",
      "type": "function"
    },
    {
      "inputs": [
        {
          "internalType": "address",
          "name": "account",
          "type": "address"
        }
      ],
      "name": "addAdmin",
      "outputs": [],
      "stateMutability": "nonpayable",
      "type": "function"
    },
    {
      "inputs": [
        {
          "internalType": "address",
          "name": "to",
          "type": "address"
        },
        {
          "internalType": "uint256",
          "name": "tokenId",
          "type": "uint256"
        }
      ],
      "name": "approve",
      "outputs": [],
      "stateMutability": "nonpayable",
      "type": "function"
    },
    {
      "inputs": [
        {
          "internalType": "address",
          "name": "owner",
          "type": "address"
        }
      ],
      "name": "balanceOf",
      "outputs": [
        {
          "internalType": "uint256",
          "name": "",
          "type": "uint256"
        }
      ],
      "stateMutability": "view",
      "type": "function"
    },
    {
      "inputs": [
        {
          "internalType": "uint256[]",
          "name": "tokenIds",
          "type": "uint256[]"
        },
        {
          "internalType": "address",
          "name": "to",
          "type": "address"
        }
      ],
      "name": "batchTransferOwnership",
      "outputs": [],
      "stateMutability": "nonpayable",
      "type": "function"
    },
    {
      "inputs": [
        {
          "internalType": "address",
          "name": "account",
          "type": "address"
        }
      ],
      "name": "checkAdminRole",
      "outputs": [],
      "stateMutability": "view",
      "type": "function"
    },
    {
      "inputs": [
        {
          "internalType": "address",
          "name": "account",
          "type": "address"
        }
      ],
      "name": "checkHospitalRole",
      "outputs": [],
      "stateMutability": "view",
      "type": "function"
    },
    {
      "inputs": [
        {
          "internalType": "address",
          "name": "account",
          "type": "address"
        }
      ],
      "name": "checkRedCrossRole",
      "outputs": [],
      "stateMutability": "view",
      "type": "function"
    },
    {
      "inputs": [
        {
          "internalType": "uint256",
          "name": "_tokenId",
          "type": "uint256"
        }
      ],
      "name": "checkUse",
      "outputs": [
        {
          "internalType": "bool",
          "name": "",
          "type": "bool"
        }
      ],
      "stateMutability": "view",
      "type": "function"
    },
    {
      "inputs": [
        {
          "internalType": "uint256",
          "name": "tokenId",
          "type": "uint256"
        }
      ],
      "name": "getApproved",
      "outputs": [
        {
          "internalType": "address",
          "name": "",
          "type": "address"
        }
      ],
      "stateMutability": "view",
      "type": "function"
    },
    {
      "inputs": [
        {
          "internalType": "uint256",
          "name": "tokenId",
          "type": "uint256"
        }
      ],
      "name": "getBD",
      "outputs": [
        {
          "internalType": "uint256",
          "name": "",
          "type": "uint256"
        },
        {
          "internalType": "address[]",
          "name": "",
          "type": "address[]"
        },
        {
          "internalType": "string",
          "name": "",
          "type": "string"
        },
        {
          "internalType": "string",
          "name": "",
          "type": "string"
        },
        {
          "internalType": "string",
          "name": "",
          "type": "string"
        },
        {
          "internalType": "string",
          "name": "",
          "type": "string"
        },
        {
          "internalType": "uint256",
          "name": "",
          "type": "uint256"
        }
      ],
      "stateMutability": "view",
      "type": "function"
    },
    {
      "inputs": [
        {
          "internalType": "bytes32",
          "name": "role",
          "type": "bytes32"
        }
      ],
      "name": "getRoleAdmin",
      "outputs": [
        {
          "internalType": "bytes32",
          "name": "",
          "type": "bytes32"
        }
      ],
      "stateMutability": "view",
      "type": "function"
    },
    {
      "inputs": [],
      "name": "getTotalBDCount",
      "outputs": [
        {
          "internalType": "uint256",
          "name": "",
          "type": "uint256"
        }
      ],
      "stateMutability": "view",
      "type": "function"
    },
    {
      "inputs": [
        {
          "internalType": "address",
          "name": "account",
          "type": "address"
        }
      ],
      "name": "grantHospitalRole",
      "outputs": [],
      "stateMutability": "nonpayable",
      "type": "function"
    },
    {
      "inputs": [
        {
          "internalType": "address",
          "name": "account",
          "type": "address"
        }
      ],
      "name": "grantRedCrossRole",
      "outputs": [],
      "stateMutability": "nonpayable",
      "type": "function"
    },
    {
      "inputs": [
        {
          "internalType": "bytes32",
          "name": "role",
          "type": "bytes32"
        },
        {
          "internalType": "address",
          "name": "account",
          "type": "address"
        }
      ],
      "name": "grantRole",
      "outputs": [],
      "stateMutability": "nonpayable",
      "type": "function"
    },
    {
      "inputs": [
        {
          "internalType": "bytes32",
          "name": "role",
          "type": "bytes32"
        },
        {
          "internalType": "address",
          "name": "account",
          "type": "address"
        }
      ],
      "name": "hasRole",
      "outputs": [
        {
          "internalType": "bool",
          "name": "",
          "type": "bool"
        }
      ],
      "stateMutability": "view",
      "type": "function"
    },
    {
      "inputs": [
        {
          "internalType": "address",
          "name": "owner",
          "type": "address"
        },
        {
          "internalType": "address",
          "name": "operator",
          "type": "address"
        }
      ],
      "name": "isApprovedForAll",
      "outputs": [
        {
          "internalType": "bool",
          "name": "",
          "type": "bool"
        }
      ],
      "stateMutability": "view",
      "type": "function"
    },
    {
      "inputs": [
        {
          "internalType": "string",
          "name": "title",
          "type": "string"
        },
        {
          "internalType": "string",
          "name": "location",
          "type": "string"
        },
        {
          "internalType": "string",
          "name": "description",
          "type": "string"
        },
        {
          "internalType": "address",
          "name": "to",
          "type": "address"
        }
      ],
      "name": "mintBD",
      "outputs": [],
      "stateMutability": "nonpayable",
      "type": "function"
    },
    {
      "inputs": [],
      "name": "name",
      "outputs": [
        {
          "internalType": "string",
          "name": "",
          "type": "string"
        }
      ],
      "stateMutability": "view",
      "type": "function"
    },
    {
      "inputs": [
        {
          "internalType": "address",
          "name": "owner",
          "type": "address"
        }
      ],
      "name": "ownedTokenList",
      "outputs": [
        {
          "internalType": "uint256[]",
          "name": "",
          "type": "uint256[]"
        }
      ],
      "stateMutability": "view",
      "type": "function"
    },
    {
      "inputs": [
        {
          "internalType": "uint256",
          "name": "tokenId",
          "type": "uint256"
        }
      ],
      "name": "ownerOf",
      "outputs": [
        {
          "internalType": "address",
          "name": "",
          "type": "address"
        }
      ],
      "stateMutability": "view",
      "type": "function"
    },
    {
      "inputs": [],
      "name": "renounceAdmin",
      "outputs": [],
      "stateMutability": "nonpayable",
      "type": "function"
    },
    {
      "inputs": [
        {
          "internalType": "bytes32",
          "name": "role",
          "type": "bytes32"
        },
        {
          "internalType": "address",
          "name": "account",
          "type": "address"
        }
      ],
      "name": "renounceRole",
      "outputs": [],
      "stateMutability": "nonpayable",
      "type": "function"
    },
    {
      "inputs": [
        {
          "internalType": "address",
          "name": "account",
          "type": "address"
        }
      ],
      "name": "revokeHospitalRole",
      "outputs": [],
      "stateMutability": "nonpayable",
      "type": "function"
    },
    {
      "inputs": [
        {
          "internalType": "address",
          "name": "account",
          "type": "address"
        }
      ],
      "name": "revokeRedCrossRole",
      "outputs": [],
      "stateMutability": "nonpayable",
      "type": "function"
    },
    {
      "inputs": [
        {
          "internalType": "bytes32",
          "name": "role",
          "type": "bytes32"
        },
        {
          "internalType": "address",
          "name": "account",
          "type": "address"
        }
      ],
      "name": "revokeRole",
      "outputs": [],
      "stateMutability": "nonpayable",
      "type": "function"
    },
    {
      "inputs": [
        {
          "internalType": "address",
          "name": "from",
          "type": "address"
        },
        {
          "internalType": "address",
          "name": "to",
          "type": "address"
        },
        {
          "internalType": "uint256",
          "name": "tokenId",
          "type": "uint256"
        }
      ],
      "name": "safeTransferFrom",
      "outputs": [],
      "stateMutability": "nonpayable",
      "type": "function"
    },
    {
      "inputs": [
        {
          "internalType": "address",
          "name": "from",
          "type": "address"
        },
        {
          "internalType": "address",
          "name": "to",
          "type": "address"
        },
        {
          "internalType": "uint256",
          "name": "tokenId",
          "type": "uint256"
        },
        {
          "internalType": "bytes",
          "name": "data",
          "type": "bytes"
        }
      ],
      "name": "safeTransferFrom",
      "outputs": [],
      "stateMutability": "nonpayable",
      "type": "function"
    },
    {
      "inputs": [
        {
          "internalType": "address",
          "name": "operator",
          "type": "address"
        },
        {
          "internalType": "bool",
          "name": "approved",
          "type": "bool"
        }
      ],
      "name": "setApprovalForAll",
      "outputs": [],
      "stateMutability": "nonpayable",
      "type": "function"
    },
    {
      "inputs": [
        {
          "internalType": "string",
          "name": "_newNotUsedURI",
          "type": "string"
        }
      ],
      "name": "setNotUsedURI",
      "outputs": [],
      "stateMutability": "nonpayable",
      "type": "function"
    },
    {
      "inputs": [
        {
          "internalType": "string",
          "name": "_newUsedURI",
          "type": "string"
        }
      ],
      "name": "setUsedURI",
      "outputs": [],
      "stateMutability": "nonpayable",
      "type": "function"
    },
    {
      "inputs": [
        {
          "internalType": "bytes4",
          "name": "interfaceId",
          "type": "bytes4"
        }
      ],
      "name": "supportsInterface",
      "outputs": [
        {
          "internalType": "bool",
          "name": "",
          "type": "bool"
        }
      ],
      "stateMutability": "view",
      "type": "function"
    },
    {
      "inputs": [],
      "name": "symbol",
      "outputs": [
        {
          "internalType": "string",
          "name": "",
          "type": "string"
        }
      ],
      "stateMutability": "view",
      "type": "function"
    },
    {
      "inputs": [
        {
          "internalType": "uint256",
          "name": "index",
          "type": "uint256"
        }
      ],
      "name": "tokenByIndex",
      "outputs": [
        {
          "internalType": "uint256",
          "name": "",
          "type": "uint256"
        }
      ],
      "stateMutability": "view",
      "type": "function"
    },
    {
      "inputs": [
        {
          "internalType": "address",
          "name": "owner",
          "type": "address"
        },
        {
          "internalType": "uint256",
          "name": "index",
          "type": "uint256"
        }
      ],
      "name": "tokenOfOwnerByIndex",
      "outputs": [
        {
          "internalType": "uint256",
          "name": "",
          "type": "uint256"
        }
      ],
      "stateMutability": "view",
      "type": "function"
    },
    {
      "inputs": [
        {
          "internalType": "uint256",
          "name": "tokenId",
          "type": "uint256"
        }
      ],
      "name": "tokenURI",
      "outputs": [
        {
          "internalType": "string",
          "name": "",
          "type": "string"
        }
      ],
      "stateMutability": "view",
      "type": "function"
    },
    {
      "inputs": [],
      "name": "totalSupply",
      "outputs": [
        {
          "internalType": "uint256",
          "name": "",
          "type": "uint256"
        }
      ],
      "stateMutability": "view",
      "type": "function"
    },
    {
      "inputs": [
        {
          "internalType": "address",
          "name": "from",
          "type": "address"
        },
        {
          "internalType": "address",
          "name": "to",
          "type": "address"
        },
        {
          "internalType": "uint256",
          "name": "tokenId",
          "type": "uint256"
        }
      ],
      "name": "transferFrom",
      "outputs": [],
      "stateMutability": "nonpayable",
      "type": "function"
    },
    {
      "inputs": [
        {
          "internalType": "uint256",
          "name": "tokenId",
          "type": "uint256"
        },
        {
          "internalType": "address",
          "name": "to",
          "type": "address"
        }
      ],
      "name": "transferOwnership",
      "outputs": [],
      "stateMutability": "nonpayable",
      "type": "function"
    },
    {
      "inputs": [
        {
          "internalType": "uint256",
          "name": "_tokenId",
          "type": "uint256"
        }
      ],
      "name": "use",
      "outputs": [],
      "stateMutability": "nonpayable",
      "type": "function"
    },
    {
      "inputs": [
        {
          "internalType": "uint256[]",
          "name": "tokenIds",
          "type": "uint256[]"
        }
      ],
      "name": "useBatch",
      "outputs": [],
      "stateMutability": "nonpayable",
      "type": "function"
    },
    {
      "inputs": [],
      "name": "used",
      "outputs": [
        {
          "internalType": "bool",
          "name": "",
          "type": "bool"
        }
      ],
      "stateMutability": "view",
      "type": "function"
    }
  ],
  "bytecode": "0x6080604052604051806060016040528060358152602001620065f160359139600f90816200002e919062000506565b50604051806060016040528060358152602001620065bc603591396010908162000059919062000506565b506000601160006101000a81548160ff0219169083151502179055503480156200008257600080fd5b5060405162006626380380620066268339818101604052810190620000a8919062000751565b81818160009081620000bb919062000506565b508060019081620000cd919062000506565b50505081600b9081620000e1919062000506565b5080600c9081620000f3919062000506565b50620001096000801b336200011160201b60201c565b5050620007d6565b6200012382826200012760201b60201c565b5050565b6200013982826200021960201b60201c565b62000215576001600a600084815260200190815260200160002060000160008373ffffffffffffffffffffffffffffffffffffffff1673ffffffffffffffffffffffffffffffffffffffff16815260200190815260200160002060006101000a81548160ff021916908315150217905550620001ba6200028460201b60201c565b73ffffffffffffffffffffffffffffffffffffffff168173ffffffffffffffffffffffffffffffffffffffff16837f2f8788117e7eff1d82e926ec794901d17c78024a50270940304540a733656f0d60405160405180910390a45b5050565b6000600a600084815260200190815260200160002060000160008373ffffffffffffffffffffffffffffffffffffffff1673ffffffffffffffffffffffffffffffffffffffff16815260200190815260200160002060009054906101000a900460ff16905092915050565b600033905090565b600081519050919050565b7f4e487b7100000000000000000000000000000000000000000000000000000000600052604160045260246000fd5b7f4e487b7100000000000000000000000000000000000000000000000000000000600052602260045260246000fd5b600060028204905060018216806200030e57607f821691505b602082108103620003245762000323620002c6565b5b50919050565b60008190508160005260206000209050919050565b60006020601f8301049050919050565b600082821b905092915050565b6000600883026200038e7fffffffffffffffffffffffffffffffffffffffffffffffffffffffffffffffff826200034f565b6200039a86836200034f565b95508019841693508086168417925050509392505050565b6000819050919050565b6000819050919050565b6000620003e7620003e1620003db84620003b2565b620003bc565b620003b2565b9050919050565b6000819050919050565b6200040383620003c6565b6200041b6200041282620003ee565b8484546200035c565b825550505050565b600090565b6200043262000423565b6200043f818484620003f8565b505050565b5b8181101562000467576200045b60008262000428565b60018101905062000445565b5050565b601f821115620004b65762000480816200032a565b6200048b846200033f565b810160208510156200049b578190505b620004b3620004aa856200033f565b83018262000444565b50505b505050565b600082821c905092915050565b6000620004db60001984600802620004bb565b1980831691505092915050565b6000620004f68383620004c8565b9150826002028217905092915050565b62000511826200028c565b67ffffffffffffffff8111156200052d576200052c62000297565b5b620005398254620002f5565b620005468282856200046b565b600060209050601f8311600181146200057e576000841562000569578287015190505b620005758582620004e8565b865550620005e5565b601f1984166200058e866200032a565b60005b82811015620005b85784890151825560018201915060208501945060208101905062000591565b86831015620005d85784890151620005d4601f891682620004c8565b8355505b6001600288020188555050505b505050505050565b6000604051905090565b600080fd5b600080fd5b600080fd5b600080fd5b6000601f19601f8301169050919050565b62000627826200060b565b810181811067ffffffffffffffff8211171562000649576200064862000297565b5b80604052505050565b60006200065e620005ed565b90506200066c82826200061c565b919050565b600067ffffffffffffffff8211156200068f576200068e62000297565b5b6200069a826200060b565b9050602081019050919050565b60005b83811015620006c7578082015181840152602081019050620006aa565b60008484015250505050565b6000620006ea620006e48462000671565b62000652565b90508281526020810184848401111562000709576200070862000606565b5b62000716848285620006a7565b509392505050565b600082601f83011262000736576200073562000601565b5b815162000748848260208601620006d3565b91505092915050565b600080604083850312156200076b576200076a620005f7565b5b600083015167ffffffffffffffff8111156200078c576200078b620005fc565b5b6200079a858286016200071e565b925050602083015167ffffffffffffffff811115620007be57620007bd620005fc565b5b620007cc858286016200071e565b9150509250929050565b615dd680620007e66000396000f3fe608060405234801561001057600080fd5b50600436106102a05760003560e01c806363898e2b11610167578063a0562f69116100ce578063c87b56dd11610087578063c87b56dd14610821578063d547741f14610851578063e386be2e1461086d578063e985e9c514610889578063ed54e96a146108b9578063f639ec79146108ef576102a0565b8063a0562f6914610775578063a217fddf14610791578063a22cb465146107af578063ab5b4456146107cb578063b0806ea7146107e7578063b88d4fde14610805576102a0565b80637ee756f2116101205780637ee756f2146106af57806389d04f00146106cb5780638bad0c0a1461070157806391d148541461070b57806395a805951461073b57806395d89b4114610757576102a0565b806363898e2b146105f1578063704802751461060f57806370a082311461062b5780637b3dc4ef1461065b5780637def8928146106775780637e11f03c14610693576102a0565b80632f2ff15d1161020b57806342842e0e116101c457806342842e0e1461051d5780634f6ccce71461053957806354d0c549146105695780635bf47d9d146105875780635dd9727d146105a35780636352211e146105c1576102a0565b80632f2ff15d1461044d5780632f745c5914610469578063330de61a14610499578063353acb33146104b557806336568abe146104d15780633751d134146104ed576102a0565b806323b872dd1161025d57806323b872dd1461038d578063248a9ca3146103a957806327bbe7ee146103d9578063280a337d146103f757806329507f73146104135780632de31f3c1461042f576102a0565b806301ffc9a7146102a557806303022c05146102d557806306fdde0314610305578063081812fc14610323578063095ea7b31461035357806318160ddd1461036f575b600080fd5b6102bf60048036038101906102ba9190613e7d565b61090b565b6040516102cc9190613ec5565b60405180910390f35b6102ef60048036038101906102ea9190613f3e565b61091d565b6040516102fc9190614033565b60405180910390f35b61030d6109b4565b60405161031a91906140e5565b60405180910390f35b61033d60048036038101906103389190614133565b610a46565b60405161034a919061416f565b60405180910390f35b61036d6004803603810190610368919061418a565b610a8c565b005b610377610ba3565b60405161038491906141d9565b60405180910390f35b6103a760048036038101906103a291906141f4565b610bb0565b005b6103c360048036038101906103be919061427d565b610c10565b6040516103d091906142b9565b60405180910390f35b6103e1610c30565b6040516103ee91906142b9565b60405180910390f35b610411600480360381019061040c9190613f3e565b610c54565b005b61042d600480360381019061042891906142d4565b610c8f565b005b610437610d1f565b60405161044491906140e5565b60405180910390f35b61046760048036038101906104629190614314565b610db1565b005b610483600480360381019061047e919061418a565b610dd2565b60405161049091906141d9565b60405180910390f35b6104b360048036038101906104ae9190613f3e565b610e77565b005b6104cf60048036038101906104ca9190614489565b610eb2565b005b6104eb60048036038101906104e69190614314565b6111b3565b005b61050760048036038101906105029190614133565b611236565b6040516105149190613ec5565b60405180910390f35b610537600480360381019061053291906141f4565b611263565b005b610553600480360381019061054e9190614133565b611283565b60405161056091906141d9565b60405180910390f35b6105716112f4565b60405161057e91906140e5565b60405180910390f35b6105a1600480360381019061059c9190614544565b611386565b005b6105ab6113a7565b6040516105b891906141d9565b60405180910390f35b6105db60048036038101906105d69190614133565b6113b6565b6040516105e8919061416f565b60405180910390f35b6105f961143c565b6040516106069190613ec5565b60405180910390f35b61062960048036038101906106249190613f3e565b61144f565b005b61064560048036038101906106409190613f3e565b61146d565b60405161065291906141d9565b60405180910390f35b61067560048036038101906106709190613f3e565b611524565b005b610691600480360381019061068c9190614544565b611551565b005b6106ad60048036038101906106a89190614655565b611572565b005b6106c960048036038101906106c49190613f3e565b611627565b005b6106e560048036038101906106e09190614133565b611662565b6040516106f8979695949392919061469e565b60405180910390f35b6107096118d1565b005b61072560048036038101906107209190614314565b6118ee565b6040516107329190613ec5565b60405180910390f35b61075560048036038101906107509190613f3e565b611959565b005b61075f611994565b60405161076c91906140e5565b60405180910390f35b61078f600480360381019061078a9190613f3e565b611a26565b005b610799611a53565b6040516107a691906142b9565b60405180910390f35b6107c960048036038101906107c49190614755565b611a5a565b005b6107e560048036038101906107e09190614133565b611a70565b005b6107ef611c64565b6040516107fc91906142b9565b60405180910390f35b61081f600480360381019061081a9190614836565b611c88565b005b61083b60048036038101906108369190614133565b611cea565b60405161084891906140e5565b60405180910390f35b61086b60048036038101906108669190614314565b611dda565b005b61088760048036038101906108829190613f3e565b611dfb565b005b6108a3600480360381019061089e91906148b9565b611e0b565b6040516108b09190613ec5565b60405180910390f35b6108d360048036038101906108ce9190614133565b611e9f565b6040516108e697969594939291906149b7565b60405180910390f35b61090960048036038101906109049190614a49565b612270565b005b60006109168261238e565b9050919050565b6060600e60008373ffffffffffffffffffffffffffffffffffffffff1673ffffffffffffffffffffffffffffffffffffffff1681526020019081526020016000208054806020026020016040519081016040528092919081815260200182805480156109a857602002820191906000526020600020905b815481526020019060010190808311610994575b50505050509050919050565b6060600b80546109c390614ad4565b80601f01602080910402602001604051908101604052809291908181526020018280546109ef90614ad4565b8015610a3c5780601f10610a1157610100808354040283529160200191610a3c565b820191906000526020600020905b815481529060010190602001808311610a1f57829003601f168201915b5050505050905090565b6000610a5182612408565b6004600083815260200190815260200160002060009054906101000a900473ffffffffffffffffffffffffffffffffffffffff169050919050565b6000610a97826113b6565b90508073ffffffffffffffffffffffffffffffffffffffff168373ffffffffffffffffffffffffffffffffffffffff1603610b07576040517f08c379a0000000000000000000000000000000000000000000000000000000008152600401610afe90614b77565b60405180910390fd5b8073ffffffffffffffffffffffffffffffffffffffff16610b26612453565b73ffffffffffffffffffffffffffffffffffffffff161480610b555750610b5481610b4f612453565b611e0b565b5b610b94576040517f08c379a0000000000000000000000000000000000000000000000000000000008152600401610b8b90614c09565b60405180910390fd5b610b9e838361245b565b505050565b6000600880549050905090565b610bc1610bbb612453565b82612514565b610c00576040517f08c379a0000000000000000000000000000000000000000000000000000000008152600401610bf790614c9b565b60405180910390fd5b610c0b8383836125a9565b505050565b6000600a6000838152602001908152602001600020600101549050919050565b7f72d66193ff00a845b4aed5f27e02d9b558ef32be1495a41d00c5c5fb191a076381565b6000801b610c61816128a2565b610c8b7f60460dbe4b1f79d9efa1691d671057dc56200fed92b7dc0eb552fafb819b082c83610db1565b5050565b610c9a338284611263565b600d6000838152602001908152602001600020600101819080600181540180825580915050600190039060005260206000200160009091909190916101000a81548173ffffffffffffffffffffffffffffffffffffffff021916908373ffffffffffffffffffffffffffffffffffffffff160217905550610d1b33836128b6565b5050565b606060108054610d2e90614ad4565b80601f0160208091040260200160405190810160405280929190818152602001828054610d5a90614ad4565b8015610da75780601f10610d7c57610100808354040283529160200191610da7565b820191906000526020600020905b815481529060010190602001808311610d8a57829003601f168201915b5050505050905090565b610dba82610c10565b610dc3816128a2565b610dcd8383612b56565b505050565b6000610ddd8361146d565b8210610e1e576040517f08c379a0000000000000000000000000000000000000000000000000000000008152600401610e1590614d2d565b60405180910390fd5b600660008473ffffffffffffffffffffffffffffffffffffffff1673ffffffffffffffffffffffffffffffffffffffff168152602001908152602001600020600083815260200190815260200160002054905092915050565b6000801b610e84816128a2565b610eae7f60460dbe4b1f79d9efa1691d671057dc56200fed92b7dc0eb552fafb819b082c83612c37565b5050565b7f60460dbe4b1f79d9efa1691d671057dc56200fed92b7dc0eb552fafb819b082c610edc816128a2565b60006001610ee8610ba3565b610ef29190614d7c565b9050610efe8382612d19565b60606000604051806101000160405280848152602001838152602001600f8054610f2790614ad4565b80601f0160208091040260200160405190810160405280929190818152602001828054610f5390614ad4565b8015610fa05780601f10610f7557610100808354040283529160200191610fa0565b820191906000526020600020905b815481529060010190602001808311610f8357829003601f168201915b5050505050815260200189815260200188815260200187815260200142815260200160001515815250905080600d6000858152602001908152602001600020600082015181600001556020820151816001019080519060200190611005929190613d6a565b50604082015181600201908161101b9190614f5c565b5060608201518160030190816110319190614f5c565b5060808201518160040190816110479190614f5c565b5060a082015181600501908161105d9190614f5c565b5060c0820151816006015560e08201518160070160006101000a81548160ff021916908315150217905550905050600d6000848152602001908152602001600020600101859080600181540180825580915050600190039060005260206000200160009091909190916101000a81548173ffffffffffffffffffffffffffffffffffffffff021916908373ffffffffffffffffffffffffffffffffffffffff160217905550600e60008673ffffffffffffffffffffffffffffffffffffffff1673ffffffffffffffffffffffffffffffffffffffff168152602001908152602001600020839080600181540180825580915050600190039060005260206000200160009091909190915055827f94da8b1f54d6b112f33b8d347f164fc8f25cd951a157bcc7493673b7cadbf363600f8a8a8a426040516111a19594939291906150b2565b60405180910390a25050505050505050565b6111bb612453565b73ffffffffffffffffffffffffffffffffffffffff168173ffffffffffffffffffffffffffffffffffffffff1614611228576040517f08c379a000000000000000000000000000000000000000000000000000000000815260040161121f90615193565b60405180910390fd5b6112328282612c37565b5050565b6000600d600083815260200190815260200160002060070160009054906101000a900460ff169050919050565b61127e83838360405180602001604052806000815250611c88565b505050565b600061128d610ba3565b82106112ce576040517f08c379a00000000000000000000000000000000000000000000000000000000081526004016112c590615225565b60405180910390fd5b600882815481106112e2576112e1615245565b5b90600052602060002001549050919050565b6060600f805461130390614ad4565b80601f016020809104026020016040519081016040528092919081815260200182805461132f90614ad4565b801561137c5780601f106113515761010080835404028352916020019161137c565b820191906000526020600020905b81548152906001019060200180831161135f57829003601f168201915b5050505050905090565b6000801b611393816128a2565b81601090816113a29190614f5c565b505050565b60006113b1610ba3565b905090565b6000806113c283612f36565b9050600073ffffffffffffffffffffffffffffffffffffffff168173ffffffffffffffffffffffffffffffffffffffff1603611433576040517f08c379a000000000000000000000000000000000000000000000000000000000815260040161142a906152c0565b60405180910390fd5b80915050919050565b601160009054906101000a900460ff1681565b6000801b61145c816128a2565b6114696000801b83610db1565b5050565b60008073ffffffffffffffffffffffffffffffffffffffff168273ffffffffffffffffffffffffffffffffffffffff16036114dd576040517f08c379a00000000000000000000000000000000000000000000000000000000081526004016114d490615352565b60405180910390fd5b600360008373ffffffffffffffffffffffffffffffffffffffff1673ffffffffffffffffffffffffffffffffffffffff168152602001908152602001600020549050919050565b61154e7f72d66193ff00a845b4aed5f27e02d9b558ef32be1495a41d00c5c5fb191a076382612f73565b50565b6000801b61155e816128a2565b81600f908161156d9190614f5c565b505050565b7f72d66193ff00a845b4aed5f27e02d9b558ef32be1495a41d00c5c5fb191a076361159c816128a2565b60008251116115e0576040517f08c379a00000000000000000000000000000000000000000000000000000000081526004016115d7906153be565b60405180910390fd5b60005b82518110156116225761160f83828151811061160257611601615245565b5b6020026020010151611a70565b808061161a906153de565b9150506115e3565b505050565b6000801b611634816128a2565b61165e7f72d66193ff00a845b4aed5f27e02d9b558ef32be1495a41d00c5c5fb191a076383610db1565b5050565b600d60205280600052604060002060009150905080600001549080600201805461168b90614ad4565b80601f01602080910402602001604051908101604052809291908181526020018280546116b790614ad4565b80156117045780601f106116d957610100808354040283529160200191611704565b820191906000526020600020905b8154815290600101906020018083116116e757829003601f168201915b50505050509080600301805461171990614ad4565b80601f016020809104026020016040519081016040528092919081815260200182805461174590614ad4565b80156117925780601f1061176757610100808354040283529160200191611792565b820191906000526020600020905b81548152906001019060200180831161177557829003601f168201915b5050505050908060040180546117a790614ad4565b80601f01602080910402602001604051908101604052809291908181526020018280546117d390614ad4565b80156118205780601f106117f557610100808354040283529160200191611820565b820191906000526020600020905b81548152906001019060200180831161180357829003601f168201915b50505050509080600501805461183590614ad4565b80601f016020809104026020016040519081016040528092919081815260200182805461186190614ad4565b80156118ae5780601f10611883576101008083540402835291602001916118ae565b820191906000526020600020905b81548152906001019060200180831161189157829003601f168201915b5050505050908060060154908060070160009054906101000a900460ff16905087565b6000801b6118de816128a2565b6118eb6000801b336111b3565b50565b6000600a600084815260200190815260200160002060000160008373ffffffffffffffffffffffffffffffffffffffff1673ffffffffffffffffffffffffffffffffffffffff16815260200190815260200160002060009054906101000a900460ff16905092915050565b6000801b611966816128a2565b6119907f72d66193ff00a845b4aed5f27e02d9b558ef32be1495a41d00c5c5fb191a076383612c37565b5050565b6060600c80546119a390614ad4565b80601f01602080910402602001604051908101604052809291908181526020018280546119cf90614ad4565b8015611a1c5780601f106119f157610100808354040283529160200191611a1c565b820191906000526020600020905b8154815290600101906020018083116119ff57829003601f168201915b5050505050905090565b611a507f60460dbe4b1f79d9efa1691d671057dc56200fed92b7dc0eb552fafb819b082c82612f73565b50565b6000801b81565b611a6c611a65612453565b8383612ff8565b5050565b7f72d66193ff00a845b4aed5f27e02d9b558ef32be1495a41d00c5c5fb191a0763611a9a816128a2565b600d60008381526020019081526020016000206001016001600d600085815260200190815260200160002060010180549050611ad69190615426565b81548110611ae757611ae6615245565b5b9060005260206000200160009054906101000a900473ffffffffffffffffffffffffffffffffffffffff1673ffffffffffffffffffffffffffffffffffffffff163373ffffffffffffffffffffffffffffffffffffffff1614611b7f576040517f08c379a0000000000000000000000000000000000000000000000000000000008152600401611b76906154a6565b60405180910390fd5b60001515600d600084815260200190815260200160002060070160009054906101000a900460ff16151514611be9576040517f08c379a0000000000000000000000000000000000000000000000000000000008152600401611be090615512565b60405180910390fd5b600d600083815260200190815260200160002060070160009054906101000a900460ff1615600d600084815260200190815260200160002060070160006101000a81548160ff0219169083151502179055506010600d60008481526020019081526020016000206002019081611c5f919061555d565b505050565b7f60460dbe4b1f79d9efa1691d671057dc56200fed92b7dc0eb552fafb819b082c81565b611c99611c93612453565b83612514565b611cd8576040517f08c379a0000000000000000000000000000000000000000000000000000000008152600401611ccf90614c9b565b60405180910390fd5b611ce484848484613164565b50505050565b6060611cf5826131c0565b611d34576040517f08c379a0000000000000000000000000000000000000000000000000000000008152600401611d2b90615691565b60405180910390fd5b600d60008381526020019081526020016000206002018054611d5590614ad4565b80601f0160208091040260200160405190810160405280929190818152602001828054611d8190614ad4565b8015611dce5780601f10611da357610100808354040283529160200191611dce565b820191906000526020600020905b815481529060010190602001808311611db157829003601f168201915b50505050509050919050565b611de382610c10565b611dec816128a2565b611df68383612c37565b505050565b611e086000801b82612f73565b50565b6000600560008473ffffffffffffffffffffffffffffffffffffffff1673ffffffffffffffffffffffffffffffffffffffff16815260200190815260200160002060008373ffffffffffffffffffffffffffffffffffffffff1673ffffffffffffffffffffffffffffffffffffffff16815260200190815260200160002060009054906101000a900460ff16905092915050565b60006060806060806060600080600d60008a81526020019081526020016000206000015403611f03576040517f08c379a0000000000000000000000000000000000000000000000000000000008152600401611efa906156fd565b60405180910390fd5b600d600089815260200190815260200160002060000154600d60008a8152602001908152602001600020600101600d60008b8152602001908152602001600020600201600d60008c8152602001908152602001600020600301600d60008d8152602001908152602001600020600401600d60008e8152602001908152602001600020600501600d60008f8152602001908152602001600020600601548580548060200260200160405190810160405280929190818152602001828054801561202057602002820191906000526020600020905b8160009054906101000a900473ffffffffffffffffffffffffffffffffffffffff1673ffffffffffffffffffffffffffffffffffffffff1681526020019060010190808311611fd6575b5050505050955084805461203390614ad4565b80601f016020809104026020016040519081016040528092919081815260200182805461205f90614ad4565b80156120ac5780601f10612081576101008083540402835291602001916120ac565b820191906000526020600020905b81548152906001019060200180831161208f57829003601f168201915b505050505094508380546120bf90614ad4565b80601f01602080910402602001604051908101604052809291908181526020018280546120eb90614ad4565b80156121385780601f1061210d57610100808354040283529160200191612138565b820191906000526020600020905b81548152906001019060200180831161211b57829003601f168201915b5050505050935082805461214b90614ad4565b80601f016020809104026020016040519081016040528092919081815260200182805461217790614ad4565b80156121c45780601f10612199576101008083540402835291602001916121c4565b820191906000526020600020905b8154815290600101906020018083116121a757829003601f168201915b505050505092508180546121d790614ad4565b80601f016020809104026020016040519081016040528092919081815260200182805461220390614ad4565b80156122505780601f1061222557610100808354040283529160200191612250565b820191906000526020600020905b81548152906001019060200180831161223357829003601f168201915b505050505091509650965096509650965096509650919395979092949650565b60008251116122b4576040517f08c379a00000000000000000000000000000000000000000000000000000000081526004016122ab906153be565b60405180910390fd5b60005b8251811015612389576122e533838584815181106122d8576122d7615245565b5b6020026020010151611263565b600d60008483815181106122fc576122fb615245565b5b60200260200101518152602001908152602001600020600101829080600181540180825580915050600190039060005260206000200160009091909190916101000a81548173ffffffffffffffffffffffffffffffffffffffff021916908373ffffffffffffffffffffffffffffffffffffffff1602179055508080612381906153de565b9150506122b7565b505050565b60007f7965db0b000000000000000000000000000000000000000000000000000000007bffffffffffffffffffffffffffffffffffffffffffffffffffffffff1916827bffffffffffffffffffffffffffffffffffffffffffffffffffffffff19161480612401575061240082613201565b5b9050919050565b612411816131c0565b612450576040517f08c379a0000000000000000000000000000000000000000000000000000000008152600401612447906152c0565b60405180910390fd5b50565b600033905090565b816004600083815260200190815260200160002060006101000a81548173ffffffffffffffffffffffffffffffffffffffff021916908373ffffffffffffffffffffffffffffffffffffffff160217905550808273ffffffffffffffffffffffffffffffffffffffff166124ce836113b6565b73ffffffffffffffffffffffffffffffffffffffff167f8c5be1e5ebec7d5bd14f71427d1e84f3dd0314c0f7b2291e5b200ac8c7c3b92560405160405180910390a45050565b600080612520836113b6565b90508073ffffffffffffffffffffffffffffffffffffffff168473ffffffffffffffffffffffffffffffffffffffff16148061256257506125618185611e0b565b5b806125a057508373ffffffffffffffffffffffffffffffffffffffff1661258884610a46565b73ffffffffffffffffffffffffffffffffffffffff16145b91505092915050565b8273ffffffffffffffffffffffffffffffffffffffff166125c9826113b6565b73ffffffffffffffffffffffffffffffffffffffff161461261f576040517f08c379a00000000000000000000000000000000000000000000000000000000081526004016126169061578f565b60405180910390fd5b600073ffffffffffffffffffffffffffffffffffffffff168273ffffffffffffffffffffffffffffffffffffffff160361268e576040517f08c379a000000000000000000000000000000000000000000000000000000000815260040161268590615821565b60405180910390fd5b61269b838383600161327b565b8273ffffffffffffffffffffffffffffffffffffffff166126bb826113b6565b73ffffffffffffffffffffffffffffffffffffffff1614612711576040517f08c379a00000000000000000000000000000000000000000000000000000000081526004016127089061578f565b60405180910390fd5b6004600082815260200190815260200160002060006101000a81549073ffffffffffffffffffffffffffffffffffffffff02191690556001600360008573ffffffffffffffffffffffffffffffffffffffff1673ffffffffffffffffffffffffffffffffffffffff168152602001908152602001600020600082825403925050819055506001600360008473ffffffffffffffffffffffffffffffffffffffff1673ffffffffffffffffffffffffffffffffffffffff16815260200190815260200160002060008282540192505081905550816002600083815260200190815260200160002060006101000a81548173ffffffffffffffffffffffffffffffffffffffff021916908373ffffffffffffffffffffffffffffffffffffffff160217905550808273ffffffffffffffffffffffffffffffffffffffff168473ffffffffffffffffffffffffffffffffffffffff167fddf252ad1be2c89b69c2b068fc378daa952ba7f163c4a11628f55a4df523b3ef60405160405180910390a461289d83838360016133d9565b505050565b6128b3816128ae612453565b612f73565b50565b60006001600e60008573ffffffffffffffffffffffffffffffffffffffff1673ffffffffffffffffffffffffffffffffffffffff168152602001908152602001600020805490506129079190615426565b905060005b600e60008573ffffffffffffffffffffffffffffffffffffffff1673ffffffffffffffffffffffffffffffffffffffff16815260200190815260200160002080549050811015612aeb57600e60008573ffffffffffffffffffffffffffffffffffffffff1673ffffffffffffffffffffffffffffffffffffffff16815260200190815260200160002081815481106129a7576129a6615245565b5b90600052602060002001548303612ad857600e60008573ffffffffffffffffffffffffffffffffffffffff1673ffffffffffffffffffffffffffffffffffffffff1681526020019081526020016000208281548110612a0957612a08615245565b5b9060005260206000200154600e60008673ffffffffffffffffffffffffffffffffffffffff1673ffffffffffffffffffffffffffffffffffffffff1681526020019081526020016000208281548110612a6557612a64615245565b5b906000526020600020018190555082600e60008673ffffffffffffffffffffffffffffffffffffffff1673ffffffffffffffffffffffffffffffffffffffff1681526020019081526020016000208381548110612ac557612ac4615245565b5b9060005260206000200181905550612aeb565b8080612ae3906153de565b91505061290c565b50600e60008473ffffffffffffffffffffffffffffffffffffffff1673ffffffffffffffffffffffffffffffffffffffff168152602001908152602001600020805480612b3b57612b3a615841565b5b60019003818190600052602060002001600090559055505050565b612b6082826118ee565b612c33576001600a600084815260200190815260200160002060000160008373ffffffffffffffffffffffffffffffffffffffff1673ffffffffffffffffffffffffffffffffffffffff16815260200190815260200160002060006101000a81548160ff021916908315150217905550612bd8612453565b73ffffffffffffffffffffffffffffffffffffffff168173ffffffffffffffffffffffffffffffffffffffff16837f2f8788117e7eff1d82e926ec794901d17c78024a50270940304540a733656f0d60405160405180910390a45b5050565b612c4182826118ee565b15612d15576000600a600084815260200190815260200160002060000160008373ffffffffffffffffffffffffffffffffffffffff1673ffffffffffffffffffffffffffffffffffffffff16815260200190815260200160002060006101000a81548160ff021916908315150217905550612cba612453565b73ffffffffffffffffffffffffffffffffffffffff168173ffffffffffffffffffffffffffffffffffffffff16837ff6391f5c32d9c69d2a47ea670b442974b53935d1edc7fd64eb21e047a839171b60405160405180910390a45b5050565b600073ffffffffffffffffffffffffffffffffffffffff168273ffffffffffffffffffffffffffffffffffffffff1603612d88576040517f08c379a0000000000000000000000000000000000000000000000000000000008152600401612d7f906158bc565b60405180910390fd5b612d91816131c0565b15612dd1576040517f08c379a0000000000000000000000000000000000000000000000000000000008152600401612dc890615928565b60405180910390fd5b612ddf60008383600161327b565b612de8816131c0565b15612e28576040517f08c379a0000000000000000000000000000000000000000000000000000000008152600401612e1f90615928565b60405180910390fd5b6001600360008473ffffffffffffffffffffffffffffffffffffffff1673ffffffffffffffffffffffffffffffffffffffff16815260200190815260200160002060008282540192505081905550816002600083815260200190815260200160002060006101000a81548173ffffffffffffffffffffffffffffffffffffffff021916908373ffffffffffffffffffffffffffffffffffffffff160217905550808273ffffffffffffffffffffffffffffffffffffffff16600073ffffffffffffffffffffffffffffffffffffffff167fddf252ad1be2c89b69c2b068fc378daa952ba7f163c4a11628f55a4df523b3ef60405160405180910390a4612f326000838360016133d9565b5050565b60006002600083815260200190815260200160002060009054906101000a900473ffffffffffffffffffffffffffffffffffffffff169050919050565b612f7d82826118ee565b612ff457612f8a816133df565b612f988360001c602061340c565b604051602001612fa9929190615a1c565b6040516020818303038152906040526040517f08c379a0000000000000000000000000000000000000000000000000000000008152600401612feb91906140e5565b60405180910390fd5b5050565b8173ffffffffffffffffffffffffffffffffffffffff168373ffffffffffffffffffffffffffffffffffffffff1603613066576040517f08c379a000000000000000000000000000000000000000000000000000000000815260040161305d90615aa2565b60405180910390fd5b80600560008573ffffffffffffffffffffffffffffffffffffffff1673ffffffffffffffffffffffffffffffffffffffff16815260200190815260200160002060008473ffffffffffffffffffffffffffffffffffffffff1673ffffffffffffffffffffffffffffffffffffffff16815260200190815260200160002060006101000a81548160ff0219169083151502179055508173ffffffffffffffffffffffffffffffffffffffff168373ffffffffffffffffffffffffffffffffffffffff167f17307eab39ab6107e8899845ad3d59bd9653f200f220920489ca2b5937696c31836040516131579190613ec5565b60405180910390a3505050565b61316f8484846125a9565b61317b84848484613648565b6131ba576040517f08c379a00000000000000000000000000000000000000000000000000000000081526004016131b190615b34565b60405180910390fd5b50505050565b60008073ffffffffffffffffffffffffffffffffffffffff166131e283612f36565b73ffffffffffffffffffffffffffffffffffffffff1614159050919050565b60007f780e9d63000000000000000000000000000000000000000000000000000000007bffffffffffffffffffffffffffffffffffffffffffffffffffffffff1916827bffffffffffffffffffffffffffffffffffffffffffffffffffffffff191614806132745750613273826137cf565b5b9050919050565b613287848484846138b1565b60018111156132cb576040517f08c379a00000000000000000000000000000000000000000000000000000000081526004016132c290615bc6565b60405180910390fd5b6000829050600073ffffffffffffffffffffffffffffffffffffffff168573ffffffffffffffffffffffffffffffffffffffff16036133125761330d816139d7565b613351565b8373ffffffffffffffffffffffffffffffffffffffff168573ffffffffffffffffffffffffffffffffffffffff16146133505761334f8582613a20565b5b5b600073ffffffffffffffffffffffffffffffffffffffff168473ffffffffffffffffffffffffffffffffffffffff16036133935761338e81613b8d565b6133d2565b8473ffffffffffffffffffffffffffffffffffffffff168473ffffffffffffffffffffffffffffffffffffffff16146133d1576133d08482613c5e565b5b5b5050505050565b50505050565b60606134058273ffffffffffffffffffffffffffffffffffffffff16601460ff1661340c565b9050919050565b60606000600283600261341f9190615be6565b6134299190614d7c565b67ffffffffffffffff8111156134425761344161435e565b5b6040519080825280601f01601f1916602001820160405280156134745781602001600182028036833780820191505090505b5090507f3000000000000000000000000000000000000000000000000000000000000000816000815181106134ac576134ab615245565b5b60200101907effffffffffffffffffffffffffffffffffffffffffffffffffffffffffffff1916908160001a9053507f7800000000000000000000000000000000000000000000000000000000000000816001815181106135105761350f615245565b5b60200101907effffffffffffffffffffffffffffffffffffffffffffffffffffffffffffff1916908160001a905350600060018460026135509190615be6565b61355a9190614d7c565b90505b60018111156135fa577f3031323334353637383961626364656600000000000000000000000000000000600f86166010811061359c5761359b615245565b5b1a60f81b8282815181106135b3576135b2615245565b5b60200101907effffffffffffffffffffffffffffffffffffffffffffffffffffffffffffff1916908160001a905350600485901c9450806135f390615c28565b905061355d565b506000841461363e576040517f08c379a000000000000000000000000000000000000000000000000000000000815260040161363590615c9d565b60405180910390fd5b8091505092915050565b60006136698473ffffffffffffffffffffffffffffffffffffffff16613cdd565b156137c2578373ffffffffffffffffffffffffffffffffffffffff1663150b7a02613692612453565b8786866040518563ffffffff1660e01b81526004016136b49493929190615d12565b6020604051808303816000875af19250505080156136f057506040513d601f19601f820116820180604052508101906136ed9190615d73565b60015b613772573d8060008114613720576040519150601f19603f3d011682016040523d82523d6000602084013e613725565b606091505b50600081510361376a576040517f08c379a000000000000000000000000000000000000000000000000000000000815260040161376190615b34565b60405180910390fd5b805181602001fd5b63150b7a0260e01b7bffffffffffffffffffffffffffffffffffffffffffffffffffffffff1916817bffffffffffffffffffffffffffffffffffffffffffffffffffffffff1916149150506137c7565b600190505b949350505050565b60007f80ac58cd000000000000000000000000000000000000000000000000000000007bffffffffffffffffffffffffffffffffffffffffffffffffffffffff1916827bffffffffffffffffffffffffffffffffffffffffffffffffffffffff1916148061389a57507f5b5e139f000000000000000000000000000000000000000000000000000000007bffffffffffffffffffffffffffffffffffffffffffffffffffffffff1916827bffffffffffffffffffffffffffffffffffffffffffffffffffffffff1916145b806138aa57506138a982613d00565b5b9050919050565b60018111156139d157600073ffffffffffffffffffffffffffffffffffffffff168473ffffffffffffffffffffffffffffffffffffffff16146139455780600360008673ffffffffffffffffffffffffffffffffffffffff1673ffffffffffffffffffffffffffffffffffffffff168152602001908152602001600020600082825461393d9190615426565b925050819055505b600073ffffffffffffffffffffffffffffffffffffffff168373ffffffffffffffffffffffffffffffffffffffff16146139d05780600360008573ffffffffffffffffffffffffffffffffffffffff1673ffffffffffffffffffffffffffffffffffffffff16815260200190815260200160002060008282546139c89190614d7c565b925050819055505b5b50505050565b6008805490506009600083815260200190815260200160002081905550600881908060018154018082558091505060019003906000526020600020016000909190919091505550565b60006001613a2d8461146d565b613a379190615426565b9050600060076000848152602001908152602001600020549050818114613b1c576000600660008673ffffffffffffffffffffffffffffffffffffffff1673ffffffffffffffffffffffffffffffffffffffff168152602001908152602001600020600084815260200190815260200160002054905080600660008773ffffffffffffffffffffffffffffffffffffffff1673ffffffffffffffffffffffffffffffffffffffff168152602001908152602001600020600084815260200190815260200160002081905550816007600083815260200190815260200160002081905550505b6007600084815260200190815260200160002060009055600660008573ffffffffffffffffffffffffffffffffffffffff1673ffffffffffffffffffffffffffffffffffffffff16815260200190815260200160002060008381526020019081526020016000206000905550505050565b60006001600880549050613ba19190615426565b9050600060096000848152602001908152602001600020549050600060088381548110613bd157613bd0615245565b5b906000526020600020015490508060088381548110613bf357613bf2615245565b5b906000526020600020018190555081600960008381526020019081526020016000208190555060096000858152602001908152602001600020600090556008805480613c4257613c41615841565b5b6001900381819060005260206000200160009055905550505050565b6000613c698361146d565b905081600660008573ffffffffffffffffffffffffffffffffffffffff1673ffffffffffffffffffffffffffffffffffffffff168152602001908152602001600020600083815260200190815260200160002081905550806007600084815260200190815260200160002081905550505050565b6000808273ffffffffffffffffffffffffffffffffffffffff163b119050919050565b60007f01ffc9a7000000000000000000000000000000000000000000000000000000007bffffffffffffffffffffffffffffffffffffffffffffffffffffffff1916827bffffffffffffffffffffffffffffffffffffffffffffffffffffffff1916149050919050565b828054828255906000526020600020908101928215613de3579160200282015b82811115613de25782518260006101000a81548173ffffffffffffffffffffffffffffffffffffffff021916908373ffffffffffffffffffffffffffffffffffffffff16021790555091602001919060010190613d8a565b5b509050613df09190613df4565b5090565b5b80821115613e0d576000816000905550600101613df5565b5090565b6000604051905090565b600080fd5b600080fd5b60007fffffffff0000000000000000000000000000000000000000000000000000000082169050919050565b613e5a81613e25565b8114613e6557600080fd5b50565b600081359050613e7781613e51565b92915050565b600060208284031215613e9357613e92613e1b565b5b6000613ea184828501613e68565b91505092915050565b60008115159050919050565b613ebf81613eaa565b82525050565b6000602082019050613eda6000830184613eb6565b92915050565b600073ffffffffffffffffffffffffffffffffffffffff82169050919050565b6000613f0b82613ee0565b9050919050565b613f1b81613f00565b8114613f2657600080fd5b50565b600081359050613f3881613f12565b92915050565b600060208284031215613f5457613f53613e1b565b5b6000613f6284828501613f29565b91505092915050565b600081519050919050565b600082825260208201905092915050565b6000819050602082019050919050565b6000819050919050565b613faa81613f97565b82525050565b6000613fbc8383613fa1565b60208301905092915050565b6000602082019050919050565b6000613fe082613f6b565b613fea8185613f76565b9350613ff583613f87565b8060005b8381101561402657815161400d8882613fb0565b975061401883613fc8565b925050600181019050613ff9565b5085935050505092915050565b6000602082019050818103600083015261404d8184613fd5565b905092915050565b600081519050919050565b600082825260208201905092915050565b60005b8381101561408f578082015181840152602081019050614074565b60008484015250505050565b6000601f19601f8301169050919050565b60006140b782614055565b6140c18185614060565b93506140d1818560208601614071565b6140da8161409b565b840191505092915050565b600060208201905081810360008301526140ff81846140ac565b905092915050565b61411081613f97565b811461411b57600080fd5b50565b60008135905061412d81614107565b92915050565b60006020828403121561414957614148613e1b565b5b60006141578482850161411e565b91505092915050565b61416981613f00565b82525050565b60006020820190506141846000830184614160565b92915050565b600080604083850312156141a1576141a0613e1b565b5b60006141af85828601613f29565b92505060206141c08582860161411e565b9150509250929050565b6141d381613f97565b82525050565b60006020820190506141ee60008301846141ca565b92915050565b60008060006060848603121561420d5761420c613e1b565b5b600061421b86828701613f29565b935050602061422c86828701613f29565b925050604061423d8682870161411e565b9150509250925092565b6000819050919050565b61425a81614247565b811461426557600080fd5b50565b60008135905061427781614251565b92915050565b60006020828403121561429357614292613e1b565b5b60006142a184828501614268565b91505092915050565b6142b381614247565b82525050565b60006020820190506142ce60008301846142aa565b92915050565b600080604083850312156142eb576142ea613e1b565b5b60006142f98582860161411e565b925050602061430a85828601613f29565b9150509250929050565b6000806040838503121561432b5761432a613e1b565b5b600061433985828601614268565b925050602061434a85828601613f29565b9150509250929050565b600080fd5b600080fd5b7f4e487b7100000000000000000000000000000000000000000000000000000000600052604160045260246000fd5b6143968261409b565b810181811067ffffffffffffffff821117156143b5576143b461435e565b5b80604052505050565b60006143c8613e11565b90506143d4828261438d565b919050565b600067ffffffffffffffff8211156143f4576143f361435e565b5b6143fd8261409b565b9050602081019050919050565b82818337600083830152505050565b600061442c614427846143d9565b6143be565b90508281526020810184848401111561444857614447614359565b5b61445384828561440a565b509392505050565b600082601f8301126144705761446f614354565b5b8135614480848260208601614419565b91505092915050565b600080600080608085870312156144a3576144a2613e1b565b5b600085013567ffffffffffffffff8111156144c1576144c0613e20565b5b6144cd8782880161445b565b945050602085013567ffffffffffffffff8111156144ee576144ed613e20565b5b6144fa8782880161445b565b935050604085013567ffffffffffffffff81111561451b5761451a613e20565b5b6145278782880161445b565b925050606061453887828801613f29565b91505092959194509250565b60006020828403121561455a57614559613e1b565b5b600082013567ffffffffffffffff81111561457857614577613e20565b5b6145848482850161445b565b91505092915050565b600067ffffffffffffffff8211156145a8576145a761435e565b5b602082029050602081019050919050565b600080fd5b60006145d16145cc8461458d565b6143be565b905080838252602082019050602084028301858111156145f4576145f36145b9565b5b835b8181101561461d5780614609888261411e565b8452602084019350506020810190506145f6565b5050509392505050565b600082601f83011261463c5761463b614354565b5b813561464c8482602086016145be565b91505092915050565b60006020828403121561466b5761466a613e1b565b5b600082013567ffffffffffffffff81111561468957614688613e20565b5b61469584828501614627565b91505092915050565b600060e0820190506146b3600083018a6141ca565b81810360208301526146c581896140ac565b905081810360408301526146d981886140ac565b905081810360608301526146ed81876140ac565b9050818103608083015261470181866140ac565b905061471060a08301856141ca565b61471d60c0830184613eb6565b98975050505050505050565b61473281613eaa565b811461473d57600080fd5b50565b60008135905061474f81614729565b92915050565b6000806040838503121561476c5761476b613e1b565b5b600061477a85828601613f29565b925050602061478b85828601614740565b9150509250929050565b600067ffffffffffffffff8211156147b0576147af61435e565b5b6147b98261409b565b9050602081019050919050565b60006147d96147d484614795565b6143be565b9050828152602081018484840111156147f5576147f4614359565b5b61480084828561440a565b509392505050565b600082601f83011261481d5761481c614354565b5b813561482d8482602086016147c6565b91505092915050565b600080600080608085870312156148505761484f613e1b565b5b600061485e87828801613f29565b945050602061486f87828801613f29565b93505060406148808782880161411e565b925050606085013567ffffffffffffffff8111156148a1576148a0613e20565b5b6148ad87828801614808565b91505092959194509250565b600080604083850312156148d0576148cf613e1b565b5b60006148de85828601613f29565b92505060206148ef85828601613f29565b9150509250929050565b600081519050919050565b600082825260208201905092915050565b6000819050602082019050919050565b61492e81613f00565b82525050565b60006149408383614925565b60208301905092915050565b6000602082019050919050565b6000614964826148f9565b61496e8185614904565b935061497983614915565b8060005b838110156149aa5781516149918882614934565b975061499c8361494c565b92505060018101905061497d565b5085935050505092915050565b600060e0820190506149cc600083018a6141ca565b81810360208301526149de8189614959565b905081810360408301526149f281886140ac565b90508181036060830152614a0681876140ac565b90508181036080830152614a1a81866140ac565b905081810360a0830152614a2e81856140ac565b9050614a3d60c08301846141ca565b98975050505050505050565b60008060408385031215614a6057614a5f613e1b565b5b600083013567ffffffffffffffff811115614a7e57614a7d613e20565b5b614a8a85828601614627565b9250506020614a9b85828601613f29565b9150509250929050565b7f4e487b7100000000000000000000000000000000000000000000000000000000600052602260045260246000fd5b60006002820490506001821680614aec57607f821691505b602082108103614aff57614afe614aa5565b5b50919050565b7f4552433732313a20617070726f76616c20746f2063757272656e74206f776e6560008201527f7200000000000000000000000000000000000000000000000000000000000000602082015250565b6000614b61602183614060565b9150614b6c82614b05565b604082019050919050565b60006020820190508181036000830152614b9081614b54565b9050919050565b7f4552433732313a20617070726f76652063616c6c6572206973206e6f7420746f60008201527f6b656e206f776e6572206f7220617070726f76656420666f7220616c6c000000602082015250565b6000614bf3603d83614060565b9150614bfe82614b97565b604082019050919050565b60006020820190508181036000830152614c2281614be6565b9050919050565b7f4552433732313a2063616c6c6572206973206e6f7420746f6b656e206f776e6560008201527f72206f7220617070726f76656400000000000000000000000000000000000000602082015250565b6000614c85602d83614060565b9150614c9082614c29565b604082019050919050565b60006020820190508181036000830152614cb481614c78565b9050919050565b7f455243373231456e756d657261626c653a206f776e657220696e646578206f7560008201527f74206f6620626f756e6473000000000000000000000000000000000000000000602082015250565b6000614d17602b83614060565b9150614d2282614cbb565b604082019050919050565b60006020820190508181036000830152614d4681614d0a565b9050919050565b7f4e487b7100000000000000000000000000000000000000000000000000000000600052601160045260246000fd5b6000614d8782613f97565b9150614d9283613f97565b9250828201905080821115614daa57614da9614d4d565b5b92915050565b60008190508160005260206000209050919050565b60006020601f8301049050919050565b600082821b905092915050565b600060088302614e127fffffffffffffffffffffffffffffffffffffffffffffffffffffffffffffffff82614dd5565b614e1c8683614dd5565b95508019841693508086168417925050509392505050565b6000819050919050565b6000614e59614e54614e4f84613f97565b614e34565b613f97565b9050919050565b6000819050919050565b614e7383614e3e565b614e87614e7f82614e60565b848454614de2565b825550505050565b600090565b614e9c614e8f565b614ea7818484614e6a565b505050565b5b81811015614ecb57614ec0600082614e94565b600181019050614ead565b5050565b601f821115614f1057614ee181614db0565b614eea84614dc5565b81016020851015614ef9578190505b614f0d614f0585614dc5565b830182614eac565b50505b505050565b600082821c905092915050565b6000614f3360001984600802614f15565b1980831691505092915050565b6000614f4c8383614f22565b9150826002028217905092915050565b614f6582614055565b67ffffffffffffffff811115614f7e57614f7d61435e565b5b614f888254614ad4565b614f93828285614ecf565b600060209050601f831160018114614fc65760008415614fb4578287015190505b614fbe8582614f40565b865550615026565b601f198416614fd486614db0565b60005b82811015614ffc57848901518255600182019150602085019450602081019050614fd7565b868310156150195784890151615015601f891682614f22565b8355505b6001600288020188555050505b505050505050565b6000815461503b81614ad4565b6150458186614060565b945060018216600081146150605760018114615076576150a9565b60ff1983168652811515602002860193506150a9565b61507f85614db0565b60005b838110156150a157815481890152600182019150602081019050615082565b808801955050505b50505092915050565b600060a08201905081810360008301526150cc818861502e565b905081810360208301526150e081876140ac565b905081810360408301526150f481866140ac565b9050818103606083015261510881856140ac565b905061511760808301846141ca565b9695505050505050565b7f416363657373436f6e74726f6c3a2063616e206f6e6c792072656e6f756e636560008201527f20726f6c657320666f722073656c660000000000000000000000000000000000602082015250565b600061517d602f83614060565b915061518882615121565b604082019050919050565b600060208201905081810360008301526151ac81615170565b9050919050565b7f455243373231456e756d657261626c653a20676c6f62616c20696e646578206f60008201527f7574206f6620626f756e64730000000000000000000000000000000000000000602082015250565b600061520f602c83614060565b915061521a826151b3565b604082019050919050565b6000602082019050818103600083015261523e81615202565b9050919050565b7f4e487b7100000000000000000000000000000000000000000000000000000000600052603260045260246000fd5b7f4552433732313a20696e76616c696420746f6b656e2049440000000000000000600082015250565b60006152aa601883614060565b91506152b582615274565b602082019050919050565b600060208201905081810360008301526152d98161529d565b9050919050565b7f4552433732313a2061646472657373207a65726f206973206e6f74206120766160008201527f6c6964206f776e65720000000000000000000000000000000000000000000000602082015250565b600061533c602983614060565b9150615347826152e0565b604082019050919050565b6000602082019050818103600083015261536b8161532f565b9050919050565b7f4e6f7468696e6720656e74657265642e00000000000000000000000000000000600082015250565b60006153a8601083614060565b91506153b382615372565b602082019050919050565b600060208201905081810360008301526153d78161539b565b9050919050565b60006153e982613f97565b91507fffffffffffffffffffffffffffffffffffffffffffffffffffffffffffffffff820361541b5761541a614d4d565b5b600182019050919050565b600061543182613f97565b915061543c83613f97565b925082820390508181111561545457615453614d4d565b5b92915050565b7f596f75206861766520746f206f776e6564206120746f6b656e21000000000000600082015250565b6000615490601a83614060565b915061549b8261545a565b602082019050919050565b600060208201905081810360008301526154bf81615483565b9050919050565b7f416c726561647920757365642e00000000000000000000000000000000000000600082015250565b60006154fc600d83614060565b9150615507826154c6565b602082019050919050565b6000602082019050818103600083015261552b816154ef565b9050919050565b60008154905061554181614ad4565b9050919050565b60008190508160005260206000209050919050565b81810361556b575050615643565b61557482615532565b67ffffffffffffffff81111561558d5761558c61435e565b5b6155978254614ad4565b6155a2828285614ecf565b6000601f8311600181146155d157600084156155bf578287015490505b6155c98582614f40565b86555061563c565b601f1984166155df87615548565b96506155ea86614db0565b60005b82811015615612578489015482556001820191506001850194506020810190506155ed565b8683101561562f578489015461562b601f891682614f22565b8355505b6001600288020188555050505b5050505050505b565b7f4e6f6e6578697374656e7420746f6b656e000000000000000000000000000000600082015250565b600061567b601183614060565b915061568682615645565b602082019050919050565b600060208201905081810360008301526156aa8161566e565b9050919050565b7f426c6f6f6420646f6573206e6f74206578697374000000000000000000000000600082015250565b60006156e7601483614060565b91506156f2826156b1565b602082019050919050565b60006020820190508181036000830152615716816156da565b9050919050565b7f4552433732313a207472616e736665722066726f6d20696e636f72726563742060008201527f6f776e6572000000000000000000000000000000000000000000000000000000602082015250565b6000615779602583614060565b91506157848261571d565b604082019050919050565b600060208201905081810360008301526157a88161576c565b9050919050565b7f4552433732313a207472616e7366657220746f20746865207a65726f2061646460008201527f7265737300000000000000000000000000000000000000000000000000000000602082015250565b600061580b602483614060565b9150615816826157af565b604082019050919050565b6000602082019050818103600083015261583a816157fe565b9050919050565b7f4e487b7100000000000000000000000000000000000000000000000000000000600052603160045260246000fd5b7f4552433732313a206d696e7420746f20746865207a65726f2061646472657373600082015250565b60006158a6602083614060565b91506158b182615870565b602082019050919050565b600060208201905081810360008301526158d581615899565b9050919050565b7f4552433732313a20746f6b656e20616c7265616479206d696e74656400000000600082015250565b6000615912601c83614060565b915061591d826158dc565b602082019050919050565b6000602082019050818103600083015261594181615905565b9050919050565b600081905092915050565b7f416363657373436f6e74726f6c3a206163636f756e7420000000000000000000600082015250565b6000615989601783615948565b915061599482615953565b601782019050919050565b60006159aa82614055565b6159b48185615948565b93506159c4818560208601614071565b80840191505092915050565b7f206973206d697373696e6720726f6c6520000000000000000000000000000000600082015250565b6000615a06601183615948565b9150615a11826159d0565b601182019050919050565b6000615a278261597c565b9150615a33828561599f565b9150615a3e826159f9565b9150615a4a828461599f565b91508190509392505050565b7f4552433732313a20617070726f766520746f2063616c6c657200000000000000600082015250565b6000615a8c601983614060565b9150615a9782615a56565b602082019050919050565b60006020820190508181036000830152615abb81615a7f565b9050919050565b7f4552433732313a207472616e7366657220746f206e6f6e20455243373231526560008201527f63656976657220696d706c656d656e7465720000000000000000000000000000602082015250565b6000615b1e603283614060565b9150615b2982615ac2565b604082019050919050565b60006020820190508181036000830152615b4d81615b11565b9050919050565b7f455243373231456e756d657261626c653a20636f6e736563757469766520747260008201527f616e7366657273206e6f7420737570706f727465640000000000000000000000602082015250565b6000615bb0603583614060565b9150615bbb82615b54565b604082019050919050565b60006020820190508181036000830152615bdf81615ba3565b9050919050565b6000615bf182613f97565b9150615bfc83613f97565b9250828202615c0a81613f97565b91508282048414831517615c2157615c20614d4d565b5b5092915050565b6000615c3382613f97565b915060008203615c4657615c45614d4d565b5b600182039050919050565b7f537472696e67733a20686578206c656e67746820696e73756666696369656e74600082015250565b6000615c87602083614060565b9150615c9282615c51565b602082019050919050565b60006020820190508181036000830152615cb681615c7a565b9050919050565b600081519050919050565b600082825260208201905092915050565b6000615ce482615cbd565b615cee8185615cc8565b9350615cfe818560208601614071565b615d078161409b565b840191505092915050565b6000608082019050615d276000830187614160565b615d346020830186614160565b615d4160408301856141ca565b8181036060830152615d538184615cd9565b905095945050505050565b600081519050615d6d81613e51565b92915050565b600060208284031215615d8957615d88613e1b565b5b6000615d9784828501615d5e565b9150509291505056fea26469706673582212201d7765b17b26138df6a4810e922c5323732c640cc6e96a2ff19b8cff3c17294564736f6c63430008110033697066733a2f2f516d53683332644b75676f6f336539585876714b5a53366e44596232454d45425a4c4c7635546562675a36586445697066733a2f2f516d61786639746b455a555431386b336a526859646246437379627241737a34743936506b435a5a746742546f46",
  "linkReferences": {},
  "deployedLinkReferences": {}
}