{
  "_format": "hh-sol-artifact-1",
  "contractName": "BloodDonation",
  "sourceName": "contracts/BloodDonation.sol",
  "abi": [
    {
      "inputs": [],
      "stateMutability": "nonpayable",
      "type": "constructor"
    },
    {
      "anonymous": false,
      "inputs": [
        {
          "indexed": true,
          "internalType": "address",
          "name": "owner",
          "type": "address"
        },
        {
          "indexed": true,
          "internalType": "address",
          "name": "approved",
          "type": "address"
        },
        {
          "indexed": true,
          "internalType": "uint256",
          "name": "tokenId",
          "type": "uint256"
        }
      ],
      "name": "Approval",
      "type": "event"
    },
    {
      "anonymous": false,
      "inputs": [
        {
          "indexed": true,
          "internalType": "address",
          "name": "owner",
          "type": "address"
        },
        {
          "indexed": true,
          "internalType": "address",
          "name": "operator",
          "type": "address"
        },
        {
          "indexed": false,
          "internalType": "bool",
          "name": "approved",
          "type": "bool"
        }
      ],
      "name": "ApprovalForAll",
      "type": "event"
    },
    {
      "anonymous": false,
      "inputs": [
        {
          "indexed": true,
          "internalType": "uint256",
          "name": "tokenId",
          "type": "uint256"
        },
        {
          "indexed": false,
          "internalType": "string",
          "name": "photo",
          "type": "string"
        },
        {
          "indexed": false,
          "internalType": "string",
          "name": "title",
          "type": "string"
        },
        {
          "indexed": false,
          "internalType": "string",
          "name": "location",
          "type": "string"
        },
        {
          "indexed": false,
          "internalType": "string",
          "name": "description",
          "type": "string"
        },
        {
          "indexed": false,
          "internalType": "uint256",
          "name": "timestamp",
          "type": "uint256"
        }
      ],
      "name": "BDUploaded",
      "type": "event"
    },
    {
      "anonymous": false,
      "inputs": [
        {
          "indexed": true,
          "internalType": "bytes32",
          "name": "role",
          "type": "bytes32"
        },
        {
          "indexed": true,
          "internalType": "bytes32",
          "name": "previousAdminRole",
          "type": "bytes32"
        },
        {
          "indexed": true,
          "internalType": "bytes32",
          "name": "newAdminRole",
          "type": "bytes32"
        }
      ],
      "name": "RoleAdminChanged",
      "type": "event"
    },
    {
      "anonymous": false,
      "inputs": [
        {
          "indexed": true,
          "internalType": "bytes32",
          "name": "role",
          "type": "bytes32"
        },
        {
          "indexed": true,
          "internalType": "address",
          "name": "account",
          "type": "address"
        },
        {
          "indexed": true,
          "internalType": "address",
          "name": "sender",
          "type": "address"
        }
      ],
      "name": "RoleGranted",
      "type": "event"
    },
    {
      "anonymous": false,
      "inputs": [
        {
          "indexed": true,
          "internalType": "bytes32",
          "name": "role",
          "type": "bytes32"
        },
        {
          "indexed": true,
          "internalType": "address",
          "name": "account",
          "type": "address"
        },
        {
          "indexed": true,
          "internalType": "address",
          "name": "sender",
          "type": "address"
        }
      ],
      "name": "RoleRevoked",
      "type": "event"
    },
    {
      "anonymous": false,
      "inputs": [
        {
          "indexed": true,
          "internalType": "address",
          "name": "from",
          "type": "address"
        },
        {
          "indexed": true,
          "internalType": "address",
          "name": "to",
          "type": "address"
        },
        {
          "indexed": true,
          "internalType": "uint256",
          "name": "tokenId",
          "type": "uint256"
        }
      ],
      "name": "Transfer",
      "type": "event"
    },
    {
      "inputs": [],
      "name": "DEFAULT_ADMIN_ROLE",
      "outputs": [
        {
          "internalType": "bytes32",
          "name": "",
          "type": "bytes32"
        }
      ],
      "stateMutability": "view",
      "type": "function"
    },
    {
      "inputs": [],
      "name": "HOSPITAL",
      "outputs": [
        {
          "internalType": "bytes32",
          "name": "",
          "type": "bytes32"
        }
      ],
      "stateMutability": "view",
      "type": "function"
    },
    {
      "inputs": [],
      "name": "REDCROSS",
      "outputs": [
        {
          "internalType": "bytes32",
          "name": "",
          "type": "bytes32"
        }
      ],
      "stateMutability": "view",
      "type": "function"
    },
    {
      "inputs": [
        {
          "internalType": "uint256",
          "name": "",
          "type": "uint256"
        }
      ],
      "name": "_BDList",
      "outputs": [
        {
          "internalType": "uint256",
          "name": "tokenId",
          "type": "uint256"
        },
        {
          "internalType": "string",
          "name": "photo",
          "type": "string"
        },
        {
          "internalType": "string",
          "name": "title",
          "type": "string"
        },
        {
          "internalType": "string",
          "name": "location",
          "type": "string"
        },
        {
          "internalType": "string",
          "name": "description",
          "type": "string"
        },
        {
          "internalType": "uint256",
          "name": "timestamp",
          "type": "uint256"
        },
        {
          "internalType": "bool",
          "name": "used",
          "type": "bool"
        }
      ],
      "stateMutability": "view",
      "type": "function"
    },
    {
      "inputs": [],
      "name": "_notUsedPhotoURI",
      "outputs": [
        {
          "internalType": "string",
          "name": "",
          "type": "string"
        }
      ],
      "stateMutability": "view",
      "type": "function"
    },
    {
      "inputs": [],
      "name": "_usedPhotoURI",
      "outputs": [
        {
          "internalType": "string",
          "name": "",
          "type": "string"
        }
      ],
      "stateMutability": "view",
      "type": "function"
    },
    {
      "inputs": [
        {
          "internalType": "address",
          "name": "account",
          "type": "address"
        }
      ],
      "name": "addAdmin",
      "outputs": [],
      "stateMutability": "nonpayable",
      "type": "function"
    },
    {
      "inputs": [
        {
          "internalType": "address",
          "name": "to",
          "type": "address"
        },
        {
          "internalType": "uint256",
          "name": "tokenId",
          "type": "uint256"
        }
      ],
      "name": "approve",
      "outputs": [],
      "stateMutability": "nonpayable",
      "type": "function"
    },
    {
      "inputs": [
        {
          "internalType": "address",
          "name": "owner",
          "type": "address"
        }
      ],
      "name": "balanceOf",
      "outputs": [
        {
          "internalType": "uint256",
          "name": "",
          "type": "uint256"
        }
      ],
      "stateMutability": "view",
      "type": "function"
    },
    {
      "inputs": [
        {
          "internalType": "uint256[]",
          "name": "tokenIds",
          "type": "uint256[]"
        },
        {
          "internalType": "address",
          "name": "to",
          "type": "address"
        }
      ],
      "name": "batchTransferOwnership",
      "outputs": [],
      "stateMutability": "nonpayable",
      "type": "function"
    },
    {
      "inputs": [
        {
          "internalType": "address",
          "name": "account",
          "type": "address"
        }
      ],
      "name": "checkAdminRole",
      "outputs": [],
      "stateMutability": "view",
      "type": "function"
    },
    {
      "inputs": [
        {
          "internalType": "address",
          "name": "account",
          "type": "address"
        }
      ],
      "name": "checkHospitalRole",
      "outputs": [],
      "stateMutability": "view",
      "type": "function"
    },
    {
      "inputs": [
        {
          "internalType": "address",
          "name": "account",
          "type": "address"
        }
      ],
      "name": "checkRedCrossRole",
      "outputs": [],
      "stateMutability": "view",
      "type": "function"
    },
    {
      "inputs": [
        {
          "internalType": "uint256",
          "name": "_tokenId",
          "type": "uint256"
        }
      ],
      "name": "checkUse",
      "outputs": [
        {
          "internalType": "bool",
          "name": "",
          "type": "bool"
        }
      ],
      "stateMutability": "view",
      "type": "function"
    },
    {
      "inputs": [
        {
          "internalType": "uint256",
          "name": "tokenId",
          "type": "uint256"
        }
      ],
      "name": "getApproved",
      "outputs": [
        {
          "internalType": "address",
          "name": "",
          "type": "address"
        }
      ],
      "stateMutability": "view",
      "type": "function"
    },
    {
      "inputs": [
        {
          "internalType": "uint256",
          "name": "tokenId",
          "type": "uint256"
        }
      ],
      "name": "getBD",
      "outputs": [
        {
          "internalType": "uint256",
          "name": "",
          "type": "uint256"
        },
        {
          "internalType": "address[]",
          "name": "",
          "type": "address[]"
        },
        {
          "internalType": "string",
          "name": "",
          "type": "string"
        },
        {
          "internalType": "string",
          "name": "",
          "type": "string"
        },
        {
          "internalType": "string",
          "name": "",
          "type": "string"
        },
        {
          "internalType": "string",
          "name": "",
          "type": "string"
        },
        {
          "internalType": "uint256",
          "name": "",
          "type": "uint256"
        }
      ],
      "stateMutability": "view",
      "type": "function"
    },
    {
      "inputs": [
        {
          "internalType": "bytes32",
          "name": "role",
          "type": "bytes32"
        }
      ],
      "name": "getRoleAdmin",
      "outputs": [
        {
          "internalType": "bytes32",
          "name": "",
          "type": "bytes32"
        }
      ],
      "stateMutability": "view",
      "type": "function"
    },
    {
      "inputs": [],
      "name": "getTotalBDCount",
      "outputs": [
        {
          "internalType": "uint256",
          "name": "",
          "type": "uint256"
        }
      ],
      "stateMutability": "view",
      "type": "function"
    },
    {
      "inputs": [
        {
          "internalType": "address",
          "name": "account",
          "type": "address"
        }
      ],
      "name": "grantHospitalRole",
      "outputs": [],
      "stateMutability": "nonpayable",
      "type": "function"
    },
    {
      "inputs": [
        {
          "internalType": "address",
          "name": "account",
          "type": "address"
        }
      ],
      "name": "grantRedCrossRole",
      "outputs": [],
      "stateMutability": "nonpayable",
      "type": "function"
    },
    {
      "inputs": [
        {
          "internalType": "bytes32",
          "name": "role",
          "type": "bytes32"
        },
        {
          "internalType": "address",
          "name": "account",
          "type": "address"
        }
      ],
      "name": "grantRole",
      "outputs": [],
      "stateMutability": "nonpayable",
      "type": "function"
    },
    {
      "inputs": [
        {
          "internalType": "bytes32",
          "name": "role",
          "type": "bytes32"
        },
        {
          "internalType": "address",
          "name": "account",
          "type": "address"
        }
      ],
      "name": "hasRole",
      "outputs": [
        {
          "internalType": "bool",
          "name": "",
          "type": "bool"
        }
      ],
      "stateMutability": "view",
      "type": "function"
    },
    {
      "inputs": [
        {
          "internalType": "address",
          "name": "owner",
          "type": "address"
        },
        {
          "internalType": "address",
          "name": "operator",
          "type": "address"
        }
      ],
      "name": "isApprovedForAll",
      "outputs": [
        {
          "internalType": "bool",
          "name": "",
          "type": "bool"
        }
      ],
      "stateMutability": "view",
      "type": "function"
    },
    {
      "inputs": [
        {
          "internalType": "string",
          "name": "title",
          "type": "string"
        },
        {
          "internalType": "string",
          "name": "location",
          "type": "string"
        },
        {
          "internalType": "string",
          "name": "description",
          "type": "string"
        },
        {
          "internalType": "address",
          "name": "to",
          "type": "address"
        }
      ],
      "name": "mintBD",
      "outputs": [],
      "stateMutability": "nonpayable",
      "type": "function"
    },
    {
      "inputs": [],
      "name": "name",
      "outputs": [
        {
          "internalType": "string",
          "name": "",
          "type": "string"
        }
      ],
      "stateMutability": "view",
      "type": "function"
    },
    {
      "inputs": [
        {
          "internalType": "uint256",
          "name": "tokenId",
          "type": "uint256"
        }
      ],
      "name": "ownerOf",
      "outputs": [
        {
          "internalType": "address",
          "name": "",
          "type": "address"
        }
      ],
      "stateMutability": "view",
      "type": "function"
    },
    {
      "inputs": [],
      "name": "renounceAdmin",
      "outputs": [],
      "stateMutability": "nonpayable",
      "type": "function"
    },
    {
      "inputs": [
        {
          "internalType": "bytes32",
          "name": "role",
          "type": "bytes32"
        },
        {
          "internalType": "address",
          "name": "account",
          "type": "address"
        }
      ],
      "name": "renounceRole",
      "outputs": [],
      "stateMutability": "nonpayable",
      "type": "function"
    },
    {
      "inputs": [
        {
          "internalType": "address",
          "name": "account",
          "type": "address"
        }
      ],
      "name": "revokeHospitalRole",
      "outputs": [],
      "stateMutability": "nonpayable",
      "type": "function"
    },
    {
      "inputs": [
        {
          "internalType": "address",
          "name": "account",
          "type": "address"
        }
      ],
      "name": "revokeRedCrossRole",
      "outputs": [],
      "stateMutability": "nonpayable",
      "type": "function"
    },
    {
      "inputs": [
        {
          "internalType": "bytes32",
          "name": "role",
          "type": "bytes32"
        },
        {
          "internalType": "address",
          "name": "account",
          "type": "address"
        }
      ],
      "name": "revokeRole",
      "outputs": [],
      "stateMutability": "nonpayable",
      "type": "function"
    },
    {
      "inputs": [
        {
          "internalType": "address",
          "name": "from",
          "type": "address"
        },
        {
          "internalType": "address",
          "name": "to",
          "type": "address"
        },
        {
          "internalType": "uint256",
          "name": "tokenId",
          "type": "uint256"
        }
      ],
      "name": "safeTransferFrom",
      "outputs": [],
      "stateMutability": "nonpayable",
      "type": "function"
    },
    {
      "inputs": [
        {
          "internalType": "address",
          "name": "from",
          "type": "address"
        },
        {
          "internalType": "address",
          "name": "to",
          "type": "address"
        },
        {
          "internalType": "uint256",
          "name": "tokenId",
          "type": "uint256"
        },
        {
          "internalType": "bytes",
          "name": "data",
          "type": "bytes"
        }
      ],
      "name": "safeTransferFrom",
      "outputs": [],
      "stateMutability": "nonpayable",
      "type": "function"
    },
    {
      "inputs": [
        {
          "internalType": "address",
          "name": "operator",
          "type": "address"
        },
        {
          "internalType": "bool",
          "name": "approved",
          "type": "bool"
        }
      ],
      "name": "setApprovalForAll",
      "outputs": [],
      "stateMutability": "nonpayable",
      "type": "function"
    },
    {
      "inputs": [
        {
          "internalType": "string",
          "name": "_newNotUsedURI",
          "type": "string"
        }
      ],
      "name": "setNotUsedURI",
      "outputs": [],
      "stateMutability": "nonpayable",
      "type": "function"
    },
    {
      "inputs": [
        {
          "internalType": "string",
          "name": "_newUsedURI",
          "type": "string"
        }
      ],
      "name": "setUsedURI",
      "outputs": [],
      "stateMutability": "nonpayable",
      "type": "function"
    },
    {
      "inputs": [
        {
          "internalType": "bytes4",
          "name": "interfaceId",
          "type": "bytes4"
        }
      ],
      "name": "supportsInterface",
      "outputs": [
        {
          "internalType": "bool",
          "name": "",
          "type": "bool"
        }
      ],
      "stateMutability": "view",
      "type": "function"
    },
    {
      "inputs": [],
      "name": "symbol",
      "outputs": [
        {
          "internalType": "string",
          "name": "",
          "type": "string"
        }
      ],
      "stateMutability": "view",
      "type": "function"
    },
    {
      "inputs": [
        {
          "internalType": "uint256",
          "name": "index",
          "type": "uint256"
        }
      ],
      "name": "tokenByIndex",
      "outputs": [
        {
          "internalType": "uint256",
          "name": "",
          "type": "uint256"
        }
      ],
      "stateMutability": "view",
      "type": "function"
    },
    {
      "inputs": [
        {
          "internalType": "address",
          "name": "owner",
          "type": "address"
        },
        {
          "internalType": "uint256",
          "name": "index",
          "type": "uint256"
        }
      ],
      "name": "tokenOfOwnerByIndex",
      "outputs": [
        {
          "internalType": "uint256",
          "name": "",
          "type": "uint256"
        }
      ],
      "stateMutability": "view",
      "type": "function"
    },
    {
      "inputs": [
        {
          "internalType": "uint256",
          "name": "tokenId",
          "type": "uint256"
        }
      ],
      "name": "tokenURI",
      "outputs": [
        {
          "internalType": "string",
          "name": "",
          "type": "string"
        }
      ],
      "stateMutability": "view",
      "type": "function"
    },
    {
      "inputs": [],
      "name": "totalSupply",
      "outputs": [
        {
          "internalType": "uint256",
          "name": "",
          "type": "uint256"
        }
      ],
      "stateMutability": "view",
      "type": "function"
    },
    {
      "inputs": [
        {
          "internalType": "address",
          "name": "from",
          "type": "address"
        },
        {
          "internalType": "address",
          "name": "to",
          "type": "address"
        },
        {
          "internalType": "uint256",
          "name": "tokenId",
          "type": "uint256"
        }
      ],
      "name": "transferFrom",
      "outputs": [],
      "stateMutability": "nonpayable",
      "type": "function"
    },
    {
      "inputs": [
        {
          "internalType": "uint256",
          "name": "tokenId",
          "type": "uint256"
        },
        {
          "internalType": "address",
          "name": "to",
          "type": "address"
        }
      ],
      "name": "transferOwnership",
      "outputs": [],
      "stateMutability": "nonpayable",
      "type": "function"
    },
    {
      "inputs": [
        {
          "internalType": "uint256",
          "name": "_tokenId",
          "type": "uint256"
        }
      ],
      "name": "use",
      "outputs": [],
      "stateMutability": "nonpayable",
      "type": "function"
    },
    {
      "inputs": [
        {
          "internalType": "uint256[]",
          "name": "tokenIds",
          "type": "uint256[]"
        }
      ],
      "name": "useBatch",
      "outputs": [],
      "stateMutability": "nonpayable",
      "type": "function"
    },
    {
      "inputs": [],
      "name": "used",
      "outputs": [
        {
          "internalType": "bool",
          "name": "",
          "type": "bool"
        }
      ],
      "stateMutability": "view",
      "type": "function"
    }
  ],
  "bytecode": "0x6080604052604051806060016040528060358152602001620060fc60359139600c90816200002e919062000525565b50604051806060016040528060358152602001620060c760359139600d908162000059919062000525565b506000600e60006101000a81548160ff0219169083151502179055503480156200008257600080fd5b506040518060400160405280600d81526020017f426c6f6f64446f6e6174696f6e000000000000000000000000000000000000008152506040518060400160405280600581526020017f42444e4654000000000000000000000000000000000000000000000000000000815250816000908162000100919062000525565b50806001908162000112919062000525565b5050506200012a6000801b336200013060201b60201c565b6200060c565b6200014282826200014660201b60201c565b5050565b6200015882826200023860201b60201c565b62000234576001600a600084815260200190815260200160002060000160008373ffffffffffffffffffffffffffffffffffffffff1673ffffffffffffffffffffffffffffffffffffffff16815260200190815260200160002060006101000a81548160ff021916908315150217905550620001d9620002a360201b60201c565b73ffffffffffffffffffffffffffffffffffffffff168173ffffffffffffffffffffffffffffffffffffffff16837f2f8788117e7eff1d82e926ec794901d17c78024a50270940304540a733656f0d60405160405180910390a45b5050565b6000600a600084815260200190815260200160002060000160008373ffffffffffffffffffffffffffffffffffffffff1673ffffffffffffffffffffffffffffffffffffffff16815260200190815260200160002060009054906101000a900460ff16905092915050565b600033905090565b600081519050919050565b7f4e487b7100000000000000000000000000000000000000000000000000000000600052604160045260246000fd5b7f4e487b7100000000000000000000000000000000000000000000000000000000600052602260045260246000fd5b600060028204905060018216806200032d57607f821691505b602082108103620003435762000342620002e5565b5b50919050565b60008190508160005260206000209050919050565b60006020601f8301049050919050565b600082821b905092915050565b600060088302620003ad7fffffffffffffffffffffffffffffffffffffffffffffffffffffffffffffffff826200036e565b620003b986836200036e565b95508019841693508086168417925050509392505050565b6000819050919050565b6000819050919050565b60006200040662000400620003fa84620003d1565b620003db565b620003d1565b9050919050565b6000819050919050565b6200042283620003e5565b6200043a62000431826200040d565b8484546200037b565b825550505050565b600090565b6200045162000442565b6200045e81848462000417565b505050565b5b8181101562000486576200047a60008262000447565b60018101905062000464565b5050565b601f821115620004d5576200049f8162000349565b620004aa846200035e565b81016020851015620004ba578190505b620004d2620004c9856200035e565b83018262000463565b50505b505050565b600082821c905092915050565b6000620004fa60001984600802620004da565b1980831691505092915050565b6000620005158383620004e7565b9150826002028217905092915050565b6200053082620002ab565b67ffffffffffffffff8111156200054c576200054b620002b6565b5b62000558825462000314565b620005658282856200048a565b600060209050601f8311600181146200059d576000841562000588578287015190505b62000594858262000507565b86555062000604565b601f198416620005ad8662000349565b60005b82811015620005d757848901518255600182019150602085019450602081019050620005b0565b86831015620005f75784890151620005f3601f891682620004e7565b8355505b6001600288020188555050505b505050505050565b615aab806200061c6000396000f3fe608060405234801561001057600080fd5b50600436106102955760003560e01c806363898e2b11610167578063a0562f69116100ce578063c87b56dd11610087578063c87b56dd146107e6578063d547741f14610816578063e386be2e14610832578063e985e9c51461084e578063ed54e96a1461087e578063f639ec79146108b457610295565b8063a0562f691461073a578063a217fddf14610756578063a22cb46514610774578063ab5b445614610790578063b0806ea7146107ac578063b88d4fde146107ca57610295565b80637ee756f2116101205780637ee756f21461067457806389d04f00146106905780638bad0c0a146106c657806391d14854146106d057806395a805951461070057806395d89b411461071c57610295565b806363898e2b146105b657806370480275146105d457806370a08231146105f05780637b3dc4ef146106205780637def89281461063c5780637e11f03c1461065857610295565b80632f2ff15d1161020b57806342842e0e116101c457806342842e0e146104e25780634f6ccce7146104fe57806354d0c5491461052e5780635bf47d9d1461054c5780635dd9727d146105685780636352211e1461058657610295565b80632f2ff15d146104125780632f745c591461042e578063330de61a1461045e578063353acb331461047a57806336568abe146104965780633751d134146104b257610295565b806323b872dd1161025d57806323b872dd14610352578063248a9ca31461036e57806327bbe7ee1461039e578063280a337d146103bc57806329507f73146103d85780632de31f3c146103f457610295565b806301ffc9a71461029a57806306fdde03146102ca578063081812fc146102e8578063095ea7b31461031857806318160ddd14610334575b600080fd5b6102b460048036038101906102af9190613c4b565b6108d0565b6040516102c19190613c93565b60405180910390f35b6102d26108e2565b6040516102df9190613d3e565b60405180910390f35b61030260048036038101906102fd9190613d96565b610974565b60405161030f9190613e04565b60405180910390f35b610332600480360381019061032d9190613e4b565b6109ba565b005b61033c610ad1565b6040516103499190613e9a565b60405180910390f35b61036c60048036038101906103679190613eb5565b610ade565b005b61038860048036038101906103839190613f3e565b610b3e565b6040516103959190613f7a565b60405180910390f35b6103a6610b5e565b6040516103b39190613f7a565b60405180910390f35b6103d660048036038101906103d19190613f95565b610b82565b005b6103f260048036038101906103ed9190613fc2565b610bbd565b005b6103fc610c43565b6040516104099190613d3e565b60405180910390f35b61042c60048036038101906104279190614002565b610cd5565b005b61044860048036038101906104439190613e4b565b610cf6565b6040516104559190613e9a565b60405180910390f35b61047860048036038101906104739190613f95565b610d9b565b005b610494600480360381019061048f9190614177565b610dd6565b005b6104b060048036038101906104ab9190614002565b611071565b005b6104cc60048036038101906104c79190613d96565b6110f4565b6040516104d99190613c93565b60405180910390f35b6104fc60048036038101906104f79190613eb5565b611121565b005b61051860048036038101906105139190613d96565b611141565b6040516105259190613e9a565b60405180910390f35b6105366111b2565b6040516105439190613d3e565b60405180910390f35b61056660048036038101906105619190614232565b611244565b005b610570611265565b60405161057d9190613e9a565b60405180910390f35b6105a0600480360381019061059b9190613d96565b611274565b6040516105ad9190613e04565b60405180910390f35b6105be6112fa565b6040516105cb9190613c93565b60405180910390f35b6105ee60048036038101906105e99190613f95565b61130d565b005b61060a60048036038101906106059190613f95565b61132b565b6040516106179190613e9a565b60405180910390f35b61063a60048036038101906106359190613f95565b6113e2565b005b61065660048036038101906106519190614232565b61140f565b005b610672600480360381019061066d9190614343565b611430565b005b61068e60048036038101906106899190613f95565b6114e5565b005b6106aa60048036038101906106a59190613d96565b611520565b6040516106bd979695949392919061438c565b60405180910390f35b6106ce61178f565b005b6106ea60048036038101906106e59190614002565b6117ac565b6040516106f79190613c93565b60405180910390f35b61071a60048036038101906107159190613f95565b611817565b005b610724611852565b6040516107319190613d3e565b60405180910390f35b610754600480360381019061074f9190613f95565b6118e4565b005b61075e611911565b60405161076b9190613f7a565b60405180910390f35b61078e60048036038101906107899190614443565b611918565b005b6107aa60048036038101906107a59190613d96565b61192e565b005b6107b4611b22565b6040516107c19190613f7a565b60405180910390f35b6107e460048036038101906107df9190614524565b611b46565b005b61080060048036038101906107fb9190613d96565b611ba8565b60405161080d9190613d3e565b60405180910390f35b610830600480360381019061082b9190614002565b611c10565b005b61084c60048036038101906108479190613f95565b611c31565b005b610868600480360381019061086391906145a7565b611c41565b6040516108759190613c93565b60405180910390f35b61089860048036038101906108939190613d96565b611cd5565b6040516108ab97969594939291906146a5565b60405180910390f35b6108ce60048036038101906108c99190614737565b6120a6565b005b60006108db826121c4565b9050919050565b6060600080546108f1906147c2565b80601f016020809104026020016040519081016040528092919081815260200182805461091d906147c2565b801561096a5780601f1061093f5761010080835404028352916020019161096a565b820191906000526020600020905b81548152906001019060200180831161094d57829003601f168201915b5050505050905090565b600061097f8261223e565b6004600083815260200190815260200160002060009054906101000a900473ffffffffffffffffffffffffffffffffffffffff169050919050565b60006109c582611274565b90508073ffffffffffffffffffffffffffffffffffffffff168373ffffffffffffffffffffffffffffffffffffffff1603610a35576040517f08c379a0000000000000000000000000000000000000000000000000000000008152600401610a2c90614865565b60405180910390fd5b8073ffffffffffffffffffffffffffffffffffffffff16610a54612289565b73ffffffffffffffffffffffffffffffffffffffff161480610a835750610a8281610a7d612289565b611c41565b5b610ac2576040517f08c379a0000000000000000000000000000000000000000000000000000000008152600401610ab9906148f7565b60405180910390fd5b610acc8383612291565b505050565b6000600880549050905090565b610aef610ae9612289565b8261234a565b610b2e576040517f08c379a0000000000000000000000000000000000000000000000000000000008152600401610b2590614989565b60405180910390fd5b610b398383836123df565b505050565b6000600a6000838152602001908152602001600020600101549050919050565b7f72d66193ff00a845b4aed5f27e02d9b558ef32be1495a41d00c5c5fb191a076381565b6000801b610b8f816126d8565b610bb97f60460dbe4b1f79d9efa1691d671057dc56200fed92b7dc0eb552fafb819b082c83610cd5565b5050565b610bc8338284611121565b600b6000838152602001908152602001600020600101819080600181540180825580915050600190039060005260206000200160009091909190916101000a81548173ffffffffffffffffffffffffffffffffffffffff021916908373ffffffffffffffffffffffffffffffffffffffff1602179055505050565b6060600d8054610c52906147c2565b80601f0160208091040260200160405190810160405280929190818152602001828054610c7e906147c2565b8015610ccb5780601f10610ca057610100808354040283529160200191610ccb565b820191906000526020600020905b815481529060010190602001808311610cae57829003601f168201915b5050505050905090565b610cde82610b3e565b610ce7816126d8565b610cf183836126ec565b505050565b6000610d018361132b565b8210610d42576040517f08c379a0000000000000000000000000000000000000000000000000000000008152600401610d3990614a1b565b60405180910390fd5b600660008473ffffffffffffffffffffffffffffffffffffffff1673ffffffffffffffffffffffffffffffffffffffff168152602001908152602001600020600083815260200190815260200160002054905092915050565b6000801b610da8816126d8565b610dd27f60460dbe4b1f79d9efa1691d671057dc56200fed92b7dc0eb552fafb819b082c836127cd565b5050565b7f60460dbe4b1f79d9efa1691d671057dc56200fed92b7dc0eb552fafb819b082c610e00816126d8565b60006001610e0c610ad1565b610e169190614a6a565b9050610e2283826128af565b60606000604051806101000160405280848152602001838152602001600c8054610e4b906147c2565b80601f0160208091040260200160405190810160405280929190818152602001828054610e77906147c2565b8015610ec45780601f10610e9957610100808354040283529160200191610ec4565b820191906000526020600020905b815481529060010190602001808311610ea757829003601f168201915b5050505050815260200189815260200188815260200187815260200142815260200160001515815250905080600b6000858152602001908152602001600020600082015181600001556020820151816001019080519060200190610f29929190613b38565b506040820151816002019081610f3f9190614c4a565b506060820151816003019081610f559190614c4a565b506080820151816004019081610f6b9190614c4a565b5060a0820151816005019081610f819190614c4a565b5060c0820151816006015560e08201518160070160006101000a81548160ff021916908315150217905550905050600b6000848152602001908152602001600020600101859080600181540180825580915050600190039060005260206000200160009091909190916101000a81548173ffffffffffffffffffffffffffffffffffffffff021916908373ffffffffffffffffffffffffffffffffffffffff160217905550827f94da8b1f54d6b112f33b8d347f164fc8f25cd951a157bcc7493673b7cadbf363600c8a8a8a4260405161105f959493929190614da0565b60405180910390a25050505050505050565b611079612289565b73ffffffffffffffffffffffffffffffffffffffff168173ffffffffffffffffffffffffffffffffffffffff16146110e6576040517f08c379a00000000000000000000000000000000000000000000000000000000081526004016110dd90614e81565b60405180910390fd5b6110f082826127cd565b5050565b6000600b600083815260200190815260200160002060070160009054906101000a900460ff169050919050565b61113c83838360405180602001604052806000815250611b46565b505050565b600061114b610ad1565b821061118c576040517f08c379a000000000000000000000000000000000000000000000000000000000815260040161118390614f13565b60405180910390fd5b600882815481106111a05761119f614f33565b5b90600052602060002001549050919050565b6060600c80546111c1906147c2565b80601f01602080910402602001604051908101604052809291908181526020018280546111ed906147c2565b801561123a5780601f1061120f5761010080835404028352916020019161123a565b820191906000526020600020905b81548152906001019060200180831161121d57829003601f168201915b5050505050905090565b6000801b611251816126d8565b81600d90816112609190614c4a565b505050565b600061126f610ad1565b905090565b60008061128083612acc565b9050600073ffffffffffffffffffffffffffffffffffffffff168173ffffffffffffffffffffffffffffffffffffffff16036112f1576040517f08c379a00000000000000000000000000000000000000000000000000000000081526004016112e890614fae565b60405180910390fd5b80915050919050565b600e60009054906101000a900460ff1681565b6000801b61131a816126d8565b6113276000801b83610cd5565b5050565b60008073ffffffffffffffffffffffffffffffffffffffff168273ffffffffffffffffffffffffffffffffffffffff160361139b576040517f08c379a000000000000000000000000000000000000000000000000000000000815260040161139290615040565b60405180910390fd5b600360008373ffffffffffffffffffffffffffffffffffffffff1673ffffffffffffffffffffffffffffffffffffffff168152602001908152602001600020549050919050565b61140c7f72d66193ff00a845b4aed5f27e02d9b558ef32be1495a41d00c5c5fb191a076382612b09565b50565b6000801b61141c816126d8565b81600c908161142b9190614c4a565b505050565b7f72d66193ff00a845b4aed5f27e02d9b558ef32be1495a41d00c5c5fb191a076361145a816126d8565b600082511161149e576040517f08c379a0000000000000000000000000000000000000000000000000000000008152600401611495906150ac565b60405180910390fd5b60005b82518110156114e0576114cd8382815181106114c0576114bf614f33565b5b602002602001015161192e565b80806114d8906150cc565b9150506114a1565b505050565b6000801b6114f2816126d8565b61151c7f72d66193ff00a845b4aed5f27e02d9b558ef32be1495a41d00c5c5fb191a076383610cd5565b5050565b600b602052806000526040600020600091509050806000015490806002018054611549906147c2565b80601f0160208091040260200160405190810160405280929190818152602001828054611575906147c2565b80156115c25780601f10611597576101008083540402835291602001916115c2565b820191906000526020600020905b8154815290600101906020018083116115a557829003601f168201915b5050505050908060030180546115d7906147c2565b80601f0160208091040260200160405190810160405280929190818152602001828054611603906147c2565b80156116505780601f1061162557610100808354040283529160200191611650565b820191906000526020600020905b81548152906001019060200180831161163357829003601f168201915b505050505090806004018054611665906147c2565b80601f0160208091040260200160405190810160405280929190818152602001828054611691906147c2565b80156116de5780601f106116b3576101008083540402835291602001916116de565b820191906000526020600020905b8154815290600101906020018083116116c157829003601f168201915b5050505050908060050180546116f3906147c2565b80601f016020809104026020016040519081016040528092919081815260200182805461171f906147c2565b801561176c5780601f106117415761010080835404028352916020019161176c565b820191906000526020600020905b81548152906001019060200180831161174f57829003601f168201915b5050505050908060060154908060070160009054906101000a900460ff16905087565b6000801b61179c816126d8565b6117a96000801b33611071565b50565b6000600a600084815260200190815260200160002060000160008373ffffffffffffffffffffffffffffffffffffffff1673ffffffffffffffffffffffffffffffffffffffff16815260200190815260200160002060009054906101000a900460ff16905092915050565b6000801b611824816126d8565b61184e7f72d66193ff00a845b4aed5f27e02d9b558ef32be1495a41d00c5c5fb191a0763836127cd565b5050565b606060018054611861906147c2565b80601f016020809104026020016040519081016040528092919081815260200182805461188d906147c2565b80156118da5780601f106118af576101008083540402835291602001916118da565b820191906000526020600020905b8154815290600101906020018083116118bd57829003601f168201915b5050505050905090565b61190e7f60460dbe4b1f79d9efa1691d671057dc56200fed92b7dc0eb552fafb819b082c82612b09565b50565b6000801b81565b61192a611923612289565b8383612b8e565b5050565b7f72d66193ff00a845b4aed5f27e02d9b558ef32be1495a41d00c5c5fb191a0763611958816126d8565b600b60008381526020019081526020016000206001016001600b6000858152602001908152602001600020600101805490506119949190615114565b815481106119a5576119a4614f33565b5b9060005260206000200160009054906101000a900473ffffffffffffffffffffffffffffffffffffffff1673ffffffffffffffffffffffffffffffffffffffff163373ffffffffffffffffffffffffffffffffffffffff1614611a3d576040517f08c379a0000000000000000000000000000000000000000000000000000000008152600401611a3490615194565b60405180910390fd5b60001515600b600084815260200190815260200160002060070160009054906101000a900460ff16151514611aa7576040517f08c379a0000000000000000000000000000000000000000000000000000000008152600401611a9e90615200565b60405180910390fd5b600b600083815260200190815260200160002060070160009054906101000a900460ff1615600b600084815260200190815260200160002060070160006101000a81548160ff021916908315150217905550600d600b60008481526020019081526020016000206002019081611b1d919061524b565b505050565b7f60460dbe4b1f79d9efa1691d671057dc56200fed92b7dc0eb552fafb819b082c81565b611b57611b51612289565b8361234a565b611b96576040517f08c379a0000000000000000000000000000000000000000000000000000000008152600401611b8d90614989565b60405180910390fd5b611ba284848484612cfa565b50505050565b6060611bb38261223e565b6000611bbd612d56565b90506000815111611bdd5760405180602001604052806000815250611c08565b80611be784612d6d565b604051602001611bf892919061536f565b6040516020818303038152906040525b915050919050565b611c1982610b3e565b611c22816126d8565b611c2c83836127cd565b505050565b611c3e6000801b82612b09565b50565b6000600560008473ffffffffffffffffffffffffffffffffffffffff1673ffffffffffffffffffffffffffffffffffffffff16815260200190815260200160002060008373ffffffffffffffffffffffffffffffffffffffff1673ffffffffffffffffffffffffffffffffffffffff16815260200190815260200160002060009054906101000a900460ff16905092915050565b60006060806060806060600080600b60008a81526020019081526020016000206000015403611d39576040517f08c379a0000000000000000000000000000000000000000000000000000000008152600401611d30906153df565b60405180910390fd5b600b600089815260200190815260200160002060000154600b60008a8152602001908152602001600020600101600b60008b8152602001908152602001600020600201600b60008c8152602001908152602001600020600301600b60008d8152602001908152602001600020600401600b60008e8152602001908152602001600020600501600b60008f81526020019081526020016000206006015485805480602002602001604051908101604052809291908181526020018280548015611e5657602002820191906000526020600020905b8160009054906101000a900473ffffffffffffffffffffffffffffffffffffffff1673ffffffffffffffffffffffffffffffffffffffff1681526020019060010190808311611e0c575b50505050509550848054611e69906147c2565b80601f0160208091040260200160405190810160405280929190818152602001828054611e95906147c2565b8015611ee25780601f10611eb757610100808354040283529160200191611ee2565b820191906000526020600020905b815481529060010190602001808311611ec557829003601f168201915b50505050509450838054611ef5906147c2565b80601f0160208091040260200160405190810160405280929190818152602001828054611f21906147c2565b8015611f6e5780601f10611f4357610100808354040283529160200191611f6e565b820191906000526020600020905b815481529060010190602001808311611f5157829003601f168201915b50505050509350828054611f81906147c2565b80601f0160208091040260200160405190810160405280929190818152602001828054611fad906147c2565b8015611ffa5780601f10611fcf57610100808354040283529160200191611ffa565b820191906000526020600020905b815481529060010190602001808311611fdd57829003601f168201915b5050505050925081805461200d906147c2565b80601f0160208091040260200160405190810160405280929190818152602001828054612039906147c2565b80156120865780601f1061205b57610100808354040283529160200191612086565b820191906000526020600020905b81548152906001019060200180831161206957829003601f168201915b505050505091509650965096509650965096509650919395979092949650565b60008251116120ea576040517f08c379a00000000000000000000000000000000000000000000000000000000081526004016120e1906150ac565b60405180910390fd5b60005b82518110156121bf5761211b338385848151811061210e5761210d614f33565b5b6020026020010151611121565b600b600084838151811061213257612131614f33565b5b60200260200101518152602001908152602001600020600101829080600181540180825580915050600190039060005260206000200160009091909190916101000a81548173ffffffffffffffffffffffffffffffffffffffff021916908373ffffffffffffffffffffffffffffffffffffffff16021790555080806121b7906150cc565b9150506120ed565b505050565b60007f7965db0b000000000000000000000000000000000000000000000000000000007bffffffffffffffffffffffffffffffffffffffffffffffffffffffff1916827bffffffffffffffffffffffffffffffffffffffffffffffffffffffff19161480612237575061223682612e3b565b5b9050919050565b61224781612eb5565b612286576040517f08c379a000000000000000000000000000000000000000000000000000000000815260040161227d90614fae565b60405180910390fd5b50565b600033905090565b816004600083815260200190815260200160002060006101000a81548173ffffffffffffffffffffffffffffffffffffffff021916908373ffffffffffffffffffffffffffffffffffffffff160217905550808273ffffffffffffffffffffffffffffffffffffffff1661230483611274565b73ffffffffffffffffffffffffffffffffffffffff167f8c5be1e5ebec7d5bd14f71427d1e84f3dd0314c0f7b2291e5b200ac8c7c3b92560405160405180910390a45050565b60008061235683611274565b90508073ffffffffffffffffffffffffffffffffffffffff168473ffffffffffffffffffffffffffffffffffffffff16148061239857506123978185611c41565b5b806123d657508373ffffffffffffffffffffffffffffffffffffffff166123be84610974565b73ffffffffffffffffffffffffffffffffffffffff16145b91505092915050565b8273ffffffffffffffffffffffffffffffffffffffff166123ff82611274565b73ffffffffffffffffffffffffffffffffffffffff1614612455576040517f08c379a000000000000000000000000000000000000000000000000000000000815260040161244c90615471565b60405180910390fd5b600073ffffffffffffffffffffffffffffffffffffffff168273ffffffffffffffffffffffffffffffffffffffff16036124c4576040517f08c379a00000000000000000000000000000000000000000000000000000000081526004016124bb90615503565b60405180910390fd5b6124d18383836001612ef6565b8273ffffffffffffffffffffffffffffffffffffffff166124f182611274565b73ffffffffffffffffffffffffffffffffffffffff1614612547576040517f08c379a000000000000000000000000000000000000000000000000000000000815260040161253e90615471565b60405180910390fd5b6004600082815260200190815260200160002060006101000a81549073ffffffffffffffffffffffffffffffffffffffff02191690556001600360008573ffffffffffffffffffffffffffffffffffffffff1673ffffffffffffffffffffffffffffffffffffffff168152602001908152602001600020600082825403925050819055506001600360008473ffffffffffffffffffffffffffffffffffffffff1673ffffffffffffffffffffffffffffffffffffffff16815260200190815260200160002060008282540192505081905550816002600083815260200190815260200160002060006101000a81548173ffffffffffffffffffffffffffffffffffffffff021916908373ffffffffffffffffffffffffffffffffffffffff160217905550808273ffffffffffffffffffffffffffffffffffffffff168473ffffffffffffffffffffffffffffffffffffffff167fddf252ad1be2c89b69c2b068fc378daa952ba7f163c4a11628f55a4df523b3ef60405160405180910390a46126d38383836001613054565b505050565b6126e9816126e4612289565b612b09565b50565b6126f682826117ac565b6127c9576001600a600084815260200190815260200160002060000160008373ffffffffffffffffffffffffffffffffffffffff1673ffffffffffffffffffffffffffffffffffffffff16815260200190815260200160002060006101000a81548160ff02191690831515021790555061276e612289565b73ffffffffffffffffffffffffffffffffffffffff168173ffffffffffffffffffffffffffffffffffffffff16837f2f8788117e7eff1d82e926ec794901d17c78024a50270940304540a733656f0d60405160405180910390a45b5050565b6127d782826117ac565b156128ab576000600a600084815260200190815260200160002060000160008373ffffffffffffffffffffffffffffffffffffffff1673ffffffffffffffffffffffffffffffffffffffff16815260200190815260200160002060006101000a81548160ff021916908315150217905550612850612289565b73ffffffffffffffffffffffffffffffffffffffff168173ffffffffffffffffffffffffffffffffffffffff16837ff6391f5c32d9c69d2a47ea670b442974b53935d1edc7fd64eb21e047a839171b60405160405180910390a45b5050565b600073ffffffffffffffffffffffffffffffffffffffff168273ffffffffffffffffffffffffffffffffffffffff160361291e576040517f08c379a00000000000000000000000000000000000000000000000000000000081526004016129159061556f565b60405180910390fd5b61292781612eb5565b15612967576040517f08c379a000000000000000000000000000000000000000000000000000000000815260040161295e906155db565b60405180910390fd5b612975600083836001612ef6565b61297e81612eb5565b156129be576040517f08c379a00000000000000000000000000000000000000000000000000000000081526004016129b5906155db565b60405180910390fd5b6001600360008473ffffffffffffffffffffffffffffffffffffffff1673ffffffffffffffffffffffffffffffffffffffff16815260200190815260200160002060008282540192505081905550816002600083815260200190815260200160002060006101000a81548173ffffffffffffffffffffffffffffffffffffffff021916908373ffffffffffffffffffffffffffffffffffffffff160217905550808273ffffffffffffffffffffffffffffffffffffffff16600073ffffffffffffffffffffffffffffffffffffffff167fddf252ad1be2c89b69c2b068fc378daa952ba7f163c4a11628f55a4df523b3ef60405160405180910390a4612ac8600083836001613054565b5050565b60006002600083815260200190815260200160002060009054906101000a900473ffffffffffffffffffffffffffffffffffffffff169050919050565b612b1382826117ac565b612b8a57612b208161305a565b612b2e8360001c6020613087565b604051602001612b3f929190615693565b6040516020818303038152906040526040517f08c379a0000000000000000000000000000000000000000000000000000000008152600401612b819190613d3e565b60405180910390fd5b5050565b8173ffffffffffffffffffffffffffffffffffffffff168373ffffffffffffffffffffffffffffffffffffffff1603612bfc576040517f08c379a0000000000000000000000000000000000000000000000000000000008152600401612bf390615719565b60405180910390fd5b80600560008573ffffffffffffffffffffffffffffffffffffffff1673ffffffffffffffffffffffffffffffffffffffff16815260200190815260200160002060008473ffffffffffffffffffffffffffffffffffffffff1673ffffffffffffffffffffffffffffffffffffffff16815260200190815260200160002060006101000a81548160ff0219169083151502179055508173ffffffffffffffffffffffffffffffffffffffff168373ffffffffffffffffffffffffffffffffffffffff167f17307eab39ab6107e8899845ad3d59bd9653f200f220920489ca2b5937696c3183604051612ced9190613c93565b60405180910390a3505050565b612d058484846123df565b612d11848484846132c3565b612d50576040517f08c379a0000000000000000000000000000000000000000000000000000000008152600401612d47906157ab565b60405180910390fd5b50505050565b606060405180602001604052806000815250905090565b606060006001612d7c8461344a565b01905060008167ffffffffffffffff811115612d9b57612d9a61404c565b5b6040519080825280601f01601f191660200182016040528015612dcd5781602001600182028036833780820191505090505b509050600082602001820190505b600115612e30578080600190039150507f3031323334353637383961626364656600000000000000000000000000000000600a86061a8153600a8581612e2457612e236157cb565b5b04945060008503612ddb575b819350505050919050565b60007f780e9d63000000000000000000000000000000000000000000000000000000007bffffffffffffffffffffffffffffffffffffffffffffffffffffffff1916827bffffffffffffffffffffffffffffffffffffffffffffffffffffffff19161480612eae5750612ead8261359d565b5b9050919050565b60008073ffffffffffffffffffffffffffffffffffffffff16612ed783612acc565b73ffffffffffffffffffffffffffffffffffffffff1614159050919050565b612f028484848461367f565b6001811115612f46576040517f08c379a0000000000000000000000000000000000000000000000000000000008152600401612f3d9061586c565b60405180910390fd5b6000829050600073ffffffffffffffffffffffffffffffffffffffff168573ffffffffffffffffffffffffffffffffffffffff1603612f8d57612f88816137a5565b612fcc565b8373ffffffffffffffffffffffffffffffffffffffff168573ffffffffffffffffffffffffffffffffffffffff1614612fcb57612fca85826137ee565b5b5b600073ffffffffffffffffffffffffffffffffffffffff168473ffffffffffffffffffffffffffffffffffffffff160361300e576130098161395b565b61304d565b8473ffffffffffffffffffffffffffffffffffffffff168473ffffffffffffffffffffffffffffffffffffffff161461304c5761304b8482613a2c565b5b5b5050505050565b50505050565b60606130808273ffffffffffffffffffffffffffffffffffffffff16601460ff16613087565b9050919050565b60606000600283600261309a919061588c565b6130a49190614a6a565b67ffffffffffffffff8111156130bd576130bc61404c565b5b6040519080825280601f01601f1916602001820160405280156130ef5781602001600182028036833780820191505090505b5090507f30000000000000000000000000000000000000000000000000000000000000008160008151811061312757613126614f33565b5b60200101907effffffffffffffffffffffffffffffffffffffffffffffffffffffffffffff1916908160001a9053507f78000000000000000000000000000000000000000000000000000000000000008160018151811061318b5761318a614f33565b5b60200101907effffffffffffffffffffffffffffffffffffffffffffffffffffffffffffff1916908160001a905350600060018460026131cb919061588c565b6131d59190614a6a565b90505b6001811115613275577f3031323334353637383961626364656600000000000000000000000000000000600f86166010811061321757613216614f33565b5b1a60f81b82828151811061322e5761322d614f33565b5b60200101907effffffffffffffffffffffffffffffffffffffffffffffffffffffffffffff1916908160001a905350600485901c94508061326e906158ce565b90506131d8565b50600084146132b9576040517f08c379a00000000000000000000000000000000000000000000000000000000081526004016132b090615943565b60405180910390fd5b8091505092915050565b60006132e48473ffffffffffffffffffffffffffffffffffffffff16613aab565b1561343d578373ffffffffffffffffffffffffffffffffffffffff1663150b7a0261330d612289565b8786866040518563ffffffff1660e01b815260040161332f94939291906159b8565b6020604051808303816000875af192505050801561336b57506040513d601f19601f820116820180604052508101906133689190615a19565b60015b6133ed573d806000811461339b576040519150601f19603f3d011682016040523d82523d6000602084013e6133a0565b606091505b5060008151036133e5576040517f08c379a00000000000000000000000000000000000000000000000000000000081526004016133dc906157ab565b60405180910390fd5b805181602001fd5b63150b7a0260e01b7bffffffffffffffffffffffffffffffffffffffffffffffffffffffff1916817bffffffffffffffffffffffffffffffffffffffffffffffffffffffff191614915050613442565b600190505b949350505050565b600080600090507a184f03e93ff9f4daa797ed6e38ed64bf6a1f01000000000000000083106134a8577a184f03e93ff9f4daa797ed6e38ed64bf6a1f010000000000000000838161349e5761349d6157cb565b5b0492506040810190505b6d04ee2d6d415b85acef810000000083106134e5576d04ee2d6d415b85acef810000000083816134db576134da6157cb565b5b0492506020810190505b662386f26fc10000831061351457662386f26fc10000838161350a576135096157cb565b5b0492506010810190505b6305f5e100831061353d576305f5e1008381613533576135326157cb565b5b0492506008810190505b6127108310613562576127108381613558576135576157cb565b5b0492506004810190505b60648310613585576064838161357b5761357a6157cb565b5b0492506002810190505b600a8310613594576001810190505b80915050919050565b60007f80ac58cd000000000000000000000000000000000000000000000000000000007bffffffffffffffffffffffffffffffffffffffffffffffffffffffff1916827bffffffffffffffffffffffffffffffffffffffffffffffffffffffff1916148061366857507f5b5e139f000000000000000000000000000000000000000000000000000000007bffffffffffffffffffffffffffffffffffffffffffffffffffffffff1916827bffffffffffffffffffffffffffffffffffffffffffffffffffffffff1916145b80613678575061367782613ace565b5b9050919050565b600181111561379f57600073ffffffffffffffffffffffffffffffffffffffff168473ffffffffffffffffffffffffffffffffffffffff16146137135780600360008673ffffffffffffffffffffffffffffffffffffffff1673ffffffffffffffffffffffffffffffffffffffff168152602001908152602001600020600082825461370b9190615114565b925050819055505b600073ffffffffffffffffffffffffffffffffffffffff168373ffffffffffffffffffffffffffffffffffffffff161461379e5780600360008573ffffffffffffffffffffffffffffffffffffffff1673ffffffffffffffffffffffffffffffffffffffff16815260200190815260200160002060008282546137969190614a6a565b925050819055505b5b50505050565b6008805490506009600083815260200190815260200160002081905550600881908060018154018082558091505060019003906000526020600020016000909190919091505550565b600060016137fb8461132b565b6138059190615114565b90506000600760008481526020019081526020016000205490508181146138ea576000600660008673ffffffffffffffffffffffffffffffffffffffff1673ffffffffffffffffffffffffffffffffffffffff168152602001908152602001600020600084815260200190815260200160002054905080600660008773ffffffffffffffffffffffffffffffffffffffff1673ffffffffffffffffffffffffffffffffffffffff168152602001908152602001600020600084815260200190815260200160002081905550816007600083815260200190815260200160002081905550505b6007600084815260200190815260200160002060009055600660008573ffffffffffffffffffffffffffffffffffffffff1673ffffffffffffffffffffffffffffffffffffffff16815260200190815260200160002060008381526020019081526020016000206000905550505050565b6000600160088054905061396f9190615114565b905060006009600084815260200190815260200160002054905060006008838154811061399f5761399e614f33565b5b9060005260206000200154905080600883815481106139c1576139c0614f33565b5b906000526020600020018190555081600960008381526020019081526020016000208190555060096000858152602001908152602001600020600090556008805480613a1057613a0f615a46565b5b6001900381819060005260206000200160009055905550505050565b6000613a378361132b565b905081600660008573ffffffffffffffffffffffffffffffffffffffff1673ffffffffffffffffffffffffffffffffffffffff168152602001908152602001600020600083815260200190815260200160002081905550806007600084815260200190815260200160002081905550505050565b6000808273ffffffffffffffffffffffffffffffffffffffff163b119050919050565b60007f01ffc9a7000000000000000000000000000000000000000000000000000000007bffffffffffffffffffffffffffffffffffffffffffffffffffffffff1916827bffffffffffffffffffffffffffffffffffffffffffffffffffffffff1916149050919050565b828054828255906000526020600020908101928215613bb1579160200282015b82811115613bb05782518260006101000a81548173ffffffffffffffffffffffffffffffffffffffff021916908373ffffffffffffffffffffffffffffffffffffffff16021790555091602001919060010190613b58565b5b509050613bbe9190613bc2565b5090565b5b80821115613bdb576000816000905550600101613bc3565b5090565b6000604051905090565b600080fd5b600080fd5b60007fffffffff0000000000000000000000000000000000000000000000000000000082169050919050565b613c2881613bf3565b8114613c3357600080fd5b50565b600081359050613c4581613c1f565b92915050565b600060208284031215613c6157613c60613be9565b5b6000613c6f84828501613c36565b91505092915050565b60008115159050919050565b613c8d81613c78565b82525050565b6000602082019050613ca86000830184613c84565b92915050565b600081519050919050565b600082825260208201905092915050565b60005b83811015613ce8578082015181840152602081019050613ccd565b60008484015250505050565b6000601f19601f8301169050919050565b6000613d1082613cae565b613d1a8185613cb9565b9350613d2a818560208601613cca565b613d3381613cf4565b840191505092915050565b60006020820190508181036000830152613d588184613d05565b905092915050565b6000819050919050565b613d7381613d60565b8114613d7e57600080fd5b50565b600081359050613d9081613d6a565b92915050565b600060208284031215613dac57613dab613be9565b5b6000613dba84828501613d81565b91505092915050565b600073ffffffffffffffffffffffffffffffffffffffff82169050919050565b6000613dee82613dc3565b9050919050565b613dfe81613de3565b82525050565b6000602082019050613e196000830184613df5565b92915050565b613e2881613de3565b8114613e3357600080fd5b50565b600081359050613e4581613e1f565b92915050565b60008060408385031215613e6257613e61613be9565b5b6000613e7085828601613e36565b9250506020613e8185828601613d81565b9150509250929050565b613e9481613d60565b82525050565b6000602082019050613eaf6000830184613e8b565b92915050565b600080600060608486031215613ece57613ecd613be9565b5b6000613edc86828701613e36565b9350506020613eed86828701613e36565b9250506040613efe86828701613d81565b9150509250925092565b6000819050919050565b613f1b81613f08565b8114613f2657600080fd5b50565b600081359050613f3881613f12565b92915050565b600060208284031215613f5457613f53613be9565b5b6000613f6284828501613f29565b91505092915050565b613f7481613f08565b82525050565b6000602082019050613f8f6000830184613f6b565b92915050565b600060208284031215613fab57613faa613be9565b5b6000613fb984828501613e36565b91505092915050565b60008060408385031215613fd957613fd8613be9565b5b6000613fe785828601613d81565b9250506020613ff885828601613e36565b9150509250929050565b6000806040838503121561401957614018613be9565b5b600061402785828601613f29565b925050602061403885828601613e36565b9150509250929050565b600080fd5b600080fd5b7f4e487b7100000000000000000000000000000000000000000000000000000000600052604160045260246000fd5b61408482613cf4565b810181811067ffffffffffffffff821117156140a3576140a261404c565b5b80604052505050565b60006140b6613bdf565b90506140c2828261407b565b919050565b600067ffffffffffffffff8211156140e2576140e161404c565b5b6140eb82613cf4565b9050602081019050919050565b82818337600083830152505050565b600061411a614115846140c7565b6140ac565b90508281526020810184848401111561413657614135614047565b5b6141418482856140f8565b509392505050565b600082601f83011261415e5761415d614042565b5b813561416e848260208601614107565b91505092915050565b6000806000806080858703121561419157614190613be9565b5b600085013567ffffffffffffffff8111156141af576141ae613bee565b5b6141bb87828801614149565b945050602085013567ffffffffffffffff8111156141dc576141db613bee565b5b6141e887828801614149565b935050604085013567ffffffffffffffff81111561420957614208613bee565b5b61421587828801614149565b925050606061422687828801613e36565b91505092959194509250565b60006020828403121561424857614247613be9565b5b600082013567ffffffffffffffff81111561426657614265613bee565b5b61427284828501614149565b91505092915050565b600067ffffffffffffffff8211156142965761429561404c565b5b602082029050602081019050919050565b600080fd5b60006142bf6142ba8461427b565b6140ac565b905080838252602082019050602084028301858111156142e2576142e16142a7565b5b835b8181101561430b57806142f78882613d81565b8452602084019350506020810190506142e4565b5050509392505050565b600082601f83011261432a57614329614042565b5b813561433a8482602086016142ac565b91505092915050565b60006020828403121561435957614358613be9565b5b600082013567ffffffffffffffff81111561437757614376613bee565b5b61438384828501614315565b91505092915050565b600060e0820190506143a1600083018a613e8b565b81810360208301526143b38189613d05565b905081810360408301526143c78188613d05565b905081810360608301526143db8187613d05565b905081810360808301526143ef8186613d05565b90506143fe60a0830185613e8b565b61440b60c0830184613c84565b98975050505050505050565b61442081613c78565b811461442b57600080fd5b50565b60008135905061443d81614417565b92915050565b6000806040838503121561445a57614459613be9565b5b600061446885828601613e36565b92505060206144798582860161442e565b9150509250929050565b600067ffffffffffffffff82111561449e5761449d61404c565b5b6144a782613cf4565b9050602081019050919050565b60006144c76144c284614483565b6140ac565b9050828152602081018484840111156144e3576144e2614047565b5b6144ee8482856140f8565b509392505050565b600082601f83011261450b5761450a614042565b5b813561451b8482602086016144b4565b91505092915050565b6000806000806080858703121561453e5761453d613be9565b5b600061454c87828801613e36565b945050602061455d87828801613e36565b935050604061456e87828801613d81565b925050606085013567ffffffffffffffff81111561458f5761458e613bee565b5b61459b878288016144f6565b91505092959194509250565b600080604083850312156145be576145bd613be9565b5b60006145cc85828601613e36565b92505060206145dd85828601613e36565b9150509250929050565b600081519050919050565b600082825260208201905092915050565b6000819050602082019050919050565b61461c81613de3565b82525050565b600061462e8383614613565b60208301905092915050565b6000602082019050919050565b6000614652826145e7565b61465c81856145f2565b935061466783614603565b8060005b8381101561469857815161467f8882614622565b975061468a8361463a565b92505060018101905061466b565b5085935050505092915050565b600060e0820190506146ba600083018a613e8b565b81810360208301526146cc8189614647565b905081810360408301526146e08188613d05565b905081810360608301526146f48187613d05565b905081810360808301526147088186613d05565b905081810360a083015261471c8185613d05565b905061472b60c0830184613e8b565b98975050505050505050565b6000806040838503121561474e5761474d613be9565b5b600083013567ffffffffffffffff81111561476c5761476b613bee565b5b61477885828601614315565b925050602061478985828601613e36565b9150509250929050565b7f4e487b7100000000000000000000000000000000000000000000000000000000600052602260045260246000fd5b600060028204905060018216806147da57607f821691505b6020821081036147ed576147ec614793565b5b50919050565b7f4552433732313a20617070726f76616c20746f2063757272656e74206f776e6560008201527f7200000000000000000000000000000000000000000000000000000000000000602082015250565b600061484f602183613cb9565b915061485a826147f3565b604082019050919050565b6000602082019050818103600083015261487e81614842565b9050919050565b7f4552433732313a20617070726f76652063616c6c6572206973206e6f7420746f60008201527f6b656e206f776e6572206f7220617070726f76656420666f7220616c6c000000602082015250565b60006148e1603d83613cb9565b91506148ec82614885565b604082019050919050565b60006020820190508181036000830152614910816148d4565b9050919050565b7f4552433732313a2063616c6c6572206973206e6f7420746f6b656e206f776e6560008201527f72206f7220617070726f76656400000000000000000000000000000000000000602082015250565b6000614973602d83613cb9565b915061497e82614917565b604082019050919050565b600060208201905081810360008301526149a281614966565b9050919050565b7f455243373231456e756d657261626c653a206f776e657220696e646578206f7560008201527f74206f6620626f756e6473000000000000000000000000000000000000000000602082015250565b6000614a05602b83613cb9565b9150614a10826149a9565b604082019050919050565b60006020820190508181036000830152614a34816149f8565b9050919050565b7f4e487b7100000000000000000000000000000000000000000000000000000000600052601160045260246000fd5b6000614a7582613d60565b9150614a8083613d60565b9250828201905080821115614a9857614a97614a3b565b5b92915050565b60008190508160005260206000209050919050565b60006020601f8301049050919050565b600082821b905092915050565b600060088302614b007fffffffffffffffffffffffffffffffffffffffffffffffffffffffffffffffff82614ac3565b614b0a8683614ac3565b95508019841693508086168417925050509392505050565b6000819050919050565b6000614b47614b42614b3d84613d60565b614b22565b613d60565b9050919050565b6000819050919050565b614b6183614b2c565b614b75614b6d82614b4e565b848454614ad0565b825550505050565b600090565b614b8a614b7d565b614b95818484614b58565b505050565b5b81811015614bb957614bae600082614b82565b600181019050614b9b565b5050565b601f821115614bfe57614bcf81614a9e565b614bd884614ab3565b81016020851015614be7578190505b614bfb614bf385614ab3565b830182614b9a565b50505b505050565b600082821c905092915050565b6000614c2160001984600802614c03565b1980831691505092915050565b6000614c3a8383614c10565b9150826002028217905092915050565b614c5382613cae565b67ffffffffffffffff811115614c6c57614c6b61404c565b5b614c7682546147c2565b614c81828285614bbd565b600060209050601f831160018114614cb45760008415614ca2578287015190505b614cac8582614c2e565b865550614d14565b601f198416614cc286614a9e565b60005b82811015614cea57848901518255600182019150602085019450602081019050614cc5565b86831015614d075784890151614d03601f891682614c10565b8355505b6001600288020188555050505b505050505050565b60008154614d29816147c2565b614d338186613cb9565b94506001821660008114614d4e5760018114614d6457614d97565b60ff198316865281151560200286019350614d97565b614d6d85614a9e565b60005b83811015614d8f57815481890152600182019150602081019050614d70565b808801955050505b50505092915050565b600060a0820190508181036000830152614dba8188614d1c565b90508181036020830152614dce8187613d05565b90508181036040830152614de28186613d05565b90508181036060830152614df68185613d05565b9050614e056080830184613e8b565b9695505050505050565b7f416363657373436f6e74726f6c3a2063616e206f6e6c792072656e6f756e636560008201527f20726f6c657320666f722073656c660000000000000000000000000000000000602082015250565b6000614e6b602f83613cb9565b9150614e7682614e0f565b604082019050919050565b60006020820190508181036000830152614e9a81614e5e565b9050919050565b7f455243373231456e756d657261626c653a20676c6f62616c20696e646578206f60008201527f7574206f6620626f756e64730000000000000000000000000000000000000000602082015250565b6000614efd602c83613cb9565b9150614f0882614ea1565b604082019050919050565b60006020820190508181036000830152614f2c81614ef0565b9050919050565b7f4e487b7100000000000000000000000000000000000000000000000000000000600052603260045260246000fd5b7f4552433732313a20696e76616c696420746f6b656e2049440000000000000000600082015250565b6000614f98601883613cb9565b9150614fa382614f62565b602082019050919050565b60006020820190508181036000830152614fc781614f8b565b9050919050565b7f4552433732313a2061646472657373207a65726f206973206e6f74206120766160008201527f6c6964206f776e65720000000000000000000000000000000000000000000000602082015250565b600061502a602983613cb9565b915061503582614fce565b604082019050919050565b600060208201905081810360008301526150598161501d565b9050919050565b7f4e6f7468696e6720656e74657265642e00000000000000000000000000000000600082015250565b6000615096601083613cb9565b91506150a182615060565b602082019050919050565b600060208201905081810360008301526150c581615089565b9050919050565b60006150d782613d60565b91507fffffffffffffffffffffffffffffffffffffffffffffffffffffffffffffffff820361510957615108614a3b565b5b600182019050919050565b600061511f82613d60565b915061512a83613d60565b925082820390508181111561514257615141614a3b565b5b92915050565b7f596f75206861766520746f206f776e6564206120746f6b656e21000000000000600082015250565b600061517e601a83613cb9565b915061518982615148565b602082019050919050565b600060208201905081810360008301526151ad81615171565b9050919050565b7f416c726561647920757365642e00000000000000000000000000000000000000600082015250565b60006151ea600d83613cb9565b91506151f5826151b4565b602082019050919050565b60006020820190508181036000830152615219816151dd565b9050919050565b60008154905061522f816147c2565b9050919050565b60008190508160005260206000209050919050565b818103615259575050615331565b61526282615220565b67ffffffffffffffff81111561527b5761527a61404c565b5b61528582546147c2565b615290828285614bbd565b6000601f8311600181146152bf57600084156152ad578287015490505b6152b78582614c2e565b86555061532a565b601f1984166152cd87615236565b96506152d886614a9e565b60005b82811015615300578489015482556001820191506001850194506020810190506152db565b8683101561531d5784890154615319601f891682614c10565b8355505b6001600288020188555050505b5050505050505b565b600081905092915050565b600061534982613cae565b6153538185615333565b9350615363818560208601613cca565b80840191505092915050565b600061537b828561533e565b9150615387828461533e565b91508190509392505050565b7f426c6f6f6420646f6573206e6f74206578697374000000000000000000000000600082015250565b60006153c9601483613cb9565b91506153d482615393565b602082019050919050565b600060208201905081810360008301526153f8816153bc565b9050919050565b7f4552433732313a207472616e736665722066726f6d20696e636f72726563742060008201527f6f776e6572000000000000000000000000000000000000000000000000000000602082015250565b600061545b602583613cb9565b9150615466826153ff565b604082019050919050565b6000602082019050818103600083015261548a8161544e565b9050919050565b7f4552433732313a207472616e7366657220746f20746865207a65726f2061646460008201527f7265737300000000000000000000000000000000000000000000000000000000602082015250565b60006154ed602483613cb9565b91506154f882615491565b604082019050919050565b6000602082019050818103600083015261551c816154e0565b9050919050565b7f4552433732313a206d696e7420746f20746865207a65726f2061646472657373600082015250565b6000615559602083613cb9565b915061556482615523565b602082019050919050565b600060208201905081810360008301526155888161554c565b9050919050565b7f4552433732313a20746f6b656e20616c7265616479206d696e74656400000000600082015250565b60006155c5601c83613cb9565b91506155d08261558f565b602082019050919050565b600060208201905081810360008301526155f4816155b8565b9050919050565b7f416363657373436f6e74726f6c3a206163636f756e7420000000000000000000600082015250565b6000615631601783615333565b915061563c826155fb565b601782019050919050565b7f206973206d697373696e6720726f6c6520000000000000000000000000000000600082015250565b600061567d601183615333565b915061568882615647565b601182019050919050565b600061569e82615624565b91506156aa828561533e565b91506156b582615670565b91506156c1828461533e565b91508190509392505050565b7f4552433732313a20617070726f766520746f2063616c6c657200000000000000600082015250565b6000615703601983613cb9565b915061570e826156cd565b602082019050919050565b60006020820190508181036000830152615732816156f6565b9050919050565b7f4552433732313a207472616e7366657220746f206e6f6e20455243373231526560008201527f63656976657220696d706c656d656e7465720000000000000000000000000000602082015250565b6000615795603283613cb9565b91506157a082615739565b604082019050919050565b600060208201905081810360008301526157c481615788565b9050919050565b7f4e487b7100000000000000000000000000000000000000000000000000000000600052601260045260246000fd5b7f455243373231456e756d657261626c653a20636f6e736563757469766520747260008201527f616e7366657273206e6f7420737570706f727465640000000000000000000000602082015250565b6000615856603583613cb9565b9150615861826157fa565b604082019050919050565b6000602082019050818103600083015261588581615849565b9050919050565b600061589782613d60565b91506158a283613d60565b92508282026158b081613d60565b915082820484148315176158c7576158c6614a3b565b5b5092915050565b60006158d982613d60565b9150600082036158ec576158eb614a3b565b5b600182039050919050565b7f537472696e67733a20686578206c656e67746820696e73756666696369656e74600082015250565b600061592d602083613cb9565b9150615938826158f7565b602082019050919050565b6000602082019050818103600083015261595c81615920565b9050919050565b600081519050919050565b600082825260208201905092915050565b600061598a82615963565b615994818561596e565b93506159a4818560208601613cca565b6159ad81613cf4565b840191505092915050565b60006080820190506159cd6000830187613df5565b6159da6020830186613df5565b6159e76040830185613e8b565b81810360608301526159f9818461597f565b905095945050505050565b600081519050615a1381613c1f565b92915050565b600060208284031215615a2f57615a2e613be9565b5b6000615a3d84828501615a04565b91505092915050565b7f4e487b7100000000000000000000000000000000000000000000000000000000600052603160045260246000fdfea26469706673582212207ebf7dc536cdf381abf6711b6863c58babe2b44781a4ed7e48818bd19d06c2e464736f6c63430008110033697066733a2f2f516d53683332644b75676f6f336539585876714b5a53366e44596232454d45425a4c4c7635546562675a36586445697066733a2f2f516d61786639746b455a555431386b336a526859646246437379627241737a34743936506b435a5a746742546f46",
  "linkReferences": {},
  "deployedLinkReferences": {}
}